:020000040800F2
:10000000F0040020010100089B1B000853120008A7
:10001000991B00086D010008351E00080000000053
:10002000000000000000000000000000BF1B0008EE
:100030006F01000800000000BD1B0008C11B000884
:100040001B0100081B0100081B0100081B01000820
:100050001B0100081B0100081B0100081B01000810
:100060001B0100081B0100081B0100081B01000800
:100070001B0100081B0100081B0100081B010008F0
:100080001B0100081B0100081B0100081B010008E0
:100090001B0100081B0100081B0100081B010008D0
:1000A0001B0100081B0100081B0100081B010008C0
:1000B0001B0100081B0100081B0100086112000859
:1000C000551200081B0100081B0100081B01000855
:1000D0001B0100081B0100081B0100081B01000890
:1000E0001B0100081B0100081B010008DFF80CD0F1
:1000F00000F02AF800480047A11E0008F004002084
:100100000648804706480047FEE7FEE7FEE7FEE7B1
:10011000FEE7FEE7FEE7FEE7FEE7FEE7191C000844
:10012000ED000008D2B201E000F8012B491EFBD21D
:1001300070470022F6E710B513460A4604461946F2
:10014000FFF7F0FF204610BD064C074D06E0E068C3
:1001500040F0010394E8070098471034AC42F6D30E
:10016000FFF7C8FF401F0008601F0008FEE7704748
:10017000064D4FF400544FF47A762146284600F09D
:1001800049F9304600F056F8F7E70000001001404A
:1001900001480078704700003800002010B590F842
:1001A00021100024022903D00421816301243DE0B1
:1001B00001680A6822F00E020A6001680A6822F0EB
:1001C00001020A601A4A0168914201D1012121E02D
:1001D000174A1432914201D110211BE0144A2832EF
:1001E000914201D1891515E0114A3C32914201D169
:1001F00089140FE00E4A5032914202D14FF48031FF
:1002000008E00B4A6432914202D14FF4801101E0C0
:100210004FF08071064A083A5160012180F82110A0
:10022000002180F82010416B01B18847204610BDA5
:100230000800024070B5044600F0F6F80546601C60
:1002400002D004480078044400F0EEF8401BA042BD
:10025000FAD370BD280000202DE9F84FDFF890A1F7
:1002600000220AF1040B144601274FF00F090BF18D
:10027000040E00BF0B6807FA04F52B40AB4274D1A3
:10028000DFF870C14E68A6EB0C0866452BD00DDC7C
:10029000032E34D005DC36B3012E19D0022E2FD117
:1002A0001BE0112E16D0122E2AD119E0B8F5881FA6
:1002B00019D006DCB8F5803F15D0B8F5801F1FD1E6
:1002C00011E0B8F5001F0ED0B8F5041F18D10AE0F0
:1002D000CA6815E0CA68121D12E0CA6808320FE049
:1002E000CA680C320CE08A682AB1012A4FF0080271
:1002F00003D0456104E0042202E0056100E0002231
:10030000FF2B01D8064601E000F104064FEA840500
:1003100001D9A5F12005D6F800C009FA05F82CEAA4
:10032000080C02FA05F54CEA050CC6F800C04D6849
:10033000ED0057D5304DAE6946F00106AE61AD69AE
:1003400024F0030605F0010500952C4D06EB050C85
:10035000DCF80850A6074FEA167809FA08F6B54304
:10036000274EB04202D1002610E03BE0254EB042BD
:1003700001D101260AE0244EB04201D1022605E057
:10038000224EB04201D1032600E0042606FA08F608
:100390002E43CCF808604D68DAF80060ED0355464E
:1003A00001D51E4300E09E432E604D68DBF80060DF
:1003B000AD035D4601D51E4300E09E432E604D68AF
:1003C000DEF80060ED02754601D51E4300E09E4355
:1003D0002E604D68AD020E4D2E6801D51E4300E023
:1003E0009E432E60641C102CFFF444AFBDE8F88FD0
:1003F0000004014000001110001002400000014004
:1004000000080140000C01400010014000140140B0
:100410000C040140C2684A40C26070470AB10161E1
:1004200070470904FBE7000001488068704700003E
:10043000280000207047000038B5044639B1012378
:1004400020220B4900F094FA38B1FFF791FE0823FF
:100450002022084900F0C5FAF6E720684169806962
:100460000090BDE83840012251030348FFF7D6BF92
:1004700038000020020000200010014070B5044642
:1004800000684569466830490D420DD0F1050BD52D
:10049000216C41F0010121646FF480714161206899
:1004A000016841F40041016015F4813F09D0F00575
:1004B00007D5206C40F00200206421686FF40070C2
:1004C000486115F4823F28D0F00526D594F83E30D7
:1004D000628D94F83D00216B202B08D13AB9212878
:1004E0000ED029280CD0282801D1212908D0206C31
:1004F00040F00400206494F83E00102804D008E086
:10050000204601F0EDF908E02068016841F400712F
:10051000016021686FF48060486115F4843F09D060
:10052000F00507D5206C40F00800206421686FF4C6
:1005300000604861206C002804D02046BDE870406F
:1005400000F0BCBE70BD0000000101002DE9F05FAD
:1005500002680446D2F818805569566890F83E0043
:100560006649DFF898A1DFF894B1DFF894918F1C09
:100570000AF17E0A0BF13E0B102812D0402810D051
:100580000D425BD0B00559D5936920460021DB436D
:100590005B0700D501219269D243120648D58289B2
:1005A00047E015F0011F05D0B00503D5204601F046
:1005B00024F910E05148801D054205D0B00503D54F
:1005C000606CC0B2106106E00D4204D0B00502D5E7
:1005D000204601F085F818EA090F14D015EA0A0F31
:1005E00008D0700506D53D4206D12046BDE8F05F33
:1005F00000F0F2BF3D421FD0B0051DD52046BDE83A
:10060000F05F00F0A8BF15EA0B0F08D0700506D503
:100610003D4206D12046BDE8F05F00F045BF3D42B7
:100620000AD0B00508D52046BDE8F05F00F0D8BE7E
:10063000028B92B2FFF700FFBDE8F09F2F480E300B
:10064000054206D0B00504D52046BDE8F05F01F0B4
:1006500089B918EA090F35D015EA0A0F24D07005B8
:1006600022D53D4222D194F83D202046618D0029BB
:10067000E2D0416A4B1C4362036809781961418DDD
:10068000491E4185418D0029D6D1292AD4D101683E
:100690004A6822F480624A6021210163282180F89F
:1006A0003D1000F05DF9C7E73D42C5D0B005C3D5A8
:1006B000608D0028C0D0606A411C616221680078AA
:1006C000086117E015EA0B0F08D0700506D53D420A
:1006D00006D12046BDE8F05F01F0BCB83D42ABD08A
:1006E000B005A9D5608D0028A6D01169606A421CAA
:1006F00062620170608D401E60859DE7020001000E
:100700000400100090F83D10202901D0022070470D
:10071000282180F83D1001680A68D20703D10A68D1
:1007200042F001020A6001680A6842F480620A60CD
:100730000068416841F44071416000207047704793
:1007400070B504001BD094F83D00002520B984F852
:100750003C50204600F0C4F8242084F83D00206876
:10076000016821F00101016000F0C0FA404A6168AF
:10077000914201D83F4900E03F49884201D201201F
:1007800070BD3E492368B0FBF1F159606368934244
:1007900006D94FF4967359434FF47A73B1FBF3F1D2
:1007A0002368491C19626168914210D84900401EB3
:1007B000B0FBF1F2521CC2F30B02042A01D2042056
:1007C00022E0B0FBF1F0401CC0F30B001CE0A3687A
:1007D000CBB301EBC10202EB0116421EB2FBF6F2F3
:1007E000521C42F48042120536D06BB301EBC102B9
:1007F00002EB0111401EB0FBF1F0401CC0F30B00F6
:1008000040F4804040F400402168C861D4E9070109
:10081000084321680860D4E9031008432168886010
:10082000D4E9050108432168C8602068016841F0E7
:10083000010101602564202084F83D00256384F8CF
:100840003E50002070BD00E008E001EB4106421E72
:10085000B2FBF6F2521CC6E70120D5E701EB4101DD
:10086000401EB0FBF1F0401CC0F30B00CAE70000D3
:10087000A086010080841E0000093D0040420F0058
:1008800010B5FFF73FFF08B1FFF772FC00224FF4ED
:1008900000510E48FFF7C2FD0D494FF0FF342346CB
:1008A000202201F1740000F077FC0948234602225F
:1008B0000849743000F070FC05481F215FF0000209
:1008C000491E00F8012B89B2FAD210BD0010014078
:1008D00038000020000000207047704770477047C4
:1008E00010B586B00021009101910291039100683A
:1008F0001349884222D1134CA06940F00800A0613E
:10090000A069694600F0080004904FF44070009020
:1009100012200190032003900B48FFF79DFC0B4829
:10092000416841F0E06141F002014160E06940F45A
:100930000010E061E06900F40010049006B010BD02
:100940000054004000100240000C01400000014033
:10095000012251030148FFF761BD00000010014072
:1009600000224FF400510148FFF758BD001001402C
:1009700038B590F83D40282C31D161B15AB190F88A
:100980003C40012C2BD0012480F83C4004682568B1
:10099000ED0702D005E0012038BD256845F00105CE
:1009A00025600468256825F4006525602A2480F800
:1009B0003D40202480F83E4000240464416242858A
:1009C000C362418D018501684A698A69009280F895
:1009D0003C40486840F4E0604860204638BD022052
:1009E00038BD38B590F83D40282C31D161B15AB1AD
:1009F00090F83C40012C2BD0012480F83C40046846
:100A00002568ED0702D005E0012038BD256845F0D6
:100A1000010525600468256825F400652560292402
:100A200080F83D40202480F83E4000240464416268
:100A30004285C362418D018501684A698A690092D5
:100A400080F83C40486840F4E0604860204638BD8B
:100A5000022038BD024881680278114481607047E5
:100A600028000020074810B5016841F0100101601E
:100A7000032000F073F8002000F006F800F024F8DE
:100A8000002010BD0020024070B50D4D04464FF40B
:100A90007A712878B1FBF0F00A490968B1FBF0F0EF
:100AA00000F0FCFA48B9102C07D200222146501E53
:100AB00000F034F800206C6070BD012070BD0000B3
:100AC00028000020340000200C4808B5816941F05E
:100AD00001018161816901F001010091C16941F069
:100AE0008051C161C06900F08050009004484168A5
:100AF00021F0E06141F00071416008BD001002404A
:100B00000000014000F01F020121914040098000D7
:100B100000F1E020C0F8001170470000F0B40E4B67
:100B20001B680C46C3F30223C3F10705042D00D94B
:100B30000425191D072901D2002300E0DB1E012630
:100B400006FA05F1491E214099409E40761E164046
:100B50003143F0BC01F022B80CED00E0064900F092
:100B6000070208684FF6FF03184040EA0220034AD4
:100B700010430860704700000CED00E00000FA052B
:100B80002DE9F047DFF8548105460E46D8F80000FD
:100B900000F00700B0420CD2D8F8001021F0070195
:100BA0003143C8F80010D8F8000000F00700B04248
:100BB0006FD128684A4C810712D5400703D5606879
:100BC00040F4E06060602878000703D5606840F476
:100BD000605060606068A96820F0F00008436060C1
:100BE0002878C00744D06868012816D021680228F8
:100BF00016D0890700294CDA616821F0030101430E
:100C00006160FFF711FC6968074641F288300129ED
:100C10000ED00229814618D026E021688903E9E731
:100C20008901E7E7FFF700FCC11B494501D918E03E
:100C300081466068C0F381000128F3D118E000BF4D
:100C4000FFF7F2FBC11B49450BD86068C0F3810078
:100C50000228F5D10CE000BFFFF7E6FBC11B4945B8
:100C600002D90320BDE8F087606810F00C0FF3D1C3
:100C7000D8F80010404601F00701B1420BD90168D5
:100C800021F0070131430160006800F00700B04225
:100C900001D00120E6E72878400705D56068E968BB
:100CA00020F4E060084360602878000706D560689B
:100CB000296920F4605040EAC100606000F036F815
:100CC0006168084AC1F30311515CC84006490860D5
:100CD0000020FFF7D9FE0020C4E7000000200240FA
:100CE00000100240281F0008340000200448054975
:100CF00000684968044AC1F30221515CC84070474A
:100D00003400002000100240381F00080448054944
:100D100000684968044AC1F3C221515CC840704769
:100D20003400002000100240381F000812A185B0D6
:100D30000FC98DE80F0014A0144A00680490516890
:100D4000134801F00C03042B10D0082B0ED1C1F373
:100D50008343C9031DF803000AD5516804AAC1F3EF
:100D60004041515C0A4A5043B0FBF1F005B0704776
:100D700008494843FAE7000002030405060708098A
:100D80000A0B0C0D0E0F10100102000000100240A3
:100D900000127A0000093D002DE9F84F0446007862
:100DA000B94DC00748D06868C0F38100012807D05A
:100DB0006868C0F38100022809D16868C00306D5BD
:100DC0002868800338D5606800286FD034E06068F8
:100DD000B0F5803F0BD010B1B0F5A02F11D028682E
:100DE00020F480302860286820F4802002E0286801
:100DF00040F480302860606888B1FFF715FB064634
:100E000009E0286840F480202860F0E7FFF70CFB39
:100E1000801B642875D828688003F7D50CE0FFF79D
:100E200003FB064605E000BFFFF7FEFA801B6428BF
:100E3000F0D828688003F7D42078944E80074FF0CC
:100E400001094FF000083BD5686810F00C0F07D07F
:100E50006868C0F38100022809D16868C00306D41D
:100E60002868800714D5206901281FD110E0206967
:100E7000B0B1C6F80090FFF7D7FA074605E000BF0B
:100E8000FFF7D2FAC01B0228C4D828688007F7D51C
:100E90002868616920F0F80040EAC10028600FE08E
:100EA000C6F80080FFF7C0FA074606E0E9E000BF99
:100EB000FFF7BAFAC01B022823D828688007F7D4A6
:100EC000207800072CD57248A169D9B1C0F80090EC
:100ED000FFF7AAFA074604E0FFF7A6FAC01B0228AC
:100EE0000FD8686A8007F7D56A484FF4FA5100684E
:100EF000B0FBF1F0009000BF0098411E0091FAD2C3
:100F00000EE080E0C0F80080FFF78EFA074604E0AC
:100F1000FFF78AFAC01B022875D8686A8007F7D4E1
:100F20002078400760D5E8690027C00008D4E86948
:100F300040F08050E861E869012700F0805000909F
:100F400055480168C90513D40168834641F480718E
:100F50000160FFF769FA824606E000BFFFF764FA16
:100F6000A0EB0A0064284ED8DBF80000C005F5D5D8
:100F7000E06801280AD008B1052813D0286A20F0BB
:100F800001002862286A20F0040002E0286A40F08C
:100F900001002862E06841F2883B98B1FFF744FA0B
:100FA00082460BE0286A40F004002862EEE700BFAA
:100FB000FFF73AFAA0EB0A0159455AD8286A800788
:100FC000F6D50CE0FFF730FA824605E0FFF72CFA81
:100FD000A0EB0A0159454CD8286A8007F6D41FB106
:100FE000E86920F08050E861E06988B36968C1F37E
:100FF0008101022945D00228C6F8608004D0FFF79D
:1010000013FA044638E034E0FFF70EFA074604E02E
:10101000FFF70AFAC01B02282BD828688001F7D4F2
:10102000206AB0F5803F05D16868A16820F40030DF
:1010300008436860D4E908010843696821F4741121
:1010400008436860C6F86090FFF7EEF9044606E0D2
:1010500015E000BFFFF7E8F9001B022809D828684F
:101060008001F7D50BE000BFFFF7DEF9001B022877
:1010700002D90320BDE8F88F28688001F4D400204D
:10108000F8E70120F6E700000010024000004242AD
:1010900080044242340000200070004010B5401E21
:1010A000B0F1807F01D3012010BD4FF0E0246061DA
:1010B0000F21601700F072FD0020A0610720206161
:1010C000002010BD70B5040004D094F8390000254C
:1010D00010B106E0012070BD84F83850204600F0C1
:1010E00023F8242084F839002068C16821F40051D5
:1010F000C160204600F0B4FD2068016921F49041F0
:1011000001612068416921F02A0141612068C168BC
:1011100041F40051C160E563202084F8390084F86F
:101120003A00002070BD000030B585B00024009466
:1011300001940294039400681449884224D114480D
:10114000816941F480418161816901F480410491A8
:10115000816941F00401816180690E4D00F0040055
:1011600004904FF40070009002200190032003903F
:1011700069462846FFF770F82815CDE9000469464E
:1011800028460294FFF768F805B030BD00380140EA
:1011900000100240000801402DE9F843044690F891
:1011A00039001F4616460D46202850D1A5B19EB1E4
:1011B00094F8380001284AD0012084F838004FF014
:1011C0000008C4F83C80212084F83900FFF72CF98E
:1011D000A6848146E68426E00120BDE8F883E08C01
:1011E000401EE084A0684B46B0F5805F4FF00002DF
:1011F0004FF080012046009703D000F0E9FDE8B9E8
:101200000DE000F0E5FDC8B928882168C0F30800AA
:101210004860206908B16D1C05E0AD1C03E0216841
:1012200015F8010B4860E08C0028D8D14B4600220D
:1012300040212046009700F0CBFD08B10320CCE709
:10124000202084F8390084F838800020C5E7022087
:10125000C3E7FEE70148FFF711B90000580000207E
:101260000148FFF773B900005800002010B5406A2C
:1012700001680A6822F480620A6000214185426B9D
:101280005163826B516390F83D302022602B80F8CF
:101290003D2080F83E1007D001680A6822F0010264
:1012A0000A60FFF74CFA10BD016401680A6822F079
:1012B00001020A60FFF7BEF810BD000070B590F89B
:1012C0003D10044600252026006829292DD02A2912
:1012D0002BD094F83D10602904D04168090501D451
:1012E00084F83D60256384F83E50016821F4006174
:1012F000016020684168090537D5416821F4006123
:101300004160606B344990F82120012A12D041637A
:10131000606BFEF743FF38B32068016821F00101DC
:10132000016084F83D60606B1CE02563282184F82F
:101330003D10DAE7A06B4163A06BFEF72FFF98B179
:1013400020684169C943490604D40169606A421CA6
:10135000626201702068016821F00101016084F877
:101360003D60A06B416B88470FE094F83D10602909
:101370001DD04169C943490604D40169606A421C11
:10138000626201702046FFF7DAF994F83D002828E0
:101390000CD1206C400709D51048E062256384F821
:1013A0003D6084F83E502046FFF76AFA70BD84F82D
:1013B0003D6025644169C943490604D40169606AF6
:1013C000421C626201702068016821F00101016025
:1013D0002046FFF72FF8D8E76D1200080000FFFF46
:1013E00010B5C26A448D2F4B0168032C03D0448D85
:1013F000022C15D00AE0042A03D0082A01D09A4210
:1014000003D10A6822F480620A6001680A69416AAD
:101410004B1C43620A70418D491E4185002010BD5E
:10142000042A12D0082A10D09A420ED0022A0A6842
:1014300002D022F4806201E042F480620A60016816
:101440004A6822F440724A6008E04A6822F4407216
:101450004A6001680A6842F400720A6001680A6919
:10146000416A4B1C43620A70418D491E41850168E7
:101470000A69416A4B1C43620A70418D491E4185CD
:10148000202180F83D100021016390F83E2080F873
:101490003E10402A02D0FFF71FFABFE7FFF71EFAFF
:1014A000BCE700000000FFFF10B590F83D102229B6
:1014B0004CD1418D032909D901680A69416A4B1C45
:1014C00043620A70418D491E41853FE0022909D0DF
:1014D000032907D0C16A022901680A6818D022F4DA
:1014E000806217E0C16A022901680A6807D022F405
:1014F00080620A6001680A6842F4006201E042F416
:1015000080620A600068416821F4806141601DE0EA
:1015100042F480620A6001684A6822F4E0624A602C
:1015200001680A69416A4B1C43620A70418D491E79
:101530004185202180F83D100021016390F83E2074
:1015400080F83E10402A03D0FFF7C6F9002010BDF6
:10155000FFF7C4F9FAE710B5C26A90F83D102129E7
:1015600021D1418D49B1416A4A1C42620268097821
:101570001161418D491E418515E020230021042A77
:1015800013D0082A11D012F5803F0ED0026854689B
:1015900024F4E06454601122026380F83E1080F865
:1015A0003D30FFF79AF9002010BD0268546824F41A
:1015B000E06454600268146844F4007414600163C9
:1015C00080F83D3090F83E2080F83E10402AE8D167
:1015D000FFF785F9E7E7000010B590F83D1090F8A7
:1015E0003E30C26A048D24B1212934D0402B30D042
:1015F00074E02129FAD120230021042A13D0082ADB
:1016000011D012F5803F0ED00268546824F4E064D3
:1016100054601122026380F83E1080F83D3000BF14
:10162000FFF75BF95AE00268546824F4E064546000
:101630000268146844F400741460016380F83D305B
:1016400090F83E2080F83E10402AE9D1FFF747F994
:1016500044E0222942D1418D21B190F83E10402929
:1016600006D032E00068416821F48061416035E0D5
:10167000016D31B1016D012911D0016D022915D023
:101680002CE0C16C0129816C02D0C1F3072108E074
:101690000268C9B21161016D891C01651EE0816C8F
:1016A000C9B202681161016D491CF6E790F83D105E
:1016B000222904D090F83D10212906D00EE00068C0
:1016C000016841F48071016008E0416A4A1C42628D
:1016D000026809781161418D491E4185002010BDC5
:1016E00078B590F83E50C26A046B90F83D600023D4
:1016F0000168222E06D1066D0EB9402D02D0056D6F
:1017000025B107E04869886900901CE00569B5F5D6
:10171000404F1AD0458D85B3458D012D20D0428D87
:10172000022A4AD00A6842F480620A6001684A6864
:10173000120503D54A6842F480524A6001684A693A
:10174000896900910365002078BD4A698A69009221
:101750000A6842F480720A60016D491C0165F2E773
:1017600012F5803F0AD0042A21D0082A1FD0122C5B
:101770001DD0C26A022A09D114E00BE00A6822F4E3
:1017800080620A6001684A68120503D50A6822F47B
:1017900080620AE04A698A6900920A6842F400722B
:1017A0000A60CFE70A6842F480620A60C6E70A6806
:1017B00022F480620A600168ECE7C26A022A0A68C1
:1017C0000BD042F400620A6001684A698A6900929B
:1017D0000A6822F480620A6006E042F480620A60CD
:1017E00001684A698969009101684A681205A9D5AA
:1017F0004A6842F480524A60A4E790F83E104029BB
:1018000009D00169B1F5804F10D0016D99B1016D1A
:10181000012915D01CE0016D19B9416C01F0FE01E0
:1018200014E0416CC9B241F001010FE090F83D10A5
:101830002129F6D1F1E7416CF02201F4407103E077
:10184000416CF12201F4407142EAD111006801615A
:10185000002070472DE9F04190F83D500446408D3E
:10186000D8B320680169606A421C62620170608DB1
:10187000401E6085FEF78CFC618D222628271F29DB
:101880001CD12A2D1AD101280DD002280BD00328F3
:1018900009D0042807D0052805D0062803D0082839
:1018A00001D00F280AD12068416821F4806141608D
:1018B000266384F83D702046FFF74AF8608D60B9D2
:1018C0002A2D0AD12068416821F480614160266395
:1018D00084F83D702046FFF73BF80020BDE8F0811A
:1018E0002DE9F04190F83D40C26A00231C4F2026AC
:1018F00001686FF48065042A01D0082A01D1282CE0
:1019000005D0212C17D04D610020BDE8F081C762C1
:101910004A6822F4E0624A6001684D6101680A6821
:1019200022F480620A60036380F83D6080F83E30F4
:10193000FEF7A6FFE8E7C7622122026380F83D6058
:1019400080F83E304A6822F4E0624A6001684D61E6
:1019500001680A6822F480620A60FFF701F8D3E7A1
:101960000000FFFF38B590F83D2001684B6823F474
:10197000E0634B60036800215C6900941C6844F0DC
:1019800001041C6003681C6824F480641C60036804
:101990005C6824050BD590F83D40222C2BD090F8A4
:1019A0003D402A2C27D0446B246864684485448DCC
:1019B000E4B15C69E443640707D41C69436A5D1CB5
:1019C00045621C70438D5B1E438503685C69E4437C
:1019D000640607D41C69436A5D1C45621C70438D14
:1019E0005B1E4385036C43F004030364036C23B163
:1019F000FFF764FC1FE0846BD6E72023282A09D078
:101A00002A2A07D0292A05D0046B222C0CD0222A9E
:101A10000AD010E0094AC262016380F83D3080F8C4
:101A20003E10FEF72DFF06E0016380F83D3080F8A0
:101A30003E10FEF78DFF002038BD00000000FFFFC4
:101A40002DE9F04385B000263F48009601960296A6
:101A50000396816941F010018161816901F01001F3
:101A60000491816941F004018161816901F00401FF
:101A70000491816941F0080181618069334F00F070
:101A800008004FF400540490002221463846FEF727
:101A9000C5FCDFF8BC80002248F2FF014046FEF79B
:101AA000BDFCDFF8B09000224CF6FB414846FEF743
:101AB000B5FC0094022501240395CDE90146694651
:101AC0003846FEF7C9FB48F2C3008DE8310069468D
:101AD00040460395FEF7C0FB1C2003958DE851009E
:101AE00069464046FEF7B8FB2020CDE90004694670
:101AF0004046CDE90245FEF7AFFB4CF2734003953B
:101B00008DE8510069464846FEF7A6FB4FF4086091
:101B1000CDE9000469464846CDE90245FEF79CFB45
:101B20004FF4C850CDE90006694640460296FEF7DC
:101B300093FB08208DE83100694648460395FEF77F
:101B40008BFB05B0BDE8F08300100240001001409F
:101B500000080140000C01400D4810B50B49016020
:101B60000C49416000213E22C0E902124FF480423C
:101B7000C0E904214022C0E906120162FEF7E0FD3F
:101B8000002801D0FEF7F4FA10BD00000054004018
:101B900058000020801A0600FEE770470907090E6A
:101BA000002806DA00F00F0000F1E02080F8141D94
:101BB000704700F1E02080F80014704770477047CC
:101BC000FEF748BF30B58FB028216846FEF7B1FA5E
:101BD00014210AA8FEF7ADFA022501200490009511
:101BE0001020059000244FF4C010CDE9084007955F
:101BF0006846FFF7D1F858B90F200A90CDE90B5489
:101C00000D9401210AA80E94FEF7BAFF002801D016
:101C1000FEF7AEFA0FB030BD0D48016841F001018A
:101C2000016041680B4A1140416001680A4A114055
:101C30000160016821F480210160416821F4FE0106
:101C400041604FF41F0181600449C0030860704780
:101C5000001002400000FFF8FFFFF6FE08ED00E074
:101C60002DE9F041044600680169E26821F4405121
:101C7000114301612169A068084361690843216833
:101C8000CA6841F20C639A430243CA602068416902
:101C9000A26921F44071114341614C4920686425D7
:101CA000322688423CD1FFF731F800EBC00101EB4E
:101CB000001061688900B0FBF1F7FFF727F800EB2F
:101CC000C00101EB00106168B0468900B0FBF1F083
:101CD000B0FBF5F06FF01801484307EB800106EB0D
:101CE0000110B0FBF5F000F0F006FFF70FF800EB85
:101CF000C00101EB001061688900B0FBF1F0B0FB9E
:101D0000F5F006EB0016FFF701F800EBC00101EB60
:101D1000001061688900B0FBF1F7FEF7F7FF3BE0C8
:101D2000FEF7E4FF00EBC00101EB001061688900E1
:101D3000B0FBF1F7FEF7DAFF00EBC00101EB00109A
:101D40006168B0468900B0FBF1F0B0FBF5F06FF0D0
:101D50001801484307EB800106EB0110B0FBF5F0DA
:101D600000F0F006FEF7C2FF00EBC00101EB00102F
:101D700061688900B0FBF1F0B0FBF5F006EB0016EE
:101D8000FEF7B4FF00EBC00101EB001061688900B1
:101D9000B0FBF1F7FEF7AAFF00EBC00101EB00106A
:101DA00061688900B0FBF1F0B0FBF5F06FF018014D
:101DB000484307EB800108EB0110B0FBF5F0216808
:101DC00000F00F0030448860BDE8F0810038014029
:101DD0002DE9F041984617460E460446069D1DE043
:101DE000681C1BD02DB1FEF71FFBA0EB0800A8421A
:101DF00014D92068C16821F4D071C160206841699C
:101E000021F001014161202084F8390084F83A0072
:101E1000002084F838000320BDE8F08120680068C5
:101E200036EA000004D00020B842D9D00020F3E701
:101E30000120F9E7FEE70000014A024900F013B86B
:101E4000891E00082400002002E008C8121F08C1F3
:101E5000002AFAD170477047002001E001C1121F2B
:101E6000002AFBD170472DE9F04116460F46044683
:101E7000002503E03946B047641C6D1C207800281B
:101E8000F8D12846BDE8F08113B54FF6FF73012263
:101E900069460248FFF780F900981CBDAC0000209D
:101EA000FEF7E0FDFFF78EFEFFF7CAFDFFF754FED9
:101EB000164815490C2201601549416000218160D6
:101EC000C160C0E904128161C161FFF7FBF8A0B9EC
:101ED000002211461F20FEF721FE1F20FEF712FEF2
:101EE000002211462020FEF719FE2020FEF70AFEF0
:101EF00006485438FEF706FC08B1FEF739F905A08C
:101F0000FFF79AFFFEE7000000380140AC00002018
:101F1000A80D0E00537461727465642050726F676F
:101F200072616D0A00000000000000000000000067
:101F3000010203040607080900000000010203046F
:101F4000601F00080000002038000000481E000844
:101F5000981F000838000020B8040000581E000830
:101F60000A0054657374204461746120486F7720BF
:101F700069732074686520776561746865723F20B5
:101F800031320000000000000100000010000000DD
:081F90000000000000A24A0459
:04000005080000ED02
:00000001FF
