:020000040800F2
:10000000A01C002001010008932C000841200008DA
:10001000912C0008910700089531000800000000AD
:10002000000000000000000000000000DD2C0008BF
:100030009307000800000000B52C0008DF2C000822
:100040001B0100081B0100081B0100081B01000820
:100050001B0100081B0100081B0100081B01000810
:100060001B0100081B0100081B0100081B01000800
:100070001B0100081B0100081B0100081B010008F0
:100080001B0100081B0100081B0100081B010008E0
:100090001B0100081B0100081B0100081B010008D0
:1000A0001B010008912D00081B010008852D000888
:1000B0001B0100081B0100081B010008512000085B
:1000C000452000081B0100081B0100081B01000857
:1000D0001B0100081B0100081B0100081B01000890
:1000E0001B0100081B0100081B010008DFF80CD0F1
:1000F00000F0C0FA0048004799360008A01C002014
:100100000648804706480047FEE7FEE7FEE7FEE7B1
:10011000FEE7FEE7FEE7FEE7FEE7FEE73D2D00080F
:10012000ED000008202A04DB203A21FA02F0002129
:10013000704721FA02F3D040C2F1200291400843F7
:100140001946704740EA01039B0703D009E008C93C
:10015000121F08C0042AFAD203E011F8013B00F88C
:10016000013B521EF9D27047D2B201E000F8012BD8
:10017000491EFBD270470022F6E710B513460A4627
:1001800004461946FFF7F0FF204610BD10B50022C7
:1001900000E0521C835C8C5CA34201D1002BF8D19F
:1001A000D8B2E1B2401A10BD2DE9FE4F804681EA77
:1001B0000300C00F0C46009021F0004123F00045E1
:1001C000B8EB0200A94105D24046214690461C46A4
:1001D0000B46024623F00040104347D0270DC7F3DB
:1001E0000A00C3F30A510290401A019040286BDACA
:1001F000C3F3130040F4801B0098924620B1002303
:10020000D2EB030A63EB0B0B01985946C0F1400295
:10021000504600F0B1F906460D4650465946019A3F
:1002200000F0B9F910EB08006141002487EA11528F
:1002300084EAE7731A4340D0009A62B3019A012A14
:100240004FEA075215DC001B61EB02014FF0004240
:1002500002EA0752CDE90042001C41F58011324606
:100260002B4600F0B9F903B0BDE8F08F40462146B7
:10027000F9E7001B61EB0201001C41F58013001837
:100280005B412018A2F5001747EB030140EAD57047
:10029000B6196D4111E06D084FEA360645EAC075A2
:1002A0004FEA0752001B61EB0201001C41F580116F
:1002B00049084FEA30000019514132462B4603B03D
:1002C000BDE8F04F00F079B900980122400000230A
:1002D000D0EB020263EBE073009821464FEAE07432
:1002E000B8EB000061EB0401E9E783F000435BE752
:1002F00081F0004158E72DE9FE4F81EA030404F044
:10030000004421F0004100944FF0000B23F0004323
:1003100050EA01045ED052EA03045BD0C3F30A54EE
:10032000C1F30A552C44A4F2F3340194A0FB025407
:10033000C1F3130141F48011C3F3130343F4801399
:1003400001FB024400FB034E840A970A44EA8154ED
:1003500047EA8357A4FB076802958D0A05FB0785CA
:100360004FEA932C04FB0C542705029D4FEA0658D4
:1003700047EA1637B5EB08056EEB070C870E920EB1
:1003800047EA811742EA8312A7FB0201B6EB0B0191
:1003900064EB00042B0D43EA0C335E1844EB1C5055
:1003A000DA465146E7FB0201C5F313044FEA0B336B
:1003B00043EA14534FEA0432019C43EA0603A4F1D2
:1003C0000C040294009CCDE900B400F005F903B0E0
:1003D000BDE8F08F00200146F9E72DE9F04D81EAF4
:1003E000030404F0004B21F0004514464FF0000ACE
:1003F00023F0004150EA050220D054EA01021DD04A
:10040000C5F30A570246C5F31303C1F31300C1F342
:100410000A5640F4801543F48013A7EB0608101B1E
:10042000D64608F2FD3873EB050002D308F1010847
:1004300001E092185B41B8F1000F03DA0020014699
:10044000BDE8F08D00204FF48011064684460EE092
:10045000171B73EB050705D3121B63EB050306435C
:100460004CEA010C49084FEA300092185B4150EA0F
:100470000107EDD152EA030012D082EA040083EAB8
:100480000501084305D0101BAB4106D20122002311
:1004900006E000224FF0004302E06FF0010253102B
:1004A0001AEB06004CEB085110EB0A0041EB0B0174
:1004B000BDE8F04D00F081B870B521F00043034372
:1004C0000CD0C1F30A550024D5EB040564EB0403FA
:1004D000D617AD1AB34102DB0020014670BD2018CB
:1004E00041EB025170BD0EB5C10F80EAE0700844C7
:1004F000CA07002140F233438DE80E000A460B463E
:1005000000F06AF803B000BD70B5C1F30A5201F003
:1005100000450024C1F3130140F2FF3341F4801180
:100520009A4201DA002070BD40F233439A42A2F2AF
:10053000334203DC5242FFF7F5FD00E090402C43CC
:10054000F1D0404270BD000030B5041E71F10004CE
:1005500004DB4FF00044404264EB0101141E73F1D0
:10056000000405DB1C464FF00043524263EB0403DA
:10057000994208BF904230BD202A04DB203A00FA9D
:1005800002F1002070479140C2F1200320FA03F3EA
:10059000194390407047202A06DBCB17203A41FAD6
:1005A00002F043EAE07306E041FA02F3D040C2F100
:1005B0002002914008431946704710B5141E73F18C
:1005C000000408DA401C41F1000192185B411A4313
:1005D00001D120F0010010BD2DE9F04D92469B465F
:1005E00011B1B1FA81F202E0B0FA80F22032904605
:1005F000FFF7C2FF04460F4640EA0A0041EA0B013A
:1006000053465A46084313D0114653EA010019D005
:10061000C8F140025046FFF785FD05460E4650469C
:1006200059464246FFF7A8FF084305D0012004E0E1
:1006300020463946BDE8F08D0020054346EAE076C5
:100640002C4337430A986305E40AA0EB0800002214
:10065000FD0A44EA47540A3002D500200146E9E782
:10066000010510196941DDE9084500196941BDE836
:10067000F04DA2E7064C074D06E0E06840F00103AC
:1006800094E8070098471034AC42F6D3FFF732FDE8
:10069000304F0008504F00082DE9F04D00231A4656
:1006A0001B1A8A4103DB00200146BDE8F08DC1F32F
:1006B0000A52C1F3130141F480154FF0000BD1072A
:1006C00002D100186D41521E0027044640F2FF116E
:1006D000384601EB620A3E468046024600204FF44F
:1006E0008011FFF71FFDC2197141BB1846EB0100D5
:1006F000B4EB030C75EB000C04D3E41A65EB0005B6
:1007000017460E46241908F101006D418046342831
:10071000E3DDF91946EB0600091BA84103D24FF0AF
:10072000FF32134601E0002213461BEB070046EBA5
:100730000A51BDE8F04DFFF740BF70B58C1810F8B6
:10074000015B15F0070301D110F8013B2A1106D116
:1007500010F8012B03E010F8016B01F8016B5B1E30
:10076000F9D12B0705D40023521E0DD401F8013B0B
:10077000FAE710F8013BCB1A921C03E013F8015B77
:1007800001F8015B521EF9D5A142D8D3002070BDFB
:10079000FEE7704710B54FF40051044800F06BF9C4
:1007A000BDE810404FF47A7000F056B800100140D8
:1007B000002201E000F8012B491E89B2FAD27047ED
:1007C00010B5002490F82110022903D00421816380
:1007D00001243DE001680A6822F00E020A60016807
:1007E0000A6822F001020A601A4A0168914201D1A6
:1007F000012121E0174A1432914201D110211BE05E
:10080000144A2832914201D1891515E0114A3C322F
:10081000914201D189140FE00E4A5032914202D127
:100820004FF4803108E00B4A6432914202D14FF418
:10083000801101E04FF08071064A083A51600121B1
:1008400080F82110002180F82010416B01B1884709
:10085000204610BD0800024070B5044600F016F9AD
:100860000546601C02D004480078044400F00EF9EC
:10087000401BA042FAD370BDA80100202DE9F84F1B
:1008800000230024DFF8C0914FF00F0809F1040A9B
:100890000AF1040B0BF1040E0127A7400A683A4045
:1008A000BA4275D1DFF8A4C14D68A5EB0C066545C9
:1008B0002BD00DDC032D34D005DC35B3012D19D040
:1008C000022D2FD11BE0112D16D0122D2AD119E0A7
:1008D000B6F5881F19D006DCB6F5803F15D0B6F501
:1008E000801F1FD111E0B6F5001F0ED0B6F5041F12
:1008F00018D10AE0CB6815E0CB681B1D12E0CB686D
:1009000008330FE0CB680C330CE08B6823B1012B6C
:1009100004D00823476105E0042303E008230761AE
:1009200000E00023FF2A01D8054601E000F104059C
:1009300002D84FEA840603E0A4F108064FEA8606CF
:100940002F6808FA06FC27EA0C0703FA06F647EABE
:1009500006072F604D68ED0070D53D4DAE6946F03D
:100960000106AE61AD6905F001050095394D24F031
:1009700003067719BE68A5072D0F08FA05FC26EABD
:100980000C06DFF8D4C0604503D14FF0000C17E02F
:1009900054E0DFF8C8C0604502D14FF0010C0FE011
:1009A000DFF8BCC0604502D14FF0020C08E0DFF870
:1009B000B4C0604502D14FF0030C01E04FF0040CCD
:1009C0000CFA05FC4CEA060CC7F808C04D68ED03AC
:1009D00005D5D9F800501543C9F8005004E0D9F8FE
:1009E00000509543C9F800504D68AD0305D5DAF8BD
:1009F00000501543CAF8005004E0DAF8005095435F
:100A0000CAF800504D68ED0205D5DBF800501543DB
:100A1000CBF8005004E0DBF800509543CBF80050D1
:100A20004D68AD0205D5DEF800501543CEF80050F4
:100A300004E0DEF800509543CEF80050641C102C02
:100A4000FFF42AAFBDE8F88F000401400000111048
:100A5000001002400000014000080140000C01406D
:100A600000100140001401408068084201D00120BC
:100A7000704700207047C2684A40C2607047002A31
:100A800001D0016170470904016170470148806825
:100A900070470000A80100207047000038B50446E8
:100AA000002915D002F08CFC014601231C222046AF
:100AB00000F042FB08B1FFF76DFE206841698069D4
:100AC0000090BDE83840012251030848FFF7D7BF26
:100AD00002F07CFC014608230222204600F067FB5E
:100AE0000028EAD0FFF756FEE7E7000000100140BB
:100AF00070B5044620684569466830490D420DD0FE
:100B0000F1050BD5216C41F0010121646FF4807176
:100B100041612068016841F40041016015F4813FA2
:100B200009D0F00507D5206C40F002002064216850
:100B30006FF40070486115F4823F28D0F00526D587
:100B400094F83E20618D94F83D00236B202A08D153
:100B500039B921280ED029280CD0282801D1212BE1
:100B600008D0206C40F00400206494F83E00102867
:100B700004D008E0204601F067FE08E02068016824
:100B800041F40071016021686FF48060486115F4E0
:100B9000843F09D0F00507D5206C40F008002064A0
:100BA00021686FF400604861206C002804D0204662
:100BB000BDE8704001F07EBA70BD00000001010088
:100BC0002DE9F05F8046D8F80000876944694568E0
:100BD00098F83E004C49DFF830A1DFF82CB1DFF87F
:100BE0002C918E1C0AF17E0A0BF13E0B10280AD0C4
:100BF000402808D00C424DD0A8054BD54046BDE852
:100C0000F05F01F00BBE14F0011F05D0A80503D55D
:100C1000404601F041FD10E03B48801D044205D0F4
:100C2000A80503D5404601F084FC06E00C4204D040
:100C3000A80502D5404601F082FC17EA090F14D03E
:100C400014EA0A0F08D0680506D5344204D140469C
:100C5000BDE8F05F01F0D6BB344253D0A80551D5B2
:100C60004046BDE8F05F01F088BB14EA0B0F08D0E6
:100C7000680506D5344204D14046BDE8F05F01F076
:100C80001DBB34423ED0A8053CD54046BDE8F05FD0
:100C900001F0A4BA1C480E30044206D0A80504D5C1
:100CA0004046BDE8F05F01F011BE17EA090F14D00D
:100CB00014EA0A0F08D0680506D5344204D140462C
:100CC000BDE8F05F01F089BD34421BD0A80519D5FD
:100CD0004046BDE8F05F01F072BD14EA0B0F08D08A
:100CE000680506D5344204D14046BDE8F05F01F006
:100CF00022BD344206D0A80504D54046BDE8F05FC9
:100D000001F00BBDBDE8F09F0200010004001000DF
:100D100090F83D10202901D002207047282180F84A
:100D20003D1001680A68D20703D10A6842F0010247
:100D30000A6001680A6842F480620A6000684168DB
:100D400041F44071416000207047704770B504461F
:100D5000002C04D094F83D00002510B106E00120DD
:100D600070BD84F83C50204600F0E8F8242084F858
:100D70003D002068016821F00101016000F0B2FB34
:100D8000424A6168914203D84149884203D304E052
:100D90004049884201D2012070BD3F49B0FBF1F1CA
:100DA000236859606368934201D8491C07E04FF4F7
:100DB000967359434FF47A73B1FBF3F1491C2368DE
:100DC00019626168914210D84900401EB0FBF1F2EF
:100DD000521CC2F30B02042A01D2042022E0B0FB11
:100DE000F1F0401CC0F30B001CE0A268CAB301EB99
:100DF000C10303EB0116431EB3FBF6F35B1C43F484
:100E000080431B0536D06AB301EBC10202EB01112E
:100E1000401EB0FBF1F0401CC0F30B0040F48040DA
:100E200040F400402168C861D4E907010843216803
:100E30000860D4E90310084321688860D4E90501FB
:100E400008432168C8602068016841F00101016021
:100E50002564202084F83D00256384F83E5000205E
:100E600070BD00E008E001EB4106431EB3FBF6F362
:100E70005B1CC6E70120D5E701EB4101401EB0FB3A
:100E8000F1F0401CC0F30B00CAE70000A08601008F
:100E900080841E0000093D0040420F0070B5FFF73E
:100EA00037FF08B1FFF776FC02F08AFA007850B1FC
:100EB00002F086FA007801281BD002F081FA00784F
:100EC00002281AD01CE000240BE002F085FA054647
:100ED00002F076FA204422464078294603F062FA6E
:100EE000641C02F071FA401EA042EEDC02F0CEFA61
:100EF00006E0022003F0C0FA02E0032003F0BCFA8F
:100F000000224FF400510A48FFF7B9FD02F05CFAE5
:100F100084B202F055FA2146FFF74AFC02F05AFA71
:100F200084B202F053FA2146BDE87040FFF740BC9E
:100F300000100140704770477047704710B586B089
:100F400000210291039104910591006813498842A0
:100F500022D1134CA06940F00800A061A06900F004
:100F6000080001904FF4407002901220039003207B
:100F7000059002A90B48FFF781FC0B49486840F037
:100F8000E06040F002004860E06940F40010E06179
:100F9000E06900F40010019006B010BD005400405C
:100FA00000100240000C01400000014010B502F0AA
:100FB00007FA0078C01E07281ED2DFE800F0041EE2
:100FC00038526C86A0000121554802F01FFA02F049
:100FD0002BFAFFF799FAC0F30720002103F0DCF9A0
:100FE00001214F4802F012FA02F01EFAFFF78CFAC4
:100FF000C0B2012103F0D0F98BE00221484802F091
:1010000005FA02F011FAFFF77FFAC0F3072000217A
:1010100003F0C2F90221424802F0F8F902F004FAA2
:10102000FFF772FAC0B2012103F0B6F971E00321B3
:101030003B4802F0EBF902F0F7F9FFF765FAC0F36D
:101040000720002103F0A8F90321354802F0DEF95A
:1010500002F0EAF9FFF758FAC0B2012103F09CF957
:1010600057E001212E4802F0D1F902F0E1F9FFF733
:101070004BFAC0F30720002103F08EF90121284824
:1010800002F0C4F902F0D4F9FFF73EFAC0B2012130
:1010900003F082F93DE00221214802F0B7F902F0A5
:1010A000C7F9FFF731FAC0F30720002103F074F904
:1010B00002211B4802F0AAF902F0BAF9FFF724FA5C
:1010C000C0B2012103F068F923E00321144802F0C3
:1010D0009DF902F0ADF9FFF717FAC0F307200021E0
:1010E00003F05AF903210E4802F090F902F0A0F93A
:1010F000FFF70AFAC0B2012103F04EF909E002F04D
:101100007FF90021084603F047F90121002003F090
:1011100043F90122BDE8104051030248FFF7AFBC7C
:10112000180000200010014000224FF40051014837
:10113000FFF7A5BC0010014038B590F83D40282CC1
:1011400001D0022038BD61B15AB190F83C40012C69
:1011500009D0012480F83C4004682568ED0704D0DC
:1011600007E0012038BD022038BD256845F00105A3
:1011700025600468256825F4006525602A2480F828
:101180003D40202480F83E400024046441624285B2
:10119000C362418D018501684A698A69009280F8BD
:1011A0003C40486840F4E0604860002038BD38B5F5
:1011B00090F83D40282C01D0022038BD61B15AB1D1
:1011C00090F83C40012C09D0012480F83C40046890
:1011D0002568ED0704D007E0012038BD022038BDA6
:1011E000256845F0010525600468256825F400653B
:1011F0002560292480F83D40202480F83E400024CA
:10120000046441624285C362418D018501684A6977
:101210008A69009280F83C40486840F4E060486089
:10122000002038BD0248816802781144816070470F
:10123000A801002010B50748016841F010010160C5
:10124000032000F079F8002000F006F800F026F8FE
:10125000002010BD0020024070B504460D4D4FF433
:101260007A712878B1FBF0F00B490968B1FBF0F016
:1012700000F03EFB08B1012070BD102C07D2002207
:101280002146501E00F038F86C60002070BD01202F
:1012900070BD0000A8010020B401002008B50E4870
:1012A000816941F001018161816901F001010091D1
:1012B000C16941F08051C161C06900F08050009067
:1012C000052000F039F80549486820F0E06040F05A
:1012D0000070486008BD000000100240000001409E
:1012E00000F01F02012191404009800000F1E02040
:1012F000C0F8001170470000F0B40D460D4B1B689C
:10130000C3F30223C3F10704042C00D90424191DDC
:10131000072901D2002300E0DB1E012606FA04F1B2
:10132000491E294099409E40761E16403143F0BC2C
:1013300001F0B0BC0CED00E000F00701054A1068B8
:101340004FF6FF03184040EA0120034908431060AC
:10135000704700000CED00E00000FA052DE9F047B1
:1013600004460E46DFF86081D8F8000000F0070060
:10137000B0420FD2D8F8000020F007003043C8F880
:101380000000D8F8000000F00700B04202D00120B1
:10139000BDE8F08720684D4F810712D5400703D57F
:1013A000786840F4E06078602078000703D57868BA
:1013B00040F4605078607868A16820F0F00008433D
:1013C00078602078C00748D06068012806D00228DD
:1013D00009D0396889070BD40120D9E73968890316
:1013E00006D40120D4E73968890101D40120CFE770
:1013F000796821F0030101437960FFF747FB054657
:10140000606841F28839012809D0022814D020E010
:10141000FFF73CFB401B484501D90320B8E778683B
:10142000C0F381000128F3D117E0FFF72FFB401B29
:10143000484501D90320ABE77868C0F38100022852
:10144000F3D10AE0FFF722FB401B484501D90320F6
:101450009EE7786810F00C0FF4D1D8F8000000F087
:101460000700B0420ED9D8F8000020F00700304342
:10147000C8F80000D8F8000000F00700B04201D022
:10148000012085E72078400705D57868E16820F4D9
:10149000E060084378602078000706D57868216905
:1014A00020F4605040EAC100786000F03BF87968B1
:1014B000074AC1F30311515CC84006490860002087
:1014C000FFF7CAFE002063E7002002400010024040
:1014D000844E0008B40100200148006870470000F5
:1014E000B401002000B5FFF7F7FF04494968044A3A
:1014F000C1F30221515CC84000BD00000010024051
:10150000944E000800B5FFF7E7FF04494968044A14
:10151000C1F3C221515CC84000BD00000010024070
:10152000944E000885B014A090E80E00C068CDE984
:1015300002230191049014A000680090134B596895
:10154000134801F00C02042A10D0082A0ED101A879
:10155000C1F38342805CC9030AD55968C1F3404195
:101560001DF801100A4A5043B0FBF1F005B0704776
:1015700008494843FAE70000020304050607080982
:101580000A0B0C0D0E0F101001020000001002409B
:1015900000127A0000093D002DE9F84F0446D04DB5
:1015A0002078C0075BD06868C0F38100012807D0AD
:1015B0006868C0F3810002280AD16868C00307D5B3
:1015C000286880034BD5606878BB0120BDE8F88FA0
:1015D0006068B0F5803F11D0A8B1B0F5A02F1BD046
:1015E000286820F480302860286820F48020286053
:1015F000606830B3FFF74AFA06461EE0286840F4F8
:1016000080302860F4E7286820F48030286028685B
:1016100020F480202860EBE7286840F480202860D0
:10162000286840F480302860E2E718E0FFF72EFADF
:10163000801B642801D90320C8E728688003F5D5FA
:101640000DE0FFF723FA064606E0FFF71FFA801BBE
:10165000642801D90320B9E728688003F5D42078ED
:10166000DFF8808280074FF0010A4FF0000945D56E
:10167000686810F00C0F07D06868C0F3810002287A
:1016800012D16868C0030FD42868800704D5206988
:10169000012801D0012099E72868616920F0F8004D
:1016A00040EAC100286029E02069B8B1C8F800A06C
:1016B000FFF7ECF9064606E0FFF7E8F9801B022881
:1016C00001D9032082E728688007F5D52868616979
:1016D00020F0F80040EAC10028600FE0C8F8009050
:1016E000FFF7D4F9064606E0FFF7D0F9801B022881
:1016F00001D903206AE728688007F5D4207800071D
:1017000026D57948A16999B1C0F800A0FFF7BEF9C4
:10171000064606E0FFF7BAF9801B022801D903202C
:1017200054E7686A8007F5D5012001F0C5FA0FE09B
:10173000C0F80090FFF7AAF9064606E0FFF7A6F901
:10174000801B022801D9032040E7686A8007F5D48E
:101750002078400773D50026E869C00008D4E869FE
:1017600040F08050E861E86900F080500090012668
:10177000DFF878B1DBF80000C00514D4DBF8000016
:1017800040F48070CBF80000FFF780F9074606E0D0
:10179000FFF77CF9C01B642801D9032016E7DBF8AA
:1017A0000000C005F4D5E068012812D0B0B10528CA
:1017B0001DD0286A20F001002862286A20F0040069
:1017C0002862E06841F2883B28B3FFF75FF90746DB
:1017D0001DE0286A40F001002862F2E7286A20F044
:1017E00001002862286A20F004002862E9E7286ADC
:1017F00040F004002862286A40F001002862E0E717
:10180000FFF744F9C01B584501D90320DEE6286ADA
:101810008007F5D50DE0FFF739F9074606E0FFF739
:1018200035F9C01B584501D90320CFE6286A800747
:10183000F5D4012E03D1E86920F08050E861E06919
:10184000A0B36968C1F38101022947D0022805D0FD
:10185000C8F86090FFF71AF904463AE0C8F86090BB
:10186000FFF714F9064606E0FFF710F9801B02287F
:1018700001D90320AAE628688001F5D4206AB0F5D2
:10188000803F05D16868A16820F400300843686093
:10189000D4E908010843696821F4741108436860B9
:1018A000C8F860A0FFF7F2F8044607E014E0FFF77D
:1018B000EDF8001B022801D9032087E62868800183
:1018C000F5D509E0FFF7E2F8001B022801D9032053
:1018D0007CE628688001F5D4002077E6012075E6D3
:1018E000001002400000424280044242007000406A
:1018F00010B5401EB0F1807F01D3012010BD4FF024
:10190000E02460610F21601701F0C4F90020A0619C
:1019100007202061002010BD7047704710B590F877
:101920003C20012A25D0012280F83C20CA680023EF
:101930008C6822F4407222434C6822F48062224375
:101940000C6822F4006222430C6922F48052224384
:101950004C6922F400522243896922F480420A43EE
:1019600022F400420A4301684A6480F83C300020B7
:1019700010BD022010BD30B590F83C20012A20D0C7
:10198000012380F83C30022280F83D200268546830
:1019900024F070045460026854680D682C4354604D
:1019A0000268946824F0800494600268946849682E
:1019B0000C43946080F83D30002180F83C100020FA
:1019C00030BD022030BD10B50446002C03D094F881
:1019D0003D0010B107E0012010BD002084F83C005C
:1019E000204600F00DF8022084F83D00211D2068FB
:1019F00001F0D4F9012084F83D00002010BD000062
:101A000008B500680C4A0D49904208D1886940F435
:101A100000608861886900F40060009008BD084A91
:101A20009042FBD1C86940F00400C861C86900F069
:101A30000400009008BD0000002C0140001002408E
:101A4000000800400168CA6842F00102CA600068EC
:101A5000016841F001010160002070470168CA6817
:101A600022F00102CA600068016A41F211121142BB
:101A700007D1016A9210114203D1016821F00101DE
:101A800001600020704770B5044694F83C000128BE
:101A900017D0012584F83C50022084F83D002068CE
:101AA000826822F0770222F47F4282600868502820
:101AB0003AD00DDC20285FD005DCA0B3102864D11B
:101AC00055E0022070BD30285BD040285DD13FE05A
:101AD000602833D070280CD0B0F5805F03D0B0F50B
:101AE000005F52D113E02068816821F00701816016
:101AF0004BE0CB68D1E90121206801F090F9206822
:101B0000816821F0770141F0770181603DE0CB6889
:101B1000D1E90121206801F082F92068816841F44F
:101B20008041816031E01DE0CA684968206801F0A9
:101B30003FFA5021206801F07CF926E0CA68496824
:101B4000206801F046FA6021206801F072F91CE07B
:101B5000CA684968206801F02BFA4021206801F02A
:101B600068F912E00021206801F063F90DE010210E
:101B7000206801F05EF908E02021206801F059F9A1
:101B800003E03021206801F054F93C3465700020F6
:101B9000207070BD704770B50446206801694FF031
:101BA0000005C943890716D4C168C943890712D4FF
:101BB000E91E01610120207720688069800703D039
:101BC0002046FFF7E7FF05E0204600F0C5F8204675
:101BD00000F0C8F9257720680169C943490718D47E
:101BE000C168C943490714D46FF0040101610220A0
:101BF00020772068806910F4407F03D02046FFF7EB
:101C0000C9FF05E0204600F0A7F8204600F0AAF939
:101C1000257720680169C943090717D4C168C943FA
:101C2000090713D46FF008010161042020772068B0
:101C3000C069800703D02046FFF7ACFF05E02046CF
:101C400000F08AF8204600F08DF9257720680169B8
:101C5000C943C90618D4C168C943C90614D46FF072
:101C600010010161082020772068C06910F4407FCE
:101C700003D02046FFF78EFF05E0204600F06CF809
:101C8000204600F06FF9257720680169C943C9072C
:101C900008D1C168C943C90704D1891E0161204622
:101CA00000F061F920680169C943090609D4C168D7
:101CB000C943090605D46FF0800101612046FFF792
:101CC0002BFE20680169C943490609D4C168C9438C
:101CD000490605D46FF040010161204600F045F946
:101CE00020680169C94389060BD4C168C9438906C4
:101CF00007D46FF0200101612046BDE87040FFF776
:101D00000CBE70BD70B5044694F83C0001280DD09F
:101D1000012584F83C50022084F83D0042B1042A99
:101D20000AD0082A0CD00C2A11D10DE0022070BD77
:101D3000206801F087F80AE0206801F0B3F806E0B7
:101D4000206801F0E1F802E0206801F00DF93C3470
:101D500065700020207070BD70B50446207F01289A
:101D600023D101F08DFB0546012001F013FB8542D4
:101D70001BD10121364801F049FB01F06DFC01281F
:101D80000ED00121324801F041FB02F0BDFC0121DF
:101D90002F4801F03BFB0146204602F037FD04E0EE
:101DA00000220121204602F0B5FA207F022823D12B
:101DB00001F066FB0546022001F0ECFA85421BD1DA
:101DC0000221234801F022FB01F046FC01280ED03D
:101DD00002211F4801F01AFB02F096FC02211C4868
:101DE00001F014FB0146204602F010FD04E0002241
:101DF0000221204602F08EFA207F042826D101F02D
:101E00003FFB0546032001F0C5FA85421ED10321A0
:101E10000F4801F0FBFA01F01FFC01280FD003214D
:101E20000B4801F0F3FA02F06FFC0321084801F0BF
:101E3000EDFA01462046BDE8704002F0E7BC2046BE
:101E4000BDE870400022032102F064BA70BD0000BA
:101E50001800002010B50446002C03D094F83D0073
:101E600010B107E0012010BD002084F83C0020469E
:101E700000F00CF8022084F83D00211D206800F0DD
:101E80008DFF012084F83D00002010BD7047000048
:101E900010B504460022206800F0B6FF0E4841F25B
:101EA000111221689310814209D1086A104206D1AB
:101EB000086A184203D1486C20F400404864206846
:101EC000016A114206D1016A194203D1016821F069
:101ED00001010160002010BD002C014010B5044636
:101EE0000029226806D0042909D008290CD00C2921
:101EF00013D10EE0D06820F00200D0600DE0D06871
:101F000020F00400D06008E0D06820F00800D06025
:101F100003E0D06820F01000D0600022206800F0BC
:101F200073FF0F4841F2111221689310814209D1C9
:101F3000086A104206D1086A184203D1486C20F49E
:101F4000004048642068016A114206D1016A1942C2
:101F500003D1016821F001010160002010BD0000E3
:101F6000002C0140704701F0B5BA704770B50446C7
:101F7000002C04D094F83900002510B106E00120AF
:101F800070BD84F83850204600F022F8242084F8F0
:101F900039002068C16821F40051C160204601F079
:101FA0002BF82068016921F49041016120684169A2
:101FB00021F02A0141612068C16841F40051C160EB
:101FC000E563202084F8390084F83A00002070BDD1
:101FD00030B585B000240194029403940494006801
:101FE0001449884224D11448816941F480418161B7
:101FF000816901F480410091816941F004018161AE
:10200000806900F0040000904FF4007001900220FD
:10201000029003200490094D01A92846FEF72EFCEA
:10202000291501910294039401A92846FEF726FC84
:1020300005B030BD003801400010024000080140EA
:10204000FEE700000148FEF753BD0000C81700205E
:102050000148FEF7B5BD0000C817002010B5406A62
:1020600001680A6822F480620A6000214185426B9F
:102070005163826B516390F83D302022602B0BD06E
:1020800080F83D2080F83E1001680A6822F00102C5
:102090000A60FEF75AFE10BD80F83D2080F83E1021
:1020A000016401680A6822F001020A60FEF7F4FC8C
:1020B00010BD000070B5044694F83D1000262025A0
:1020C000206829292FD02A292DD094F83D10602985
:1020D00004D04168090501D484F83D50266384F892
:1020E0003E60016821F400610160206841680905D3
:1020F00039D5416821F400614160606B354990F841
:102100002120012A14D04163606BFEF759FB48B3CC
:102110002068016821F00101016084F83D50606B86
:10212000416B88472FE02663282184F83D10D8E7CB
:10213000A06B4163A06BFEF743FB98B12068416937
:10214000C943490604D40169606A421C6262017095
:102150002068016821F00101016084F83D50A06B06
:10216000416B88470FE094F83D1060291DD041690C
:10217000C943490604D40169606A421C6262017065
:102180002046FEF7E2FD94F83D0028280CD1206C93
:10219000400709D51048E062266384F83D5084F872
:1021A0003E602046FEF77AFE70BD84F83D502664FE
:1021B0004169C943490604D40169606A421C6262EC
:1021C00001702068016821F0010101602046FEF7DE
:1021D00063FCD8E75D2000080000FFFF10B5C26A6D
:1021E000438D354C0168032B0CD0438D022B1DD041
:1021F0000A69416A4B1C43620A70418D491E418540
:10220000002010BD042A03D0082A01D0A24203D125
:102210000A6822F480620A6001680A69416A4B1CFC
:1022200043620A70418D491E4185E9E7042A14D0B2
:10223000082A12D0A24210D0022A04D00A6822F43E
:1022400080620A6003E00A6842F480620A60016802
:102250004A6822F440724A6008E04A6822F44072F8
:102260004A6001680A6842F400720A6001680A69FB
:10227000416A4B1C43620A70418D491E41850168C9
:102280000A69416A4B1C43620A70418D491E4185AF
:10229000202180F83D100021016390F83E20402A63
:1022A00004D080F83E10FEF745FEA9E780F83E1006
:1022B000FEF742FEA4E700000000FFFF10B590F813
:1022C0003D10222952D1418D032909D901680A699B
:1022D000416A4B1C43620A70418D491E418545E0AD
:1022E00002290AD0032908D0C16A02291ED0016838
:1022F0000A6822F480620A601DE0C16A02290AD0DD
:1023000001680A6822F480620A6001680A6842F47F
:1023100000620A6004E001680A6842F480620A60B0
:102320000068416821F4806141601FE001680A682B
:1023300042F480620A6001684A6822F4E0624A60FE
:1023400001680A69416A4B1C43620A70418D491E4B
:102350004185202180F83D100021016390F83E2046
:10236000402A05D080F83E10FEF7E4FD002010BDA5
:1023700080F83E10FEF7E0FDF8E710B5C16A90F86E
:102380003D20212A37D1428D4AB1416A4A1C42621E
:10239000026809781161418D491E41852BE0202397
:1023A0000022042912D0082910D011F5803F0DD049
:1023B00001684C6824F4E0644C601121016380F8EA
:1023C0003E2080F83D30FEF7B6FD14E001684C6811
:1023D00024F4E0644C6001680C6844F400740C6000
:1023E000026380F83D3090F83E10402905D080F817
:1023F0003E20FEF7A0FD002010BD80F83E20FEF735
:102400009CFDF8E710B590F83D1090F83E30C26A98
:10241000048D002C01D1212904D0212936D0402B54
:1024200032D042E020240023042A12D0082A10D0FF
:1024300012F5803F0DD001684A6822F4E0624A60DC
:102440001121016380F83E3080F83D40FEF773FDB6
:102450002BE001684A6822F4E0624A6001680A6879
:1024600042F400720A60036380F83D4090F83E1029
:10247000402904D080F83E30FEF75DFD15E080F87D
:102480003E30FEF75AFD10E022290ED1418D71B188
:1024900090F83E10402910D0416A4A1C42620268FE
:1024A00009781161418D491E4185002010BD0068E9
:1024B000416821F480614160F7E7016DB9B1016DB8
:1024C000012928D0016D0229EFD190F83D10222971
:1024D00029D090F83D102129E7D1416A4A1C426277
:1024E000026809781161418D491E4185DDE7C16CA3
:1024F000012908D0816C0268C1F307211161016DC7
:10250000491C0165D1E7816C0268C9B21161016D96
:10251000891C0165C9E7816C0268C9B21161016D4E
:10252000491C0165C1E70068016841F480710160E0
:10253000BBE7416C0068C9B201610020704778B503
:1025400090F83E40C26A056B90F83D600023016838
:10255000222E04D0486988690090002078BD066D5D
:102560000EB9402C02D0046D24B107E04869886997
:102570000090F2E70469B4F5404F19D0448D14B3CC
:10258000448D012C27D0428D022A64D00A6842F47F
:1025900080620A6001684A68120503D54A6842F4FD
:1025A00080524A6001684A69896900910365D4E7ED
:1025B0004A698A6900920A6842F480720A60016D71
:1025C000491C0165C9E74A698A6900920A6842F4B0
:1025D00000720A60EAE712F5803F0DD0042A2DD080
:1025E000082A2BD0122D29D0C26A022A1DD00A68CF
:1025F00022F480620A601CE00A6822F480620A60A9
:1026000001684A68120508D50A6822F480620A60E7
:1026100001684A6989690091C8E74A698A69009234
:102620000A6842F400720A60C0E70A6842F48062F5
:102630000A6001684A6989690091B7E70A6822F46B
:1026400080620A6001684A698A6900920A6842F4F5
:1026500000720A60AAE7C26A022A0CD00A6842F431
:1026600000620A6001684A698A6900920A6822F475
:1026700080620A6007E00A6842F480620A600168CA
:102680004A698969009101684A6812058ED54A68CD
:1026900042F480524A6089E790F83E10402909D000
:1026A0000169B1F5804F14D0016D19B3016D012995
:1026B00029D030E0016D31B1416C0068C9B241F000
:1026C0000101016127E0416C006801F0FE01016138
:1026D00021E090F83D10212906D0416C0068C9B274
:1026E00041F00101016116E0416C006801F0FE015A
:1026F000016110E0416C006801F44071F02242EA8F
:10270000D111016107E0416C006801F44071F122D0
:1027100042EAD111016100207047418D002908D0A3
:1027200001680A69416A4B1C43620A70418D491E67
:102730004185002070472DE9F041044694F83D5052
:10274000608D002838D020680169606A421C62628E
:102750000170608D401E608500F032FE0078618D52
:10276000222628271B2918D12A2D16D1032809D063
:10277000042807D0052805D0062803D0072801D053
:1027800008280AD12068416821F4806141602663ED
:1027900084F83D702046FEF709FC608D60B92A2D53
:1027A0000AD12068416821F480614160266384F881
:1027B0003D702046FEF7FAFB0020BDE8F081418D18
:1027C000002908D0416A4A1C4262026809781161F6
:1027D000418D491E41850020704710B590F83D207D
:1027E000418D002918D0416A4B1C43620368097867
:1027F0001961418D491E4185418D69B9292A0BD145
:1028000001684A6822F480624A602121016328211C
:1028100080F83D10FEF788FC002010BD10B50021A7
:1028200002689369DB435B0700D501219269D243BB
:10283000120602D5828992B201E0028B92B2FEF7B3
:102840002DF9002010BD00002DE9F04190F83D2049
:10285000C36A00251C4E202701686FF48064042B96
:1028600001D0082B01D1282A05D0212A17D04C618C
:102870000020BDE8F081C6624A6822F4E0624A6046
:1028800001684C6101680A6822F480620A6005638D
:1028900080F83D7080F83E50FEF700FBE8E7C66226
:1028A0002122026380F83D7080F83E504A6822F48D
:1028B000E0624A6001684C6101680A6822F4806243
:1028C0000A60FEF731FCD3E70000FFFF38B590F84F
:1028D0003D100268536823F4E063536000230268EC
:1028E00054690094146844F0010414600268146888
:1028F00024F4806414600268546824050BD590F8B1
:102900003D40222C2BD090F83D402A2C27D0446B00
:10291000246864684485448DE4B15469E4436407E1
:1029200007D41469426A551C45621470428D521EC8
:10293000428502685469E443640607D41469426A14
:10294000551C45621470428D521E4285026C42F045
:1029500004020264026C3AB1FFF7ACFB22E0846B24
:10296000246864684485D6E72022282909D02A29CA
:1029700007D0292905D0046B222C0CD022290AD09B
:1029800010E00949C162036380F83D2080F83E30C1
:10299000FEF784FA06E0036380F83D2080F83E30BD
:1029A000FEF704FB002038BD0000FFFF2DE9F041D9
:1029B00086B00025029503950495059545488169E3
:1029C00041F010018161816901F01001019181697B
:1029D00041F004018161816901F004010191816983
:1029E00041F008018161806900F0080001903A4ED1
:1029F0004FF40054002221463046FEF740F8374F8E
:102A0000002248F2FF013846FEF739F8DFF8D0809F
:102A100000224CF67B414046FEF731F8002280212F
:102A20004046FEF72CF80294012403940495059483
:102A300002A93046FDF722FF48F2C300029003943A
:102A400002260496059402A93846FDF717FF1C20BC
:102A5000029003940495059402A93846FDF70EFFF1
:102A60002020029003940494059402A93846FDF7AF
:102A700005FF4CF27340029003940495059402A95B
:102A80004046FDF7FBFEE002029003940494059497
:102A900002A94046FDF7F2FE8020029003940494C0
:102AA000059602A94046FDF7E9FE4FF4C850029092
:102AB0000395049502A93846FDF7E0FE0820029030
:102AC00003940496059402A94046FDF7D7FE06B08C
:102AD000BDE8F081001002400010014000080140F4
:102AE000000C014010B50E480C4901600D494160D1
:102AF000002181603E22C2604FF480420261416148
:102B000081614022C2610162FEF720F9002803D0F2
:102B1000BDE81040FDF73EBE10BD0000005400406F
:102B2000C8170020801A060010B5002211461F2089
:102B3000FEF7E2FB1F20FEF7D3FB00221146202008
:102B4000FEF7DAFB2020FEF7CBFB00220121192043
:102B5000FEF7D2FB1920FEF7C3FB012211461B2012
:102B6000FEF7CAFBBDE810401B20FEF7B9BB000012
:102B700010B594B0002410941194129413940E94F0
:102B80000F941C2107A8FDF7F6FA1C216846FDF7F3
:102B9000F2FA2F482D4901601F21416084604FF6F1
:102BA000FF71C160046144618461FEF70CFF08B1EC
:102BB000FDF7F0FD4FF48050109010A92448FEF767
:102BC00062FF08B1FDF7E6FD2148FFF743F908B1C0
:102BD000FDF7E0FD0E940F940EA91D48FEF7CBFE05
:102BE00008B1FDF7D7FD0794089409940A940B9453
:102BF0000C940D94002207A91548FFF783F808B13B
:102C0000FDF7C8FD042207A91148FFF77BF808B1BA
:102C1000FDF7C0FD082207A90D48FFF773F808B1BA
:102C2000FDF7B8FD009401940294039404944FF4CA
:102C300000500590069469460548FEF76FFE00288F
:102C400001D0FDF7A7FD14B010BD0000002C01401D
:102C50001C18002010B50C480A4901600B4941605E
:102C600000218160C16001610C2242618161C1610A
:102C7000FFF77CF9002803D0BDE81040FDF78ABDBE
:102C800010BD0000003801405C180020A80D0E00A7
:102C9000FEE770470907090E002806DA00F00F006A
:102CA00000F1E02080F8141D704700F1E02080F86A
:102CB000001470477047000008B507494FF4FA52F6
:102CC0000968B1FBF2F14143009100BF0098411E39
:102CD0000091FAD208BD0000B40100207047FEF751
:102CE000A1BA30B58FB0282105A8FDF744FA142108
:102CF0006846FDF740FA022505950120099010204D
:102D00000A900C9500240D944FF4C0100E9005A865
:102D1000FEF742FC08B1FDF73DFD0F200090019544
:102D200002940394049401216846FEF717FB0028DF
:102D300001D0FDF72FFD0FB030BD00000D48016838
:102D400041F00101016041680B4A11404160016896
:102D50000A4A11400160016821F480210160416844
:102D600021F4FE0141604FF41F0181600449C0035A
:102D700008607047001002400000FFF8FFFFF6FEF9
:102D800008ED00E00148FEF706BF00001C18002017
:102D90000148FEF700BF00001C180020F0B50268D3
:102DA000164C174D174E4FF08047A04205D0B84241
:102DB00003D0A84201D0B04203D122F070034A6888
:102DC0001A43A04205D0B84203D0A84201D0B04275
:102DD00003D122F44073CA681A4322F080024B697F
:102DE000134303608A68C2620A688262A04201D10A
:102DF0000969016301214161F0BD0000002C01401F
:102E0000000400400008004010B501238B40046A14
:102E10009C430462036A8A401343036210BD10B5E9
:102E2000846824F47F4442EA03220A4322438260F6
:102E300010BD826822F070020A4342F007018160EF
:102E40007047000030B5026A22F001020262036A94
:102E50004268846924F0700424F003050C682C4354
:102E600023F002058B682B430D4DA84206D123F0B9
:102E70000805CB6843EA050323F0040309D122F4D3
:102E8000807222F400724D6945EA02058A6942EABD
:102E900005024260846149684163036230BD0000FD
:102EA000002C014030B5026A22F010020262036A6F
:102EB0004268846924F4E04424F440740D6844EAD0
:102EC000052423F020038D6843EA05130D4DA84225
:102ED00006D123F08003CD6843EA051323F04003B5
:102EE00009D122F4806222F400624D6942EA85022F
:102EF0008D6942EA850242608461496881630362A8
:102F000030BD0000002C014030B5026A22F480720E
:102F10000262036A4268C46924F0700424F0030565
:102F20000C682C4323F400738D6843EA05230D4D90
:102F3000A84206D123F40063CD6843EA052323F4B5
:102F4000806309D122F4805222F400524D6942EA92
:102F500005128D6942EA05124260C4614968C16385
:102F6000036230BD002C014030B5026A22F4805269
:102F70000262036A4268C46924F4E04424F44074A1
:102F80000D6844EA052423F400538D6843EA0533B1
:102F9000064DA84204D122F480424D6942EA8512CE
:102FA0004260C46149680164036230BD002C014085
:102FB00010B5036A046A24F001040462846924F0F1
:102FC000F00444EA021423F00A020A438461026214
:102FD00010BD10B5036A23F0100303628469036A0D
:102FE00024F4704444EA023223F0A00343EA0111BE
:102FF0008261016210BD00002DE9F04104462068A5
:103000000169E26821F4405111430161A16820691E
:103010000143606901432068C26841F20C639A432E
:103020000A43C26020684169A26921F440711143DA
:1030300041615749206864253226884254D1FEF701
:1030400061FA00EBC00101EB001061688900B0FB80
:10305000F1F7FEF757FA00EBC00101EB00106168D1
:103060008900B0FBF1F0B0FBF5F06FF018014843B8
:1030700007EB800006EB0010B0FBF5F000F0F00766
:10308000FEF740FA00EBC00101EB00106168890017
:10309000B0FBF1F0B0FBF5F007EB0017FEF732FAEA
:1030A00000EBC00101EB001061688900B0FBF1F892
:1030B000FEF728FA00EBC00101EB001061688900FF
:1030C000B0FBF1F0B0FBF5F06FF01801484308EBEE
:1030D000800006EB0010B0FBF5F0216800F00F0057
:1030E00038448860BDE8F081FEF7FCF900EBC001D0
:1030F00001EB001061688900B0FBF1F7FEF7F2F90F
:1031000000EBC00101EB001061688900B0FBF1F039
:10311000B0FBF5F06FF01801484307EB800006EBB9
:103120000010B0FBF5F000F0F007FEF7DBF900EB64
:10313000C00101EB001061688900B0FBF1F0B0FB49
:10314000F5F007EB0017FEF7CDF900EBC00101EB3E
:10315000001061688900B0FBF1F8FEF7C3F900EBDD
:10316000C00101EB001061688900B0FBF1F0B0FB19
:10317000F5F06FF01801484308EB800006EB0010F3
:10318000B0FBF5F0216800F00F0038448860A9E733
:1031900000380140FEE7490050EAC12018BF042072
:1031A0004A0D18BF40F0010040F2FF72B2EB515FD0
:1031B00008BF40F00200012808BF052070472DE934
:1031C000F0414F1E00EBC7010446D1E9000115464E
:1031D0001E4637F006020DD02A463346FDF78BF81F
:1031E0007F1E04EBC703D3E90023FCF7DDFF37F0B4
:1031F0000602F1D1022F25D0042F13D0062F18BFBD
:10320000BDE8F0812A463346FDF775F8D4E90A2374
:10321000FCF7CAFF2A463346FDF76DF8D4E90823C8
:10322000FCF7C2FF2A463346FDF765F8D4E90623CA
:10323000FCF7BAFF2A463346FDF75DF8D4E90423CC
:10324000FCF7B2FF2A463346FDF755F8D4E90223CE
:10325000FCF7AAFF2A463346FDF74DF8D4E90023D0
:10326000BDE8F041FCF7A0BF00221346104601491B
:10327000FDF7B3B80000F03FFCF796BF00221346FD
:1032800010461146FDF7A9B840F2013200204FF078
:10329000E041FDF711B90000024A00201107FDF7D7
:1032A0000BB9000001FDFFFF02E008C8121F08C1B2
:1032B000002AFAD170477047002001E001C1121FB7
:1032C000002AFBD1704700000149086070470000E8
:1032D000B80100202DE9F041074608461646FDF7E3
:1032E00002F904460D463846FDF7FDF822462B4606
:1032F000FCF75AFF04460D463046FDF7F4F801226C
:10330000FDF7DAF822462B46BDE8F041FDF765B837
:1033100002460B4600200149FDF75FB880842E412C
:10332000012806D0194B022810D003281CD0FDF725
:1033300031BA1748012905D0002925D101222021C1
:10334000FDF79DBB00222021FDF799BB012906D086
:10335000002919D1012280211846FDF790BB0022D7
:1033600080211846FDF78BBB4FF40060012906D081
:10337000002909D1014601221846FDF780BB01460C
:1033800000221846FDF77BBB70470000000C01408F
:103390000008014010B50849012807D0022807D0CD
:1033A000032807D0FDF7F6F9204610BDCC88FBE7CF
:1033B0000C89F9E74C89F7E700000020806C704722
:1033C00000487047BC0100201C207047004870472F
:1033D000010000200220704701480069704700008A
:1033E000000000200148C068704700000000002075
:1033F0000249C0EBC00001EB80007047E8010020EB
:1034000001480078704700000000002010B5034616
:10341000002203EBC210103084698C4203D0521C8E
:10342000032AF6DB002010BD0146806DC96D704790
:10343000806CFDF758B880697047406F704704286A
:103440000FD004DC012808D0022804D107E00828A6
:1034500009D0102809D000207047002070470120B3
:10346000704702207047032070470720704710B54F
:103470000068406A84B200F003F844EA004010BDDE
:1034800001488088704700000000002010B5FFF759
:10349000A3FFC82802D1FFF7A5FF20B104480169A6
:1034A000491C016110BDBDE81040FDF773B9000073
:1034B0000000002000B5FFF795FF0549C82803D09C
:1034C000C868401CC86000BD0020C86000BD000086
:1034D0000000002006488188A1F57F42FF3A03D012
:1034E0008188491C818070470021818070470000DD
:1034F000000000202DE9F0478046894600252F4F27
:1035000012E008EBC51606F10B002DA1FCF73EFEFC
:1035100070B1002240213846FDF7B1FA0122202186
:103520003846FDF7ACFA6D1C4D45EADBBDE8F08787
:10353000B06FFFF784FF0446B069012817D0022856
:1035400029D00328EFD104F001024FF480613846FE
:10355000FDF795FAC4F3400202213846FDF78FFAD1
:10356000C4F3800201213846FDF789FADBE7164EE5
:1035700004F0010210213046FDF781FAC4F3400245
:1035800008213046FDF77BFAC4F38002042130465F
:10359000FDF775FAC7E704F0010240213846FDF750
:1035A0006EFAC4F3400220213846FDF768FAC4F3EE
:1035B000800210213846FDF762FAB4E7000C0140A2
:1035C0005354455000000000000801400FB4F0B50E
:1035D000A1B00126002426AD0DF10B0705EBC411A7
:1035E000103180226846FCF7ADFDDDE9120188420A
:1035F0000AD00998012807D00798012804D108A10A
:103600003846FCF7C3FD10B90898012800D1002600
:10361000641C032CE2DB21B03046F0BC5DF814FBE7
:10362000444300000B4A0146012807D002290AD072
:1036300003290DD191141046FDF716BA4FF480718D
:103640001046FDF711BA4FF400611046FDF70CBAB1
:10365000704700000008014070B504460125E0698C
:1036600000280AD0206A012809D0606A012810D0F9
:10367000D4E91201884200D00025284670BDA06917
:10368000FFF7D0FF012801D00025F6E700202062D7
:10369000F3E70025F1E70000ADF5407DFDF7CAFD39
:1036A000FFF71FFBFFF782F9FFF71CFAFFF7D2FACB
:1036B000FFF75EFA41496FF0010009680861404870
:1036C000416841F480614160FFF72EFA3D48FDF703
:1036D0001FFB08B1FDF75EF801213B48FFF796FE9E
:1036E0000146802260A8FCF72DFD02213648FFF735
:1036F0008DFE0146802280A8FCF724FD032132487C
:10370000FFF784FE01468022A0A8FCF71BFD0321E1
:1037100060A8FFF7EFFE012000F0AEFE00210120BF
:10372000FFF7FEFDFFF76CFE0228FBD1FFF75AFE04
:103730000146FFF751FE814234D024A000F03CFE48
:10374000FFF750FEFFF754FE1F4900F02FFD1E4902
:103750001A4801F021F81948FEF774F91A4D4FF490
:10376000C0761035A5F12804324629466846FCF794
:10377000E9FC04F118000FC8FFF728FF0128F3D176
:10378000FFF798FE0D48FEF769F901210B48FEF797
:103790007FFB02210948FEF77BFB03210748FEF768
:1037A00077FBBFE7FFF71EFE0146FFF715FE8142DC
:1037B000B8D1012000F060FEB4E700001C18002022
:1037C000002004E0C8170020180000204F52414E8E
:1037D000474500002DE9F04D1D460C4698B01746B0
:1037E00021F0004123F00043002814BF4FF0010CEA
:1037F0004FF0000C0CEB440CFE4A0CEB02064FEAB7
:10380000620C66452BD33E0018BF012606EB450629
:103810001644F94A964222D3F84A53EA070C02D0DA
:10382000944205D148B918B000201146BDE8F08D8A
:10383000002808BF4FF0000C01D04FF0010C0CEB3A
:10384000440212F5001F0AD8002F14BF4FF0010CDC
:103850004FF0000C0CEB450212F5001F07D918B011
:103860003A462B462146BDE8F04DFFF705BD002244
:10387000DFF88CA3002CB8BF534526DADFF884C3E9
:103880006345A8BF022220DADFF870C39C451CDC28
:10389000DFF874C30CEB235CBCF1140F08DDCCF132
:1038A000340627FA06FC0CFA06F6BE420DD108E0F3
:1038B0005FB9CCF1140623FA06FC0CFA06F69E4218
:1038C00003D10CF00102C2F1020251EA000C19D13D
:1038D000002D17DA002C18BF022A01D0012A07D0C8
:1038E0000220FFF7F1FC18B0BDE8F04DFFF7BCBCBB
:1038F0000220FFF7E9FCFFF7B7FC18B081F00041A8
:10390000BDE8F08DB7F1000C6CD1534525D104F121
:10391000804212F5801201BF00280020B74918B07C
:1039200008BFBDE8F08DB548884207DC002DA1BF77
:103930006046294618B0BDE8F08D07E0281E05DA7C
:1039400080F0004118B06046BDE8F08DAF49794481
:10395000D1E9000118B0BDE8F08DDFF8A0C26345E1
:1039600025D1002D1FDA19B1514512D1D8B909E07E
:10397000002840F0EC82A24A214618B062F31E01F2
:10398000BDE8F08D0020214618B060F31E01BDE8AF
:10399000F08D08DA18B02346BDE8F04D024600204D
:1039A0006146FCF71ABD18B02146BDE8F08D5145BF
:1039B00018DAB5F1804F0DD0A5F1005CBCF1FF5CC9
:1039C00010D1B4F1000C0DDB18B06146BDE8F04D2C
:1039D00000F074BE234618B00246BDE8F04D19460B
:1039E000FCF789BC060024F0004C3BD1D9B151450D
:1039F00033D1002C06DD002DA1BF0020514618B0A8
:103A0000BDE8F08D002C01DD002D1BDB002C13DA4E
:103A1000002D11DB012A4FF0000014BF78497C49CA
:103A200018B0BDE8F08D022A18BF002C0AD0012A78
:103A300008D1002C06DA0AE0002CB8BF002D11DAFC
:103A4000012A04D0002018B00146BDE8F08D18B05E
:103A500000204FF00041BDE8F08DA1F14050B0F1E1
:103A60007F601AD0012000EBE47050EA020421D0FC
:103A7000624C521E4FF0000B104304BF4FF0000B7E
:103A8000644C654883427CDD644A654893421FDD8F
:103A9000884217DB002D25DB37E0002C00DA4AB125
:103AA000022A0CBF01204FF0FF3018B0BDE8F04DE6
:103AB000FCF719BD0120FFF707FC18B0BDE8F04D79
:103AC000FFF7DCBB4D4A8A4202DC002D0ADC1CE019
:103AD000814202DA002D18DA04E0484B994220DDD9
:103AE000002D12DD0220FFF7EFFBFFF7CDFB0546AF
:103AF0000E460022534658462146FCF7FCFB18B000
:103B000066F31E012846BDE8F08D0220FFF7DCFBBE
:103B1000FFF7C2FB0A46214618B062F31E01BDE85A
:103B2000F08D002230466146FCF7DFFB80460E46F2
:103B30006FF00102FCF7C0FC4FF05532394BFCF737
:103B4000D7FB42463346FCF7D6FB0022364BFCF748
:103B5000CFFB824642463346049110461946FCF795
:103B6000CAFB5246049BFCF7C6FB8A4600904FF006
:103B7000C0422E4B40463146FCF7BDFB2C4A2B4B36
:103B800000E027E0CDE9060151460098FCF7B3FBC1
:103B900082460191274A284B40463146FCF7ABFB51
:103BA0005246019BFCF7A1FB82460B46024605915B
:103BB000DDE90601FCF7F8FADDE906230026884670
:103BC0003046FCF792FB5246059BFCF791FB024600
:103BD00000F07EB90020B1F5801F07DA35223046AB
:103BE0006146FCF769FC06466FF0340000EB21509B
:103BF00024E00000FFFF1F00FFFF0F000000F03F68
:103C00000000F07F0000404301FCFFFFD6150000DC
:103C10000000F0FF0000F0BF0000E0410000F043B2
:103C2000FFFFEF3F5555D53F0000E03F4715F73FF9
:103C3000FE822B6544DF5DF80BAE543EA0F2FF30F0
:103C40000190C1F3130040F07F6141F040510291B7
:103C5000FE498842D8BF002004DDFD498142C8BF2B
:103C6000012001DD0D9008E000200D900198401C1E
:103C700001900298A0F5801002900299F5487844CE
:103C80000B910D9900EBC100D0E900230F93304652
:103C90000A920B99FCF729FBCDE90601DDE90A211F
:103CA00030460F9BFCF780FA02460B460020EA499B
:103CB000FCF793FB059102460B460090DDE90601F7
:103CC000FCF719FB1490E5488A464FF00008784449
:103CD0000299006812904FF0005040EA61010D987F
:103CE0000F9B01EB804000F5002109910A9A129880
:103CF000FCF7FBFA32460B9BFCF7FAFA42465346B6
:103D0000FCF7F9FA0646029140465146099B129A81
:103D1000FCF7F1FADDE90623FCF7EAFA3246029BEA
:103D2000FCF7E3FA059B009AFCF7E5FA0091149A78
:103D30000490534610461946FCF7DDFA0646024643
:103D4000C7480B46029106217844FFF738FACDE9BF
:103D50000510029B324610461946FCF7CCFADDE905
:103D60000532FCF7C8FA0591064653464046194607
:103D7000149AFCF719FA009B049AFCF7BCFA324635
:103D8000059BFCF711FACDE9051042465346104653
:103D90001946FCF7B0FA0022B24B02910A90FCF7E8
:103DA00003FADDE90532FCF7FFF90E464246AD4B5A
:103DB0004046FCF79AFA029B0A9AFCF796FADDE96C
:103DC0000532FCF795FA424602910A9033461046B6
:103DD0005146FCF790FACDE906015346149A029930
:103DE0000A98FCF788FA8A460290334642460099C0
:103DF0000498FCF780FA5346029AFCF7D5F98246FC
:103E00000B4602460591DDE90601FCF7CDF9DDE937
:103E10000623002088460646FCF767FA5246059BB3
:103E2000FCF766FA824609914FF060428E4B3046AD
:103E30004146FCF760FA049006918C4A8A4B504642
:103E40000999FCF758FA82460291894A894B304613
:103E50004146FCF750FA5246029BFCF7A5F9864B07
:103E60007B440D9A03EBC203D3E90023FCF79CF9D2
:103E70000E9007910198FCF736FB0591DDE90613DA
:103E800082460E9A0498FCF78FF97C4A7A440D9B7F
:103E900002EBC303D3E9002300930292FCF784F9F9
:103EA0005246059BFCF780F900268846524630466C
:103EB000059BFCF71AFA009B029AFCF716FA069B80
:103EC000049AFCF712FA079B0E9AFCF711FA0246C5
:103ED00000200B46029038462946FCF70CFA824631
:103EE00001912B4638461946029AFCF7FEF93246F4
:103EF0004346FCF700FA5246019BFCF755F907468A
:103F00008A463246434629460298FCF7F4F90546AC
:103F10000E463A465346FCF747F9594A88469142BD
:103F200021DBA8EB020353EA000210D12A463346F4
:103F3000FCF7DBF9CDE90401524A534B38465146B0
:103F4000FCF732F9DDE90423FCF7FEFA21D2022066
:103F5000FFF7BAF9FFF798F90A46214618B062F35D
:103F60001E01BDE8F08D494B28F000429A4210D363
:103F7000474A08EB020353EA00027FF4C6AD2A4623
:103F80003346FCF7B2F93A465346FCF7DDFA7FF6C2
:103F9000BCAD0022019228F000403E493E4A01EBB0
:103FA0002051824223DA481C4FF4801121FA00F09C
:103FB00040443A4AC0F30A517A44394BA1F2FF31E6
:103FC000CB4020EA0303C0F3130040F48010C1F19A
:103FD0001401C84012680190B8F1000FBCBF404204
:103FE000019028463146FCF780F905460E462A46E0
:103FF000334638465146FCF7D7F84FF000084246A2
:10400000284B40460591FCF776F9CDE90601264A92
:10401000264B40460599FCF76EF9009102902A461E
:10402000334640460599FCF760F93A465346FCF79B
:104030005FF91F4A1F4BFCF75EF9009B029AFCF7E1
:10404000B3F80746884602460B4635E08E980300D3
:104050007AB60B001E1200000000F03F561200005E
:10406000841100000000084009C7EE3FFD033ADC60
:10407000F5015B14E02F3EBE5C1000002010000034
:1040800000009040FE822B654715973C00CC904085
:1040900000346F3F01FCFFFF0000E03F6C0F0000A9
:1040A000FFFF0F00432EE63F396CA80C615C20BE79
:1040B000EF39FAFE422EE63FDDE90601FCF774F81F
:1040C000DDE9062305460E46FCF70FF93A4643465E
:1040D000FCF70EF90F462A46334600901046194663
:1040E000FCF709F9824602462E4888460B46052110
:1040F0007844FFF764F852464346FCF7FCF82A463A
:104100003346FCF7F5F880468A463B46284631465A
:10411000009AFCF7F0F83B46009AFCF745F8069148
:10412000009000224FF0804340465146FCF7DDF8F6
:104130000F460C904246534628463146FCF7DBF8C2
:104140003B460C9AFCF749F9069B009AFCF7CDF820
:104150002A463346FCF7C9F80022134BFCF7C8F88F
:10416000054601980E4601EB00510815002810DCA9
:1041700028463146019AFCF79FF9FFF70CF804280E
:1041800008BFFFF789F828463146019AFCF794F9F1
:1041900005460B4618B02A4658462146BDE8F04D64
:1041A000FCF7A9B80C0E00000000F03F2DE9F34F1A
:1041B0008FB005462448D0E91012806CCDE9061274
:1041C00008900024681C0E90A81C0D90E81C0C9010
:1041D000281D0B90681D0A90A81D099006A850F88C
:1041E0002430E85C8109C0F34017C0F30016C0F327
:1041F000C008C0F3800005900E9813F800900D9849
:1042000013F800A00C981A5C0B9813F800C00A98D9
:10421000185CDDF824B013F80B304AEA09294CEA9F
:10422000022A43EA002B4EB11098FFF7EFF88DE811
:10423000800E42463146059B00F052F9641C032C67
:10424000CCD311B0BDE8F08F384E000810B52F4C1C
:10425000012807D0022820D003283CD0BDE8104018
:10426000FCF798BA012901D031B10AE001221146C8
:104270002046FCF704FC04E0002201212046FCF764
:10428000FEFB012202212046FCF7F9FB204600221A
:10429000BDE810400221FCF7F2BB4FF400400129B9
:1042A00001D031B10AE0014601222046FCF7E7FBCC
:1042B00004E0014600222046FCF7E1FB144C0122F9
:1042C00008212046FCF7DBFB20460022BDE8104019
:1042D0000821FCF7D4BB012901D031B10AE0012249
:1042E00040212046FCF7CBFB04E000224021204681
:1042F000FCF7C5FB012280212046FCF7C0FB2046CD
:104300000022BDE810408021FCF7B9BB0008014045
:10431000000C014001290BD0022917D0032906D136
:10432000012A21D00068C16821F00801C1607047EE
:10433000012A05D00068C16821F00201C160704700
:104340000068C16841F00201C1607047012A05D0D0
:104350000068C16821F00401C16070470068C1684D
:1043600041F00401C16070470068C16841F0080174
:10437000C1607047074A012805D0022805D00328EC
:1043800005D0FCF707BAD180704711817047518181
:104390007047000000000020014A505470470000A0
:1043A00001000020034BC1EBC10103EB81018854E4
:1043B00070470000E801002070B50546002428A1E0
:1043C0002846FBF7E3FE50B126A12846FBF7DEFEA8
:1043D00038B126A12846FBF7D9FE20B104E001241C
:1043E00002E0022400E003244FF48041214D4E00FE
:1043F0004CB1012C12D0022C1BD0032C24D0BDE8D0
:104400007040FCF7C7B900222846FCF738FB31465C
:104410002846BDE870400022FCF731BB0122284647
:10442000FCF72DFB31462846BDE870400022FCF722
:1044300026BB00222846FCF722FB31462846BDE871
:1044400070400122FCF71BBB01222846FCF717FB3A
:1044500031462846BDE870400122FCF710BB000041
:1044600052454400475245454E0000004F52414ED0
:1044700047450000000C014010B5124C012808D03F
:1044800003280CD0022809D1FEF7BAFF03280FD069
:1044900011E00DA0FFF790FF0120207010BD0C4827
:1044A000FDF7DCFA0BA0FFF787FF0320207010BD9B
:1044B0000748FDF7C7FA09A0FFF77EFF022020702A
:1044C00010BD000000000020475245454E0000008E
:1044D0001C1800204F52414E4745000052454400F1
:1044E0002DE9FF4F83B08046DDE9124BDDF844A093
:1044F00008F110004CA10546FBF748FE28B14BA17E
:104500002846FBF743FE48B32DE04046FEF756FF32
:104510000146D8F8700091FBF0F200FB1211AAEBF3
:104520000000A0EB0109BAEB01004A46014600D5A4
:104530004042B9F1000F01DAC9F10009484506DC33
:1045400089464046FEF73AFF00EB090A0BE0914628
:104550004046FEF733FF00EB090A04E04046FEF751
:104560002DFFAAEB0009B9F1000F01DB009403E075
:1045700060420090CBF1000B4FEA4900FBF7B3FF1C
:1045800004460D460098FBF7AEFFCDE9011000226E
:104590004FF08043FFF71EF906460F465846FBF7DB
:1045A000A2FF00224FF08043FFF714F932463B464A
:1045B000FBF79BFE22462B46FBF70FFF04460D46FA
:1045C0000498C8F81C000598C8F820000698C8F898
:1045D00024001098C8F828004A4659460098FEF76B
:1045E00079FEC8E90C010021C8F83810C8F83C1061
:1045F000C8F84090D8F84800C8F84400C8F84CA063
:104600000098C8F85000DDE90110C8E91601C8F8A3
:1046100060B0C8E91A45FEF77BFEFBF775FFC8F8E6
:10462000740007B0BDE8F08F524F54004E4F524D0A
:104630000000000070B50646D6E90E23D6E91A013F
:10464000FBF759FE04460D46306DFBF74CFF224642
:104650002B46FBF7A9FDC6E9160102460B460020D2
:104660000349FBF7BAFEFBF74FFF706770BD000010
:1046700080842E4130B404460B4690B2012B04D006
:10468000022B05D0032B08D105E02168486304E024
:104690002168886301E02168C86330BC110C1846AA
:1046A000FFF768BE00688AB24262080CAFF3008070
:1046B0000149888070470000000000202DE9F0418A
:1046C00006460F46FBF7E8FF041E0D4618BF012003
:1046D000284320F00040C0F17F6000F1E040C00FAF
:1046E0000ED0301C18BF0120384320F00040C0F12C
:1046F0007F6000F1E040C00F04BF0120FEF7E4FD41
:1047000020462946BDE8F08170B50446A569206AB7
:10471000616A012901D0A06A02E001281ED00120AF
:104720001C4E01281CD0002833D1A06C401EA06470
:10473000606FFBF7D8FE00223346FBF74EFED4E94C
:104740000E23FBF731FDC4E90E012046FFF772FF8F
:104750002846BDE870400021FFF778BD0020DFE764
:10476000A06C401CA064606FFBF7BDFE00223346C6
:10477000FBF733FED4E90E23FBF716FDC4E90E0167
:104780002046FFF757FF2846BDE870400121FFF79C
:104790005DBD70BD80842E412DE9F04107460E4677
:1047A0003846FDF75BF901213846FDF797FB0221FA
:1047B0003846FDF793FB03213846FDF78FFB0021B8
:1047C0003846FFF76FFF0025691C3046FEF71EFED6
:1047D00004460CA104F10B00FBF7D8FC68B90121D9
:1047E000A069FEF79DFD3846626FA169FFF742FFA1
:1047F00001223846A169FFF78DFD6D1C032DE3D31F
:10480000BDE8F08153544550000000002DE9F0410F
:1048100006460F463846FEF70EFE05463046FEF7C2
:1048200026FE04463846FEF708FE021929463046A1
:10483000BDE8F041FFF71EBF48616E646C65720011
:1048400000000000010000005261696C206D6F746F
:104850006F720053544550004E4F524D00000000FF
:104860000100000000000000000000000000000047
:104870000100000000000000000000000000000037
:104880000000000000000000000000000000000028
:104890000000000000000000000000000000000018
:1048A0000000000000000000000000000000000008
:1048B00000000000000000000200000000000000F6
:1048C00001000000000000005370696E206D6F74DD
:1048D0006F72005354455000524F540000000000C6
:1048E00002000000000000000000000000000000C6
:1048F00001000000000000000000000000000000B7
:1049000000000000000000000000000000000000A7
:104910000000000000000000000000000000000097
:104920000000000000000000000000000000000087
:104930000000000000000000020000000000000075
:104940000100000000000000466C6970206D6F746B
:104950006F720053544550004E4F524D00000000FE
:104960000300000000000000000000000000000044
:104970000100000000000000000000000000000036
:104980000000000000000000000000000000000027
:104990000000000000000000000000000000000017
:1049A0000000000000000000000000000000000007
:1049B00000000000000000000200000000000000F5
:1049C00001000000000000004472696C6C000000EF
:1049D000000000000100000050656E206D6F746FD4
:1049E00072000053544550004E4F524D00000000DD
:1049F00001000000000000000000000000000000B6
:104A000001000000000000000000000000000000A5
:104A10000000000000000000000000000000000096
:104A20000000000000000000000000000000000086
:104A30000000000000000000000000000000000076
:104A40000000000000000000020000000000000064
:104A500001000000000000005370696E206D6F744B
:104A60006F720044430000004E4F524D00000000A2
:104A70000200000000000000000000000000000034
:104A80000100000000000000000000000000000025
:104A90000000000000000000000000000000000016
:104AA0000000000000000000000000000000000006
:104AB00000000000000000000000000000000000F6
:104AC00000000000000000000200000000000000E4
:104AD000010000000000000056657274206D6F74C4
:104AE0006F720053544550004E4F524D000000006D
:104AF00003000000000000000000000000000000B3
:104B000001000000000000000000000000000000A4
:104B10000000000000000000000000000000000095
:104B20000000000000000000000000000000000085
:104B30000000000000000000000000000000000075
:104B40000000000000000000020000000000000063
:104B500001000000000000004D696C6C00000000C6
:104B6000000000000100000050656E206D6F746F42
:104B700072000053544550004E4F524D000000004B
:104B80000100000000000000000000000000000024
:104B90000100000000000000000000000000000014
:104BA0000000000000000000000000000000000005
:104BB00000000000000000000000000000000000F5
:104BC00000000000000000000000000000000000E5
:104BD00000000000000000000200000000000000D3
:104BE00001000000000000005370696E206D6F74BA
:104BF0006F720044430000004E4F524D0000000011
:104C000002000000000000000000000000000000A2
:104C10000100000000000000000000000000000093
:104C20000000000000000000000000000000000084
:104C30000000000000000000000000000000000074
:104C40000000000000000000000000000000000064
:104C50000000000000000000020000000000000052
:104C6000010000000000000056657274206D6F7432
:104C70006F720053544550004E4F524D00000000DB
:104C80000300000000000000000000000000000021
:104C90000100000000000000000000000000000013
:104CA0000000000000000000000000000000000004
:104CB00000000000000000000000000000000000F4
:104CC00000000000000000000000000000000000E4
:104CD00000000000000000000200000000000000D2
:104CE00001000000000000004C61746865000000D5
:104CF000000000000100000050656E206D6F746FB1
:104D000072000053544550004E4F524D00000000B9
:104D10000100000000000000000000000000000092
:104D20000100000000000000000000000000000082
:104D30000000000000000000000000000000000073
:104D40000000000000000000000000000000000063
:104D50000000000000000000000000000000000053
:104D60000000000000000000020000000000000041
:104D700001000000000000005370696E206D6F7428
:104D80006F72005354455000524F54000000000011
:104D90000200000000000000000000000000000011
:104DA0000100000000000000000000000000000002
:104DB00000000000000000000000000000000000F3
:104DC00000000000000000000000000000000000E3
:104DD00000000000000000000000000000000000D3
:104DE00000000000000000000200000000000000C1
:104DF000010000000000000056657274206D6F74A1
:104E00006F720053544550004E4F524D0000000049
:104E1000030000000000000000000000000000008F
:104E20000100000000000000000000000000000081
:104E30000000000000000000000000000000000072
:104E40000000000000000000000000000000000062
:104E50000000000000000000000000000000000052
:104E60000000000000000000020000000000000040
:104E7000010000000000000000000000070000002A
:104E80000E0000000000000000000000010203040A
:104E900006070809000000000102030400000000EA
:104EA000000000000000F03F000000000000F83F9C
:104EB00000000000000000000000004003B8E23FD6
:104EC000000000000000000006D0CF43EBFD4C3E88
:104ED000033333333333E33FFFAB6FDBB66DDB3F7D
:104EE0004D268F515555D53F01411DA96074D13FC5
:104EF00065DBC9934A86CD3FEF4E454A287ECA3FBF
:104F00003E5555555555C53F93BDBE166CC166BF40
:104F10002CDE25AF6A56113FF16BD2C541BDBBBE39
:104F2000D0A4BE726937663E000000000000000099
:104F3000504F000800000020BC0100003A070008A4
:104F4000A44F0008BC010020E41A0000B832000899
:104F50000118500848616E646C65723201100B5282
:104F600061696C206D6F746F7215535445506D4EAE
:104F70004F524D1CC1E9100138DAC850AD53706969
:104F80006E8054524F540A650280AD466C69708041
:104F9000454E4F524D0A6503802908821044A24AAB
:044FA0000400000009
:04000005080000ED02
:00000001FF
