:020000040800F2
:10000000F01B002001010008FF240008891A0008E5
:10001000FD240008E90200089929000800000000FA
:100020000000000000000000000000002325000880
:10003000EB02000800000000212500085D250008F3
:100040001B0100081B0100081B0100081B01000820
:100050001B0100081B0100081B0100081B01000810
:100060001B0100081B0100081B0100081B01000800
:100070001B0100081B0100081B0100081B010008F0
:100080001B0100081B0100081B0100081B010008E0
:100090001B0100081B0100081B0100081B010008D0
:1000A0001B010008012600081B010008F5250008B7
:1000B0001B0100081B0100081B010008991A000819
:1000C0008D1A00081B0100081B0100081B01000815
:1000D0001B0100081B0100081B0100081B01000890
:1000E0001B0100081B0100081B010008DFF80CD0F1
:1000F00000F0E8F800480047B9290008F01B00208C
:100100000648804706480047FEE7FEE7FEE7FEE7B1
:10011000FEE7FEE7FEE7FEE7FEE7FEE7AD250008A7
:10012000ED000008202A04DB203A21FA02F0002129
:10013000704721FA02F3D040C2F1200291400843F7
:100140001946704740EA01039B0703D009E008C93C
:10015000121F08C0042AFAD203E011F8013B00F88C
:10016000013B521EF9D27047D2B201E000F8012BD8
:10017000491EFBD270470022F6E710B513460A4627
:1001800004461946FFF7F0FF204610BD0EB5C10F1B
:1001900080EAE0700844CA07002140F233438DE84A
:1001A0000E000A460B4600F03FF803B000BD70B5E4
:1001B000C1F30A5201F000450024C1F3130140F2DB
:1001C000FF3341F480119A4201DA002070BD40F201
:1001D00033439A42A2F2334203DC5242FFF7A2FFBA
:1001E00000E090402C43F1D0404270BD202A04DB57
:1001F000203A00FA02F1002070479140C2F120033A
:1002000020FA03F319439040704710B5141E73F1A0
:10021000000408DA401C41F1000192185B411A43C6
:1002200001D120F0010010BD2DE9F04D92469B4612
:1002300011B1B1FA81F202E0B0FA80F220329046B8
:10024000FFF7D4FF04460F4640EA0A0041EA0B01DB
:1002500053465A46084313D0114653EA010019D0B9
:10026000C8F140025046FFF75DFF05460E46504676
:1002700059464246FFF7BAFF084305D0012004E083
:1002800020463946BDE8F08D0020054346EAE07679
:100290002C4337430A986305E40AA0EB08000022C8
:1002A000FD0A44EA47540A3002D500200146E9E736
:1002B000010510196941DDE9084500196941BDE8EA
:1002C000F04DA2E7064C074D06E0E06840F0010360
:1002D00094E8070098471034AC42F6D3FFF70AFFC2
:1002E0005C2A00087C2A0008FEE77047704700225D
:1002F00001E000F8012B491E89B2FAD270470000D4
:1003000000487047D80000200048704701000020D6
:10031000014840687047000000000020DDE902014C
:1003200070471846FFF732BF10B590B00446012958
:1003300004D0022905D0032909D10FE04022094940
:1003400002E00849402240316846FFF7FBFE4022A8
:1003500069462046FFF7F6FE10B010BD0149402265
:100360008031F1E70800002010B590F8211000243A
:10037000022903D00421816301243DE001680A6859
:1003800022F00E020A6001680A6822F001020A6087
:100390001A4A0168914201D1012121E0174A143221
:1003A000914201D110211BE0144A2832914201D11F
:1003B000891515E0114A3C32914201D189140FE0B0
:1003C0000E4A5032914202D14FF4803108E00B4A7C
:1003D0006432914202D14FF4801101E04FF08071FC
:1003E000064A083A5160012180F82110002180F866
:1003F0002010416B01B18847204610BD0800024023
:100400002DE9F84FDFF890A100220AF1040B144601
:1004100001274FF00F090BF1040E00BF0B6807FA1C
:1004200004F52B40AB4274D1DFF870C14E68A6EBE7
:100430000C0866452BD00DDC032E34D005DC36B31A
:10044000012E19D0022E2FD11BE0112E16D0122E04
:100450002AD119E0B8F5881F19D006DCB8F5803F1D
:1004600015D0B8F5801F1FD111E0B8F5001F0ED0D0
:10047000B8F5041F18D10AE0CA6815E0CA68121D51
:1004800012E0CA6808320FE0CA680C320CE08A68D1
:100490002AB1012A4FF0080203D0456104E004228A
:1004A00002E0056100E00022FF2B01D8064601E0D2
:1004B00000F104064FEA840501D9A5F12005D6F81C
:1004C00000C009FA05F82CEA080C02FA05F54CEA16
:1004D000050CC6F800C04D68ED0057D5304DAE692B
:1004E00046F00106AE61AD6924F0030605F0010592
:1004F00000952C4D06EB050CDCF80850A6074FEADA
:10050000167809FA08F6B543274EB04202D1002604
:1005100010E03BE0254EB04201D101260AE0244E16
:10052000B04201D1022605E0224EB04201D103269D
:1005300000E0042606FA08F62E43CCF808604D6861
:10054000DAF80060ED03554601D51E4300E09E43F6
:100550002E604D68DBF80060AD035D4601D51E439B
:1005600000E09E432E604D68DEF80060ED027546A7
:1005700001D51E4300E09E432E604D68AD020E4D36
:100580002E6801D51E4300E09E432E60641C102C93
:10059000FFF444AFBDE8F88F0004014000001110E3
:1005A000001002400000014000080140000C014022
:1005B00000100140001401400C0401400AB1016127
:1005C00070470904FBE7000001488068704700009D
:1005D000C80000207047000038B50446A9B1FFF7F5
:1005E0008FFE014601232022204600F081FB08B146
:1005F000FFF77CFE2068416980690090BDE83840C3
:10060000012251030548FFF7D9BFFFF77DFE0146E0
:1006100008230222204600F0A4FBE8E70010014076
:1006200070B5044600684569466830490D420DD0F2
:10063000F1050BD5216C41F0010121646FF480714B
:1006400041612068016841F40041016015F4813F77
:1006500009D0F00507D5206C40F002002064216825
:100660006FF40070486115F4823F28D0F00526D55C
:1006700094F83E30628D94F83D00216B202B08D118
:100680003AB921280ED029280CD0282801D12129B7
:1006900008D0206C40F00400206494F83E0010283C
:1006A00004D008E0204601F0F1FC08E02068016871
:1006B00041F40071016021686FF48060486115F4B5
:1006C000843F09D0F00507D5206C40F00800206475
:1006D00021686FF400604861206C002804D0204637
:1006E000BDE8704001F006BA70BD000000010100D5
:1006F0002DE9F05F02680446D2F818805569566803
:1007000090F83E007449DFF8D0A1DFF8CCB1DFF8F3
:10071000CC918F1C0AF17E0A0BF13E0B102812D0EF
:10072000402810D00D425BD0B00559D593692046C2
:100730000021DB435B0700D501219269D2431206F9
:1007400048D5828947E015F0011F05D0B00503D5D3
:10075000204601F06EFC10E05F48801D054205D088
:10076000B00503D5606CC0B2106106E00D4204D044
:10077000B00502D5204601F0CFFB18EA090F14D0CE
:1007800015EA0A0F08D0700506D53D4206D120466D
:10079000BDE8F05F01F03CBB3D421FD0B0051DD568
:1007A0002046BDE8F05F01F0F2BA15EA0B0F08D061
:1007B000700506D53D4206D12046BDE8F05F01F048
:1007C0008FBA3D420AD0B00508D52046BDE8F05F9B
:1007D00001F022BA028B92B2FFF7FEFEBDE8F09F55
:1007E0003D480E30054206D0B00504D52046BDE890
:1007F000F05F01F08DBC18EA090F4FF0280134D0EA
:1008000015EA0A0F23D0700521D53D4221D194F875
:100810003D302046628D002AE0D0426A541C44627A
:10082000046812782261428D521E4285428D002A50
:10083000D4D1292BD2D10268536823F4806353604A
:100840002122026380F83D1000F04AFAC6E73D42DB
:10085000C4D0B005C2D5608D0028BFD0606A411CED
:10086000616221680078086131E015EA0B0F22D03F
:10087000700520D53D4220D194F83D302046648D4E
:10088000002CABD01469426A551C45621470428D2D
:10089000521E4285428D002AA0D12A2B9ED1026889
:1008A000536823F4806353602222026380F83D1072
:1008B00000F04EF992E73D4290D0B0058ED5608DA4
:1008C00000288BD01169606A421C62620170608DE1
:1008D000401E608582E70000020001000400100055
:1008E00090F83D10202901D002207047282180F87F
:1008F0003D1001680A68D20703D10A6842F001027C
:100900000A6001680A6842F480620A60006841680F
:1009100041F44071416000207047704770B5040099
:100920001BD094F83D00002520B984F83C502046A7
:1009300000F0D6F8242084F83D002068016821F0FA
:100940000101016000F096FB404A6168914201D8C4
:100950003F4900E03F49884201D2012070BD3E4935
:100960002368B0FBF1F159606368934206D94FF4F4
:10097000967359434FF47A73B1FBF3F12368491C22
:1009800019626168914210D84900401EB0FBF1F233
:10099000521CC2F30B02042A01D2042022E0B0FB55
:1009A000F1F0401CC0F30B001CE0A368CBB301EBDB
:1009B000C10202EB0116421EB2FBF6F2521C42F4D7
:1009C0008042120536D06BB301EBC10202EB01117C
:1009D000401EB0FBF1F0401CC0F30B0040F480401F
:1009E00040F400402168C861D4E907010843216848
:1009F0000860D4E90310084321688860D4E9050140
:100A000008432168C8602068016841F00101016065
:100A10002564202084F83D00256384F83E500020A2
:100A200070BD00E008E001EB4106421EB2FBF6F2A9
:100A3000521CC6E70120D5E701EB4101401EB0FB87
:100A4000F1F0401CC0F30B00CAE70000A0860100D3
:100A500080841E0000093D0040420F0070B5FFF782
:100A60003FFF08B1FFF742FCFFF74AFC007850B1A6
:100A7000FFF746FC007801281AD0FFF741FC007808
:100A8000022817D019E00024FFF742FC0546FFF7C3
:100A900037FC204422464078294601F04FFD641C73
:100AA000032CF1D3FFF734FC401C01F041FD04E0BE
:100AB000022000E0032001F04BFD00224FF4005122
:100AC0000448FFF77BFDFFF71BFCBDE870400421E5
:100AD000FFF70DBC0010014070477047704770472A
:100AE00010B586B000210091019102910391006838
:100AF0001349884222D1134CA06940F00800A0613C
:100B0000A069694600F0080004904FF4407000901E
:100B100012200190032003900B48FFF771FC0B4853
:100B2000416841F0E06141F002014160E06940F458
:100B30000010E061E06900F40010049006B010BD00
:100B40000054004000100240000C01400000014031
:100B500000B59DB0FFF7D4FB0078C01E062847D231
:100B6000DFE800F0031B4E667E9601210CA8FFF71C
:100B7000DBFB302210A96846FFF7E4FA0DF1300CD8
:100B80009CE80F00FFF7CAFBFFF711FBC0F307203B
:100B9000002101F0C7FC012116E002210CA8FFF79B
:100BA000C3FB302210A96846FFF7CCFA0DF1300CD8
:100BB0009CE80F00FFF7B2FBFFF7F9FAC0F307203C
:100BC000002101F0AFFC02210CA8FFF7ADFB3022A1
:100BD00010A96846FFF7B6FA0DF1300C9CE80F003B
:100BE000FFF79CFBFFF7E3FAC0B2012101F09AFC8A
:100BF0001DB00122510339485DF804EBFFF7DEBC5C
:100C000003210CA8FFF790FB302210A96846FFF7DC
:100C100099FA0DF1300C9CE80F00FFF77FFBFFF70E
:100C2000C6FAC0F30720002101F07CFC0321CBE7CA
:100C300001210CA8FFF778FB302210A96846FFF7C6
:100C400081FA0DF1300C9CE80F00FFF76AFBFFF70B
:100C5000AEFAC0F30720002101F064FC01212EE070
:100C600002210CA8FFF760FB302210A96846FFF7AD
:100C700069FA0DF1300C9CE80F00FFF752FBFFF70B
:100C800096FAC0F30720002101F04CFC022116E087
:100C900003210CA8FFF748FB302210A96846FFF794
:100CA00051FA0DF1300C9CE80F00FFF73AFBFFF70B
:100CB0007EFAC0F30720002101F034FC03210CA8C8
:100CC000FFF732FB302210A96846FFF73BFA0DF11F
:100CD000300C9CE80F00FFF724FB83E70010014075
:100CE00000224FF400510148FFF768BC001001409A
:100CF00038B590F83D40282C31D161B15AB190F807
:100D00003C40012C2BD0012480F83C40046825682D
:100D1000ED0702D005E0012038BD256845F001054A
:100D200025600468256825F4006525602A2480F87C
:100D30003D40202480F83E40002404644162428506
:100D4000C362418D018501684A698A69009280F811
:100D50003C40486840F4E0604860204638BD0220CE
:100D600038BD38B590F83D40282C31D161B15AB129
:100D700090F83C40012C2BD0012480F83C400468C2
:100D80002568ED0702D005E0012038BD256845F053
:100D9000010525600468256825F40065256029247F
:100DA00080F83D40202480F83E40002404644162E5
:100DB0004285C362418D018501684A698A69009252
:100DC00080F83C40486840F4E0604860204638BD08
:100DD000022038BD02488168027811448160704762
:100DE000C8000020074810B5016841F010010160FB
:100DF000032000F077F8002000F006F800F024F857
:100E0000002010BD0020024070B50D4D04464FF487
:100E10007A712878B1FBF0F00A490968B1FBF0F06B
:100E200000F000FB48B9102C07D200222146501ECA
:100E300000F038F800206C6070BD012070BD00002B
:100E4000C8000020D40000200E4808B5816941F098
:100E500001018161816901F001010091C16941F0E5
:100E60008051C161C06900F080500090052000F001
:100E700039F80548416821F0E06141F000714160B6
:100E800008BD0000001002400000014000F01F02F9
:100E9000012191404009800000F1E020C0F80011DC
:100EA00070470000F0B40E4B1B680C46C3F30223DE
:100EB000C3F10705042D00D90425191D072901D206
:100EC000002300E0DB1E012606FA05F1491E214041
:100ED00099409E40761E16403143F0BC01F010BB95
:100EE0000CED00E0064900F0070208684FF6FF032A
:100EF000184040EA0220034A10430860704700008F
:100F00000CED00E00000FA052DE9F047DFF8548110
:100F100005460E46D8F8000000F00700B0420CD29B
:100F2000D8F8001021F007013143C8F80010D8F8B4
:100F3000000000F00700B0426FD128684A4C8107DA
:100F400012D5400703D5606840F4E06060602878FF
:100F5000000703D5606840F4605060606068A9686D
:100F600020F0F000084360602878C00744D068682B
:100F7000012816D02168022816D0890700294CDAEA
:100F8000616821F0030101436160FFF71DFB69689F
:100F9000074641F2883001290ED00229814618D037
:100FA00026E021688903E9E78901E7E7FFF70CFB01
:100FB000C11B494501D918E081466068C0F3810032
:100FC0000128F3D118E000BFFFF7FEFAC11B494525
:100FD0000BD86068C0F381000228F5D10CE000BF97
:100FE000FFF7F2FAC11B494502D90320BDE8F0879B
:100FF000606810F00C0FF3D1D8F80010404601F0F3
:101000000701B1420BD9016821F0070131430160AA
:10101000006800F00700B04201D00120E6E7287820
:10102000400705D56068E96820F4E0600843606027
:101030002878000706D56068296920F4605040EAE6
:10104000C100606000F036F86168084AC1F303111E
:10105000515CC840064908600020FFF7D5FE00201B
:10106000C4E700000020024000100240162A0008D9
:10107000D40000200448054900684968044AC1F3C7
:101080000221515CC8407047D4000020001002408B
:10109000262A00080448054900684968044AC1F343
:1010A000C221515CC8407047D400002000100240AB
:1010B000262A000812A185B00FC98DE80F0014A0E0
:1010C000144A006804905168134801F00C03042B83
:1010D00010D0082B0ED1C1F38343C9031DF80300C0
:1010E0000AD5516804AAC1F34041515C0A4A5043F1
:1010F000B0FBF1F005B0704708494843FAE700003B
:1011000002030405060708090A0B0C0D0E0F101048
:10111000010200000010024000127A0000093D00A8
:101120002DE9F84F04460078B94DC00748D06868EB
:10113000C0F38100012807D06868C0F3810002284D
:1011400009D16868C00306D52868800338D560686F
:1011500000286FD034E06068B0F5803F0BD010B14C
:10116000B0F5A02F11D0286820F4803028602868BE
:1011700020F4802002E0286840F480302860606815
:1011800088B1FFF721FA064609E0286840F480207C
:101190002860F0E7FFF718FA801B642875D82868E4
:1011A0008003F7D50CE0FFF70FFA064605E000BF15
:1011B000FFF70AFA801B6428F0D828688003F7D468
:1011C0002078944E80074FF001094FF000083BD57E
:1011D000686810F00C0F07D06868C0F3810002281F
:1011E00009D16868C00306D42868800714D520692F
:1011F00001281FD110E02069B0B1C6F80090FFF7B8
:10120000E3F9074605E000BFFFF7DEF9C01B02283F
:10121000C4D828688007F7D52868616920F0F800ED
:1012200040EAC10028600FE0C6F80080FFF7CCF963
:10123000074606E0E9E000BFFFF7C6F9C01B022839
:1012400023D828688007F7D4207800072CD5724867
:10125000A169D9B1C0F80090FFF7B6F9074604E0DC
:10126000FFF7B2F9C01B02280FD8686A8007F7D5CC
:101270006A484FF4FA510068B0FBF1F0009000BFEB
:101280000098411E0091FAD20EE080E0C0F8008084
:10129000FFF79AF9074604E0FFF796F9C01B02280A
:1012A00075D8686A8007F7D42078400760D5E86968
:1012B0000027C00008D4E86940F08050E861E86980
:1012C000012700F08050009055480168C90513D4EB
:1012D0000168834641F480710160FFF775F9824629
:1012E00006E000BFFFF770F9A0EB0A0064284ED8B3
:1012F000DBF80000C005F5D5E06801280AD008B188
:10130000052813D0286A20F001002862286A20F0FE
:10131000040002E0286A40F001002862E06841F21F
:10132000883B98B1FFF750F982460BE0286A40F0FD
:1013300004002862EEE700BFFFF746F9A0EB0A01C0
:1013400059455AD8286A8007F6D50CE0FFF73CF9D2
:10135000824605E0FFF738F9A0EB0A0159454CD861
:10136000286A8007F6D41FB1E86920F08050E86150
:10137000E06988B36968C1F38101022945D0022878
:10138000C6F8608004D0FFF71FF9044638E034E067
:10139000FFF71AF9074604E0FFF716F9C01B022809
:1013A0002BD828688001F7D4206AB0F5803F05D19A
:1013B0006868A16820F4003008436860D4E9080137
:1013C0000843696821F4741108436860C6F86090A6
:1013D000FFF7FAF8044606E015E000BFFFF7F4F85F
:1013E000001B022809D828688001F7D50BE000BF50
:1013F000FFF7EAF8001B022802D90320BDE8F88FA6
:1014000028688001F4D40020F8E70120F6E7000006
:10141000001002400000424280044242D4000020FA
:101420000070004010B5401EB0F1807F01D3012054
:1014300010BD4FF0E02460610F21601701F060F8EB
:101440000020A06107202061002010BD7047704778
:1014500010B590F83C20012A25D0012280F83C20CC
:10146000CA688C6822F4407222434C6822F480627D
:1014700022430C6822F4006222430C6922F4805259
:1014800022434C6922F4005222438C6922F48042A8
:10149000224322F40041026800232143516480F872
:1014A0003C30002010BD022010BD30B590F83C202B
:1014B000012A20D0012280F83C20022380F83D3010
:1014C00003685C6824F070045C6003685C680D6805
:1014D0002C435C6003689C6824F080049C60036873
:1014E0009C6849680C439C6080F83D20002180F88E
:1014F0003C10084630BD022030BD10B5040003D0BA
:1015000094F83D0010B107E0012010BD002084F8E0
:101510003C00204600F00CF8022084F83D00211D1C
:10152000206801F073F8012084F83D00002010BD10
:1015300008B50C4A01680C48914207D1816941F411
:1015400000618161806900F4006009E0074A91420E
:1015500007D1C16941F00401C161C06900F0040014
:10156000009008BD002C014000100240000800401F
:1015700070B5044690F83C00012817D0012584F886
:101580003C50022084F83D002068826822F07702F7
:1015900022F47F4282600868502837D00DDC202872
:1015A00059D005DC88B3102841D151E0022070BD2C
:1015B000302853D040283AD13FE060282ED0702800
:1015C0000BD0B0F5805F03D0B0F5005F2FD110E0F5
:1015D0002068816821F0070115E0CB68D1E901217D
:1015E000206801F049F82168886840F07700886039
:1015F0001DE0CB68D1E90121206801F03DF82068A9
:10160000816841F48041816011E01EE0CA68496848
:10161000206801F0E5F85021206806E0CA684968B2
:10162000206801F0EEF86021206801F02FF884F8BE
:101630003D50002084F83C0070BDCA6849682068AD
:1016400001F0CEF840212068EFE700212068ECE7A8
:1016500010212068E9E720212068E6E73021206892
:10166000E3E7704770B50446006801694FF0000574
:10167000C943890715D4C168C943890711D4E91E34
:10168000016101202077206880698007204602D010
:10169000FFF7E7FF04E000F0EAF8204600F088F9E1
:1016A000257720680169C943490717D4C168C94330
:1016B000490713D46FF004010161022020772068EC
:1016C000806910F4407F204602D0FFF7CAFF04E093
:1016D00000F0CDF8204600F06BF92577206801690D
:1016E000C943090716D4C168C943090712D46FF06A
:1016F00008010161042020772068C0698007204626
:1017000002D0FFF7AEFF04E000F0B1F8204600F091
:101710004FF9257720680169C943C90617D4C16804
:10172000C943C90613D46FF0100101610820207766
:101730002068C06910F4407F204602D0FFF791FF77
:1017400004E000F094F8204600F032F92577206894
:101750000169C943C90708D1C168C943C90704D190
:10176000891E0161204600F024F920680169C943FF
:10177000090609D4C168C943090605D46FF0800180
:1017800001612046FFF762FE20680169C9434906EE
:1017900009D4C168C943490605D46FF0400101610D
:1017A000204600F007F920680169C94389060BD477
:1017B000C168C943890607D46FF020010161204642
:1017C000BDE87040FFF743BE70BD000000B585B0B6
:1017D0000021009101910291039100680B49884218
:1017E00012D10B48816941F0080181618069694625
:1017F00000F0080004908020009002200190012059
:1018000003900448FEF7FCFD05B000BD0008004051
:1018100000100240000C014070B5044690F83C00F6
:1018200001280DD0012584F83C50022084F83D00A9
:1018300042B1042A0AD0082A0CD00C2A11D10DE09A
:10184000022070BD206800F029FF0AE0206800F047
:101850004DFF06E0206800F075FF02E0206800F010
:101860009DFF84F83D50002084F83C0070BD704717
:1018700010B5040003D094F83D0010B107E001203A
:1018800010BD002084F83C00204600F00CF8022037
:1018900084F83D00211D206800F0B8FE012084F886
:1018A0003D00002010BD704770B5044690F83C0024
:1018B0000D4601280DD0012684F83C60022084F8F2
:1018C0003D0042B1042A18D0082A2AD00C2A4DD152
:1018D00039E0022070BD206800F0E0FE20688169D8
:1018E00041F0080181612068816921F00401816172
:1018F000206881692A69114311E0206800F0F6FE32
:101900002068816941F4006181612068816921F466
:1019100080618161206881692A6941EA02218161CF
:1019200024E0206800F00EFF2068C16941F0080142
:10193000C1612068C16921F00401C1612068C169E9
:101940002A69114311E0206800F028FF2068C1696E
:1019500041F40061C1612068C16921F48061C16105
:101960002068C1692A6941EA0221C16184F83D60A9
:10197000002084F83C0070BD10B5040003D094F83A
:101980003D0010B107E0012010BD002084F83C00AC
:10199000204600F00CF8022084F83D00211D20684C
:1019A00000F034FE012084F83D00002010BD704797
:1019B00070477047704770B5040004D094F8390040
:1019C000002510B106E0012070BD84F83850204693
:1019D00000F022F8242084F839002068C16821F43E
:1019E0000051C160204600F01FFF2068016921F40A
:1019F000904101612068416921F02A01416120681C
:101A0000C16841F40051C160E563202084F83900C9
:101A100084F83A00002070BD30B585B000240094F1
:101A200001940294039400681449884224D1144814
:101A3000816941F480418161816901F480410491AF
:101A4000816941F00401816180690E4D00F004005C
:101A500004904FF400700090022001900320039046
:101A600069462846FEF7CCFC2815CDE900046946F6
:101A700028460294FEF7C4FC05B030BD0038014092
:101A80000010024000080140FEE700000148FEF798
:101A9000C7BD0000D81600200148FEF729BE00008F
:101AA000D816002010B5406A01680A6822F48062E6
:101AB0000A6000214185426B5163826B516390F84B
:101AC0003D302022602B80F83D2080F83E1007D06A
:101AD00001680A6822F001020A60FEF71EFF10BDCD
:101AE000016401680A6822F001020A60FEF772FDD3
:101AF00010BD000070B590F83D100446002520266A
:101B0000006829292DD02A292BD094F83D1060296E
:101B100004D04168090501D484F83D60256384F848
:101B20003E50016821F400610160206841680905A8
:101B300037D5416821F400614160606B344990F809
:101B40002120012A12D04163606BFEF70DFC38B3EF
:101B50002068016821F00101016084F83D60606B3C
:101B60001CE02563282184F83D10DAE7A06B41636F
:101B7000A06BFEF7F9FB98B120684169C94349069B
:101B800004D40169606A421C6262017020680168C5
:101B900021F00101016084F83D60A06B416B884732
:101BA0000FE094F83D1060291DD04169C9434906F2
:101BB00004D40169606A421C626201702046FEF72B
:101BC000ACFE94F83D0028280CD1206C400709D5C4
:101BD0001048E062256384F83D6084F83E5020465A
:101BE000FEF73CFF70BD84F83D6025644169C94340
:101BF000490604D40169606A421C6262017020686F
:101C0000016821F0010101602046FEF7E3FCD8E7FE
:101C1000A51A00080000FFFF10B5C26A448D2F4BC3
:101C20000168032C03D0448D022C15D00AE0042A4D
:101C300003D0082A01D09A4203D10A6822F48062B4
:101C40000A6001680A69416A4B1C43620A70418D4F
:101C5000491E4185002010BD042A12D0082A10D048
:101C60009A420ED0022A0A6802D022F4806201E071
:101C700042F480620A6001684A6822F440724A6055
:101C800008E04A6822F440724A6001680A6842F437
:101C900000720A6001680A69416A4B1C43620A705B
:101CA000418D491E418501680A69416A4B1C4362A6
:101CB0000A70418D491E4185202180F83D10002188
:101CC000016390F83E2080F83E10402A02D0FEF7D3
:101CD00003FFBFE7FEF702FFBCE700000000FFFFC5
:101CE00010B590F83D1022294CD1418D032909D916
:101CF00001680A69416A4B1C43620A70418D491EA2
:101D000041853FE0022909D0032907D0C16A022991
:101D100001680A6818D022F4806217E0C16A0229BB
:101D200001680A6807D022F480620A6001680A68C4
:101D300042F4006201E042F480620A600068416897
:101D400021F4806141601DE042F480620A60016814
:101D50004A6822F4E0624A6001680A69416A4B1CE1
:101D600043620A70418D491E4185202180F83D1053
:101D70000021016390F83E2080F83E10402A03D0F5
:101D8000FEF7AAFE002010BDFEF7A8FEFAE710B588
:101D9000C26A90F83D10212921D1418D49B1416A93
:101DA0004A1C4262026809781161418D491E4185D1
:101DB00015E020230021042A13D0082A11D012F59F
:101DC000803F0ED00268546824F4E064546011220D
:101DD000026380F83E1080F83D30FEF77EFE002062
:101DE00010BD0268546824F4E0645460026814680A
:101DF00044F400741460016380F83D3090F83E2094
:101E000080F83E10402AE8D1FEF769FEE7E70000BF
:101E100010B590F83D1090F83E30C26A048D24B1A0
:101E2000212934D0402B30D074E02129FAD120234D
:101E30000021042A13D0082A11D012F5803F0ED0B9
:101E40000268546824F4E06454601122026380F84C
:101E50003E1080F83D3000BFFEF73FFE5AE00268BA
:101E6000546824F4E06454600268146844F4007414
:101E70001460016380F83D3090F83E2080F83E10F9
:101E8000402AE9D1FEF72BFE44E0222942D1418DC0
:101E900021B190F83E10402906D032E00068416838
:101EA00021F48061416035E0016D31B1016D01299E
:101EB00011D0016D022915D02CE0C16C0129816C73
:101EC00002D0C1F3072108E00268C9B21161016DB7
:101ED000891C01651EE0816CC9B202681161016D47
:101EE000491CF6E790F83D10222904D090F83D10E7
:101EF000212906D00EE00068016841F4807101607C
:101F000008E0416A4A1C4262026809781161418D09
:101F1000491E4185002010BD78B590F83E50C26A38
:101F2000046B90F83D6000230168222E06D1066DF7
:101F30000EB9402D02D0056D25B107E048698869CA
:101F400000901CE00569B5F5404F1AD0458D85B36A
:101F5000458D012D20D0428D022A4AD00A6842F4D4
:101F600080620A6001684A68120503D54A6842F433
:101F700080524A6001684A698969009103650020BE
:101F800078BD4A698A6900920A6842F480720A60E0
:101F9000016D491C0165F2E712F5803F0AD0042A61
:101FA00021D0082A1FD0122C1DD0C26A022A09D1C2
:101FB00014E00BE00A6822F480620A6001684A6853
:101FC000120503D50A6822F480620AE04A698A6928
:101FD00000920A6842F400720A60CFE70A6842F48D
:101FE00080620A60C6E70A6822F480620A600168BB
:101FF000ECE7C26A022A0A680BD042F400620A6067
:1020000001684A698A6900920A6822F480620A605B
:1020100006E042F480620A6001684A6989690091B9
:1020200001684A681205A9D54A6842F480524A609C
:10203000A4E790F83E10402909D00169B1F5804F1E
:1020400010D0016D99B1016D012915D01CE0016D11
:1020500019B9416C01F0FE0114E0416CC9B241F0C4
:1020600001010FE090F83D102129F6D1F1E7416C14
:10207000F02201F4407103E0416CF12201F440715F
:1020800042EAD11100680161002070472DE9F0415A
:1020900090F83D40C26A00231C4F202601686FF46F
:1020A0008065042A01D0082A01D1282C05D0212CD2
:1020B00017D04D610020BDE8F081C7624A6822F464
:1020C000E0624A6001684D6101680A6822F480623A
:1020D0000A60036380F83D6080F83E30FEF7BEFC86
:1020E000E8E7C7622122026380F83D6080F83E3055
:1020F0004A6822F4E0624A6001684D6101680A683A
:1021000022F480620A60FEF7EBFDD3E70000FFFFD8
:1021100038B590F83D2001684B6823F4E0634B60CC
:10212000036800215C6900941C6844F001041C6091
:1021300003681C6824F480641C6003685C682405E0
:102140000BD590F83D40222C2BD090F83D402A2C06
:1021500027D0446B246864684485448DE4B15C698D
:10216000E443640707D41C69436A5D1C45621C7024
:10217000438D5B1E438503685C69E443640607D4B2
:102180001C69436A5D1C45621C70438D5B1E438560
:10219000036C43F004030364036C23B1FFF7AAFC50
:1021A0001FE0846BD6E72023282A09D02A2A07D0EB
:1021B000292A05D0046B222C0CD0222A0AD010E048
:1021C000094AC262016380F83D3080F83E10FEF794
:1021D00045FC06E0016380F83D3080F83E10FEF7D4
:1021E000B7FC002038BD00000000FFFF2DE9F041E2
:1021F00086B000253E4800950195029503958169BA
:1022000041F010018161816901F01001049181693F
:1022100041F004018161816901F004010491816947
:1022200041F0080181618069324E00F008004FF4EE
:1022300000540490002221463046FEF7BFF92E4F8D
:10224000002248F2FF013846FEF7B8F9DFF8AC800B
:1022500000224CF67B414046FEF7B0F90094012481
:10226000CDE90145694630460394FEF7C9F848F2C6
:10227000C30002268DE85100694638460394FEF7F4
:10228000BFF81C208DE83100694638460394FEF7FC
:10229000B7F82020CDE9000402946946384603943B
:1022A000FEF7AEF84CF273408DE8310069464046C7
:1022B0000394FEF7A5F8E002CDE900040294694614
:1022C00040460394FEF79CF84FF4C850CDE9000552
:1022D000694638460295FEF793F808208DE85100CC
:1022E000694640460394FEF78BF806B0BDE8F081DE
:1022F000001002400010014000080140000C0140A5
:102300000E4810B50C4901600D49416000213E2284
:10231000C0E902124FF48042C0E904214022C0E922
:1023200006120162FEF7FAFA002803D0BDE8104059
:10233000FDF7DCBF10BD000000540040D81600209F
:10234000801A060010B594B000240E940F941094D7
:10235000119412941C2168461394FDF70CFF1C2164
:1023600007A8FDF708FF2F482D4901601F21C0E98C
:1023700001144CF25031C0E9031444618461FFF749
:10238000BCF808B1FDF7B2FF4FF480500E900EA9D3
:102390002448FFF7EDF808B1FDF7A8FF2148FFF743
:1023A00067FA08B1FDF7A2FF129412A91D48139411
:1023B000FFF77BF808B1FDF799FF009401940294B0
:1023C0000394049405940022694616480694FFF786
:1023D00023FA08B1FDF78AFF042269461148FFF786
:1023E0001BFA08B1FDF782FF082269460D48FFF786
:1023F00013FA08B1FDF77AFF0794089409944FF493
:1024000000500A94CDE90B4007A906480D94FFF748
:102410001FF8002801D0FDF769FF14B010BD0000BF
:10242000002C01402C17002010B58EB0002407941A
:10243000089409940A940B941C2168460C94FDF7A7
:102440009AFE1E481C49C0E900144FF6FF71C0E90E
:10245000024104618461FFF750F808B1FDF746FFBF
:102460004FF48050079007A91448FFF781F808B18E
:10247000FDF73CFF1148FFF77FFA08B1FDF736FF83
:102480000B940BA90D480C94FFF70FF808B1FDF75A
:102490002DFF6020CDE9000402940422694607481C
:1024A0000494FFF701FA08B1FDF720FF0348FFF796
:1024B0008DF90EB010BD0000000800406C17002020
:1024C0000C4810B50A4901600B4941600021816048
:1024D0000C22C160C0E904128161C161FFF76BFA8F
:1024E000002803D0BDE81040FDF700BF10BD00007C
:1024F00000380140AC170020A80D0E00FEE7704721
:102500000907090E002806DA00F00F0000F1E020AC
:1025100080F8141D704700F1E02080F80014704727
:1025200070477047014A5054704700000100002076
:10253000014948607047000000000020034BC1EBD8
:10254000C10103EB8101885470470000F8000020AE
:10255000014908707047000000000020FEF73ABCF7
:1025600030B58FB028216846FDF705FE14210AA872
:10257000FDF701FE02250120049000951020059032
:1025800000244FF4C010CDE9084007956846FEF7D7
:10259000C7FD0F200A90CDE90B540D9401210AA824
:1025A0000E94FEF7B1FC0FB030BD00000D4801687D
:1025B00041F00101016041680B4A1140416001682E
:1025C0000A4A11400160016821F4802101604168DC
:1025D00021F4FE0141604FF41F0181600449C003F2
:1025E00008607047001002400000FFF8FFFFF6FE91
:1025F00008ED00E00148FFF735B800002C17002077
:102600000148FFF72FB800002C170020F0B5026832
:10261000164B174C174D4FF08047984205D0B842E3
:1026200003D0A04201D0A84203D122F070064A682C
:102630003243984205D0B84203D0A04201D0A8420C
:1026400003D122F44074CA68224322F080044A690C
:10265000224302608A68C2620A688262984201D19B
:102660000969016301214161F0BD0000002C0140B6
:10267000000400400008004010B5846842EA0322CC
:1026800024F47F440A432243826010BD826822F012
:1026900070020A4342F007018160704730B5026A58
:1026A00022F001020262026A4368846924F0730521
:1026B0000C682C4322F002058A682A430A4DA8427E
:1026C0000BD122F00805CA6823F440732A434D69F0
:1026D00022F004021D438B692B43436084614968E7
:1026E0004163026230BD0000002C014030B5026A37
:1026F00022F010020262026A436884690D6824F4C1
:10270000E64444EA05248D6822F0200242EA0512DC
:102710000B4DA8420ED1CD6822F0800242EA05128C
:102720004D6923F4406343EA85038D6922F040023A
:1027300043EA85034360846149688163026230BD76
:10274000002C014030B5026A22F480720262036AF2
:102750004268C46923F4007324F073050C682C43A9
:102760008D6843EA05230C4DA8420ED1CD6823F4B1
:10277000006343EA05234D6922F4405242EA051200
:102780008D6923F4806342EA05124260C46149689E
:10279000C163036230BD0000002C014030B5026A05
:1027A00022F480520262046A4268C3690D6823F40D
:1027B000E64343EA05238D6824F4005444EA0534D3
:1027C000064DA84204D14D6922F4804242EA8512A6
:1027D0004260C36149680164046230BD002C01405D
:1027E00010B5036A046A24F001040462846924F0C9
:1027F000F00444EA021423F00A020A4384610262EC
:1028000010BD10B5036A23F0100303628369046AE4
:1028100023F4704343EA023224F0A00343EA011197
:102820008261016210BD00002DE9F041044600689C
:102830000169E26821F44051114301612169A068F6
:102840000843616908432168CA6841F20C639A43EE
:102850000243CA6020684169A26921F440711143B2
:1028600041614C4920686425322688423CD1FEF7FC
:1028700011FC00EBC00101EB001061688900B0FBA6
:10288000F1F7FEF707FC00EBC00101EB00106168F7
:10289000B0468900B0FBF1F0B0FBF5F06FF0180125
:1028A000484307EB800106EB0110B0FBF5F000F0A8
:1028B000F006FEF7EFFB00EBC00101EB00106168D2
:1028C0008900B0FBF1F0B0FBF5F006EB0016FEF767
:1028D000E1FB00EBC00101EB001061688900B0FB77
:1028E000F1F7FEF7D7FB3BE0FEF7C4FB00EBC001BE
:1028F00001EB001061688900B0FBF1F7FEF7BAFB4D
:1029000000EBC00101EB00106168B0468900B0FB2C
:10291000F1F0B0FBF5F06FF01801484307EB8001D0
:1029200006EB0110B0FBF5F000F0F006FEF7A2FB9D
:1029300000EBC00101EB001061688900B0FBF1F011
:10294000B0FBF5F006EB0016FEF794FB00EBC001C0
:1029500001EB001061688900B0FBF1F7FEF78AFB1C
:1029600000EBC00101EB001061688900B0FBF1F0E1
:10297000B0FBF5F06FF01801484307EB800108EB5E
:102980000110B0FBF5F0216800F00F0030448860C2
:10299000BDE8F08100380140FEE702E008C8121FE0
:1029A00008C1002AFAD170477047002001E001C138
:1029B000121F002AFBD17047FEF714FAFFF7D0FD73
:1029C000FFF714FCFFF79CFCFFF77AFDFFF72CFDE7
:1029D000FFF7B8FC002211461F20FEF763FA1F2004
:1029E000FEF754FA002211462020FEF75BFA202061
:1029F000FEF74CFA002201211920FEF753FA1920A4
:102A0000FEF744FA012211461B20FEF74BFA1B2069
:102A1000FEF73CFAFEE700000000000000000102A3
:102A20000304060708090000000001020304000077
:102A300053544550000000005261696C206D6F7462
:102A40006F7200005370696E206D6F746F720000BA
:102A5000466C6970206D6F746F7200007C2A0008EC
:102A600000000020D80000009A290008542B00081C
:102A7000D8000020181B0000AA2900080000000050
:102A800000000000382A0008302A00080100000079
:102A90000000000000000000000000000000000036
:102AA0000000F03F000000000000000000000000F7
:102AB00000000000000000000000244000000000B2
:102AC00001000000442A0008302A0008020000002B
:102AD00000000000000000000000000000000000F6
:102AE0000000F03F000000000000000000000000B7
:102AF0000000000000000000000024400000000072
:102B000001000000502A0008302A000803000000DD
:102B100000000000000000000000000000000000B5
:102B20000000F03F00000000000000000000000076
:102B30000000000000000000000024400000000031
:102B40000100000001000000100000000000000073
:042B500000A24A0491
:04000005080000ED02
:00000001FF
