:020000040800F2
:10000000581C002001010008032C0008832100086F
:10001000012C0008D1080008ED30000800000000A5
:10002000000000000000000000000000272C000875
:10003000D308000800000000252C0008292C000827
:100040001B0100081B0100081B0100081B01000820
:100050001B0100081B0100081B0100081B01000810
:100060001B0100081B0100081B0100081B01000800
:100070001B0100081B0100081B0100081B010008F0
:100080001B0100081B0100081B0100081B010008E0
:100090001B0100081B0100081B0100081B010008D0
:1000A0001B010008D92C00081B010008CD2C0008FA
:1000B0001B0100081B0100081B010008912100081A
:1000C000852100081B0100081B0100081B01000816
:1000D0001B0100081B0100081B0100081B01000890
:1000E0001B0100081B0100081B010008DFF80CD0F1
:1000F00000F060FB0048004795360008581C0020BF
:100100000648804706480047FEE7FEE7FEE7FEE7B1
:10011000FEE7FEE7FEE7FEE7FEE7FEE7852C0008C8
:10012000ED000008202A04DB203A21FA02F0002129
:10013000704721FA02F3D040C2F1200291400843F7
:100140001946704740EA01039B0703D009E008C93C
:10015000121F08C0042AFAD203E011F8013B00F88C
:10016000013B521EF9D27047D2B201E000F8012BD8
:10017000491EFBD270470022F6E710B513460A4627
:1001800004461946FFF7F0FF204610BD10B50022C7
:1001900000E0521C835C8C5CA34201D1002BF8D19F
:1001A000D8B2E1B2401A10BD2DE9FE4F804681EA77
:1001B0000300C00F0C46009021F0004123F00045E1
:1001C000B8EB0200A94105D24046214690461C46A4
:1001D0000B46024623F00040104347D0270DC7F3DB
:1001E0000A00C3F30A510290401A019040286BDACA
:1001F000C3F3130040F4801B0098924620B1002303
:10020000D2EB030A63EB0B0B01985946C0F1400295
:10021000504600F099F906460D4650465946019A57
:1002200000F0A1F910EB08006141002487EA1152A7
:1002300084EAE7731A4340D0009A62B3019A012A14
:100240004FEA075215DC001B61EB02014FF0004240
:1002500002EA0752CDE90042001C41F58011324606
:100260002B4600F0A1F903B0BDE8F08F40462146CF
:10027000F9E7001B61EB0201001C41F58013001837
:100280005B412018A2F5001747EB030140EAD57047
:10029000B6196D4111E06D084FEA360645EAC075A2
:1002A0004FEA0752001B61EB0201001C41F580116F
:1002B00049084FEA30000019514132462B4603B03D
:1002C000BDE8F04F00F061B9009801224000002322
:1002D000D0EB020263EBE073009821464FEAE07432
:1002E000B8EB000061EB0401E9E783F000435BE752
:1002F00081F0004158E72DE9FE4F81EA030404F044
:10030000004421F0004100944FF0000B23F0004323
:1003100050EA01045ED052EA03045BD0C3F30A54EE
:10032000C1F30A552C44A4F2F3340194A0FB025407
:10033000C1F3130141F48011C3F3130343F4801399
:1003400001FB024400FB034E840A970A44EA8154ED
:1003500047EA8357A4FB076802958D0A05FB0785CA
:100360004FEA932C04FB0C542705029D4FEA0658D4
:1003700047EA1637B5EB08056EEB070C870E920EB1
:1003800047EA811742EA8312A7FB0201B6EB0B0191
:1003900064EB00042B0D43EA0C335E1844EB1C5055
:1003A000DA465146E7FB0201C5F313044FEA0B336B
:1003B00043EA14534FEA0432019C43EA0603A4F1D2
:1003C0000C040294009CCDE900B400F0EDF803B0F9
:1003D000BDE8F08F00200146F9E72DE9F04D81EAF4
:1003E000030404F0004B21F0004514464FF0000ACE
:1003F00023F0004150EA050220D054EA01021DD04A
:10040000C5F30A570246C5F31303C1F31300C1F342
:100410000A5640F4801543F48013A7EB0608101B1E
:10042000D64608F2FD3873EB050002D308F1010847
:1004300001E092185B41B8F1000F03DA0020014699
:10044000BDE8F08D00204FF48011064684460EE092
:10045000171B73EB050705D3121B63EB050306435C
:100460004CEA010C49084FEA300092185B4150EA0F
:100470000107EDD152EA030012D082EA040083EAB8
:100480000501084305D0101BAB4106D20122002311
:1004900006E000224FF0004302E06FF0010253102B
:1004A0001AEB06004CEB085110EB0A0041EB0B0174
:1004B000BDE8F04D00F069B80EB5C10F80EAE070FC
:1004C0000844CA07002140F233438DE80E000A4673
:1004D0000B4600F069F803B000BD70B5C1F30A52D5
:1004E00001F000450024C1F3130140F2FF3341F451
:1004F00080119A4201DA002070BD40F233439A42E3
:10050000A2F2334203DC5242FFF70CFE00E09040BF
:100510002C43F1D0404270BD30B5041E71F100048F
:1005200004DB4FF00044404264EB0101141E73F100
:10053000000405DB1C464FF00043524263EB04030A
:100540008B4208BF824230BD202A04DB203A00FAE9
:1005500002F1002070479140C2F1200320FA03F31A
:10056000194390407047202A06DBCB17203A41FA06
:1005700002F043EAE07306E041FA02F3D040C2F130
:100580002002914008431946704710B5141E73F1BC
:10059000000408DA401C41F1000192185B411A4343
:1005A00001D120F0010010BD2DE9F04D92469B468F
:1005B00011B1B1FA81F202E0B0FA80F22032904635
:1005C000FFF7C2FF04460F4640EA0A0041EA0B016A
:1005D00053465A46084313D0114653EA010019D036
:1005E000C8F140025046FFF79DFD05460E465046B5
:1005F00059464246FFF7A8FF084305D0012004E012
:1006000020463946BDE8F08D0020054346EAE076F5
:100610002C4337430A986305E40AA0EB0800002244
:10062000FD0A44EA47540A3002D500200146E9E7B2
:10063000010510196941DDE9084500196941BDE866
:10064000F04DA2E770B521F0004303430CD0C1F395
:100650000A550024D5EB040564EB0403D617AD1A44
:10066000B34102DB0020014670BD201841EB02516E
:1006700070BD00002DE9F041054621F000400C4618
:10068000284309D0C4F30A5040F23341884205DDC3
:1006900028462146BDE8F0812846FBE740F2FE31BE
:1006A000884210DC0CDB4FEA043040EA155050EA77
:1006B000053105D0104804F0004101430020E9E76E
:1006C00000200146E6E7A0F233404642C6F1400270
:1006D00028462146FFF738FF074688462846214628
:1006E0003246FFF71FFD43463A46FFF74EFF3246BC
:1006F000BDE8F041FFF728BF0000F03F2DE9FE4FB5
:10070000C3F30A5701F000450024C1F30A56C3F3AE
:100710001303C1F3130143F4801312EB020AA6463C
:1007200041F48011009543EB030CA7F1010B16E097
:10073000B0EB0A0061EB0C01071E71F1000707DA4C
:100740004FF00008D0EB080085F0004568EB010190
:10075000171A73EB0107EBD3761E001849415E456B
:10076000F6DA50EA010209D0CDE900E5002213468D
:100770000296FFF719FF03B0BDE8F08F20460099FD
:10078000F9E7000030B5041E71F1000404DB4FF0FE
:100790000044404264EB0101141E73F1000405DBC8
:1007A0001C464FF00043524263EB0403994208BFDA
:1007B000904230BD064C074D06E0E06840F0010372
:1007C00094E8070098471034AC42F6D3FFF792FC48
:1007D00054500008745000082DE9F04D00231A46CB
:1007E0001B1A8A4103DB00200146BDE8F08DC1F3EE
:1007F0000A52C1F3130141F480154FF0000BD107E9
:1008000002D100186D41521E0027044640F2FF112C
:10081000384601EB620A3E468046024600204FF40D
:100820008011FFF77FFCC2197141BB1846EB010034
:10083000B4EB030C75EB000C04D3E41A65EB000574
:1008400017460E46241908F101006D4180463428F0
:10085000E3DDF91946EB0600091BA84103D24FF06E
:10086000FF32134601E0002213461BEB070046EB64
:100870000A51BDE8F04DFFF788BE70B58C1810F82E
:10088000015B15F0070301D110F8013B2A1106D1D5
:1008900010F8012B03E010F8016B01F8016B5B1EEF
:1008A000F9D12B0705D40023521E0DD401F8013BCA
:1008B000FAE710F8013BCB1A921C03E013F8015B36
:1008C00001F8015B521EF9D5A142D8D3002070BDBA
:1008D000FEE7704710B54FF40051044800F051F99D
:1008E000BDE810404FF47A7000F056B80010014097
:1008F000002201E000F8012B491E89B2FAD27047AC
:1009000010B590F821100024022903D0042181633E
:1009100001243DE001680A6822F00E020A600168C5
:100920000A6822F001020A601A4A0168914201D164
:10093000012121E0174A1432914201D110211BE01C
:10094000144A2832914201D1891515E0114A3C32EE
:10095000914201D189140FE00E4A5032914202D1E6
:100960004FF4803108E00B4A6432914202D14FF4D7
:10097000801101E04FF08071064A083A5160012170
:1009800080F82110002180F82010416B01B18847C8
:10099000204610BD0800024070B5044600F0FAF889
:1009A0000546601C02D004480078044400F0F2F8C8
:1009B000401BA042FAD370BD740100202DE9F84F0E
:1009C000DFF890A100220AF1040B144601274FF032
:1009D0000F090BF1040E00BF0B6807FA04F52B405A
:1009E000AB4274D1DFF870C14E68A6EB0C086645C7
:1009F0002BD00DDC032E34D005DC36B3012E19D0FC
:100A0000022E2FD11BE0112E16D0122E2AD119E062
:100A1000B8F5881F19D006DCB8F5803F15D0B8F5B9
:100A2000801F1FD111E0B8F5001F0ED0B8F5041FCC
:100A300018D10AE0CA6815E0CA68121D12E0CA6837
:100A400008320FE0CA680C320CE08A682AB1012A29
:100A50004FF0080203D0456104E0042202E0056182
:100A600000E00022FF2B01D8064601E000F1040659
:100A70004FEA840501D9A5F12005D6F800C009FA8E
:100A800005F82CEA080C02FA05F54CEA050CC6F844
:100A900000C04D68ED0057D5304DAE6946F00106F7
:100AA000AE61AD6924F0030605F0010500952C4DFB
:100AB00006EB050CDCF80850A6074FEA167809FA91
:100AC00008F6B543274EB04202D1002610E03BE0C5
:100AD000254EB04201D101260AE0244EB04201D198
:100AE000022605E0224EB04201D1032600E0042692
:100AF00006FA08F62E43CCF808604D68DAF8006074
:100B0000ED03554601D51E4300E09E432E604D681F
:100B1000DBF80060AD035D4601D51E4300E09E4357
:100B20002E604D68DEF80060ED02754601D51E436B
:100B300000E09E432E604D68AD020E4D2E6801D53B
:100B40001E4300E09E432E60641C102CFFF444AF53
:100B5000BDE8F88F000401400000111000100240B1
:100B60000000014000080140000C0140001001405D
:100B7000001401400C0401408068084000D00120AE
:100B80007047C2684A40C26070470AB1016170474D
:100B90000904FBE7014880687047000074010020E9
:100BA0007047000038B50446A9B102F025FC0146A3
:100BB00001231C22204600F04DFB08B1FFF78AFEFE
:100BC0002068416980690090BDE8384001225103E6
:100BD0000548FFF7DABF02F015FC014608230222A0
:100BE000204600F070FBE8E70010014070B50446B5
:100BF00000684569466830490D420DD0F1050BD5B6
:100C0000216C41F0010121646FF480714161206821
:100C1000016841F40041016015F4813F09D0F005FD
:100C200007D5206C40F00200206421686FF400704A
:100C3000486115F4823F28D0F00526D594F83E305F
:100C4000628D94F83D00216B202B08D13AB9212800
:100C50000ED029280CD0282801D1212908D0206CB9
:100C600040F00400206494F83E00102804D008E00E
:100C7000204601F0CBFD08E02068016841F40071D6
:100C8000016021686FF48060486115F4843F09D0E9
:100C9000F00507D5206C40F00800206421686FF44F
:100CA00000604861206C002804D02046BDE87040F8
:100CB00001F09CBA70BD0000000101002DE9F05F59
:100CC00002680446D2F818805569566890F83E00CC
:100CD0006649DFF898A1DFF894B1DFF894918F1C92
:100CE0000AF17E0A0BF13E0B102812D0402810D0DA
:100CF0000D425BD0B00559D5936920460021DB43F6
:100D00005B0700D501219269D243120648D582893A
:100D100047E015F0011F05D0B00503D5204601F0CE
:100D200004FD10E05148801D054205D0B00503D5F3
:100D3000606CC0B2106106E00D4204D0B00502D56F
:100D4000204601F065FC18EA090F14D015EA0A0FD5
:100D500008D0700506D53D4206D12046BDE8F05FBB
:100D600001F0D2BB3D421FD0B0051DD52046BDE8E5
:100D7000F05F01F088BB15EA0B0F08D0700506D5AF
:100D80003D4206D12046BDE8F05F01F025BB3D4263
:100D90000AD0B00508D52046BDE8F05F01F0B8BA2A
:100DA000028B92B2FFF7FEFEBDE8F09F2F480E3097
:100DB000054206D0B00504D52046BDE8F05F01F03D
:100DC00067BD18EA090F35D015EA0A0F24D070055F
:100DD00022D53D4222D194F83D202046618D002944
:100DE000E2D0416A4B1C4362036809781961418D66
:100DF000491E4185418D0029D6D1292AD4D10168C7
:100E00004A6822F480624A6021210163282180F827
:100E10003D1000F017FAC7E73D42C5D0B005C3D575
:100E2000608D0028C0D0606A411C61622168007832
:100E3000086117E015EA0B0F08D0700506D53D4292
:100E400006D12046BDE8F05F01F09CBC3D42ABD02E
:100E5000B005A9D5608D0028A6D01169606A421C32
:100E600062620170608D401E60859DE70200010096
:100E70000400100090F83D10202901D00220704796
:100E8000282180F83D1001680A68D20703D10A685A
:100E900042F001020A6001680A6842F480620A6056
:100EA0000068416841F4407141600020704770471C
:100EB00070B504001BD094F83D00002520B984F8DB
:100EC0003C50204600F0FAF8242084F83D002068C9
:100ED000016821F00101016000F07EFB404A616879
:100EE000914201D83F4900E03F49884201D20120A8
:100EF00070BD3E492368B0FBF1F1596063689342CD
:100F000006D94FF4967359434FF47A73B1FBF3F15A
:100F10002368491C19626168914210D84900401E3B
:100F2000B0FBF1F2521CC2F30B02042A01D20420DE
:100F300022E0B0FBF1F0401CC0F30B001CE0A36802
:100F4000CBB301EBC10202EB0116421EB2FBF6F27B
:100F5000521C42F48042120536D06BB301EBC10241
:100F600002EB0111401EB0FBF1F0401CC0F30B007E
:100F700040F4804040F400402168C861D4E9070192
:100F8000084321680860D4E9031008432168886099
:100F9000D4E9050108432168C8602068016841F070
:100FA000010101602564202084F83D00256384F858
:100FB0003E50002070BD00E008E001EB4106421EFB
:100FC000B2FBF6F2521CC6E70120D5E701EB410166
:100FD000401EB0FBF1F0401CC0F30B00CAE700005C
:100FE000A086010080841E0000093D0040420F00E1
:100FF00070B5FFF73FFF08B1FFF76CFC02F0FCF99A
:10100000007850B102F0F8F9007801281CD002F005
:10101000F3F90078022819D01BE000240CE000BF8F
:1010200002F0F6F9054602F0E7F92044224640783E
:10103000294603F0F9F9641C02F0E2F9401EA042CF
:10104000EEDC02F03BFA04E0022000E0032003F0B3
:101050002DFA00224FF400511348FFF796FD02F0DD
:10106000CFF984B202F0C8F901464FF0FF352B46A4
:1010700022460E4801F028F82B4602220CA10B480C
:1010800001F022F802F0BCF984B202F0B5F9214671
:10109000FFF72EFC02F0BAF984B202F0B3F9214650
:1010A000BDE87040FFF724BC001001401818002074
:1010B0000A000000704770477047704710B586B04F
:1010C0000021009101910291039100681349884227
:1010D00022D1134CA06940F00800A061A0696946C4
:1010E00000F0080004904FF440700090122001902E
:1010F000032003900B48FFF761FC0B48416841F067
:10110000E06141F002014160E06940F40010E061FB
:10111000E06900F40010049006B010BD00540040D7
:1011200000100240000C01400000014010B502F028
:1011300063F90078C01E07282ED2DFE800F0041300
:1011400034435261750001213C4802F075F902F008
:1011500084F9FFF7C2F9C0F30720002103F05EF91C
:1011600001210DE00221354802F066F902F075F91F
:10117000FFF7B3F9C0F30720002103F04FF9022174
:101180002E4802F059F902F068F900BFFFF7A5F9FF
:10119000C0B2012103F042F90122BDE81040510321
:1011A0002748FFF7F2BC0321244802F045F902F07A
:1011B00054F9FFF792F9C0F30720002103F02EF94C
:1011C0000321DDE701211D4802F036F902F049F95B
:1011D000FFF783F9C0F30720002103F01FF9012175
:1011E0001CE00221154802F027F902F03AF9FFF756
:1011F00074F9C0F30720002103F010F902210DE07B
:1012000003210E4802F018F902F02BF9FFF765F9F7
:10121000C0F30720002103F001F90321074802F081
:101220000BF902F01EF9B1E702F000F900210846BF
:1012300003F0F4F801210020ACE7000018000020C2
:101240000010014000224FF400510148FFF79DBCFF
:101250000010014038B590F83D40282C31D161B1E3
:101260005AB190F83C40012C2BD0012480F83C402E
:1012700004682568ED0702D005E0012038BD256827
:1012800045F0010525600468256825F400652560A2
:101290002A2480F83D40202480F83E400024046445
:1012A00041624285C362418D018501684A698A694C
:1012B000009280F83C40486840F4E0604860204676
:1012C00038BD022038BD38B590F83D40282C31D1CA
:1012D00061B15AB190F83C40012C2BD0012480F828
:1012E0003C4004682568ED0702D005E0012038BDC8
:1012F000256845F0010525600468256825F400652A
:101300002560292480F83D40202480F83E400024B8
:10131000046441624285C362418D018501684A6966
:101320008A69009280F83C40486840F4E060486078
:10133000204638BD022038BD024881680278114439
:101340008160704774010020074810B5016841F0C2
:1013500010010160032000F077F8002000F006F88B
:1013600000F024F8002010BD0020024070B50D4DA3
:1013700004464FF47A712878B1FBF0F00A49096805
:10138000B1FBF0F000F000FB48B9102C07D20022AE
:101390002146501E00F038F800206C6070BD01201E
:1013A00070BD000074010020800100200E4808B5C7
:1013B000816941F001018161816901F001010091C0
:1013C000C16941F08051C161C06900F08050009056
:1013D000052000F039F80548416821F0E06141F04E
:1013E0000071416008BD0000001002400000014093
:1013F00000F01F02012191404009800000F1E0202F
:10140000C0F8001170470000F0B40E4B1B680C468A
:10141000C3F30223C3F10705042D00D90425191DC8
:10142000072901D2002300E0DB1E012606FA05F1A0
:10143000491E214099409E40761E16403143F0BC23
:1014400001F0E0BB0CED00E0064900F0070208687F
:101450004FF6FF03184040EA0220034A1043086099
:10146000704700000CED00E00000FA052DE9F047A0
:10147000DFF8548105460E46D8F8000000F007005A
:10148000B0420CD2D8F8001021F007013143C8F85F
:101490000010D8F8000000F00700B0426FD12868B3
:1014A0004A4C810712D5400703D5606840F4E060DC
:1014B00060602878000703D5606840F46050606081
:1014C0006068A96820F0F000084360602878C007D1
:1014D00044D06868012816D02168022816D08907F0
:1014E00000294CDA616821F0030101436160FFF7D4
:1014F00051FB6968074641F2883001290ED0022964
:10150000814618D026E021688903E9E78901E7E7E9
:10151000FFF740FBC11B494501D918E081466068CF
:10152000C0F381000128F3D118E000BFFFF732FBC0
:10153000C11B49450BD86068C0F381000228F5D172
:101540000CE000BFFFF726FBC11B494502D9032071
:10155000BDE8F087606810F00C0FF3D1D8F80010E8
:10156000404601F00701B1420BD9016821F00701A3
:1015700031430160006800F00700B04201D0012053
:10158000E6E72878400705D56068E96820F4E06060
:10159000084360602878000706D56068296920F450
:1015A000605040EAC100606000F036F86168084AA7
:1015B000C1F30311515CC840064908600020FFF7E1
:1015C000D5FE0020C4E700000020024000100240C9
:1015D000344F00088001002004480549006849682C
:1015E000044AC1F30221515CC840704780010020C9
:1015F00000100240444F000804480549006849684B
:10160000044AC1F3C221515CC840704780010020E8
:1016100000100240444F000812A185B00FC98DE8A8
:101620000F0014A0144A006804905168134801F098
:101630000C03042B10D0082B0ED1C1F38343C90334
:101640001DF803000AD5516804AAC1F34041515C5A
:101650000A4A5043B0FBF1F005B0704708494843CF
:10166000FAE7000002030405060708090A0B0C0D3F
:101670000E0F1010010200000010024000127A004C
:1016800000093D002DE9F84F04460078B94DC00728
:1016900048D06868C0F38100012807D06868C0F3AB
:1016A0008100022809D16868C00306D52868800334
:1016B00038D5606800286FD034E06068B0F5803FAE
:1016C0000BD010B1B0F5A02F11D0286820F48030D5
:1016D0002860286820F4802002E0286840F48030E8
:1016E0002860606888B1FFF755FA064609E0286867
:1016F00040F480202860F0E7FFF74CFA801B642854
:1017000075D828688003F7D50CE0FFF743FA064642
:1017100005E000BFFFF73EFA801B6428F0D8286878
:101720008003F7D42078944E80074FF001094FF0E2
:1017300000083BD5686810F00C0F07D06868C0F34C
:101740008100022809D16868C00306D42868800790
:1017500014D5206901281FD110E02069B0B1C6F866
:101760000090FFF717FA074605E000BFFFF712FAEF
:10177000C01B0228C4D828688007F7D5286861698B
:1017800020F0F80040EAC10028600FE0C6F80080B1
:10179000FFF700FA074606E0E9E000BFFFF7FAF9B5
:1017A000C01B022823D828688007F7D420780007B8
:1017B0002CD57248A169D9B1C0F80090FFF7EAF9B9
:1017C000074604E0FFF7E6F9C01B02280FD8686A55
:1017D0008007F7D56A484FF4FA510068B0FBF1F082
:1017E000009000BF0098411E0091FAD20EE080E008
:1017F000C0F80080FFF7CEF9074604E0FFF7CAF90A
:10180000C01B022875D8686A8007F7D42078400783
:1018100060D5E8690027C00008D4E86940F080502E
:10182000E861E869012700F08050009055480168A0
:10183000C90513D40168834641F480710160FFF744
:10184000A9F9824606E000BFFFF7A4F9A0EB0A0061
:1018500064284ED8DBF80000C005F5D5E068012803
:101860000AD008B1052813D0286A20F001002862A8
:10187000286A20F0040002E0286A40F00100286293
:10188000E06841F2883B98B1FFF784F982460BE0AB
:10189000286A40F004002862EEE700BFFFF77AF9FB
:1018A000A0EB0A0159455AD8286A8007F6D50CE002
:1018B000FFF770F9824605E0FFF76CF9A0EB0A012B
:1018C00059454CD8286A8007F6D41FB1E86920F042
:1018D0008050E861E06988B36968C1F38101022939
:1018E00045D00228C6F8608004D0FFF753F90446BB
:1018F00038E034E0FFF74EF9074604E0FFF74AF915
:10190000C01B02282BD828688001F7D4206AB0F5C4
:10191000803F05D16868A16820F400300843686002
:10192000D4E908010843696821F474110843686028
:10193000C6F86090FFF72EF9044606E015E000BFF8
:10194000FFF728F9001B022809D828688001F7D57D
:101950000BE000BFFFF71EF9001B022802D903208D
:10196000BDE8F88F28688001F4D40020F8E7012052
:10197000F6E70000001002400000424280044242AC
:10198000800100200070004010B5401EB0F1807F43
:1019900001D3012010BD4FF0E02460610F216017DA
:1019A00001F030F90020A06107202061002010BD67
:1019B0007047704710B590F83C20012A25D00122CD
:1019C00080F83C20CA688C6822F4407222434C683C
:1019D00022F4806222430C6822F4006222430C69E4
:1019E00022F4805222434C6922F4005222438C6933
:1019F00022F48042224322F4004102680023214362
:101A0000516480F83C30002010BD022010BD30B57C
:101A100090F83C20012A20D0012280F83C200223AB
:101A200080F83D3003685C6824F070045C600368F3
:101A30005C680D682C435C6003689C6824F080043B
:101A40009C6003689C6849680C439C6080F83D205A
:101A5000002180F83C10084630BD022030BD10B592
:101A6000040003D094F83D0010B107E0012010BD40
:101A7000002084F83C00204600F00CF8022084F896
:101A80003D00211D206801F02DF9012084F83D0062
:101A9000002010BD08B50C4A01680C48914207D1DE
:101AA000816941F400618161806900F4006009E0AE
:101AB000074A914207D1C16941F00401C161C0697F
:101AC00000F00400009008BD002C0140001002400E
:101AD000000800400168CA6842F00102CA6000685C
:101AE000016841F001010160002070470168CA6887
:101AF00022F00102CA600068016A41F2111211422B
:101B000007D1016A9210114203D1016821F001014D
:101B100001600020704770B5044690F83C00012831
:101B200017D0012584F83C50022084F83D0020683D
:101B3000826822F0770222F47F428260086850288F
:101B400037D00DDC202859D005DC88B3102841D1CE
:101B500051E0022070BD302853D040283AD13FE0F8
:101B600060282ED070280BD0B0F5805F03D0B0F580
:101B7000005F2FD110E02068816821F0070115E097
:101B8000CB68D1E90121206801F0EDF8216888686F
:101B900040F0770088601DE0CB68D1E90121206822
:101BA00001F0E1F82068816841F48041816011E032
:101BB0001EE0CA684968206801F08AF9502120684F
:101BC00006E0CA684968206801F093F9602120683E
:101BD00001F0D3F884F83D50002084F83C0070BD3B
:101BE000CA684968206801F073F940212068EFE76E
:101BF00000212068ECE710212068E9E72021206817
:101C0000E6E730212068E3E7704770B504460068D6
:101C100001694FF00005C943890715D4C168C9435C
:101C2000890711D4E91E01610120207720688069AD
:101C30008007204602D0FFF7E7FF04E000F0C4F879
:101C4000204600F0D3F9257720680169C943490788
:101C500017D4C168C943490713D46FF00401016167
:101C6000022020772068806910F4407F204602D04F
:101C7000FFF7CAFF04E000F0A7F8204600F0B6F92D
:101C8000257720680169C943090716D4C168C9438B
:101C9000090712D46FF00801016104202077206841
:101CA000C0698007204602D0FFF7AEFF04E000F0D5
:101CB0008BF8204600F09AF9257720680169C9431E
:101CC000C90617D4C168C943C90613D46FF01001FF
:101CD0000161082020772068C06910F4407F204609
:101CE00002D0FFF791FF04E000F06EF8204600F00C
:101CF0007DF9257720680169C943C90708D1C16802
:101D0000C943C90704D1891E0161204600F06FF95B
:101D100020680169C943090609D4C168C943090695
:101D200005D46FF0800101612046FFF741FE206875
:101D30000169C943490609D4C168C943490605D4A4
:101D40006FF040010161204600F053F920680169FD
:101D5000C94389060BD4C168C943890607D46FF00B
:101D6000200101612046BDE87040FFF722BE70BD32
:101D700070B5044690F83C0001280DD0012584F888
:101D80003C50022084F83D0042B1042A0AD0082ABF
:101D90000CD00C2A11D10DE0022070BD206800F09B
:101DA000F5FF0AE0206801F019F806E0206801F06C
:101DB00041F802E0206801F069F884F83D50002005
:101DC00084F83C0070BD000070B5044600680169ED
:101DD000C943890727D4C068C043800723D401F0D2
:101DE00067FB0546012001F0D7FA85421BD101218E
:101DF0003C4801F021FB01F033FC01280ED0012109
:101E0000384801F019FB02F005FD0121354801F0C9
:101E100013FB0146204602F093FD04E0002201215D
:101E2000204602F0C3FA20680169C943490727D454
:101E3000C068C043400723D401F03AFB05460220A6
:101E400001F0AAFA85421BD10221264801F0F4FADA
:101E500001F006FC01280ED00221224801F0ECFA24
:101E600002F0D8FC02211F4801F0E6FA01462046A4
:101E700002F066FD04E000220221204602F096FAFC
:101E800020680169C94309072AD4C068C043000714
:101E900026D401F00DFB0546032001F07DFA8542B2
:101EA0001ED103210F4801F0C7FA01F0D9FB012828
:101EB0000FD003210B4801F0BFFA02F0ABFC032165
:101EC000084801F0B9FA01462046BDE8704002F02A
:101ED00037BD2046BDE870400022032102F066BAFB
:101EE00070BD00001800002010B5040003D094F865
:101EF0003D0010B107E0012010BD002084F83C0037
:101F0000204600F00CF8022084F83D00211D2068D6
:101F100000F0E8FE012084F83D00002010BD70476D
:101F200010B504460068002200F012FF0E4841F28E
:101F3000111221689310814209D1086A104206D11A
:101F4000086A184203D1486C20F4004048642068B5
:101F5000016A114206D1016A194203D1016821F0D8
:101F600001010160002010BD002C014010B5026885
:101F7000044631B1042908D008292CD00C2908D1F5
:101F80002DE0D06820F0020002E0D06820F00400CC
:101F9000D0600022206800F0DBFE134B41F21112EA
:101FA00020689110984209D1036A134206D1036A4E
:101FB0000B4203D1436C23F4004343642068036A5B
:101FC000134206D1026A0A4203D1016821F00101DD
:101FD0000160002010BDD06820F00800D8E7D0686C
:101FE00020F01000D4E70000002C0140704701F001
:101FF0007DBA704770B5040004D094F8390000250C
:1020000010B106E0012070BD84F83850204600F081
:1020100023F8242084F839002068C16821F4005195
:10202000C160204600F078FF2068016921F49041EA
:1020300001612068416921F02A0141612068C1687D
:1020400041F40051C160E563202084F8390084F830
:102050003A00002070BD000030B585B00024009427
:1020600001940294039400681449884224D11448CE
:10207000816941F480418161816901F48041049169
:10208000816941F00401816180690E4D00F0040016
:1020900004904FF400700090022001900320039000
:1020A00069462846FEF78AFC2815CDE900046946F2
:1020B00028460294FEF782FC05B030BD003801408E
:1020C00000100240000801402DE9F843044690F852
:1020D00039001F4616460D46202850D1A5B19EB1A5
:1020E00094F8380001284AD0012084F838004FF0D5
:1020F0000008C4F83C80212084F83900FEF74AFD2E
:10210000A6848146E68426E00120BDE8F883E08CC1
:10211000401EE084A0684B46B0F5805F4FF000029F
:102120004FF080012046009703D000F0ADFFE8B9E2
:102130000DE000F0A9FFC8B928882168C0F30800A5
:102140004860206908B16D1C05E0AD1C03E0216802
:1021500015F8010B4860E08C0028D8D14B460022CE
:1021600040212046009700F08FFF08B10320CCE704
:10217000202084F8390084F838800020C5E7022048
:10218000C3E7FEE70148FEF731BD000084170020D9
:102190000148FEF793BD00008417002010B5406A87
:1021A00001680A6822F480620A6000214185426B5E
:1021B0005163826B516390F83D302022602B80F890
:1021C0003D2080F83E1007D001680A6822F0010225
:1021D0000A60FEF76CFE10BD016401680A6822F017
:1021E00001020A60FEF7DCFC10BD000070B590F83B
:1021F0003D10044600252026006829292DD02A29D3
:102200002BD094F83D10602904D04168090501D411
:1022100084F83D60256384F83E50016821F4006134
:10222000016020684168090537D5416821F40061E3
:102230004160606B344990F82120012A12D041633B
:10224000606BFEF75DFB38B32068016821F0010187
:10225000016084F83D60606B1CE02563282184F8F0
:102260003D10DAE7A06B4163A06BFEF749FB98B124
:1022700020684169C943490604D40169606A421C67
:10228000626201702068016821F00101016084F838
:102290003D60A06B416B88470FE094F83D106029CA
:1022A0001DD04169C943490604D40169606A421CD2
:1022B000626201702046FEF7FAFD94F83D0028287E
:1022C0000CD1206C400709D51048E062256384F8E2
:1022D0003D6084F83E502046FEF78AFE70BD84F8CB
:1022E0003D6025644169C943490604D40169606AB7
:1022F000421C626201702068016821F001010160E6
:102300002046FEF74DFCD8E79D2100080000FFFFA6
:1023100010B5C26A448D2F4B0168032C03D0448D45
:10232000022C15D00AE0042A03D0082A01D09A42D0
:1023300003D10A6822F480620A6001680A69416A6E
:102340004B1C43620A70418D491E4185002010BD1F
:10235000042A12D0082A10D09A420ED0022A0A6803
:1023600002D022F4806201E042F480620A600168D7
:102370004A6822F440724A6008E04A6822F44072D7
:102380004A6001680A6842F400720A6001680A69DA
:10239000416A4B1C43620A70418D491E41850168A8
:1023A0000A69416A4B1C43620A70418D491E41858E
:1023B000202180F83D100021016390F83E2080F834
:1023C0003E10402A02D0FEF775FEBFE7FEF774FE0E
:1023D000BCE700000000FFFF10B590F83D10222977
:1023E0004CD1418D032909D901680A69416A4B1C06
:1023F00043620A70418D491E41853FE0022909D0A0
:10240000032907D0C16A022901680A6818D022F49A
:10241000806217E0C16A022901680A6807D022F4C5
:1024200080620A6001680A6842F4006201E042F4D6
:1024300080620A600068416821F4806141601DE0AB
:1024400042F480620A6001684A6822F4E0624A60ED
:1024500001680A69416A4B1C43620A70418D491E3A
:102460004185202180F83D100021016390F83E2035
:1024700080F83E10402A03D0FEF71CFE002010BD5D
:10248000FEF71AFEFAE710B5C26A90F83D1021294E
:1024900021D1418D49B1416A4A1C426202680978E2
:1024A0001161418D491E418515E020230021042A38
:1024B00013D0082A11D012F5803F0ED0026854685C
:1024C00024F4E06454601122026380F83E1080F826
:1024D0003D30FEF7F0FD002010BD0268546824F482
:1024E000E06454600268146844F40074146001638A
:1024F00080F83D3090F83E2080F83E10402AE8D128
:10250000FEF7DBFDE7E7000010B590F83D1090F80E
:102510003E30C26A048D24B1212934D0402B30D002
:1025200074E02129FAD120230021042A13D0082A9B
:1025300011D012F5803F0ED00268546824F4E06494
:1025400054601122026380F83E1080F83D3000BFD5
:10255000FEF7B1FD5AE00268546824F4E064546068
:102560000268146844F400741460016380F83D301C
:1025700090F83E2080F83E10402AE9D1FEF79DFDFC
:1025800044E0222942D1418D21B190F83E104029EA
:1025900006D032E00068416821F48061416035E096
:1025A000016D31B1016D012911D0016D022915D0E4
:1025B0002CE0C16C0129816C02D0C1F3072108E035
:1025C0000268C9B21161016D891C01651EE0816C50
:1025D000C9B202681161016D491CF6E790F83D101F
:1025E000222904D090F83D10212906D00EE0006881
:1025F000016841F48071016008E0416A4A1C42624E
:10260000026809781161418D491E4185002010BD85
:1026100078B590F83E50C26A046B90F83D60002394
:102620000168222E06D1066D0EB9402D02D0056D2F
:1026300025B107E04869886900901CE00569B5F597
:10264000404F1AD0458D85B3458D012D20D0428D48
:10265000022A4AD00A6842F480620A6001684A6825
:10266000120503D54A6842F480524A6001684A69FB
:10267000896900910365002078BD4A698A690092E2
:102680000A6842F480720A60016D491C0165F2E734
:1026900012F5803F0AD0042A21D0082A1FD0122C1C
:1026A0001DD0C26A022A09D114E00BE00A6822F4A4
:1026B00080620A6001684A68120503D50A6822F43C
:1026C00080620AE04A698A6900920A6842F40072EC
:1026D0000A60CFE70A6842F480620A60C6E70A68C7
:1026E00022F480620A600168ECE7C26A022A0A6882
:1026F0000BD042F400620A6001684A698A6900925C
:102700000A6822F480620A6006E042F480620A608D
:1027100001684A698969009101684A681205A9D56A
:102720004A6842F480524A60A4E790F83E1040297B
:1027300009D00169B1F5804F10D0016D99B1016DDB
:10274000012915D01CE0016D19B9416C01F0FE01A1
:1027500014E0416CC9B241F001010FE090F83D1066
:102760002129F6D1F1E7416CF02201F4407103E038
:10277000416CF12201F4407142EAD111006801611B
:10278000002070472DE9F04190F83D500446408DFF
:10279000C0B320680169606A421C62620170608D8A
:1027A000401E608500F028FE0078618D22262827D3
:1027B0001B2918D12A2D16D1032809D0042807D0A7
:1027C000052805D0062803D0072801D008280AD1FB
:1027D0002068416821F480614160266384F83D707F
:1027E0002046FEF7A3FC608D60B92A2D0AD120682F
:1027F000416821F480614160266384F83D70204681
:10280000FEF794FC0020BDE8F08100002DE9F041C6
:1028100090F83D40C26A00231C4F202601686FF4E7
:102820008065042A01D0082A01D1282C05D0212C4A
:1028300017D04D610020BDE8F081C7624A6822F4DC
:10284000E0624A6001684D6101680A6822F48062B2
:102850000A60036380F83D6080F83E30FEF7C8FBF5
:10286000E8E7C7622122026380F83D6080F83E30CD
:102870004A6822F4E0624A6001684D6101680A68B2
:1028800022F480620A60FEF7DDFCD3E70000FFFF60
:1028900038B590F83D2001684B6823F4E0634B6045
:1028A000036800215C6900941C6844F001041C600A
:1028B00003681C6824F480641C6003685C68240559
:1028C0000BD590F83D40222C2BD090F83D402A2C7F
:1028D00027D0446B246864684485448DE4B15C6906
:1028E000E443640707D41C69436A5D1C45621C709D
:1028F000438D5B1E438503685C69E443640607D42B
:102900001C69436A5D1C45621C70438D5B1E4385D8
:10291000036C43F004030364036C23B1FFF766FC0C
:102920001FE0846BD6E72023282A09D02A2A07D063
:10293000292A05D0046B222C0CD0222A0AD010E0C0
:10294000094AC262016380F83D3080F83E10FEF70C
:102950004FFB06E0016380F83D3080F83E10FEF743
:10296000E5FB002038BD00000000FFFF2DE9F0412D
:1029700086B000254548009501950295039581692B
:1029800041F010018161816901F0100104918169B8
:1029900041F004018161816901F0040104918169C0
:1029A00041F0080181618069394E00F008004FF460
:1029B00000540490002221463046FEF7E6F8354FD9
:1029C000002248F2FF013846FEF7DFF8DFF8C88042
:1029D00000224CF67B414046FEF7D7F800228021CA
:1029E0004046FEF7D2F800940124CDE9014569463E
:1029F00030460394FDF7E2FF48F2C30002268DE85B
:102A00005100694638460394FDF7D8FF1C208DE835
:102A10003100694638460394FDF7D0FF2020CDE908
:102A200000040294694638460394FDF7C7FF4CF250
:102A300073408DE83100694640460394FDF7BEFFC0
:102A4000E002CDE900040294694640460394FDF794
:102A5000B5FF8020CDE90004CDE902466946404635
:102A6000FDF7ACFF4FF4C850CDE900056946384684
:102A70000295FDF7A3FF08208DE851006946404606
:102A80000394FDF79BFF06B0BDE8F0810010024003
:102A90000010014000080140000C01400E4810B534
:102AA0000C4901600D49416000213E22C0E902123B
:102AB0004FF48042C0E904214022C0E906120162BD
:102AC000FEF7F6F9002803D0BDE81040FDF702BF7D
:102AD00010BD00000054004084170020801A06003A
:102AE00010B594B000240E940F9410941194129485
:102AF0001C2168461394FDF73EFB1C2107A8FDF737
:102B00003AFB2F482D4901601F21C0E901144FF6FF
:102B1000FF71C0E9031444618461FEF7A0FF08B1AE
:102B2000FDF7D8FE4FF480500E900EA92448FEF712
:102B3000F2FF08B1FDF7CEFE2148FFF7D5F908B145
:102B4000FDF7C8FE129412A91D481394FEF75FFF0B
:102B500008B1FDF7BFFE009401940294039404941D
:102B600005940022694616480694FFF701F908B15A
:102B7000FDF7B0FE042269461148FFF7F9F808B1E5
:102B8000FDF7A8FE082269460D48FFF7F1F808B1E5
:102B9000FDF7A0FE0794089409944FF400500A949E
:102BA000CDE90B4007A906480D94FEF703FF002866
:102BB00001D0FDF78FFE14B010BD0000002C0140C5
:102BC000D81700200C4810B50A4901600B49416034
:102BD000002181600C22C160C0E904128161C161E1
:102BE000FFF708FA002803D0BDE81040FDF772BED9
:102BF00010BD00000038014018180020A80D0E007C
:102C0000FEE770470907090E002806DA00F00F00FA
:102C100000F1E02080F8141D704700F1E02080F8FA
:102C20000014704770477047FEF786BB30B58FB011
:102C300028216846FDF79FFA14210AA8FDF79BFAA0
:102C400002250120049000951020059000244FF4E7
:102C5000C010CDE9084007956846FEF713FD08B19E
:102C6000FDF738FE0F200A90CDE90B540D94012199
:102C70000AA80E94FEF7FAFB002801D0FDF72AFE01
:102C80000FB030BD0D48016841F00101016041689D
:102C90000B4A1140416001680A4A11400160016815
:102CA00021F480210160416821F4FE0141604FF46C
:102CB0001F0181600449C003086070470010024092
:102CC0000000FFF8FFFFF6FE08ED00E00148FEF708
:102CD0009CBF0000D81700200148FEF796BF0000F7
:102CE000D8170020F0B50268164B174C174D4FF05F
:102CF0008047984205D0B84203D0A04201D0A842F4
:102D000003D122F070064A683243984205D0B84297
:102D100003D0A04201D0A84203D122F44074CA6873
:102D2000224322F080044A69224302608A68C26218
:102D30000A688262984201D10969016301214161F7
:102D4000F0BD0000002C01400004004000080040DD
:102D500010B50123046A8B409C430462036A8A40D5
:102D60001343036210BD10B5846842EA032224F4C1
:102D70007F440A432243826010BD826822F07002C1
:102D80000A4342F0070181607047000030B5026AD3
:102D900022F001020262026A4368846924F073052A
:102DA0000C682C4322F002058A682A430A4DA84287
:102DB0000BD122F00805CA6823F440732A434D69F9
:102DC00022F004021D438B692B43436084614968F0
:102DD0004163026230BD0000002C014030B5026A40
:102DE00022F010020262026A436884690D6824F4CA
:102DF000E64444EA05248D6822F0200242EA0512E6
:102E00000B4DA8420ED1CD6822F0800242EA051295
:102E10004D6923F4406343EA85038D6922F0400243
:102E200043EA85034360846149688163026230BD7F
:102E3000002C014030B5026A22F480720262036AFB
:102E40004268C46923F4007324F073050C682C43B2
:102E50008D6843EA05230C4DA8420ED1CD6823F4BA
:102E6000006343EA05234D6922F4405242EA051209
:102E70008D6923F4806342EA05124260C4614968A7
:102E8000C163036230BD0000002C014030B5026A0E
:102E900022F480520262046A4268C3690D6823F416
:102EA000E64343EA05238D6824F4005444EA0534DC
:102EB000064DA84204D14D6922F4804242EA8512AF
:102EC0004260C36149680164046230BD002C014066
:102ED00010B5036A046A24F001040462846924F0D2
:102EE000F00444EA021423F00A020A4384610262F5
:102EF00010BD10B5036A23F0100303628369046AEE
:102F000023F4704343EA023224F0A00343EA0111A0
:102F10008261016210BD00002DE9F04104460068A5
:102F20000169E26821F44051114301612169A068FF
:102F30000843616908432168CA6841F20C639A43F7
:102F40000243CA6020684169A26921F440711143BB
:102F500041614C4920686425322688423CD1FEF705
:102F60004BFB00EBC00101EB001061688900B0FB76
:102F7000F1F7FEF741FB00EBC00101EB00106168C7
:102F8000B0468900B0FBF1F0B0FBF5F06FF018012E
:102F9000484307EB800106EB0110B0FBF5F000F0B1
:102FA000F006FEF729FB00EBC00101EB00106168A1
:102FB0008900B0FBF1F0B0FBF5F006EB0016FEF770
:102FC0001BFB00EBC00101EB001061688900B0FB46
:102FD000F1F7FEF711FB3BE0FEF7FEFA00EBC00154
:102FE00001EB001061688900B0FBF1F7FEF7F4FA1D
:102FF00000EBC00101EB00106168B0468900B0FB36
:10300000F1F0B0FBF5F06FF01801484307EB8001D9
:1030100006EB0110B0FBF5F000F0F006FEF7DCFA6D
:1030200000EBC00101EB001061688900B0FBF1F01A
:10303000B0FBF5F006EB0016FEF7CEFA00EBC00190
:1030400001EB001061688900B0FBF1F7FEF7C4FAEC
:1030500000EBC00101EB001061688900B0FBF1F0EA
:10306000B0FBF5F06FF01801484307EB800108EB67
:103070000110B0FBF5F0216800F00F0030448860CB
:10308000BDE8F081003801402DE9F041984617462F
:103090000E460446069D1DE0681C1BD02DB1FDF7B1
:1030A00079FDA0EB0800A84214D92068C16821F47A
:1030B000D071C1602068416921F001014161202087
:1030C00084F8390084F83A00002084F8380003209E
:1030D000BDE8F0812068006836EA000004D00020D6
:1030E000B842D9D00020F3E70120F9E7FEE700005D
:1030F000014A024900F0A4B88133000870010020A1
:10310000490050EAC12018BF04204A0D18BF40F002
:10311000010040F2FF72B2EB515F08BF40F00200C5
:10312000012808BF052070472DE9F0414F1E00EB34
:10313000C7010446D1E9000115461E4637F00602D4
:103140000DD02A463346FDF7D6F87F1E04EBC703A1
:10315000D3E90023FDF728F837F00602F1D1022F5A
:1031600025D0042F13D0062F18BFBDE8F0812A46C2
:103170003346FDF7C0F8D4E90A23FDF715F82A46CF
:103180003346FDF7B8F8D4E90823FDF70DF82A46D1
:103190003346FDF7B0F8D4E90623FDF705F82A46D3
:1031A0003346FDF7A8F8D4E90423FCF7FDFF2A46CF
:1031B0003346FDF7A0F8D4E90223FCF7F5FF2A46D1
:1031C0003346FDF798F8D4E90023BDE8F041FCF759
:1031D000EBBF00000022134610460149FDF7FDB881
:1031E0000000F03FFCF7E0BF0022134610461146F6
:1031F000FDF7F3B840F2013200204FF0E041FDF757
:1032000021BA0000024A00201107FDF71BBA000096
:1032100001FDFFFF02E008C8121F08C1002AFAD111
:1032200070477047002001E001C1121F002AFBD146
:1032300070470000014908607047000084010020C9
:103240002DE9F04116460F460446002503E03946B5
:10325000B047641C6D1C20780028F8D12846BDE8D2
:10326000F0815200084492FBF0F0FDF725B9000010
:1032700010B502460B4600200449FDF7AEF801F0F8
:103280004BF8BDE81040FDF728B9000080842E41BE
:10329000012806D0134B02280DD0032814D0FDF7C7
:1032A00019BB1148012904D000291AD1012220217B
:1032B00013E00022FBE7012904D0002911D10122EB
:1032C000802109E00022FBE74FF40060012906D0CD
:1032D000002906D1012201461846FDF756BC0022FE
:1032E000F9E77047000C01400008014070B5144632
:1032F0001D460E46002814BF01210021314321F054
:103300000041C1F17F6101F1E041C90F16D1002CEC
:1033100014BF01210021294321F00041C1F17F6147
:1033200001F1E041C90F09D11449B1EB460F08BFC3
:1033300000281CD0690008BF002C18D03146FDF7CA
:10334000DDF9024640F2FF7030EA11500DD0F0175F
:10335000B0EBE17F09D0084665F31E0084460B46BA
:1033600020466146FCF7C4FF0246104670BD0120AE
:10337000FFF760FFBDE87040FFF736BF0000E0FFD9
:1033800013B54FF6FF73012269460248FEF79CFE13
:1033900000981CBD18180020014610B508480129E6
:1033A00007D0022907D0032907D0FDF793FA20465A
:1033B00010BDC488FBE70489F9E74489F7E70000FA
:1033C000000000202DE9F041C821DDE91A471D98D1
:1033D000DDF840804843FDF76FF805460E4640464D
:1033E000FDF76AF822463B46FCF785FF2A4633463E
:1033F000BDE8F041FCF7F1BF0048704788010020AC
:103400001C207047004870470100002002207047D0
:103410000148006970470000000000200249C0EB2D
:10342000C00001EB80007047A40100200148007833
:10343000704700000000002010B503465FF0000256
:10344000C2EBC20003EB0010446908308C4203D089
:10345000521C032AF4DB002010BD0146D1E9120101
:103460007047806BFDF728B8C0687047806E704762
:1034700004280DD004DC012806D0022804D105E080
:10348000082807D0102807D0002070470120704777
:1034900002207047032070470720704710B500686E
:1034A000406A84B200F004F844EA004010BD000015
:1034B000014880887047000000000020044801692E
:1034C000C82904D1C068002801D1FDF703BA7047AC
:1034D000000000200449C868C82802D0401CC86009
:1034E00070470020FBE700000000002005488188AD
:1034F000A1F57F42FF3A03D08188491C8180704743
:103500000021FBE7000000202DE9F0470F4681462F
:103510000025DFF8B88055E0C5EBC50109EB0116C1
:103520002BA17068FCF732FE48B1002240214446CE
:103530004046FDF72AFB0122202120463FE0F06EA5
:10354000FFF796FF0446F068012804D0022813D044
:10355000032836D121E0204E04F00102102130462C
:10356000FDF713FBC4F3400208213046FDF70DFBC5
:10357000C4F38002042121E004F001024021464608
:103580004046FDF702FBC4F3400220213046FDF720
:10359000FCFAC4F38002102110E004F001024FF4A1
:1035A000806146464046FDF7F0FAC4F3400202212E
:1035B0003046FDF7EAFAC4F3800201213046FDF7F8
:1035C000E4FA6D1CBD42A7DBBDE8F087000C0140AA
:1035D0005354455000000000000801400FB470B57E
:1035E0009CB00125002420AEC4EBC40006EB001102
:1035F000702268460831FCF7A5FDDDE90E0188421E
:103600000AD00698012807D00498012804D108A1FF
:103610000198FCF7BBFD10B90598012800D10025E1
:10362000641C032CE0DB1CB0284670BC5DF814FB66
:1036300044430000094A0146012807D0022908D066
:10364000032809D191141046FDF796BA4FF4807102
:10365000F9E74FF40061F6E7704700000008014009
:1036600070B504460069012550B16069012809D090
:10367000A069012803D0D4E90E01884200D00025BA
:10368000284670BDE068FFF7D5FF0128F7D100207C
:103690006061F5E7ADF5267DFDF756FEFFF7C6FA4A
:1036A000FFF764F9FFF7FAF9FFF78CFAFFF718FA5A
:1036B000002211461F20FDF7A7FE1F20FDF798FEF0
:1036C000002211462020FDF79FFE2020FDF790FEEE
:1036D000002201211920FDF797FE1920FDF788FE31
:1036E000012211461B20FDF78FFE1B20FDF780FEF7
:1036F0003248FDF7BFFB08B1FDF7ECF830A0FFF74B
:10370000F7FC01213348FFF797FE0146702252A8CB
:10371000FCF718FD02212F48FFF78EFE01467022AC
:103720006EA8FCF70FFD03212A48FFF785FE01462E
:1037300070228AA8FCF706FD032152A8FFF7E4FED9
:10374000012000F0B3FE234C183C20780228FCD165
:10375000D4E9030188422DD0FFF760FE1D4900F037
:1037600029FD1C491C4801F09DF81B48FEF7B2F9E1
:10377000184D4FF4A4761035324629466846FCF7BA
:10378000E1FC04F118000FC8FFF728FF0128F3D16E
:10379000FFF7A0FE1048FEF7A9F901210E48FEF739
:1037A000BFFB02210C48FEF7BBFB03210A48FEF7D2
:1037B000B7FBCAE7012000F079FEC6E784170020B6
:1037C000537461727465642050726F6772616D0A20
:1037D0000000000018000020D81700202DE9F04D4F
:1037E0001D460C4698B0174621F0004123F00043D7
:1037F000002814BF4FF0010C4FF0000C0CEB440CF0
:10380000FE4A0CEB02064FEA620C66452BD33E00E3
:1038100018BF012606EB45061644F94A964222D304
:10382000F84A53EA070C02D0944205D148B918B0BF
:1038300000201146BDE8F08D002808BF4FF0000CB5
:1038400001D04FF0010C0CEB440212F5001F0AD816
:10385000002F14BF4FF0010C4FF0000C0CEB450291
:1038600012F5001F07D918B03A462B462146BDE88D
:10387000F04DFFF7B7BC0022DFF88CA3002CB8BFD7
:10388000534526DADFF884C36345A8BF022220DA55
:10389000DFF870C39C451CDCDFF874C30CEB235CC1
:1038A000BCF1140F08DDCCF1340627FA06FC0CFA43
:1038B00006F6BE420DD108E05FB9CCF1140623FA3A
:1038C00006FC0CFA06F69E4203D10CF00102C2F18E
:1038D000020251EA000C19D1002D17DA002C18BF92
:1038E000022A01D0012A07D00220FFF7A3FC18B05A
:1038F000BDE8F04DFFF76EBC0220FFF79BFCFFF721
:1039000069FC18B081F00041BDE8F08DB7F1000C02
:103910006CD1534525D104F1804212F5801201BFCC
:1039200000280020B74918B008BFBDE8F08DB548A1
:10393000884207DC002DA1BF6046294618B0BDE8CB
:10394000F08D07E0281E05DA80F0004118B06046CF
:10395000BDE8F08DAF497944D1E9000118B0BDE868
:10396000F08DDFF8A0C2634525D1002D1FDA19B113
:10397000514512D1D8B909E0002840F0EC82A24AA2
:10398000214618B062F31E01BDE8F08D00202146EB
:1039900018B060F31E01BDE8F08D08DA18B02346B8
:1039A000BDE8F04D024600206146FCF716BD18B098
:1039B0002146BDE8F08D514518DAB5F1804F0DD0A4
:1039C000A5F1005CBCF1FF5C10D1B4F1000C0DDB83
:1039D00018B06146BDE8F04D00F0F6BE234618B0C1
:1039E0000246BDE8F04D1946FCF785BC060024F000
:1039F000004C3BD1D9B1514533D1002C06DD002D0F
:103A0000A1BF0020514618B0BDE8F08D002C01DDAB
:103A1000002D1BDB002C13DA002D11DB012A4FF0E7
:103A2000000014BF78497C4918B0BDE8F08D022A27
:103A300018BF002C0AD0012A08D1002C06DA0AE0AF
:103A4000002CB8BF002D11DA012A04D0002018B0D4
:103A50000146BDE8F08D18B000204FF00041BDE8F0
:103A6000F08DA1F14050B0F17F601AD0012000EB41
:103A7000E47050EA020421D0624C521E4FF0000B59
:103A8000104304BF4FF0000B644C654883427CDD5B
:103A9000644A654893421FDD884217DB002D25DB11
:103AA00037E0002C00DA4AB1022A0CBF01204FF0A7
:103AB000FF3018B0BDE8F04DFCF7FEBC0120FFF769
:103AC000B9FB18B0BDE8F04DFFF78EBB4D4A8A42F6
:103AD00002DC002D0ADC1CE0814202DA002D18DA3B
:103AE00004E0484B994220DD002D12DD0220FFF753
:103AF000A1FBFFF77FFB05460E46002253465846C2
:103B00002146FCF7F8FB18B066F31E012846BDE815
:103B1000F08D0220FFF78EFBFFF774FB0A4621466B
:103B200018B062F31E01BDE8F08D002230466146F8
:103B3000FCF7DBFB80460E466FF00102FCF782FDCE
:103B40004FF05532394BFCF7D3FB42463346FCF776
:103B5000D2FB0022364BFCF7CBFB82464246334673
:103B6000049110461946FCF7C6FB5246049BFCF72D
:103B7000C2FB8A4600904FF0C0422E4B4046314671
:103B8000FCF7B9FB2C4A2B4B00E027E0CDE90601FE
:103B900051460098FCF7AFFB82460191274A284B1B
:103BA00040463146FCF7A7FB5246019BFCF79DFBC4
:103BB00082460B4602460591DDE90601FCF7F4FA60
:103BC000DDE90623002688463046FCF78EFB524688
:103BD000059BFCF78DFB024600F07EB90020B1F595
:103BE000801F07DA352230466146FCF72BFD06467A
:103BF0006FF0340000EB215024E00000FFFF1F00B5
:103C0000FFFF0F000000F03F0000F07F0000404386
:103C100001FCFFFF7E1600000000F0FF0000F0BF77
:103C20000000E0410000F043FFFFEF3F5555D53F56
:103C30000000E03F4715F73FFE822B6544DF5DF84B
:103C40000BAE543EA0F2FF300190C1F3130040F0E0
:103C50007F6141F040510291FE498842D8BF002067
:103C600004DDFD498142C8BF012001DD0D9008E05F
:103C700000200D900198401C01900298A0F5801042
:103C800002900299F54878440B910D9900EBC10020
:103C9000D0E900230F9330460A920B99FCF725FBDD
:103CA000CDE90601DDE90A2130460F9BFCF77CFADD
:103CB00002460B460020EA49FCF78FFB05910246BD
:103CC0000B460090DDE90601FCF715FB1490E54872
:103CD0008A464FF0000878440299006812904FF02D
:103CE000005040EA61010D980F9B01EB804000F508
:103CF000002109910A9A1298FCF7F7FA32460B9BB9
:103D0000FCF7F6FA42465346FCF7F5FA06460291EE
:103D100040465146099B129AFCF7EDFADDE906236D
:103D2000FCF7E6FA3246029BFCF7DFFA059B009AA5
:103D3000FCF7E1FA0091149A049053461046194694
:103D4000FCF7D9FA06460246C7480B4602910621FF
:103D50007844FFF7E9F9CDE90510029B3246104699
:103D60001946FCF7C8FADDE90532FCF7C4FA0591FB
:103D70000646534640461946149AFCF715FA009B2E
:103D8000049AFCF7B8FA3246059BFCF70DFACDE928
:103D900005104246534610461946FCF7ACFA00227D
:103DA000B24B02910A90FCF7FFF9DDE90532FCF70E
:103DB000FBF90E464246AD4B4046FCF796FA029B95
:103DC0000A9AFCF792FADDE90532FCF791FA4246CD
:103DD00002910A90334610465146FCF78CFACDE921
:103DE00006015346149A02990A98FCF784FA8A4607
:103DF00002903346424600990498FCF77CFA5346F9
:103E0000029AFCF7D1F982460B4602460591DDE99C
:103E10000601FCF7C9F9DDE90623002088460646BD
:103E2000FCF763FA5246059BFCF762FA8246099159
:103E30004FF060428E4B30464146FCF75CFA0490EE
:103E400006918C4A8A4B50460999FCF754FA8246EF
:103E50000291894A894B30464146FCF74CFA52465A
:103E6000029BFCF7A1F9864B7B440D9A03EBC2033E
:103E7000D3E90023FCF798F90E9007910198FCF71D
:103E80001BFB0591DDE9061382460E9A0498FCF7A8
:103E90008BF97C4A7A440D9B02EBC303D3E90023E0
:103EA00000930292FCF780F95246059BFCF77CF9DF
:103EB0000026884652463046059BFCF716FA009BC2
:103EC000029AFCF712FA069B049AFCF70EFA079B7B
:103ED0000E9AFCF70DFA024600200B460290384677
:103EE0002946FCF708FA824601912B4638461946C6
:103EF000029AFCF7FAF932464346FCF7FCF95246BF
:103F0000019BFCF751F907468A463246434629464B
:103F10000298FCF7F0F905460E463A465346FCF780
:103F200043F9594A8846914221DBA8EB020353EA40
:103F3000000210D12A463346FCF7D7F9CDE9040137
:103F4000524A534B38465146FCF72EF9DDE904231B
:103F5000FCF718FC21D20220FFF76CF9FFF74AF9B1
:103F60000A46214618B062F31E01BDE8F08D494BA8
:103F700028F000429A4210D3474A08EB020353EA62
:103F800000027FF4C6AD2A463346FCF7AEF93A4646
:103F90005346FCF7F7FB7FF6BCAD0022019228F0F8
:103FA00000403E493E4A01EB2051824223DA481C40
:103FB0004FF4801121FA00F040443A4AC0F30A510C
:103FC0007A44394BA1F2FF31CB4020EA0303C0F31E
:103FD000130040F48010C1F11401C8401268019030
:103FE000B8F1000FBCBF4042019028463146FCF7B3
:103FF0007CF905460E462A46334638465146FCF7BC
:10400000D3F84FF000084246284B40460591FCF794
:1040100072F9CDE90601264A264B40460599FCF780
:104020006AF9009102902A46334640460599FCF70A
:104030005CF93A465346FCF75BF91F4A1F4BFCF705
:104040005AF9009B029AFCF7AFF8074688460246E9
:104050000B4635E08E9803007AB60B00C6120000BE
:104060000000F03FFE1200002C120000000008408B
:1040700009C7EE3FFD033ADCF5015B14E02F3EBEBD
:1040800004110000C810000000009040FE822B6563
:104090004715973C00CC904000346F3F01FCFFFF78
:1040A0000000E03F14100000FFFF0F00432EE63F2A
:1040B000396CA80C615C20BEEF39FAFE422EE63F57
:1040C000DDE90601FCF770F8DDE9062305460E463A
:1040D000FCF70BF93A464346FCF70AF90F462A4625
:1040E0003346009010461946FCF705F98246024611
:1040F0002E4888460B4605217844FFF715F85246AE
:104100004346FCF7F8F82A463346FCF7F1F88046B8
:104110008A463B4628463146009AFCF7ECF83B4677
:10412000009AFCF741F80691009000224FF080437E
:1041300040465146FCF7D9F80F460C90424653468C
:1041400028463146FCF7D7F83B460C9AFCF745F970
:10415000069B009AFCF7C9F82A463346FCF7C5F8D7
:104160000022134BFCF7C4F8054601980E4601EBFC
:1041700000510815002810DC28463146019AFCF74A
:1041800061FAFEF7BDFF042808BFFFF73BF8284699
:104190003146019AFCF756FA05460B4618B02A46F6
:1041A00058462146BDE8F04DFCF7A5B8B40E000016
:1041B0000000F03F2DE9F34F2E4A044697B007CA9E
:1041C00008AB002583E80700601C0C90A01C0B9036
:1041D000E01C1290201D1190601D1090A01D0190F8
:1041E00008A850F82500215C8A090792C1F3401203
:1041F0001592C1F300120F92C1F3C002C1F3800106
:10420000CDE90D120C99DDF804C0475C0B99465CB2
:10421000129946EA0727435C1199425C109942EAD9
:104220000326415C10F80C0040EA0120FCF744F939
:1042300082468B463046FCF73FF980468946384631
:10424000FCF73AF906460F4607991898FFF7F4F875
:10425000844602A880E8C00F159A0092DDE90E217D
:1042600060460D9B00F052F96D1C032DB8D319B0B8
:10427000BDE8F08F284F000810B5254C012807D065
:10428000022818D003282CD0BDE81040FCF722BB30
:10429000012901D011B106E0012200E00022012134
:1042A0002046FCF772FC012202212046FCF76DFC3F
:1042B0000022022127E04FF40040012901D011B172
:1042C00006E0012200E0002201462046FCF75DFCEA
:1042D000104C012208212046FCF757FC002208213F
:1042E00011E0012901D011B106E0012200E0002215
:1042F00040212046FCF749FC012280212046FCF7A2
:1043000044FC002280212046BDE81040FCF73DBC63
:1043100000080140000C01402DE9F04D07460E4613
:10432000FCF7A8F904460D463A463346FBF7E0FF92
:10433000DFF86CA0DFF86CB01B4B0746884616F020
:10434000004F4FF000020AD0FCF7E6F80AD900222D
:104350005B4638464146FCF715FA1BD212E0FCF7E3
:10436000DBF808D20022534620462946FBF7BDFF62
:1043700004460D460EE000225B4638464146FCF7F7
:1043800001FA07D80022534620462946FBF70CFFC6
:1043900004460D463146204665F31E01BDE8F08D0A
:1043A0000000F03F0000E03F0000E0BF01290AD01C
:1043B000022913D003290DD10068012AC16817D042
:1043C00021F0080105E00068012AC16803D021F04E
:1043D0000201C160704741F00201FAE70068012A5A
:1043E000C16802D021F00401F3E741F00401F0E7D5
:1043F00041F00801EDE70000074A012805D0022836
:1044000005D0032805D0FCF765BAD180704711812B
:10441000704751817047000000000020014A50544D
:104420007047000001000020034BC1EBC10103EB0A
:104430008101885470470000A40100202DE9F0415B
:10444000074614A1FBF7A2FE4FF40046124C75106C
:10445000A8B112A13846FBF799FE90B111A13846D8
:10446000FBF794FE78B1002231462046FCF78DFB25
:10447000002229462046BDE8F041FCF786BB012218
:10448000F2E7002200E0012231462046FCF77DFBE6
:104490000122EEE752454400000C014047524545D9
:1044A0004E0000004F52414E4745000010B5104CE1
:1044B000012807D003280AD0022810D12078032829
:1044C0000ED010E00BA0FFF7B9FF012006E00B486B
:1044D000FDF70CFB0AA0FFF7B1FF0320207010BD11
:1044E0000648FDF7F7FA08A0FFF7A8FF0220F5E756
:1044F00000000020475245454E000000D81700201C
:104500004F52414E47450000524544002DE9FF4FB0
:104510009FB00446DDE92E8580688DA1FBF736FE4D
:10452000010004F11000189005D08AA1A068FBF7E3
:104530002DFE88B35AE0014660226846FBF702FE72
:1045400094E80F00FEF73EFFD4E91823FEF7CEFEF5
:10455000D4E9182306460F4640462946FBF7C5FE18
:104560008246894632463B46FBF7BFFE21F00043B8
:104570008346009332463B4640462946FBF7B5FE4C
:104580008846054621F000415A46009BFBF7C4FFD0
:1045900003D82E46474608E017E032463B465046D1
:1045A0004946FBF7A2FE06460F4660226846189968
:1045B000FBF7C8FD94E80F00FEF704FF32463B46C8
:1045C000FBF7F2FD81468A4610E0602268461899A2
:1045D000FBF7B8FD94E80F00FEF7F4FE42462B46C9
:1045E000FBF786FE06460F46C146AA4604F10801BF
:1045F000682268461C91FBF7A5FDD4E900233046EC
:10460000394600F0B3F9FBF768FF1D90002816DB70
:10461000682268461C99FBF795FDD4E90023DDE983
:10462000300100F0A3F905468846682268461C99C7
:10463000FBF788FDD4E90023DDE932011EE0DDE966
:10464000305181F00048682268461C99FBF77AFDDA
:10465000D4E900232846414600F088F98846DDE980
:1046600032B181F0004105461A91682268461C99D2
:10467000FBF768FDD4E9002358461A9900F076F953
:104680001E901D988B464000FBF716FFCDE90201F6
:1046900000224FF0804328464146FFF79FF8CDE9BE
:1046A000000100224FF0804359461E98FFF796F80C
:1046B000DDE90023FBF719FEDDE90223FBF78DFEA0
:1046C000CDE91A0120982061219860612298A061AB
:1046D0002C98E06130463946FBF7FFFE0746DDE9DE
:1046E0003201FBF7FAFE0646DDE93001FBF7F5FE85
:1046F0003A463146FEF7B5FDFBF7EFFE206200209B
:10470000C4E90A001D982063A06B606368226846B4
:104710001C99FBF717FDD4E900234846514600F0E9
:1047200025F9FBF7DAFE3C344146A4E8210164E8B0
:1047300012581E9AC4E9142BDDE91A02C4E91602C4
:104740002846FEF795FDA06623B0BDE8F08F000077
:10475000524F54004E4F524D0000000010B5044619
:10476000D4E91601D4E90A23FBF7C5FDD4E91023E7
:10477000FBF71AFDC4E91201FEF77AFDA06610BD31
:1047800030B403460C4690B2012904D0022C05D067
:10479000032C08D105E01968486304E019688863B0
:1047A00001E01968C863204630BC110CFFF724BE35
:1047B00000688AB24262080CAFF300800149888029
:1047C00070470000000000202DE9F04106460F462A
:1047D000FCF702F8041E0D4618BF0120284320F004
:1047E0000040C0F17F6000F1E040C00F0ED0301CEF
:1047F00018BF0120384320F00040C0F17F6000F175
:10480000E040C00F04BF0120FEF714FD20462946FA
:10481000BDE8F08170B50446C568C26BD4E90503F4
:104820001F49012B1BD0E069012824D0002835D175
:10483000A06B401EA063A06E90FBF1F0FBF73CFE66
:10484000D4E90A23FBF7B0FCC4E90A012046FFF7CC
:1048500085FF00212846BDE87040FFF70DBD012807
:10486000E6D0A06B101A01D4024600E0424290FB51
:10487000F2F00128DCD1A06B401CA063A06E90FB7D
:10488000F1F0FBF719FED4E90A23FBF78DFCC4E92C
:104890000A012046FFF762FF0121DBE770BD00003F
:1048A00040420F002DE9F0410E460746FDF71EF984
:1048B00001213846FDF75AFB02213846FDF756FB29
:1048C00003213846FDF752FB00213846FFF770FF01
:1048D000002529463046FEF7AFFD0446006916A1C3
:1048E0000128606803D0FBF751FC90B11FE0FBF793
:1048F0004DFCE0B90121E068FEF7CAFC3846A26E23
:10490000E168FFF73DFF01223846E168FFF74EFD01
:104910000DE000223846E168FFF748FD00223846E6
:10492000E168FFF72DFF0021E068FEF7B1FC6D1C88
:10493000032DCED3BDE8F081535445500000000054
:104940002DE9F04105460E460846FEF78DFD04466A
:104950002846FEF7A3FD07463046FEF787FDC2193D
:1049600021462846BDE8F041FFF70ABF2DE9F04790
:1049700006461348DDE91E45814603460F460022E0
:104980003046DDF88480FBF7C7FD03D1002049469F
:10499000BDE8F087C82108FB01F0FBF78DFD32462A
:1049A0003B46FBF7A8FC22462B46FBF716FDFFF71C
:1049B000B3FCFBF792FDBDE8F047FBF77DBD0000BF
:1049C0008087C34000000000F44F00080100000091
:1049D000FC4F0008E84F0008E04F0008010000000D
:1049E00000000000000000000000000001000000C6
:1049F00000000000000000000000000000000000B7
:104A000000000000000000000000000000000000A6
:104A10000000000000000000000000000000000096
:104A20000000000000000000000000000000000086
:104A30000000000000000040000000000100000035
:104A400008500008E84F0008F04F0008020000007E
:104A50000000000000000000000000000100000055
:104A60000000000000000000000000000000000046
:104A70000000000000000000000000000000000036
:104A80000000000000000000000000000000000026
:104A90000000000000000000000000000000000016
:104AA00000000000000000400000000001000000C5
:104AB00014500008E84F0008E04F00080300000011
:104AC00000000000000000000000000001000000E5
:104AD00000000000000000000000000000000000D6
:104AE00000000000000000000000000000000000C6
:104AF00000000000000000000000000000000000B6
:104B000000000000000000000000000000000000A5
:104B10000000000000000040000000000100000054
:104B200034500008010000003C500008E84F000825
:104B3000E04F00080100000000000000000000003D
:104B40000000000001000000000000000000000064
:104B50000000000000000000000000000000000055
:104B60000000000000000000000000000000000045
:104B70000000000000000000000000000000000035
:104B800000000000000000000000000000000040E5
:104B9000000000000100000008500008205000083C
:104BA000E04F0008020000000000000000000000CC
:104BB00000000000010000000000000000000000F4
:104BC00000000000000000000000000000000000E5
:104BD00000000000000000000000000000000000D5
:104BE00000000000000000000000000000000000C5
:104BF0000000000000000000000000000000004075
:104C0000000000000100000048500008E84F0008C4
:104C1000E04F00080300000000000000000000005A
:104C20000000000001000000000000000000000083
:104C30000000000000000000000000000000000074
:104C40000000000000000000000000000000000064
:104C50000000000000000000000000000000000054
:104C60000000000000000000000000000000004004
:104C700000000000010000002C50000801000000AE
:104C80003C500008E84F0008E04F00080100000019
:104C90000000000000000000000000000100000013
:104CA0000000000000000000000000000000000004
:104CB00000000000000000000000000000000000F4
:104CC00000000000000000000000000000000000E4
:104CD00000000000000000000000000000000000D4
:104CE0000000000000000040000000000100000083
:104CF0000850000820500008E04F000802000000A3
:104D000000000000000000000000000001000000A2
:104D10000000000000000000000000000000000093
:104D20000000000000000000000000000000000083
:104D30000000000000000000000000000000000073
:104D40000000000000000000000000000000000063
:104D50000000000000000040000000000100000012
:104D600048500008E84F0008E04F0008030000002A
:104D70000000000000000000000000000100000032
:104D80000000000000000000000000000000000023
:104D90000000000000000000000000000000000013
:104DA0000000000000000000000000000000000003
:104DB00000000000000000000000000000000000F3
:104DC00000000000000000400000000001000000A2
:104DD00024500008010000003C500008E84F000883
:104DE000E04F00080100000000000000000000008B
:104DF00000000000010000000000000000000000B2
:104E000000000000000000000000000000000000A2
:104E10000000000000000000000000000000000092
:104E20000000000000000000000000000000000082
:104E30000000000000000000000000000000004032
:104E4000000000000100000008500008E84F0008C2
:104E5000F04F000802000000000000000000000009
:104E60000000000001000000000000000000000041
:104E70000000000000000000000000000000000032
:104E80000000000000000000000000000000000022
:104E90000000000000000000000000000000000012
:104EA00000000000000000000000000000000040C2
:104EB000000000000100000048500008E84F000812
:104EC000E04F0008030000000000000000000000A8
:104ED00000000000010000000000000000000000D1
:104EE00000000000000000000000000000000000C2
:104EF00000000000000000000000000000000000B2
:104F000000000000000000000000000000000000A1
:104F10000000000000000000000000000000004051
:104F20000000000001000000000000000700000079
:104F30000E00000000000000000000000102030459
:104F40000607080900000000010203040000000039
:104F5000000000000000F03F000000000000F83FEB
:104F600000000000000000000000004003B8E23F25
:104F7000000000000000000006D0CF43EBFD4C3ED7
:104F8000033333333333E33FFFAB6FDBB66DDB3FCC
:104F90004D268F515555D53F01411DA96074D13F14
:104FA00065DBC9934A86CD3FEF4E454A287ECA3F0E
:104FB0003E5555555555C53F93BDBE166CC166BF90
:104FC0002CDE25AF6A56113FF16BD2C541BDBBBE89
:104FD000D0A4BE726937663E0000000000000000E9
:104FE0004E4F524D00000000535445500000000049
:104FF000524F540048616E646C6572005261696C76
:10500000206D6F746F7200005370696E206D6F7445
:105010006F720000466C6970206D6F746F720000D3
:10502000444300004C617468650000004D696C6C7D
:10503000000000004472696C6C00000050656E2036
:105040006D6F746F7200000056657274206D6F741E
:105050006F720000745000080000002088010000FA
:105060007A080008AC50000888010020D01A00001F
:1050700024320008011813F44F3308011AFC081AEF
:10508000E8045AE010C1E910013B6A40504B085057
:10509000701AF0040A6102705A147029E00A610360
:0C50A000706908821044A24A040000005D
:04000005080000ED02
:00000001FF
