:020000040800F2
:10000000C81B00200101000883250008031B00080D
:1000100081250008310300086D2A00080000000057
:10002000000000000000000000000000A7250008FC
:100030003303000800000000A5250008A9250008DA
:100040001B0100081B0100081B0100081B01000820
:100050001B0100081B0100081B0100081B01000810
:100060001B0100081B0100081B0100081B01000800
:100070001B0100081B0100081B0100081B010008F0
:100080001B0100081B0100081B0100081B010008E0
:100090001B0100081B0100081B0100081B010008D0
:1000A0001B010008592600081B0100084D26000806
:1000B0001B0100081B0100081B010008111B0008A0
:1000C000051B00081B0100081B0100081B0100089C
:1000D0001B0100081B0100081B0100081B01000890
:1000E0001B0100081B0100081B010008DFF80CD0F1
:1000F00000F00CF900480047312E0008C81B002012
:100100000648804706480047FEE7FEE7FEE7FEE7B1
:10011000FEE7FEE7FEE7FEE7FEE7FEE7052600084E
:10012000ED000008202A04DB203A21FA02F0002129
:10013000704721FA02F3D040C2F1200291400843F7
:100140001946704740EA01039B0703D009E008C93C
:10015000121F08C0042AFAD203E011F8013B00F88C
:10016000013B521EF9D27047D2B201E000F8012BD8
:10017000491EFBD270470022F6E710B513460A4627
:1001800004461946FFF7F0FF204610BD10B50022C7
:1001900000E0521C835C8C5CA34201D1002BF8D19F
:1001A000D8B2E1B2401A10BD0EB5C10F80EAE070BE
:1001B0000844CA07002140F233438DE80E000A4686
:1001C0000B4600F055F803B000BD70B5C1F30A52FC
:1001D00001F000450024C1F3130140F2FF3341F464
:1001E00080119A4201DA002070BD40F233439A42F6
:1001F000A2F2334203DC5242FFF794FF00E090404A
:100200002C43F1D0404270BD30B50B460146002072
:100210002022012409E021FA02F59D4205D303FAC8
:1002200002F5491B04FA02F52844151EA2F1010249
:10023000F1DC30BD202A04DB203A00FA02F1002074
:1002400070479140C2F1200320FA03F31943904014
:10025000704710B5141E73F1000408DA401C41F118
:10026000000192185B411A4301D120F0010010BD3A
:100270002DE9F04D92469B4611B1B1FA81F202E0B0
:10028000B0FA80F220329046FFF7D4FF04460F46C2
:1002900040EA0A0041EA0B0153465A46084313D08C
:1002A000114653EA010019D0C8F140025046FFF749
:1002B00039FF05460E46504659464246FFF7BAFFFB
:1002C000084305D0012004E020463946BDE8F08D02
:1002D0000020054346EAE0762C4337430A9863053D
:1002E000E40AA0EB08000022FD0A44EA47540A3061
:1002F00002D500200146E9E7010510196941DDE951
:10030000084500196941BDE8F04DA2E7064C074DCC
:1003100006E0E06840F0010394E8070098471034D5
:10032000AC42F6D3FFF7E6FE7C3100089C310008B2
:10033000FEE7704710B54FF40051044800F04CF947
:10034000BDE810404FF47A7000F056B8001001403C
:10035000002201E000F8012B491E89B2FAD2704751
:1003600010B590F821100024022903D004218163E4
:1003700001243DE001680A6822F00E020A6001686B
:100380000A6822F001020A601A4A0168914201D10A
:10039000012121E0174A1432914201D110211BE0C2
:1003A000144A2832914201D1891515E0114A3C3294
:1003B000914201D189140FE00E4A5032914202D18C
:1003C0004FF4803108E00B4A6432914202D14FF47D
:1003D000801101E04FF08071064A083A5160012116
:1003E00080F82110002180F82010416B01B188476E
:1003F000204610BD0800024070B5044600F0F6F833
:100400000546601C02D004480078044400F0EEF871
:10041000401BA042FAD370BDE40000202DE9F84F44
:10042000DFF890A100220AF1040B144601274FF0D7
:100430000F090BF1040E00BF0B6807FA04F52B40FF
:10044000AB4274D1DFF870C14E68A6EB0C0866456C
:100450002BD00DDC032E34D005DC36B3012E19D0A1
:10046000022E2FD11BE0112E16D0122E2AD119E008
:10047000B8F5881F19D006DCB8F5803F15D0B8F55F
:10048000801F1FD111E0B8F5001F0ED0B8F5041F72
:1004900018D10AE0CA6815E0CA68121D12E0CA68DD
:1004A00008320FE0CA680C320CE08A682AB1012ACF
:1004B0004FF0080203D0456104E0042202E0056128
:1004C00000E00022FF2B01D8064601E000F10406FF
:1004D0004FEA840501D9A5F12005D6F800C009FA34
:1004E00005F82CEA080C02FA05F54CEA050CC6F8EA
:1004F00000C04D68ED0057D5304DAE6946F001069D
:10050000AE61AD6924F0030605F0010500952C4DA0
:1005100006EB050CDCF80850A6074FEA167809FA36
:1005200008F6B543274EB04202D1002610E03BE06A
:10053000254EB04201D101260AE0244EB04201D13D
:10054000022605E0224EB04201D1032600E0042637
:1005500006FA08F62E43CCF808604D68DAF8006019
:10056000ED03554601D51E4300E09E432E604D68C5
:10057000DBF80060AD035D4601D51E4300E09E43FD
:100580002E604D68DEF80060ED02754601D51E4311
:1005900000E09E432E604D68AD020E4D2E6801D5E1
:1005A0001E4300E09E432E60641C102CFFF444AFF9
:1005B000BDE8F88F00040140000011100010024057
:1005C0000000014000080140000C01400010014003
:1005D000001401400C040140C2684A40C2607047E8
:1005E0000AB1016170470904FBE700000148806817
:1005F00070470000E40000207047000038B5044652
:10060000A9B102F053FB014601231C22204600F051
:1006100045FB08B1FFF78EFE2068416980690090B4
:10062000BDE83840012251030548FFF7D9BF02F069
:1006300043FB014608230222204600F068FBE8E75E
:100640000010014070B504460068456946683049AD
:100650000D420DD0F1050BD5216C41F00101216453
:100660006FF4807141612068016841F400410160CC
:1006700015F4813F09D0F00507D5206C40F0020049
:10068000206421686FF40070486115F4823F28D01F
:10069000F00526D594F83E30628D94F83D00216B2C
:1006A000202B08D13AB921280ED029280CD028288F
:1006B00001D1212908D0206C40F00400206494F876
:1006C0003E00102804D008E0204601F05FFD08E05D
:1006D0002068016841F40071016021686FF4806056
:1006E000486115F4843F09D0F00507D5206C40F02F
:1006F0000800206421686FF400604861206C0028C5
:1007000004D02046BDE8704001F030BA70BD000052
:10071000000101002DE9F05F02680446D2F818805C
:100720005569566890F83E006649DFF898A1DFF8F1
:1007300094B1DFF894918F1C0AF17E0A0BF13E0B05
:10074000102812D0402810D00D425BD0B00559D5EA
:10075000936920460021DB435B0700D501219269A4
:10076000D243120648D5828947E015F0011F05D013
:10077000B00503D5204601F098FC10E05148801DDB
:10078000054205D0B00503D5606CC0B2106106E02B
:100790000D4204D0B00502D5204601F0F9FB18EA5D
:1007A000090F14D015EA0A0F08D0700506D53D428E
:1007B00006D12046BDE8F05F01F066BB3D421FD088
:1007C000B0051DD52046BDE8F05F01F01CBB15EA61
:1007D0000B0F08D0700506D53D4206D12046BDE876
:1007E000F05F01F0B9BA3D420AD0B00508D5204605
:1007F000BDE8F05F01F04CBA028B92B2FFF7FEFE4B
:10080000BDE8F09F2F480E30054206D0B00504D554
:100810002046BDE8F05F01F0FBBC18EA090F35D0B7
:1008200015EA0A0F24D0700522D53D4222D194F852
:100830003D202046618D0029E2D0416A4B1C436275
:10084000036809781961418D491E4185418D002950
:10085000D6D1292AD4D101684A6822F480624A603C
:1008600021210163282180F83D1000F00FFAC7E72D
:100870003D42C5D0B005C3D5608D0028C0D0606AA8
:10088000411C616221680078086117E015EA0B0FCE
:1008900008D0700506D53D4206D12046BDE8F05F80
:1008A00001F030BC3D42ABD0B005A9D5608D002829
:1008B000A6D01169606A421C62620170608D401EA0
:1008C00060859DE7020001000400100090F83D10D3
:1008D000202901D002207047282180F83D100168AE
:1008E0000A68D20703D10A6842F001020A6001686F
:1008F0000A6842F480620A600068416841F440710D
:10090000416000207047704770B504001BD094F818
:100910003D00002520B984F83C50204600F0FEF848
:10092000242084F83D002068016821F00101016065
:1009300000F076FB404A6168914201D83F4900E0EF
:100940003F49884201D2012070BD3E492368B0FB77
:10095000F1F159606368934206D94FF49673594395
:100960004FF47A73B1FBF3F12368491C1962616893
:10097000914210D84900401EB0FBF1F2521CC2F364
:100980000B02042A01D2042022E0B0FBF1F0401C4B
:10099000C0F30B001CE0A368CBB301EBC10202EB78
:1009A0000116421EB2FBF6F2521C42F480421205BE
:1009B00036D06BB301EBC10202EB0111401EB0FB5C
:1009C000F1F0401CC0F30B0040F4804040F40040C4
:1009D0002168C861D4E90701084321680860D4E9A7
:1009E0000310084321688860D4E9050108432168A1
:1009F000C8602068016841F0010101602564202081
:100A000084F83D00256384F83E50002070BD00E06E
:100A100008E001EB4106421EB2FBF6F2521CC6E7AB
:100A20000120D5E701EB4101401EB0FBF1F0401C75
:100A3000C0F30B00CAE70000A086010080841E00FE
:100A400000093D0040420F0070B5FFF73FFF08B1BD
:100A5000FFF770FC02F02AF9007850B102F026F995
:100A6000007801281FD002F021F9007802281CD05C
:100A70001EE000240CE000BF02F024F9054602F05D
:100A800015F9204422464078294602F025FB641CD3
:100A900002F010F9401EA042EEDC02F013F9401CF7
:100AA00002F014FB04E0022000E0032002F01EFB31
:100AB00000224FF400511448FFF792FD02F0FAF8BB
:100AC00084B202F0F3F801464FF0FF352B46224680
:100AD0000E4800F0B9FF2B4602220DA10B4800F092
:100AE000B3FF02F0E7F884B202F0E0F82146FFF726
:100AF0002FFC02F0E5F884B202F0DEF82146BDE8F2
:100B00007040FFF725BC0000001001408417002052
:100B10000A000000704770477047704710B586B0F4
:100B200000210091019102910391006813498842CC
:100B300022D1134CA06940F00800A061A069694669
:100B400000F0080004904FF44070009012200190D3
:100B5000032003900B48FFF761FC0B48416841F00C
:100B6000E06141F002014160E06940F40010E061A1
:100B7000E06900F40010049006B010BD005400407D
:100B800000100240000C01400000014010B502F0CE
:100B90008DF80078C01E06282CD2DFE800F0031282
:100BA0003241505F0121374802F092F802F09FF87D
:100BB000FFF70BFBC0F30720002102F081FA0121AF
:100BC0000DE002212F4802F083F802F090F8FFF7C1
:100BD000FCFAC0F30720002102F072FA0221294832
:100BE00002F076F802F083F8FFF7EFFAC0B20121C5
:100BF00002F066FA0122BDE8104051032248FFF7D7
:100C0000EFBC03211F4802F063F802F070F8FFF711
:100C1000DCFAC0F30720002102F052FA0321DEE7DC
:100C20000121184802F054F802F065F8FFF7CDFAF8
:100C3000C0F30720002102F043FA01211CE0022149
:100C4000104802F045F802F056F8FFF7BEFAC0F37C
:100C50000720002102F034FA02210DE003210948A7
:100C600002F036F802F047F8FFF7AFFAC0F30720BA
:100C7000002102F025FA0321024802F029F802F0CF
:100C80003AF8B1E7180000200010014000224FF4AC
:100C900000510148FFF7A4BC0010014038B590F89E
:100CA0003D40282C31D161B15AB190F83C40012C23
:100CB0002BD0012480F83C4004682568ED0702D061
:100CC00005E0012038BD256845F001052560046870
:100CD000256825F4006525602A2480F83D402024FD
:100CE00080F83E400024046441624285C362418D25
:100CF000018501684A698A69009280F83C40486829
:100D000040F4E0604860204638BD022038BD38B568
:100D100090F83D40282C31D161B15AB190F83C4057
:100D2000012C2BD0012480F83C4004682568ED0795
:100D300002D005E0012038BD256845F00105256099
:100D40000468256825F400652560292480F83D4065
:100D5000202480F83E400024046441624285C3623E
:100D6000418D018501684A698A69009280F83C409A
:100D7000486840F4E0604860204638BD022038BD35
:100D8000024881680278114481607047E4000020C5
:100D9000074810B5016841F010010160032000F020
:100DA00077F8002000F006F800F024F8002010BDCD
:100DB0000020024070B50D4D04464FF47A7128783A
:100DC000B1FBF0F00A490968B1FBF0F000F000FB5C
:100DD00048B9102C07D200222146501E00F038F8E6
:100DE00000206C6070BD012070BD0000E400002098
:100DF000F00000200E4808B5816941F001018161D1
:100E0000816901F001010091C16941F08051C16126
:100E1000C06900F080500090052000F039F80548C6
:100E2000416821F0E06141F00071416008BD0000BF
:100E3000001002400000014000F01F02012191401B
:100E40004009800000F1E020C0F800117047000068
:100E5000F0B40E4B1B680C46C3F30223C3F1070525
:100E6000042D00D90425191D072901D2002300E013
:100E7000DB1E012606FA05F1491E214099409E40DD
:100E8000761E16403143F0BC01F07CBB0CED00E057
:100E9000064900F0070208684FF6FF03184040EAD1
:100EA0000220034A10430860704700000CED00E088
:100EB0000000FA052DE9F047DFF8548105460E469B
:100EC000D8F8000000F00700B0420CD2D8F80010AB
:100ED00021F007013143C8F80010D8F8000000F0F5
:100EE0000700B0426FD128684A4C810712D54007ED
:100EF00003D5606840F4E06060602878000703D59F
:100F0000606840F4605060606068A96820F0F0009C
:100F1000084360602878C00744D06868012816D06C
:100F20002168022816D0890700294CDA616821F06F
:100F3000030101436160FFF759FB6968074641F20D
:100F4000883001290ED00229814618D026E0216878
:100F50008903E9E78901E7E7FFF748FBC11B49453A
:100F600001D918E081466068C0F381000128F3D1FF
:100F700018E000BFFFF73AFBC11B49450BD860687A
:100F8000C0F381000228F5D10CE000BFFFF72EFB73
:100F9000C11B494502D90320BDE8F087606810F005
:100FA0000C0FF3D1D8F80010404601F00701B14210
:100FB0000BD9016821F0070131430160006800F09E
:100FC0000700B04201D00120E6E72878400705D5A8
:100FD0006068E96820F4E0600843606028780007F2
:100FE00006D56068296920F4605040EAC10060605D
:100FF00000F036F86168084AC1F30311515CC8403B
:10100000064908600020FFF7D5FE0020C4E7000075
:1010100000200240001002402E310008F0000020A5
:101020000448054900684968044AC1F30221515C3B
:10103000C8407047F0000020001002403E31000818
:101040000448054900684968044AC1F3C221515C5B
:10105000C8407047F0000020001002403E310008F8
:1010600012A185B00FC98DE80F0014A0144A0068C2
:1010700004905168134801F00C03042B10D0082B86
:101080000ED1C1F38343C9031DF803000AD551688B
:1010900004AAC1F34041515C0A4A5043B0FBF1F04D
:1010A00005B0704708494843FAE700000203040509
:1010B000060708090A0B0C0D0E0F101001020000A4
:1010C0000010024000127A0000093D002DE9F84F9F
:1010D00004460078B94DC00748D06868C0F3810065
:1010E000012807D06868C0F38100022809D1686828
:1010F000C00306D52868800338D5606800286FD003
:1011000034E06068B0F5803F0BD010B1B0F5A02F8F
:1011100011D0286820F480302860286820F48020CE
:1011200002E0286840F480302860606888B1FFF7EA
:101130005DFA064609E0286840F480202860F0E760
:10114000FFF754FA801B642875D828688003F7D508
:101150000CE0FFF74BFA064605E000BFFFF746FA42
:10116000801B6428F0D828688003F7D42078944E38
:1011700080074FF001094FF000083BD5686810F078
:101180000C0F07D06868C0F38100022809D1686895
:10119000C00306D42868800714D5206901281FD110
:1011A00010E02069B0B1C6F80090FFF71FFA0746BB
:1011B00005E000BFFFF71AFAC01B0228C4D8286850
:1011C0008007F7D52868616920F0F80040EAC1007F
:1011D00028600FE0C6F80080FFF708FA074606E02F
:1011E000E9E000BFFFF702FAC01B022823D82868F5
:1011F0008007F7D4207800072CD57248A169D9B1AF
:10120000C0F80090FFF7F2F9074604E0FFF7EEF9A7
:10121000C01B02280FD8686A8007F7D56A484FF4C8
:10122000FA510068B0FBF1F0009000BF0098411E39
:101230000091FAD20EE080E0C0F80080FFF7D6F906
:10124000074604E0FFF7D2F9C01B022875D8686A88
:101250008007F7D42078400760D5E8690027C000F0
:1012600008D4E86940F08050E861E869012700F09F
:101270008050009055480168C90513D40168834621
:1012800041F480710160FFF7B1F9824606E000BFCA
:10129000FFF7ACF9A0EB0A0064284ED8DBF8000099
:1012A000C005F5D5E06801280AD008B1052813D09B
:1012B000286A20F001002862286A20F0040002E079
:1012C000286A40F001002862E06841F2883B98B14A
:1012D000FFF78CF982460BE0286A40F00400286290
:1012E000EEE700BFFFF782F9A0EB0A0159455AD893
:1012F000286A8007F6D50CE0FFF778F9824605E00A
:10130000FFF774F9A0EB0A0159454CD8286A800709
:10131000F6D41FB1E86920F08050E861E06988B335
:101320006968C1F38101022945D00228C6F86080AE
:1013300004D0FFF75BF9044638E034E0FFF756F9D4
:10134000074604E0FFF752F9C01B02282BD8286893
:101350008001F7D4206AB0F5803F05D16868A168A4
:1013600020F4003008436860D4E908010843696844
:1013700021F4741108436860C6F86090FFF736F9ED
:10138000044606E015E000BFFFF730F9001B022815
:1013900009D828688001F7D50BE000BFFFF726F9D0
:1013A000001B022802D90320BDE8F88F28688001BD
:1013B000F4D40020F8E70120F6E700000010024016
:1013C0000000424280044242F000002000700040D1
:1013D00010B5401EB0F1807F01D3012010BD4FF049
:1013E000E02460610F21601701F0CCF80020A061BB
:1013F00007202061002010BD7047704710B590F89D
:101400003C20012A25D0012280F83C20CA688C6843
:1014100022F4407222434C6822F4806222430C681A
:1014200022F4006222430C6922F4805222434C6968
:1014300022F4005222438C6922F48042224322F497
:101440000041026800232143516480F83C300020B1
:1014500010BD022010BD30B590F83C20012A20D0EC
:10146000012280F83C20022380F83D3003685C684C
:1014700024F070045C6003685C680D682C435C6059
:1014800003689C6824F080049C6003689C68496839
:101490000C439C6080F83D20002180F83C100846F9
:1014A00030BD022030BD10B5040003D094F83D00DB
:1014B00010B107E0012010BD002084F83C00204658
:1014C00000F00CF8022084F83D00211D206801F096
:1014D000C9F8012084F83D00002010BD08B50C4A71
:1014E00001680C48914207D1816941F40061816132
:1014F000806900F4006009E0074A914207D1C169A0
:1015000041F00401C161C06900F00400009008BD11
:10151000002C0140001002400008004070B5044655
:1015200090F83C00012817D0012584F83C50022097
:1015300084F83D002068826822F0770222F47F421E
:1015400082600868502837D00DDC202859D005DC8F
:1015500088B3102841D151E0022070BD302853D00B
:1015600040283AD13FE060282ED070280BD0B0F54B
:10157000805F03D0B0F5005F2FD110E02068816854
:1015800021F0070115E0CB68D1E90121206801F0C5
:10159000AAF82168886840F0770088601DE0CB6871
:1015A000D1E90121206801F09EF82068816841F4AA
:1015B0008041816011E01EE0CA684968206801F03E
:1015C00047F95021206806E0CA684968206801F0A0
:1015D00050F96021206801F090F884F83D50002017
:1015E00084F83C0070BDCA684968206801F030F991
:1015F00040212068EFE700212068ECE710212068F7
:10160000E9E720212068E6E730212068E3E770471A
:1016100070B50446006801694FF00005C9438907A9
:1016200015D4C168C943890711D4E91E016101209D
:101630002077206880698007204602D0FFF7E7FF07
:1016400004E000F0C3F8204600F090F92577206808
:101650000169C943490717D4C168C943490713D46D
:101660006FF004010161022020772068806910F486
:10167000407F204602D0FFF7CAFF04E000F0A6F842
:10168000204600F073F9257720680169C9430907EE
:1016900016D4C168C943090712D46FF0080101616B
:1016A000042020772068C0698007204602D0FFF719
:1016B000AEFF04E000F08AF8204600F057F92577E5
:1016C00020680169C943C90617D4C168C943C9065E
:1016D00013D46FF010010161082020772068C069E1
:1016E00010F4407F204602D0FFF791FF04E000F0A5
:1016F0006DF8204600F03AF9257720680169C94362
:10170000C90708D1C168C943C90704D1891E01614D
:10171000204600F02CF920680169C943090609D464
:10172000C168C943090605D46FF0800101612046F4
:10173000FFF762FE20680169C943490609D4C16800
:10174000C943490605D46FF040010161204600F00D
:1017500010F920680169C94389060BD4C168C943DF
:10176000890607D46FF0200101612046BDE8704072
:10177000FFF743BE70BD70B5044690F83C000128E9
:101780000DD0012584F83C50022084F83D0042B180
:10179000042A0AD0082A0CD00C2A11D10DE002200C
:1017A00070BD206800F0B2FF0AE0206800F0D6FFAC
:1017B00006E0206800F0FEFF02E0206801F026F855
:1017C00084F83D50002084F83C0070BD70B504469C
:1017D00000680169C94389071ED4C068C0438007F7
:1017E0001AD401F0A1FA0546012001F049FA854218
:1017F00012D101212E4801F06BFA01F011FB0128F2
:101800004FF0010105D02A4801F062FA01F074FCA2
:1018100002E0204600F06AF820680169C9434907E0
:101820001ED4C068C04340071AD401F07DFA0546B3
:10183000022001F025FA854212D102211C4801F054
:1018400047FA01F0EDFA01284FF0020105D01848DF
:1018500001F03EFA01F050FC02E0204600F046F8AC
:1018600020680169C943090721D4C068C043000743
:101870001DD401F059FA0546032001F001FA854212
:1018800015D103210A4801F023FA01F0C9FA012811
:101890004FF0030106D0064801F01AFABDE8704087
:1018A00001F02ABC2046BDE8704000F01FB870BDB2
:1018B0001800002010B5040003D094F83D0010B1CA
:1018C00007E0012010BD002084F83C00204600F015
:1018D0000CF8022084F83D00211D206800F0C2FEB3
:1018E000012084F83D00002010BD704710B502684B
:1018F000044631B1042908D008292CD00C2908D17C
:101900002DE0D06820F0020002E0D06820F0040052
:10191000D0600022206800F0DBFE134B41F2111270
:1019200020689110984209D1036A134206D1036AD4
:101930000B4203D1436C23F4004343642068036AE1
:10194000134206D1026A0A4203D1016821F0010163
:101950000160002010BDD06820F00800D8E7D068F2
:1019600020F01000D4E70000002C0140704701F087
:10197000E1B9704770B5040004D094F8390000252F
:1019800010B106E0012070BD84F83850204600F008
:1019900023F8242084F839002068C16821F400511C
:1019A000C160204600F078FF2068016921F4904171
:1019B00001612068416921F02A0141612068C16804
:1019C00041F40051C160E563202084F8390084F8B7
:1019D0003A00002070BD000030B585B000240094AE
:1019E00001940294039400681449884224D1144855
:1019F000816941F480418161816901F480410491F0
:101A0000816941F00401816180690E4D00F004009C
:101A100004904FF400700090022001900320039086
:101A200069462846FEF7FAFC2815CDE90004694608
:101A300028460294FEF7F2FC05B030BD00380140A4
:101A400000100240000801402DE9F843044690F8D8
:101A500039001F4616460D46202850D1A5B19EB12B
:101A600094F8380001284AD0012084F838004FF05B
:101A70000008C4F83C80212084F83900FEF7B6FD48
:101A8000A6848146E68426E00120BDE8F883E08C48
:101A9000401EE084A0684B46B0F5805F4FF0000226
:101AA0004FF080012046009703D000F0ADFFE8B969
:101AB0000DE000F0A9FFC8B928882168C0F308002C
:101AC0004860206908B16D1C05E0AD1C03E0216889
:101AD00015F8010B4860E08C0028D8D14B46002255
:101AE00040212046009700F08FFF08B10320CCE78B
:101AF000202084F8390084F838800020C5E70220CF
:101B0000C3E7FEE70148FEF79DBD0000F016002088
:101B10000148FEF7FFBD0000F016002010B5406A36
:101B200001680A6822F480620A6000214185426BE4
:101B30005163826B516390F83D302022602B80F816
:101B40003D2080F83E1007D001680A6822F00102AB
:101B50000A60FEF7D8FE10BD016401680A6822F031
:101B600001020A60FEF748FD10BD000070B590F854
:101B70003D10044600252026006829292DD02A2959
:101B80002BD094F83D10602904D04168090501D498
:101B900084F83D60256384F83E50016821F40061BB
:101BA000016020684168090537D5416821F400616A
:101BB0004160606B344990F82120012A12D04163C2
:101BC000606BFEF7CDFB38B32068016821F001019E
:101BD000016084F83D60606B1CE02563282184F877
:101BE0003D10DAE7A06B4163A06BFEF7B9FB98B13B
:101BF00020684169C943490604D40169606A421CEE
:101C0000626201702068016821F00101016084F8BE
:101C10003D60A06B416B88470FE094F83D10602950
:101C20001DD04169C943490604D40169606A421C58
:101C3000626201702046FEF766FE94F83D00282897
:101C40000CD1206C400709D51048E062256384F868
:101C50003D6084F83E502046FEF7F6FE70BD84F8E5
:101C60003D6025644169C943490604D40169606A3D
:101C7000421C626201702068016821F0010101606C
:101C80002046FEF7B9FCD8E71D1B00080000FFFF47
:101C900010B5C26A448D2F4B0168032C03D0448DCC
:101CA000022C15D00AE0042A03D0082A01D09A4257
:101CB00003D10A6822F480620A6001680A69416AF5
:101CC0004B1C43620A70418D491E4185002010BDA6
:101CD000042A12D0082A10D09A420ED0022A0A688A
:101CE00002D022F4806201E042F480620A6001685E
:101CF0004A6822F440724A6008E04A6822F440725E
:101D00004A6001680A6842F400720A6001680A6960
:101D1000416A4B1C43620A70418D491E418501682E
:101D20000A69416A4B1C43620A70418D491E418514
:101D3000202180F83D100021016390F83E2080F8BA
:101D40003E10402A02D0FEF7E5FEBFE7FEF7E4FEB4
:101D5000BCE700000000FFFF10B590F83D102229FD
:101D60004CD1418D032909D901680A69416A4B1C8C
:101D700043620A70418D491E41853FE0022909D026
:101D8000032907D0C16A022901680A6818D022F421
:101D9000806217E0C16A022901680A6807D022F44C
:101DA00080620A6001680A6842F4006201E042F45D
:101DB00080620A600068416821F4806141601DE032
:101DC00042F480620A6001684A6822F4E0624A6074
:101DD00001680A69416A4B1C43620A70418D491EC1
:101DE0004185202180F83D100021016390F83E20BC
:101DF00080F83E10402A03D0FEF78CFE002010BD74
:101E0000FEF78AFEFAE710B5C26A90F83D10212964
:101E100021D1418D49B1416A4A1C42620268097868
:101E20001161418D491E418515E020230021042ABE
:101E300013D0082A11D012F5803F0ED002685468E2
:101E400024F4E06454601122026380F83E1080F8AC
:101E50003D30FEF760FE002010BD0268546824F497
:101E6000E06454600268146844F400741460016310
:101E700080F83D3090F83E2080F83E10402AE8D1AE
:101E8000FEF74BFEE7E7000010B590F83D1090F824
:101E90003E30C26A048D24B1212934D0402B30D089
:101EA00074E02129FAD120230021042A13D0082A22
:101EB00011D012F5803F0ED00268546824F4E0641B
:101EC00054601122026380F83E1080F83D3000BF5C
:101ED000FEF721FE5AE00268546824F4E06454607E
:101EE0000268146844F400741460016380F83D30A3
:101EF00090F83E2080F83E10402AE9D1FEF70DFE12
:101F000044E0222942D1418D21B190F83E10402970
:101F100006D032E00068416821F48061416035E01C
:101F2000016D31B1016D012911D0016D022915D06A
:101F30002CE0C16C0129816C02D0C1F3072108E0BB
:101F40000268C9B21161016D891C01651EE0816CD6
:101F5000C9B202681161016D491CF6E790F83D10A5
:101F6000222904D090F83D10212906D00EE0006807
:101F7000016841F48071016008E0416A4A1C4262D4
:101F8000026809781161418D491E4185002010BD0C
:101F900078B590F83E50C26A046B90F83D6000231B
:101FA0000168222E06D1066D0EB9402D02D0056DB6
:101FB00025B107E04869886900901CE00569B5F51E
:101FC000404F1AD0458D85B3458D012D20D0428DCF
:101FD000022A4AD00A6842F480620A6001684A68AC
:101FE000120503D54A6842F480524A6001684A6982
:101FF000896900910365002078BD4A698A69009269
:102000000A6842F480720A60016D491C0165F2E7BA
:1020100012F5803F0AD0042A21D0082A1FD0122CA2
:102020001DD0C26A022A09D114E00BE00A6822F42A
:1020300080620A6001684A68120503D50A6822F4C2
:1020400080620AE04A698A6900920A6842F4007272
:102050000A60CFE70A6842F480620A60C6E70A684D
:1020600022F480620A600168ECE7C26A022A0A6808
:102070000BD042F400620A6001684A698A690092E2
:102080000A6822F480620A6006E042F480620A6014
:1020900001684A698969009101684A681205A9D5F1
:1020A0004A6842F480524A60A4E790F83E10402902
:1020B00009D00169B1F5804F10D0016D99B1016D62
:1020C000012915D01CE0016D19B9416C01F0FE0128
:1020D00014E0416CC9B241F001010FE090F83D10ED
:1020E0002129F6D1F1E7416CF02201F4407103E0BF
:1020F000416CF12201F4407142EAD11100680161A2
:10210000002070472DE9F04190F83D500446408D85
:10211000C0B320680169606A421C62620170608D10
:10212000401E608500F0C2FD0078618D22262827C0
:102130001B2918D12A2D16D1032809D0042807D02D
:10214000052805D0062803D0072801D008280AD181
:102150002068416821F480614160266384F83D7005
:102160002046FEF713FD608D60B92A2D0AD1206844
:10217000416821F480614160266384F83D70204607
:10218000FEF704FD0020BDE8F08100002DE9F041DC
:1021900090F83D40C26A00231C4F202601686FF46E
:1021A0008065042A01D0082A01D1282C05D0212CD1
:1021B00017D04D610020BDE8F081C7624A6822F463
:1021C000E0624A6001684D6101680A6822F4806239
:1021D0000A60036380F83D6080F83E30FEF734FC0F
:1021E000E8E7C7622122026380F83D6080F83E3054
:1021F0004A6822F4E0624A6001684D6101680A6839
:1022000022F480620A60FEF741FDD3E70000FFFF81
:1022100038B590F83D2001684B6823F4E0634B60CB
:10222000036800215C6900941C6844F001041C6090
:1022300003681C6824F480641C6003685C682405DF
:102240000BD590F83D40222C2BD090F83D402A2C05
:1022500027D0446B246864684485448DE4B15C698C
:10226000E443640707D41C69436A5D1C45621C7023
:10227000438D5B1E438503685C69E443640607D4B1
:102280001C69436A5D1C45621C70438D5B1E43855F
:10229000036C43F004030364036C23B1FFF766FC93
:1022A0001FE0846BD6E72023282A09D02A2A07D0EA
:1022B000292A05D0046B222C0CD0222A0AD010E047
:1022C000094AC262016380F83D3080F83E10FEF793
:1022D000BBFB06E0016380F83D3080F83E10FEF75E
:1022E00055FC002038BD00000000FFFF2DE9F04143
:1022F00086B00025454800950195029503958169B2
:1023000041F010018161816901F01001049181693E
:1023100041F004018161816901F004010491816946
:1023200041F0080181618069394E00F008004FF4E6
:1023300000540490002221463046FEF751F9354FF3
:10234000002248F2FF013846FEF74AF9DFF8C8805C
:1023500000224CF67B414046FEF742F900228021E4
:102360004046FEF73DF900940124CDE90145694658
:1023700030460394FEF752F848F2C30002268DE877
:102380005100694638460394FEF748F81C208DE852
:102390003100694638460394FEF740F82020CDE925
:1023A00000040294694638460394FEF737F84CF26D
:1023B00073408DE83100694640460394FEF72EF8DD
:1023C000E002CDE900040294694640460394FEF71A
:1023D00025F88020CDE90004CDE902466946404653
:1023E000FEF71CF84FF4C850CDE9000569463846A1
:1023F0000295FEF713F808208DE851006946404623
:102400000394FEF70BF806B0BDE8F081001002401F
:102410000010014000080140000C01400E4810B5BA
:102420000C4901600D49416000213E22C0E90212C1
:102430004FF48042C0E904214022C0E90612016243
:10244000FEF762FA002803D0BDE81040FDF772BF26
:1024500010BD000000540040F0160020801A060055
:1024600010B594B000240E940F941094119412940B
:102470001C2168461394FDF77EFE1C2107A8FDF77A
:102480007AFE2F482D4901601F21C0E901144FF643
:10249000FF71C0E9031444618461FFF704F808B1D7
:1024A000FDF748FF4FF480500E900EA92448FFF727
:1024B00035F808B1FDF73EFF2148FFF7FBF908B1F9
:1024C000FDF738FF129412A91D481394FEF7C3FFBD
:1024D00008B1FDF72FFF0094019402940394049433
:1024E00005940022694616480694FFF744F908B19E
:1024F000FDF720FF042269461148FFF73CF908B1B7
:10250000FDF718FF082269460D48FFF734F908B1B6
:10251000FDF710FF0794089409944FF400500A94B3
:10252000CDE90B4007A906480D94FEF767FF002888
:1025300001D0FDF7FFFE14B010BD0000002C0140DB
:10254000441700200C4810B50A4901600B4941604E
:10255000002181600C22C160C0E904128161C16167
:10256000FFF708FA002803D0BDE81040FDF7E2BEEF
:1025700010BD00000038014084170020A80D0E0097
:10258000FEE770470907090E002806DA00F00F0081
:1025900000F1E02080F8141D704700F1E02080F881
:1025A0000014704770477047FEF7EABB30B58FB034
:1025B00028216846FDF7DFFD14210AA8FDF7DBFDA1
:1025C00002250120049000951020059000244FF46E
:1025D000C010CDE9084007956846FEF777FD08B1C1
:1025E000FDF7A8FE0F200A90CDE90B540D940121B0
:1025F0000AA80E94FEF75EFC002801D0FDF79AFEB3
:102600000FB030BD0D48016841F001010160416823
:102610000B4A1140416001680A4A1140016001689B
:1026200021F480210160416821F4FE0141604FF4F2
:102630001F0181600449C003086070470010024018
:102640000000FFF8FFFFF6FE08ED00E00148FEF78E
:10265000DFBF0000441700200148FEF7D9BF00008B
:1026600044170020F0B50268164B174C174D4FF079
:102670008047984205D0B84203D0A04201D0A8427A
:1026800003D122F070064A683243984205D0B8421E
:1026900003D0A04201D0A84203D122F44074CA68FA
:1026A000224322F080044A69224302608A68C2629F
:1026B0000A688262984201D109690163012141617E
:1026C000F0BD0000002C0140000400400008004064
:1026D00010B50123046A8B409C430462036A8A405C
:1026E0001343036210BD10B5846842EA032224F448
:1026F0007F440A432243826010BD826822F0700248
:102700000A4342F0070181607047000030B5026A59
:1027100022F001020262026A4368846924F07305B0
:102720000C682C4322F002058A682A430A4DA8420D
:102730000BD122F00805CA6823F440732A434D697F
:1027400022F004021D438B692B4343608461496876
:102750004163026230BD0000002C014030B5026AC6
:1027600022F010020262026A436884690D6824F450
:10277000E64444EA05248D6822F0200242EA05126C
:102780000B4DA8420ED1CD6822F0800242EA05121C
:102790004D6923F4406343EA85038D6922F04002CA
:1027A00043EA85034360846149688163026230BD06
:1027B000002C014030B5026A22F480720262036A82
:1027C0004268C46923F4007324F073050C682C4339
:1027D0008D6843EA05230C4DA8420ED1CD6823F441
:1027E000006343EA05234D6922F4405242EA051290
:1027F0008D6923F4806342EA05124260C46149682E
:10280000C163036230BD0000002C014030B5026A94
:1028100022F480520262046A4268C3690D6823F49C
:10282000E64343EA05238D6824F4005444EA053462
:10283000064DA84204D14D6922F4804242EA851235
:102840004260C36149680164046230BD002C0140EC
:1028500010B5036A046A24F001040462846924F058
:10286000F00444EA021423F00A020A43846102627B
:1028700010BD10B5036A23F0100303628369046A74
:1028800023F4704343EA023224F0A00343EA011127
:102890008261016210BD00002DE9F041044600682C
:1028A0000169E26821F44051114301612169A06886
:1028B0000843616908432168CA6841F20C639A437E
:1028C0000243CA6020684169A26921F44071114342
:1028D00041614C4920686425322688423CD1FEF78C
:1028E000AFFB00EBC00101EB001061688900B0FB99
:1028F000F1F7FEF7A5FB00EBC00101EB00106168EA
:10290000B0468900B0FBF1F0B0FBF5F06FF01801B4
:10291000484307EB800106EB0110B0FBF5F000F037
:10292000F006FEF78DFB00EBC00101EB00106168C3
:102930008900B0FBF1F0B0FBF5F006EB0016FEF7F6
:102940007FFB00EBC00101EB001061688900B0FB68
:10295000F1F7FEF775FB3BE0FEF762FB00EBC00111
:1029600001EB001061688900B0FBF1F7FEF758FB3E
:1029700000EBC00101EB00106168B0468900B0FBBC
:10298000F1F0B0FBF5F06FF01801484307EB800160
:1029900006EB0110B0FBF5F000F0F006FEF740FB8F
:1029A00000EBC00101EB001061688900B0FBF1F0A1
:1029B000B0FBF5F006EB0016FEF732FB00EBC001B2
:1029C00001EB001061688900B0FBF1F7FEF728FB0E
:1029D00000EBC00101EB001061688900B0FBF1F071
:1029E000B0FBF5F06FF01801484307EB800108EBEE
:1029F0000110B0FBF5F0216800F00F003044886052
:102A0000BDE8F081003801402DE9F04198461746B5
:102A10000E460446069D1DE0681C1BD02DB1FDF737
:102A2000E5FDA0EB0800A84214D92068C16821F494
:102A3000D071C1602068416921F00101416120200D
:102A400084F8390084F83A00002084F83800032024
:102A5000BDE8F0812068006836EA000004D000205C
:102A6000B842D9D00020F3E70120F9E7FEE70000E3
:102A70000FB4054B10B503A9044A029800F018F8EA
:102A800010BC5DF814FB0000692C0008E000002079
:102A900002E008C8121F08C1002AFAD17047704727
:102AA000002001E001C1121F002AFBD17047000085
:102AB0002DE9FF4F8BB09A460F460546002606E0EB
:102AC00025280BD052460D9990476D1C761C28780E
:102AD0000028F5D10FB03046BDE8F08F0024A046A5
:102AE0000122604900E0044315F8013F203B02FA4F
:102AF00003F00842F7D128782E2817D115F8010FD6
:102B000044F004042A280ED06FF02F022878A0F198
:102B1000300109290AD808EB880102EB410100EBDA
:102B200001086D1CF2E757F8048B6D1C28786928A2
:102B30003ED006DC0028CDD063280BD0642804D119
:102B400036E0732810D075284BD052460D99904727
:102B5000761C85E017F8040B8DF8000000208DF836
:102B60000100E946012003E057F8049B4FF0FF30D5
:102B700061074FF0000401D40AE0641C44450DDAFB
:102B80008442FADB19F804100029F6D106E0641C2F
:102B90008442FCDB19F804100029F8D1264404E033
:102BA00019F8010B52460D999047641EF8D257E070
:102BB00001CF4FF00A0B002802DA40422D2102E03B
:102BC000210504D52B218DF82410012103E0E10714
:102BD00005D02021F7E70DF1200908910CE0002134
:102BE000F9E701CF4FF00A0BF9E75946FDF70CFB67
:102BF00001F1300209F8012D0028F6D1ADEB0900F2
:102C000000F1200B600701D44FF00108D84502DD28
:102C1000A8EB0B0000E000208046002406E009A895
:102C20005246005D0D999047641C761C08988442BA
:102C3000F5DB04E0302052460D999047761CB8F140
:102C40000001A8F10108F5DC05E019F8010B524676
:102C50000D999047761CBBF10001ABF1010BF4DC40
:102C60006D1C34E70928010013B54FF6FF730122EC
:102C700069460248FEF7E8FE00981CBD8417002054
:102C8000014610B50848012907D0022907D00329B9
:102C900007D0FDF74FFB204610BD0489FBE74489B0
:102CA000F9E78489F7E7000000000020004870473A
:102CB000F40000201C2070470048704701000020ED
:102CC00002207047014800697047000000000020A2
:102CD00010B503465FF0000203EB82100469083070
:102CE0008C4203D0521C032AF6DB002010BD0146A3
:102CF000D1E9060170470069FDF756BA04280DD0E6
:102D000004DC012806D0022804D105E0082807D0F9
:102D1000102807D00020704701207047022070471C
:102D200003207047072070470148C08870470000A3
:102D3000000000200548C188A1F57F42FF3A03D07A
:102D4000C188491CC18070470021FBE700000020BA
:102D50002DE9F0470F4681460025DFF8B48053E0A7
:102D600009EB85162BA17068FDF710FA48B1002217
:102D7000402144464046FDF733FC012220212046F5
:102D80003FE0F06BFFF7BAFF0446B068012804D0BB
:102D9000022813D0032836D121E0204E04F001028E
:102DA00010213046FDF71CFCC4F3400208213046D8
:102DB000FDF716FCC4F38002042121E004F00102B7
:102DC000402146464046FDF70BFCC4F3400220215B
:102DD0003046FDF705FCC4F38002102110E004F03A
:102DE00001024FF4806146464046FDF7F9FBC4F30B
:102DF000400202213046FDF7F3FBC4F380020121BB
:102E00003046FDF7EDFB6D1CBD42A9DBBDE8F08748
:102E1000000C0140535445500000000000080140E0
:102E200001460020D1E904218A4200D101207047E7
:102E3000B0B0FDF7ADFFFFF7B9FBFFF757FAFFF7AB
:102E4000EDFAFFF77FFBFFF70BFB002211461F2077
:102E5000FDF7FEFF1F20FDF7EFFF002211462020A7
:102E6000FDF7F6FF2020FDF7E7FF002201211920E2
:102E7000FDF7EEFF1920FDF7DFFF012211461B20B1
:102E8000FDF7E6FF1B20FDF7D7FF5A48FDF71EFDB3
:102E900008B1FDF74FFA58A0FFF7EAFD01215B48A2
:102EA000FFF716FF014640226846FDF74BF9022165
:102EB0005648FFF70DFF0146402210A8FDF742F9E2
:102EC00003215248FFF704FF0146402220A8FDF7E6
:102ED00039F903216846FFF73BFF4C4D0120183DAF
:102EE0002870DFF82C914B4C4FF400484FF4037AD4
:102EF000002280212046FDF773FB0122414648460F
:102F0000FDF76EFB00275646012208212046FDF7FB
:102F100067FB002208212046FDF762FB0120FDF738
:102F20006BFA7F1CB742EFDD012280212046FDF7BE
:102F300057FBC820FDF760FA002280212046FDF7EC
:102F40004FFB002241464846FDF74AFB002701227D
:102F500008212046FDF744FB002208212046FDF70A
:102F60003FFB0120FDF748FA7F1CB742EFDD01224D
:102F700080212046FDF734FBC820FDF73DFA0122F1
:102F800080212046FDF72CFB2869234EC0EBC000B2
:102F900006EB80014FF0FF373B461C221F48FEF72F
:102FA00053FD1A493B46022215391C48FEF74CFDD9
:102FB00028693B46C0EBC00006EB80011C22174885
:102FC0001C39FEF741FD11493B46022215391348D1
:102FD000FEF73AFD3B461C22A6F11C010F48FEF706
:102FE00033FD0A493B46022215390C48FEF72CFDF9
:102FF0007EE70000F016002053746172746564204F
:1030000050726F6772616D0A0000000018000020A6
:1030100000080140000C014010010020841700202E
:1030200010B5254C012807D0022818D003282CD031
:10303000BDE81040FDF77EB9012901D011B106E0CD
:10304000012200E0002201212046FDF7C9FA0122F9
:1030500002212046FDF7C4FA0022022127E04FF4A6
:103060000040012901D011B106E0012200E0002258
:1030700001462046FDF7B4FA104C012208212046F3
:10308000FDF7AEFA0022082111E0012901D011B1AB
:1030900006E0012200E0002240212046FDF7A0FAD0
:1030A000012280212046FDF79BFA00228021204644
:1030B000BDE81040FDF794BA00080140000C014043
:1030C000014A505470470000010000200149086186
:1030D0007047000000000020034BC1EBC10103EB6F
:1030E00081018854704700001001002001490870D8
:1030F000704700000000002070B5D0E90412846819
:1031000091420DDBA2F51C550F3D09D0914201DD26
:10311000491E01612046BDE870400021FFF780BFD5
:10312000491C016101212046FFF77AFFF2E7000008
:103130000000000000000102030406070809000067
:103140000000010203040000535445500000000039
:1031500048616E646C6572005261696C206D6F74B9
:103160006F7200005370696E206D6F746F72000093
:10317000466C6970206D6F746F7200009C3100089E
:1031800000000020F4000000902A0008903200089F
:10319000F4000020D41A0000A02A00080000000A51
:1031A000000000000000000000000000000000001F
:1031B00000000000503100080100000058310008F4
:1031C000483100080100000001000000000000007C
:1031D00000000000000000000000F03F00000000C0
:1031E00000000000000000000000000000000000DF
:1031F00000002440000000000100000064310008CD
:10320000483100080200000001000000000000003A
:1032100000000000000000000000F03F000000007F
:10322000000000000000000000000000000000009E
:103230000000244000000000010000007031000880
:1032400048310008030000000100000000000000F9
:1032500000000000000000000000F03F000000003F
:10326000000000000000000000000000000000005E
:1032700000002440000000000100000000000000E9
:1032800001000000100000000000000000A24A043D
:04000005080000ED02
:00000001FF
