:020000040800F2
:10000000703D002001010008AB290008251F0008F1
:10001000A9290008C1070008312E000800000000CF
:10002000000000000000000000000000CF290008D0
:10003000C307000800000000CD290008D1290008EE
:100040001B0100081B0100081B0100081B01000820
:100050001B0100081B0100081B0100081B01000810
:100060001B0100081B0100081B0100081B01000800
:100070001B0100081B0100081B0100081B010008F0
:100080001B0100081B0100081B0100081B010008E0
:100090001B0100081B0100081B0100081B010008D0
:1000A0001B010008812A00081B010008752A0008AE
:1000B0001B0100081B0100081B010008351F000878
:1000C000291F00081B0100081B0100081B01000874
:1000D0001B0100081B0100081B0100081B01000890
:1000E0001B0100081B0100081B010008DFF80CD0F1
:1000F00000F0D8FA0048004715330008703D002092
:100100000648804706480047FEE7FEE7FEE7FEE7B1
:10011000FEE7FEE7FEE7FEE7FEE7FEE72D2A000822
:10012000ED000008202A04DB203A21FA02F0002129
:10013000704721FA02F3D040C2F1200291400843F7
:100140001946704740EA01039B0703D009E008C93C
:10015000121F08C0042AFAD203E011F8013B00F88C
:10016000013B521EF9D27047D2B201E000F8012BD8
:10017000491EFBD270470022F6E710B513460A4627
:1001800004461946FFF7F0FF204610BD10B50022C7
:1001900000E0521C835C8C5CA34201D1002BF8D19F
:1001A000D8B2E1B2401A10BD2DE9FE4F804681EA77
:1001B0000300C00F0C46009021F0004123F00045E1
:1001C000B8EB0200A94105D24046214690461C46A4
:1001D0000B46024623F00040104347D0270DC7F3DB
:1001E0000A00C3F30A510290401A019040286BDACA
:1001F000C3F3130040F4801B0098924620B1002303
:10020000D2EB030A63EB0B0B01985946C0F1400295
:10021000504600F0C9F906460D4650465946019A27
:1002200000F0D1F910EB08006141002487EA115277
:1002300084EAE7731A4340D0009A62B3019A012A14
:100240004FEA075215DC001B61EB02014FF0004240
:1002500002EA0752CDE90042001C41F58011324606
:100260002B4600F0D1F903B0BDE8F08F404621469F
:10027000F9E7001B61EB0201001C41F58013001837
:100280005B412018A2F5001747EB030140EAD57047
:10029000B6196D4111E06D084FEA360645EAC075A2
:1002A0004FEA0752001B61EB0201001C41F580116F
:1002B00049084FEA30000019514132462B4603B03D
:1002C000BDE8F04F00F091B90098012240000023F2
:1002D000D0EB020263EBE073009821464FEAE07432
:1002E000B8EB000061EB0401E9E783F000435BE752
:1002F00081F0004158E72DE9FE4F81EA030404F044
:10030000004421F0004100944FF0000B23F0004323
:1003100050EA01045ED052EA03045BD0C3F30A54EE
:10032000C1F30A552C44A4F2F3340194A0FB025407
:10033000C1F3130141F48011C3F3130343F4801399
:1003400001FB024400FB034E840A970A44EA8154ED
:1003500047EA8357A4FB076802958D0A05FB0785CA
:100360004FEA932C04FB0C542705029D4FEA0658D4
:1003700047EA1637B5EB08056EEB070C870E920EB1
:1003800047EA811742EA8312A7FB0201B6EB0B0191
:1003900064EB00042B0D43EA0C335E1844EB1C5055
:1003A000DA465146E7FB0201C5F313044FEA0B336B
:1003B00043EA14534FEA0432019C43EA0603A4F1D2
:1003C0000C040294009CCDE900B400F01DF903B0C8
:1003D000BDE8F08F00200146F9E72DE9F04D81EAF4
:1003E000030404F0004B21F0004514464FF0000ACE
:1003F00023F0004150EA050220D054EA01021DD04A
:10040000C5F30A570246C5F31303C1F31300C1F342
:100410000A5640F4801543F48013A7EB0608101B1E
:10042000D64608F2FD3873EB050002D308F1010847
:1004300001E092185B41B8F1000F03DA0020014699
:10044000BDE8F08D00204FF48011064684460EE092
:10045000171B73EB050705D3121B63EB050306435C
:100460004CEA010C49084FEA300092185B4150EA0F
:100470000107EDD152EA030012D082EA040083EAB8
:100480000501084305D0101BAB4106D20122002311
:1004900006E000224FF0004302E06FF0010253102B
:1004A0001AEB06004CEB085110EB0A0041EB0B0174
:1004B000BDE8F04D00F099B870B521F0004303435A
:1004C0000CD0C1F30A550024D5EB040564EB0403FA
:1004D000D617AD1AB34102DB0020014670BD2018CB
:1004E00041EB025170BD0EB5C10F80EAE0700844C7
:1004F000CA07002140F233438DE80E000A460B463E
:1005000000F082F803B000BD70B5C1F30A5201F0EB
:1005100000450024C1F3130140F2FF3341F4801180
:100520009A4201DA002070BD40F233439A42A2F2AF
:10053000334203DC5242FFF7F5FD00E090402C43CC
:10054000F1D0404270BD000030B5041E71F10004CE
:1005500004DB4FF00044404264EB0101141E73F1D0
:10056000000405DB1C464FF00043524263EB0403DA
:100570008B4208BF824230BD30B5041E71F10004C9
:1005800004DB4FF00044404264EB0101141E73F1A0
:10059000000405DB1C464FF00043524263EB0403AA
:1005A000994208BF904230BD202A04DB203A00FA6D
:1005B00002F1002070479140C2F1200320FA03F3BA
:1005C000194390407047202A06DBCB17203A41FAA6
:1005D00002F043EAE07306E041FA02F3D040C2F1D0
:1005E0002002914008431946704710B5141E73F15C
:1005F000000408DA401C41F1000192185B411A43E3
:1006000001D120F0010010BD2DE9F04D92469B462E
:1006100011B1B1FA81F202E0B0FA80F220329046D4
:10062000FFF7C2FF04460F4640EA0A0041EA0B0109
:1006300053465A46084313D0114653EA010019D0D5
:10064000C8F140025046FFF76DFD05460E46504684
:1006500059464246FFF7A8FF084305D0012004E0B1
:1006600020463946BDE8F08D0020054346EAE07695
:100670002C4337430A986305E40AA0EB08000022E4
:10068000FD0A44EA47540A3002D500200146E9E752
:10069000010510196941DDE9084500196941BDE806
:1006A000F04DA2E7064C074D06E0E06840F001037C
:1006B00094E8070098471034AC42F6D3FFF71AFDD0
:1006C000684C0008884C00082DE9F04D00231A46BC
:1006D0001B1A8A4103DB00200146BDE8F08DC1F3FF
:1006E0000A52C1F3130141F480154FF0000BD107FA
:1006F00002D100186D41521E0027044640F2FF113E
:10070000384601EB620A3E468046024600204FF41E
:100710008011FFF707FDC2197141BB1846EB0100BC
:10072000B4EB030C75EB000C04D3E41A65EB000585
:1007300017460E46241908F101006D418046342801
:10074000E3DDF91946EB0600091BA84103D24FF07F
:10075000FF32134601E0002213461BEB070046EB75
:100760000A51BDE8F04DFFF740BF70B58C1810F886
:10077000015B15F0070301D110F8013B2A1106D1E6
:1007800010F8012B03E010F8016B01F8016B5B1E00
:10079000F9D12B0705D40023521E0DD401F8013BDB
:1007A000FAE710F8013BCB1A921C03E013F8015B47
:1007B00001F8015B521EF9D5A142D8D3002070BDCB
:1007C000FEE7704710B54FF40051044800F051F9AE
:1007D000BDE810404FF47A7000F056B800100140A8
:1007E000002201E000F8012B491E89B2FAD27047BD
:1007F00010B590F821100024022903D00421816350
:1008000001243DE001680A6822F00E020A600168D6
:100810000A6822F001020A601A4A0168914201D175
:10082000012121E0174A1432914201D110211BE02D
:10083000144A2832914201D1891515E0114A3C32FF
:10084000914201D189140FE00E4A5032914202D1F7
:100850004FF4803108E00B4A6432914202D14FF4E8
:10086000801101E04FF08071064A083A5160012181
:1008700080F82110002180F82010416B01B18847D9
:10088000204610BD0800024070B5044600F0FAF89A
:100890000546601C02D004480078044400F0F2F8D9
:1008A000401BA042FAD370BDA80100202DE9F84FEB
:1008B000DFF890A100220AF1040B144601274FF043
:1008C0000F090BF1040E00BF0B6807FA04F52B406B
:1008D000AB4274D1DFF870C14E68A6EB0C086645D8
:1008E0002BD00DDC032E34D005DC36B3012E19D00D
:1008F000022E2FD11BE0112E16D0122E2AD119E074
:10090000B8F5881F19D006DCB8F5803F15D0B8F5CA
:10091000801F1FD111E0B8F5001F0ED0B8F5041FDD
:1009200018D10AE0CA6815E0CA68121D12E0CA6848
:1009300008320FE0CA680C320CE08A682AB1012A3A
:100940004FF0080203D0456104E0042202E0056193
:1009500000E00022FF2B01D8064601E000F104066A
:100960004FEA840501D9A5F12005D6F800C009FA9F
:1009700005F82CEA080C02FA05F54CEA050CC6F855
:1009800000C04D68ED0057D5304DAE6946F0010608
:10099000AE61AD6924F0030605F0010500952C4D0C
:1009A00006EB050CDCF80850A6074FEA167809FAA2
:1009B00008F6B543274EB04202D1002610E03BE0D6
:1009C000254EB04201D101260AE0244EB04201D1A9
:1009D000022605E0224EB04201D1032600E00426A3
:1009E00006FA08F62E43CCF808604D68DAF8006085
:1009F000ED03554601D51E4300E09E432E604D6831
:100A0000DBF80060AD035D4601D51E4300E09E4368
:100A10002E604D68DEF80060ED02754601D51E437C
:100A200000E09E432E604D68AD020E4D2E6801D54C
:100A30001E4300E09E432E60641C102CFFF444AF64
:100A4000BDE8F88F000401400000111000100240C2
:100A50000000014000080140000C0140001001406E
:100A6000001401400C0401408068084000D00120BF
:100A70007047C2684A40C26070470AB1016170475E
:100A80000904FBE70148806870470000A8010020C6
:100A90007047000038B50446A9B102F0E9FA0146F2
:100AA00001231C22204600F03BFB08B1FFF78AFE21
:100AB0002068416980690090BDE8384001225103F7
:100AC0000548FFF7DABF02F0D9FA014608230222EF
:100AD000204600F05EFBE8E70010014070B50446D8
:100AE00000684569466830490D420DD0F1050BD5C7
:100AF000216C41F0010121646FF480714161206833
:100B0000016841F40041016015F4813F09D0F0050E
:100B100007D5206C40F00200206421686FF400705B
:100B2000486115F4823F28D0F00526D594F83E3070
:100B3000628D94F83D00216B202B08D13AB9212811
:100B40000ED029280CD0282801D1212908D0206CCA
:100B500040F00400206494F83E00102804D008E01F
:100B6000204601F027FD08E02068016841F400718B
:100B7000016021686FF48060486115F4843F09D0FA
:100B8000F00507D5206C40F00800206421686FF460
:100B900000604861206C002804D02046BDE8704009
:100BA00001F0F6B970BD0000000101002DE9F05F11
:100BB00002680446D2F818805569566890F83E00DD
:100BC0006649DFF898A1DFF894B1DFF894918F1CA3
:100BD0000AF17E0A0BF13E0B102812D0402810D0EB
:100BE0000D425BD0B00559D5936920460021DB4307
:100BF0005B0700D501219269D243120648D582894C
:100C000047E015F0011F05D0B00503D5204601F0DF
:100C10005EFC10E05148801D054205D0B00503D5AB
:100C2000606CC0B2106106E00D4204D0B00502D580
:100C3000204601F0BFFB18EA090F14D015EA0A0F8D
:100C400008D0700506D53D4206D12046BDE8F05FCC
:100C500001F02CBB3D421FD0B0051DD52046BDE89C
:100C6000F05F01F0E2BA15EA0B0F08D0700506D567
:100C70003D4206D12046BDE8F05F01F07FBA3D421B
:100C80000AD0B00508D52046BDE8F05F01F012BAE1
:100C9000028B92B2FFF7FEFEBDE8F09F2F480E30A8
:100CA000054206D0B00504D52046BDE8F05F01F04E
:100CB000C3BC18EA090F35D015EA0A0F24D0700515
:100CC00022D53D4222D194F83D202046618D002955
:100CD000E2D0416A4B1C4362036809781961418D77
:100CE000491E4185418D0029D6D1292AD4D10168D8
:100CF0004A6822F480624A6021210163282180F839
:100D00003D1000F005FAC7E73D42C5D0B005C3D598
:100D1000608D0028C0D0606A411C61622168007843
:100D2000086117E015EA0B0F08D0700506D53D42A3
:100D300006D12046BDE8F05F01F0F6BB3D42ABD0E6
:100D4000B005A9D5608D0028A6D01169606A421C43
:100D500062620170608D401E60859DE702000100A7
:100D60000400100090F83D10202901D002207047A7
:100D7000282180F83D1001680A68D20703D10A686B
:100D800042F001020A6001680A6842F480620A6067
:100D90000068416841F4407141600020704770472D
:100DA00070B504001BD094F83D00002520B984F8EC
:100DB0003C50204600F0EAF8242084F83D002068EA
:100DC000016821F00101016000F06CFB404A61689C
:100DD000914201D83F4900E03F49884201D20120B9
:100DE00070BD3E492368B0FBF1F1596063689342DE
:100DF00006D94FF4967359434FF47A73B1FBF3F16C
:100E00002368491C19626168914210D84900401E4C
:100E1000B0FBF1F2521CC2F30B02042A01D20420EF
:100E200022E0B0FBF1F0401CC0F30B001CE0A36813
:100E3000CBB301EBC10202EB0116421EB2FBF6F28C
:100E4000521C42F48042120536D06BB301EBC10252
:100E500002EB0111401EB0FBF1F0401CC0F30B008F
:100E600040F4804040F400402168C861D4E90701A3
:100E7000084321680860D4E90310084321688860AA
:100E8000D4E9050108432168C8602068016841F081
:100E9000010101602564202084F83D00256384F869
:100EA0003E50002070BD00E008E001EB4106421E0C
:100EB000B2FBF6F2521CC6E70120D5E701EB410177
:100EC000401EB0FBF1F0401CC0F30B00CAE700006D
:100ED000A086010080841E0000093D0040420F00F2
:100EE00070B5FFF73FFF08B1FFF76CFC02F0C0F8E8
:100EF000007878B102F0BCF80078012820D002F028
:100F0000B7F8007802281DD002F0B2F80078032864
:100F10001CD01DE000240BE002F0B6F8054602F0FC
:100F2000A7F8204422464078294603F0A5F8641C1F
:100F300002F0A2F8401EA042EEDC02F005F907E044
:100F4000022000E0032003F0D9F801E003F0DAFA10
:100F500000224FF400510A48FFF78FFD02F08CF891
:100F600084B202F085F82146FFF73AFC02F08AF8D5
:100F700084B202F083F82146BDE87040FFF730BC30
:100F800000100140704770477047704710B586B039
:100F90000021009101910291039100681349884258
:100FA00022D1134CA06940F00800A061A0696946F5
:100FB00000F0080004904FF440700090122001905F
:100FC000032003900B48FFF771FC0B48416841F088
:100FD000E06141F002014160E06940F40010E0612D
:100FE000E06900F40010049006B010BD0054004009
:100FF00000100240000C01400000014010B502F05A
:1010000037F80078001F07281ED2DFE800F00B2415
:101010003847566504000021084603F027F802F01F
:1010200041F80EE00121384802F042F802F04FF892
:10103000FFF76AFAC0F30720002103F017F8012137
:1010400017E0012103F012F80122BDE8104051031E
:101050002E48FFF712BD02212B4802F029F802F0BA
:1010600036F8FFF751FAC0F30720002102F0FEFF27
:101070000221254802F01CF802F029F83FE0032184
:10108000214802F015F802F022F8FFF73DFAC0F30C
:101090000720002102F0EAFF0321EAE701211A48B4
:1010A00002F006F802F017F8FFF72EFAC0F3072057
:1010B000002102F0DBFF01211CE00221124801F0B7
:1010C000F7FF02F008F8FFF71FFAC0F3072000212E
:1010D00002F0CCFF02210DE003210B4801F0E8FFF4
:1010E00001F0F9FFFFF710FAC0F30720002102F02A
:1010F000BDFF0321044801F0DBFF01F0ECFFFFF727
:1011000003FAC0B29DE70000180000200010014063
:1011100000224FF400510148FFF7AFBC001001401E
:1011200038B590F83D40282C31D161B15AB190F8D2
:101130003C40012C2BD0012480F83C4004682568F9
:10114000ED0702D005E0012038BD256845F0010516
:1011500025600468256825F4006525602A2480F848
:101160003D40202480F83E400024046441624285D2
:10117000C362418D018501684A698A69009280F8DD
:101180003C40486840F4E0604860204638BD02209A
:1011900038BD38B590F83D40282C31D161B15AB1F5
:1011A00090F83C40012C2BD0012480F83C4004688E
:1011B0002568ED0702D005E0012038BD256845F01F
:1011C000010525600468256825F40065256029244B
:1011D00080F83D40202480F83E40002404644162B1
:1011E0004285C362418D018501684A698A6900921E
:1011F00080F83C40486840F4E0604860204638BDD4
:10120000022038BD0248816802781144816070472D
:10121000A8010020074810B5016841F010010160E5
:10122000032000F077F8002000F006F800F024F822
:10123000002010BD0020024070B50D4D04464FF453
:101240007A712878B1FBF0F00A490968B1FBF0F037
:1012500000F000FB48B9102C07D200222146501E96
:1012600000F038F800206C6070BD012070BD0000F7
:10127000A8010020B40100200E4808B5816941F0A2
:1012800001018161816901F001010091C16941F0B1
:101290008051C161C06900F080500090052000F0CD
:1012A00039F80548416821F0E06141F00071416082
:1012B00008BD0000001002400000014000F01F02C5
:1012C000012191404009800000F1E020C0F80011A8
:1012D00070470000F0B40E4B1B680C46C3F30223AA
:1012E000C3F10705042D00D90425191D072901D2D2
:1012F000002300E0DB1E012606FA05F1491E21400D
:1013000099409E40761E16403143F0BC01F04EBB22
:101310000CED00E0064900F0070208684FF6FF03F5
:10132000184040EA0220034A10430860704700005A
:101330000CED00E00000FA052DE9F047DFF85481DC
:1013400005460E46D8F8000000F00700B0420CD267
:10135000D8F8001021F007013143C8F80010D8F880
:10136000000000F00700B0426FD128684A4C8107A6
:1013700012D5400703D5606840F4E06060602878CB
:10138000000703D5606840F4605060606068A96839
:1013900020F0F000084360602878C00744D06868F7
:1013A000012816D02168022816D0890700294CDAB6
:1013B000616821F0030101436160FFF763FB696825
:1013C000074641F2883001290ED00229814618D003
:1013D00026E021688903E9E78901E7E7FFF752FB87
:1013E000C11B494501D918E081466068C0F38100FE
:1013F0000128F3D118E000BFFFF744FBC11B4945AA
:101400000BD86068C0F381000228F5D10CE000BF62
:10141000FFF738FBC11B494502D90320BDE8F0871F
:10142000606810F00C0FF3D1D8F80010404601F0BE
:101430000701B1420BD9016821F007013143016076
:10144000006800F00700B04201D00120E6E72878EC
:10145000400705D56068E96820F4E06008436060F3
:101460002878000706D56068296920F4605040EAB2
:10147000C100606000F036F86168084AC1F30311EA
:10148000515CC840064908600020FFF7D5FE0020E7
:10149000C4E700000020024000100240BC4B0008DE
:1014A000B40100200448054900684968044AC1F3B2
:1014B0000221515CC8407047B40100200010024076
:1014C000CC4B00080448054900684968044AC1F348
:1014D000C221515CC8407047B40100200010024096
:1014E000CC4B000812A185B00FC98DE80F0014A0E5
:1014F000144A006804905168134801F00C03042B4F
:1015000010D0082B0ED1C1F38343C9031DF803008B
:101510000AD5516804AAC1F34041515C0A4A5043BC
:10152000B0FBF1F005B0704708494843FAE7000006
:1015300002030405060708090A0B0C0D0E0F101014
:10154000010200000010024000127A0000093D0074
:101550002DE9F84F04460078B94DC00748D06868B7
:10156000C0F38100012807D06868C0F38100022819
:1015700009D16868C00306D52868800338D560683B
:1015800000286FD034E06068B0F5803F0BD010B118
:10159000B0F5A02F11D0286820F48030286028688A
:1015A00020F4802002E0286840F4803028606068E1
:1015B00088B1FFF767FA064609E0286840F4802002
:1015C0002860F0E7FFF75EFA801B642875D828686A
:1015D0008003F7D50CE0FFF755FA064605E000BF9B
:1015E000FFF750FA801B6428F0D828688003F7D4EE
:1015F0002078944E80074FF001094FF000083BD54A
:10160000686810F00C0F07D06868C0F381000228EA
:1016100009D16868C00306D42868800714D52069FA
:1016200001281FD110E02069B0B1C6F80090FFF783
:1016300029FA074605E000BFFFF724FAC01B02287D
:10164000C4D828688007F7D52868616920F0F800B9
:1016500040EAC10028600FE0C6F80080FFF712FAE8
:10166000074606E0E9E000BFFFF70CFAC01B0228BE
:1016700023D828688007F7D4207800072CD5724833
:10168000A169D9B1C0F80090FFF7FCF9074604E062
:10169000FFF7F8F9C01B02280FD8686A8007F7D552
:1016A0006A484FF4FA510068B0FBF1F0009000BFB7
:1016B0000098411E0091FAD20EE080E0C0F8008050
:1016C000FFF7E0F9074604E0FFF7DCF9C01B02284A
:1016D00075D8686A8007F7D42078400760D5E86934
:1016E0000027C00008D4E86940F08050E861E8694C
:1016F000012700F08050009055480168C90513D4B7
:101700000168834641F480710160FFF7BBF98246AE
:1017100006E000BFFFF7B6F9A0EB0A0064284ED838
:10172000DBF80000C005F5D5E06801280AD008B153
:10173000052813D0286A20F001002862286A20F0CA
:10174000040002E0286A40F001002862E06841F2EB
:10175000883B98B1FFF796F982460BE0286A40F083
:1017600004002862EEE700BFFFF78CF9A0EB0A0146
:1017700059455AD8286A8007F6D50CE0FFF782F958
:10178000824605E0FFF77EF9A0EB0A0159454CD8E7
:10179000286A8007F6D41FB1E86920F08050E8611C
:1017A000E06988B36968C1F38101022945D0022844
:1017B000C6F8608004D0FFF765F9044638E034E0ED
:1017C000FFF760F9074604E0FFF75CF9C01B022849
:1017D0002BD828688001F7D4206AB0F5803F05D166
:1017E0006868A16820F4003008436860D4E9080103
:1017F0000843696821F4741108436860C6F8609072
:10180000FFF740F9044606E015E000BFFFF73AF99C
:10181000001B022809D828688001F7D50BE000BF1B
:10182000FFF730F9001B022802D90320BDE8F88F2A
:1018300028688001F4D40020F8E70120F6E70000D2
:10184000001002400000424280044242B4010020E5
:101850000070004010B5401EB0F1807F01D3012020
:1018600010BD4FF0E02460610F21601701F09EF879
:101870000020A06107202061002010BD7047704744
:1018800010B590F83C20012A25D0012280F83C2098
:10189000CA688C6822F4407222434C6822F4806249
:1018A00022430C6822F4006222430C6922F4805225
:1018B00022434C6922F4005222438C6922F4804274
:1018C000224322F40041026800232143516480F83E
:1018D0003C30002010BD022010BD30B590F83C20F7
:1018E000012A20D0012280F83C20022380F83D30DC
:1018F00003685C6824F070045C6003685C680D68D1
:101900002C435C6003689C6824F080049C6003683E
:101910009C6849680C439C6080F83D20002180F859
:101920003C10084630BD022030BD10B5040003D085
:1019300094F83D0010B107E0012010BD002084F8AC
:101940003C00204600F00CF8022084F83D00211DE8
:10195000206801F09BF8012084F83D00002010BDB4
:1019600008B50C4A01680C48914207D1816941F4DD
:1019700000618161806900F4006009E0074A9142DA
:1019800007D1C16941F00401C161C06900F00400E0
:10199000009008BD002C01400010024000080040EB
:1019A0000168CA6842F00102CA600068016841F03B
:1019B00001010160002070470168CA6822F001023D
:1019C000CA600068016A41F21112114207D1016A2E
:1019D0009210114203D1016821F001010160002041
:1019E000704770B5044690F83C00012817D00125D7
:1019F00084F83C50022084F83D002068826822F080
:101A0000770222F47F4282600868502837D00DDCCC
:101A1000202859D005DC88B3102841D151E002209C
:101A200070BD302853D040283AD13FE060282ED0F6
:101A300070280BD0B0F5805F03D0B0F5005F2FD1D8
:101A400010E02068816821F0070115E0CB68D1E93A
:101A50000121206801F05BF82168886840F0770078
:101A600088601DE0CB68D1E90121206801F04FF8C2
:101A70002068816841F48041816011E01EE0CA68FD
:101A80004968206801F0F8F85021206806E0CA682B
:101A90004968206801F001F96021206801F041F8EF
:101AA00084F83D50002084F83C0070BDCA68496845
:101AB000206801F0E1F840212068EFE7002120686C
:101AC000ECE710212068E9E720212068E6E73021D3
:101AD0002068E3E7704770B5044600680169C943B0
:101AE000C90708D1C168C943C90704D1891E01616A
:101AF000204600F0AAF9206801694FF00005C943AB
:101B0000890715D4C168C943890711D4E91E016149
:101B100001202077206880698007204602D0FFF7E7
:101B2000D9FF04E000F0B6F8204600F08DF92577E3
:101B300020680169C943490717D4C168C9434907E7
:101B400013D46FF0040101610220207720688069BE
:101B500010F4407F204602D0FFF7BCFF04E000F005
:101B600099F8204600F070F9257720680169C9438B
:101B7000090716D4C168C943090712D46FF00801D8
:101B80000161042020772068C0698007204602D0C8
:101B9000FFF7A0FF04E000F07DF8204600F054F9C4
:101BA000257720680169C943C90617D4C168C943AC
:101BB000C90613D46FF01001016108202077206856
:101BC000C06910F4407F204602D0FFF783FF04E095
:101BD00000F060F8204600F037F9257720680169A9
:101BE000C943090609D4C168C943090605D46FF081
:101BF000800101612046FFF741FE20680169C94369
:101C0000490609D4C168C943490605D46FF04001AB
:101C10000161204600F01BF920680169C94389066B
:101C20000BD4C168C943890607D46FF02001016154
:101C30002046BDE87040FFF722BE70BD70B5044677
:101C400090F83C0001280DD0012584F83C5002207A
:101C500084F83D0042B1042A0AD0082A0CD00C2A8C
:101C600011D10DE0022070BD206800F063FF0AE092
:101C7000206800F087FF06E0206800F0AFFF02E078
:101C8000206800F0D7FF84F83D50002084F83C0025
:101C900070BD000070B50446007F012823D101F01B
:101CA0004DFA0546012001F0CDF985421BD10121F5
:101CB000364801F0FDF901F01FFB01280ED001218B
:101CC000324801F0F5F902F065FB01212F4801F0DF
:101CD000EFF90146204602F033FC04E00022012126
:101CE000204602F08BF9207F022823D101F026FA4A
:101CF0000546022001F0A6F985421BD102212348A6
:101D000001F0D6F901F0F8FA01280ED002211F489F
:101D100001F0CEF902F03EFB02211C4801F0C8F9A7
:101D20000146204602F00CFC04E00022022120467D
:101D300002F064F9207F042826D101F0FFF905465E
:101D4000032001F07FF985421ED103210F4801F0E5
:101D5000AFF901F0D1FA01280FD003210B4801F0AF
:101D6000A7F902F017FB0321084801F0A1F9014689
:101D70002046BDE8704002F0E3BB2046BDE870405D
:101D80000022032102F03AB970BD000018000020C3
:101D900010B5040003D094F83D0010B107E0012015
:101DA00010BD002084F83C00204600F00CF8022012
:101DB00084F83D00211D206800F068FE012084F8B1
:101DC0003D00002010BD704710B50268044631B1D7
:101DD000042908D008292CD00C2908D12DE0D0687E
:101DE00020F0020002E0D06820F00400D060002261
:101DF000206800F081FE134B41F21112206891100F
:101E0000984209D1036A134206D1036A0B4203D1F7
:101E1000436C23F4004343642068036A134206D1F1
:101E2000026A0A4203D1016821F001010160002029
:101E300010BDD06820F00800D8E7D06820F010006E
:101E4000D4E70000002C0140704701F09BB97047B7
:101E500070B5040004D094F83900002510B106E0F4
:101E6000012070BD84F83850204600F023F824206B
:101E700084F839002068C16821F40051C16020460F
:101E800000F01EFF2068016921F490410161206883
:101E9000416921F02A0141612068C16841F4005183
:101EA000C160E563202084F8390084F83A000020FE
:101EB00070BD000030B585B00024009401940294F8
:101EC000039400681449884224D11448816941F47C
:101ED00080418161816901F480410491816941F00F
:101EE0000401816180690E4D00F0040004904FF4FC
:101EF000007000900220019003200390694628465C
:101F0000FEF7D4FC2815CDE9000469462846029462
:101F1000FEF7CCFC05B030BD003801400010024097
:101F200000080140FEE700000148FEF7D7BD0000B1
:101F3000983800200148FEF739BE0000983800208C
:101F400010B5406A01680A6822F480620A600021C4
:101F50004185426B5163826B516390F83D30202282
:101F6000602B80F83D2080F83E1007D001680A6899
:101F700022F001020A60FEF712FF10BD0164016841
:101F80000A6822F001020A60FEF782FD10BD00001F
:101F900070B590F83D1004460025202600682929D8
:101FA0002DD02A292BD094F83D10602904D0416807
:101FB000090501D484F83D60256384F83E5001682A
:101FC00021F40061016020684168090537D5416846
:101FD00021F400614160606B344990F82120012AAE
:101FE00012D04163606BFEF703FC38B320680168D0
:101FF00021F00101016084F83D60606B1CE0256305
:10200000282184F83D10DAE7A06B4163A06BFEF74E
:10201000EFFB98B120684169C943490604D40169BE
:10202000606A421C626201702068016821F001014F
:10203000016084F83D60A06B416B88470FE094F825
:102040003D1060291DD04169C943490604D4016986
:10205000606A421C626201702046FEF7A0FE94F89E
:102060003D0028280CD1206C400709D51048E062BB
:10207000256384F83D6084F83E502046FEF730FF2B
:1020800070BD84F83D6025644169C943490604D4A4
:102090000169606A421C626201702068016821F077
:1020A000010101602046FEF7F3FCD8E7411F00085C
:1020B0000000FFFF10B5C26A448D2F4B0168032C4E
:1020C00003D0448D022C15D00AE0042A03D0082A3C
:1020D00001D09A4203D10A6822F480620A60016842
:1020E0000A69416A4B1C43620A70418D491E418551
:1020F000002010BD042A12D0082A10D09A420ED017
:10210000022A0A6802D022F4806201E042F480626E
:102110000A6001684A6822F440724A6008E04A682E
:1021200022F440724A6001680A6842F400720A6050
:1021300001680A69416A4B1C43620A70418D491E5D
:10214000418501680A69416A4B1C43620A70418DEE
:10215000491E4185202180F83D100021016390F83F
:102160003E2080F83E10402A02D0FEF70BFFBFE76A
:10217000FEF70AFFBCE700000000FFFF10B590F873
:102180003D1022294CD1418D032909D901680A69E2
:10219000416A4B1C43620A70418D491E41853FE0F4
:1021A000022909D0032907D0C16A022901680A68F7
:1021B00018D022F4806217E0C16A022901680A6817
:1021C00007D022F480620A6001680A6842F4006263
:1021D00001E042F480620A600068416821F4806195
:1021E00041601DE042F480620A6001684A6822F49E
:1021F000E0624A6001680A69416A4B1C43620A70E6
:10220000418D491E4185202180F83D100021016348
:1022100090F83E2080F83E10402A03D0FEF7B2FE30
:10222000002010BDFEF7B0FEFAE710B5C26A90F8C4
:102230003D10212921D1418D49B1416A4A1C426298
:10224000026809781161418D491E418515E02023FE
:102250000021042A13D0082A11D012F5803F0ED095
:102260000268546824F4E06454601122026380F828
:102270003E1080F83D30FEF786FE002010BD02685B
:10228000546824F4E06454600268146844F40074F0
:102290001460016380F83D3090F83E2080F83E10D5
:1022A000402AE8D1FEF771FEE7E7000010B590F88C
:1022B0003D1090F83E30C26A048D24B1212934D0FB
:1022C000402B30D074E02129FAD120230021042AA8
:1022D00013D0082A11D012F5803F0ED0026854683E
:1022E00024F4E06454601122026380F83E1080F808
:1022F0003D3000BFFEF747FE5AE00268546824F400
:10230000E06454600268146844F40074146001636B
:1023100080F83D3090F83E2080F83E10402AE9D108
:10232000FEF733FE44E0222942D1418D21B190F8DD
:102330003E10402906D032E00068416821F48061F7
:10234000416035E0016D31B1016D012911D0016DA0
:10235000022915D02CE0C16C0129816C02D0C1F397
:10236000072108E00268C9B21161016D891C01658D
:102370001EE0816CC9B202681161016D491CF6E76B
:1023800090F83D10222904D090F83D10212906D064
:102390000EE00068016841F48071016008E0416A64
:1023A0004A1C4262026809781161418D491E4185CB
:1023B000002010BD78B590F83E50C26A046B90F8CA
:1023C0003D6000230168222E06D1066D0EB9402D16
:1023D00002D0056D25B107E04869886900901CE0CE
:1023E0000569B5F5404F1AD0458D85B3458D012D52
:1023F00020D0428D022A4AD00A6842F480620A60E4
:1024000001684A68120503D54A6842F480524A605E
:1024100001684A69896900910365002078BD4A69AD
:102420008A6900920A6842F480720A60016D491C50
:102430000165F2E712F5803F0AD0042A21D0082A6C
:102440001FD0122C1DD0C26A022A09D114E00BE061
:102450000A6822F480620A6001684A68120503D59E
:102460000A6822F480620AE04A698A6900920A686E
:1024700042F400720A60CFE70A6842F480620A60A0
:10248000C6E70A6822F480620A600168ECE7C26A63
:10249000022A0A680BD042F400620A6001684A69A5
:1024A0008A6900920A6822F480620A6006E042F4B7
:1024B00080620A6001684A698969009101684A6816
:1024C0001205A9D54A6842F480524A60A4E790F800
:1024D0003E10402909D00169B1F5804F10D0016D3F
:1024E00099B1016D012915D01CE0016D19B9416C3C
:1024F00001F0FE0114E0416CC9B241F001010FE0AE
:1025000090F83D102129F6D1F1E7416CF02201F459
:10251000407103E0416CF12201F4407142EAD111B3
:1025200000680161002070472DE9F04190F83D50AE
:102530000446408DD0B320680169606A421C626223
:102540000170608D401E608500F092FD0078618D05
:10255000222628271B291AD12A2D18D104280BD06E
:10256000052809D0062807D0072805D0082803D059
:10257000092801D00A280AD12068416821F4806125
:102580004160266384F83D702046FEF737FD608D7C
:1025900060B92A2D0AD12068416821F48061416028
:1025A000266384F83D702046FEF728FD0020BDE834
:1025B000F08100002DE9F04190F83D40C26A00230F
:1025C0001C4F202601686FF48065042A01D0082A78
:1025D00001D1282C05D0212C17D04D610020BDE859
:1025E000F081C7624A6822F4E0624A6001684D6186
:1025F00001680A6822F480620A60036380F83D6023
:1026000080F83E30FEF76CFCE8E7C76221220263E7
:1026100080F83D6080F83E304A6822F4E0624A600B
:1026200001684D6101680A6822F480620A60FEF761
:102630006FFDD3E70000FFFF38B590F83D2001683B
:102640004B6823F4E0634B60036800215C690094ED
:102650001C6844F001041C6003681C6824F4806456
:102660001C6003685C6824050BD590F83D40222C63
:102670002BD090F83D402A2C27D0446B2468646806
:102680004485448DE4B15C69E443640707D41C6964
:10269000436A5D1C45621C70438D5B1E4385036865
:1026A0005C69E443640607D41C69436A5D1C4562A7
:1026B0001C70438D5B1E4385036C43F0040303646D
:1026C000036C23B1FFF764FC1FE0846BD6E7202383
:1026D000282A09D02A2A07D0292A05D0046B222CBF
:1026E0000CD0222A0AD010E0094AC262016380F8A5
:1026F0003D3080F83E10FEF7F3FB06E0016380F802
:102700003D3080F83E10FEF779FC002038BD000017
:102710000000FFFF2DE9F04186B0002545480095F7
:10272000019502950395816941F0100181618169EC
:1027300001F010010491816941F004018161816916
:1027400001F004010491816941F00801816180690F
:10275000394E00F008004FF4005404900022214646
:102760003046FEF78AF9354F002248F2FF0138461D
:10277000FEF783F9DFF8C88000224CF67B41404623
:10278000FEF77BF9002280214046FEF776F900949F
:102790000124CDE90145694630460394FEF786F8E9
:1027A00048F2C30002268DE851006946384603947A
:1027B000FEF77CF81C208DE831006946384603940A
:1027C000FEF774F82020CDE90004029469463846EB
:1027D0000394FEF76BF84CF273408DE831006946C4
:1027E00040460394FEF762F8E002CDE9000402944B
:1027F000694640460394FEF759F88020CDE900046D
:10280000CDE9024669464046FEF750F84FF4C850FD
:10281000CDE90005694638460295FEF747F80820DD
:102820008DE85100694640460394FEF73FF806B034
:10283000BDE8F08100100240001001400008014096
:10284000000C01400E4810B50C4901600D49416073
:1028500000215E22C0E902124FF48042C0E9042147
:102860004022C0E906120162FEF79AFA002803D05E
:10287000BDE81040FDF7A6BF10BD000000540040A9
:1028800098380020801A060010B594B000240E94E9
:102890000F941094119412941C2168461394FDF720
:1028A0006AFC1C2107A8FDF766FC2F482D49016032
:1028B0001F21C0E901144FF6FF71C0E90314446100
:1028C0008461FFF732F808B1FDF77CFF4FF48050C8
:1028D0000E900EA92448FFF784F808B1FDF772FFA7
:1028E0002148FFF755FA08B1FDF76CFF129412A9C1
:1028F0001D481394FEF7F1FF08B1FDF763FF009444
:1029000001940294039404940594002269461648A5
:102910000694FFF793F908B1FDF754FF04226946C6
:102920001148FFF78BF908B1FDF74CFF0822694603
:102930000D48FFF783F908B1FDF744FF07940894A9
:1029400009944FF400500A94CDE90B4007A90648BA
:102950000D94FEF795FF002801D0FDF733FF14B06A
:1029600010BD0000002C0140EC3800200C4810B5D0
:102970000A4901600B494160002181600C22C1605D
:10298000C0E904128161C161FFF762FA002803D037
:10299000BDE81040FDF716BF10BD00000038014033
:1029A0002C390020A80D0E00FEE770470907090E1C
:1029B000002806DA00F00F0000F1E02080F8141D76
:1029C000704700F1E02080F80014704770477047AE
:1029D000FEF718BC30B58FB028216846FDF7CBFB59
:1029E00014210AA8FDF7C7FB0225012004900095D9
:1029F0001020059000244FF4C010CDE90840079541
:102A00006846FEF7A5FD08B1FDF7DCFE0F200A9031
:102A1000CDE90B540D9401210AA80E94FEF78CFC0D
:102A2000002801D0FDF7CEFE0FB030BD0D48016883
:102A300041F00101016041680B4A114041600168A9
:102A40000A4A11400160016821F480210160416857
:102A500021F4FE0141604FF41F0181600449C0036D
:102A600008607047001002400000FFF8FFFFF6FE0C
:102A700008ED00E00148FFF72EB80000EC38002018
:102A80000148FFF728B80000EC380020F0B50268D4
:102A9000164B174C174D4FF08047984205D0B8425F
:102AA00003D0A04201D0A84203D122F070064A68A8
:102AB0003243984205D0B84203D0A04201D0A84288
:102AC00003D122F44074CA68224322F080044A6988
:102AD000224302608A68C2620A688262984201D117
:102AE0000969016301214161F0BD0000002C014032
:102AF000000400400008004010B50123046A8B4028
:102B00009C430462036A8A401343036210BD10B5FC
:102B1000846842EA032224F47F440A432243826009
:102B200010BD826822F070020A4342F00701816002
:102B30007047000030B5026A22F001020262026AA8
:102B40004368846924F073050C682C4322F0020565
:102B50008A682A430A4DA8420BD122F00805CA68A8
:102B600023F440732A434D6922F004021D438B690C
:102B70002B434360846149684163026230BD0000B9
:102B8000002C014030B5026A22F010020262026A93
:102B9000436884690D6824F4E64444EA05248D689A
:102BA00022F0200242EA05120B4DA8420ED1CD6858
:102BB00022F0800242EA05124D6923F4406343EAA1
:102BC00085038D6922F0400243EA850343608461F6
:102BD00049688163026230BD002C014030B5026A51
:102BE00022F480720262036A4268C46923F40073AB
:102BF00024F073050C682C438D6843EA05230C4DC3
:102C0000A8420ED1CD6823F4006343EA05234D6941
:102C100022F4405242EA05128D6923F4806342EAAD
:102C200005124260C4614968C163036230BD00009F
:102C3000002C014030B5026A22F480520262046A1C
:102C40004268C3690D6823F4E64343EA05238D68AF
:102C500024F4005444EA0534064DA84204D14D69D9
:102C600022F4804242EA85124260C36149680164ED
:102C7000046230BD002C014010B5036A046A24F0E0
:102C800001040462846924F0F00444EA021423F08D
:102C90000A020A438461026210BD10B5036A23F080
:102CA000100303628369046A23F4704343EA023227
:102CB00024F0A00343EA01118261016210BD00000B
:102CC0002DE9F041044600680169E26821F44051B1
:102CD000114301612169A0680843616908432168C3
:102CE000CA6841F20C639A430243CA602068416992
:102CF000A26921F44071114341614C492068642567
:102D0000322688423CD1FEF7DDFB00EBC00101EB2F
:102D1000001061688900B0FBF1F7FEF7D3FB00EB10
:102D2000C00101EB00106168B0468900B0FBF1F012
:102D3000B0FBF5F06FF01801484307EB800106EB9C
:102D40000110B0FBF5F000F0F006FEF7BBFB00EB66
:102D5000C00101EB001061688900B0FBF1F0B0FB2D
:102D6000F5F006EB0016FEF7ADFB00EBC00101EB42
:102D7000001061688900B0FBF1F7FEF7A3FB3BE0B0
:102D8000FEF790FB00EBC00101EB001061688900C9
:102D9000B0FBF1F7FEF786FB00EBC00101EB001082
:102DA0006168B0468900B0FBF1F0B0FBF5F06FF060
:102DB0001801484307EB800106EB0110B0FBF5F06A
:102DC00000F0F006FEF76EFB00EBC00101EB001017
:102DD00061688900B0FBF1F0B0FBF5F006EB00167E
:102DE000FEF760FB00EBC00101EB00106168890099
:102DF000B0FBF1F7FEF756FB00EBC00101EB001052
:102E000061688900B0FBF1F0B0FBF5F06FF01801DC
:102E1000484307EB800108EB0110B0FBF5F0216897
:102E200000F00F0030448860BDE8F08100380140B8
:102E3000FEE7490050EAC12018BF04204A0D18BF20
:102E400040F0010040F2FF72B2EB515F08BF40F06A
:102E50000200012808BF052070472DE9F0414F1EF0
:102E600000EBC7010446D1E9000115461E4637F0C4
:102E700006020DD02A463346FDF73DFA7F1E04EBCD
:102E8000C703D3E90023FDF78FF937F00602F1D12C
:102E9000022F25D0042F13D0062F18BFBDE8F081D4
:102EA0002A463346FDF727FAD4E90A23FDF77CF9D1
:102EB0002A463346FDF71FFAD4E90823FDF774F9D3
:102EC0002A463346FDF717FAD4E90623FDF76CF9D5
:102ED0002A463346FDF70FFAD4E90423FDF764F9D7
:102EE0002A463346FDF707FAD4E90223FDF75CF9D9
:102EF0002A463346FDF7FFF9D4E90023BDE8F04147
:102F0000FDF752B90022134610460149FDF765BA94
:102F10000000F03FFDF748B9002213461046114665
:102F2000FDF75BBA40F2013200204FF0E041FDF7BF
:102F3000C3BA0000024A00201107FDF7BDBA000025
:102F400001FDFFFF02E008C8121F08C1002AFAD1E4
:102F500070477047002001E001C1121F002AFBD119
:102F6000704700000149086070470000B801002068
:102F70002DE9F041154604460A4600200146D44298
:102F800019D01046FDF7AFFA07460E462046FDF76A
:102F9000AAFA3A463346FDF707F906460C46284694
:102FA000FDF7A1FA0122FDF787FA32462346BDE874
:102FB000F041FDF712BABDE8F081000070B50022C3
:102FC00004460D461346FDF7BFFA02D10020014624
:102FD00070BD22462B46BDE8704000200149FDF738
:102FE000FCB9000080842E41012806D0134B022832
:102FF0000DD0032814D0FDF7E5BB1148012904D0FA
:1030000000291AD10122202113E00022FBE7012927
:1030100004D0002911D10122802109E00022FBE720
:103020004FF40060012906D0002906D10122014693
:103030001846FDF722BD0022F9E77047000C014059
:1030400000080140014610B50848012907D00229AF
:1030500007D0032907D0FDF7B5FB204610BDC48873
:10306000FBE70489F9E74489F7E700000000002046
:1030700000487047BC0100201C2070470048704782
:1030800001000020022070470148006970470000DD
:10309000000000200249C0EBC00001EB8000704737
:1030A000E80100200148007870470000000000207F
:1030B00010B503465FF0000203EBC210846A1030C3
:1030C0008C4203D0521C032AF6DB002010BD0146BF
:1030D000D1E916017047806CFDF705BA8069704729
:1030E000406F704704280DD004DC012806D0022868
:1030F00004D105E0082807D0102807D00020704729
:103100000120704702207047032070470720704756
:1031100010B5012904D0022905D0032906D10AE0FF
:103120000068406B01E00068806B84B200F006F834
:1031300044EA004010BD0068C06BF6E70148808893
:10314000704700000000002006480169B1F5FA7FD1
:1031500001D1C16819B10169491C01617047FDF7CE
:1031600031BB0000000000200548C168B1F5FA7FBE
:1031700003D0C168491CC16070470021FBE7000013
:103180000000002005488188A1F57F42FF3A03D066
:103190008188491C818070470021FBE700000020E6
:1031A0002DE9F0470F4681460026DFF8B88054E04D
:1031B00009EBC61505F10B002BA1FCF7E7FF48B1A1
:1031C0000022402144464046FDF757FC01222021C1
:1031D00020463FE0A86FFFF785FF0446A869012855
:1031E00004D0022813D0032836D121E0204D04F06A
:1031F000010210212846FDF740FCC4F340020821DB
:103200002846FDF73AFCC4F38002042121E004F0D3
:103210000102402145464046FDF72FFCC4F3400221
:1032200020212846FDF729FCC4F38002102110E07C
:1032300004F001024FF4806145464046FDF71DFC55
:10324000C4F3400202212846FDF717FCC4F38002B4
:1032500001212846FDF711FC761CBE42A8DBBDE823
:10326000F0870000000C014053544550000000005E
:10327000000801400FB4F0B5A1B00125002426AF2D
:103280000DF10B0607EBC411802268461031FCF7E4
:1032900059FFDDE9120188420AD00998012807D0B8
:1032A0000798012804D108A13046FCF76FFF10B938
:1032B0000898012800D10025641C032CE2DB21B012
:1032C0002846F0BC5DF814FB44430000094A01465F
:1032D000012807D0022908D0032809D191141046EB
:1032E000FDF7C2BB4FF48071F9E74FF40061F6E7D8
:1032F0007047000000080140C26901213AB1426AEA
:10330000012A03D0D0E91220824200D000210846D1
:1033100070470000ADF5407DFDF77CFFFFF75AFBDD
:10332000FFF7F8F9FFF78EFAFFF720FBFFF7ACFA8B
:1033300067496FF00100096808616648416841F417
:1033400080614160002211461F20FDF7C3FF1F204E
:10335000FDF7B4FF002211462020FDF7BBFF20201F
:10336000FDF7ACFF002201211920FDF7B3FF192062
:10337000FDF7A4FF012211461B20FDF7ABFF1B2028
:10338000FDF79CFF5448FDF7EDFC08B1FDF71AFA74
:1033900001215248FFF78CFE0146802260A8FCF70D
:1033A000D1FE02214D48FFF783FE0146802280A80E
:1033B000FCF7C8FE03214948FFF77AFE0146802248
:1033C000A0A8FCF7BFFE032160A8FFF7E9FE0120DB
:1033D00000F094FE00210120FFF706FE00210320EB
:1033E000FFF702FE3D4C3E4E183C20780228FCD1EF
:1033F000E0682169884263D0354801F02FF8E06821
:10340000FFF748FE354900F05BFD3449304801F0D4
:103410003BF82F48FEF7C4FA02213048FFF748FE78
:1034200030A10B30FCF7B2FE30B902212B48FFF778
:103430003FFEC069012809D002212848FFF738FE65
:1034400028A10B30FCF7A2FE10B10CE0012206E02F
:1034500002212248FFF72CFEC06920B900228021FA
:103460003046FDF70AFB1D4D4FF4C07710353A4644
:1034700029466846FCF766FE04F118000FC8FFF7FE
:10348000F9FE0128F3D1FFF76FFE1148FEF794FA19
:10349000002201210E4800F0B1FD00210120FFF7BC
:1034A000A3FD002202210A4800F0A8FD002203210A
:1034B000074800F0A3FD00210320FFF795FD94E7E6
:1034C000E0682169884290D1012000F017FE8CE766
:1034D000EC380020002004E098380020180000207C
:1034E000000C0140444300002DE9F04D1D460C4600
:1034F00098B0174621F0004123F00043002814BF84
:103500004FF0010C4FF0000C0CEB440CFE4A0CEB9E
:1035100002064FEA620C66452BD33E0018BF012617
:1035200006EB45061644F94A964222D3F84A53EA76
:10353000070C02D0944205D148B918B000201146BA
:10354000BDE8F08D002808BF4FF0000C01D04FF00F
:10355000010C0CEB440212F5001F0AD8002F14BF17
:103560004FF0010C4FF0000C0CEB450212F5001F60
:1035700007D918B03A462B462146BDE8F04DFFF773
:10358000C9BC0022DFF88CA3002CB8BF534526DA53
:10359000DFF884C36345A8BF022220DADFF870C3D6
:1035A0009C451CDCDFF874C30CEB235CBCF1140FEE
:1035B00008DDCCF1340627FA06FC0CFA06F6BE420A
:1035C0000DD108E05FB9CCF1140623FA06FC0CFA21
:1035D00006F69E4203D10CF00102C2F1020251EA4A
:1035E000000C19D1002D17DA002C18BF022A01D0C7
:1035F000012A07D00220FFF7B5FC18B0BDE8F04D56
:10360000FFF780BC0220FFF7ADFCFFF77BFC18B092
:1036100081F00041BDE8F08DB7F1000C6CD153454D
:1036200025D104F1804212F5801201BF002800204C
:10363000B74918B008BFBDE8F08DB548884207DC2F
:10364000002DA1BF6046294618B0BDE8F08D07E007
:10365000281E05DA80F0004118B06046BDE8F08D04
:10366000AF497944D1E9000118B0BDE8F08DDFF829
:10367000A0C2634525D1002D1FDA19B1514512D1E1
:10368000D8B909E0002840F0EC82A24A214618B0DF
:1036900062F31E01BDE8F08D0020214618B060F3F2
:1036A0001E01BDE8F08D08DA18B02346BDE8F04DE4
:1036B000024600206146FCF790BE18B02146BDE8E6
:1036C000F08D514518DAB5F1804F0DD0A5F1005CB1
:1036D000BCF1FF5C10D1B4F1000C0DDB18B06146F9
:1036E000BDE8F04D00F030BE234618B00246BDE8FC
:1036F000F04D1946FCF7FFBD060024F0004C3BD10D
:10370000D9B1514533D1002C06DD002DA1BF0020D9
:10371000514618B0BDE8F08D002C01DD002D1BDBFB
:10372000002C13DA002D11DB012A4FF0000014BF2A
:1037300078497C4918B0BDE8F08D022A18BF002CEA
:103740000AD0012A08D1002C06DA0AE0002CB8BF02
:10375000002D11DA012A04D0002018B00146BDE87E
:10376000F08D18B000204FF00041BDE8F08DA1F1C0
:103770004050B0F17F601AD0012000EBE47050EAB5
:10378000020421D0624C521E4FF0000B104304BFC4
:103790004FF0000B644C654883427CDD644A654809
:1037A00093421FDD884217DB002D25DB37E0002C1C
:1037B00000DA4AB1022A0CBF01204FF0FF3018B0E6
:1037C000BDE8F04DFCF78FBE0120FFF7CBFB18B032
:1037D000BDE8F04DFFF7A0BB4D4A8A4202DC002D48
:1037E0000ADC1CE0814202DA002D18DA04E0484BC2
:1037F000994220DD002D12DD0220FFF7B3FBFFF719
:1038000091FB05460E460022534658462146FCF7DA
:1038100072FD18B066F31E012846BDE8F08D022047
:10382000FFF7A0FBFFF786FB0A46214618B062F3BC
:103830001E01BDE8F08D002230466146FCF755FDC3
:1038400080460E466FF00102FCF736FE4FF055320F
:10385000394BFCF74DFD42463346FCF74CFD002248
:10386000364BFCF745FD82464246334604911046EE
:103870001946FCF740FD5246049BFCF73CFD8A4686
:1038800000904FF0C0422E4B40463146FCF733FDCE
:103890002C4A2B4B00E027E0CDE906015146009869
:1038A000FCF729FD82460191274A284B40463146C4
:1038B000FCF721FD5246019BFCF717FD82460B46A3
:1038C00002460591DDE90601FCF76EFCDDE9062301
:1038D000002688463046FCF708FD5246059BFCF75B
:1038E00007FD024600F07EB90020B1F5801F07DA1F
:1038F000352230466146FCF7DFFD06466FF03400A6
:1039000000EB215024E00000FFFF1F00FFFF0F002D
:103910000000F03F0000F07F0000404301FCFFFF8B
:10392000FA1500000000F0FF0000F0BF0000E041C9
:103930000000F043FFFFEF3F5555D53F0000E03F4B
:103940004715F73FFE822B6544DF5DF80BAE543E12
:10395000A0F2FF300190C1F3130040F07F6141F00D
:1039600040510291FE498842D8BF002004DDFD4944
:103970008142C8BF012001DD0D9008E000200D90BC
:103980000198401C01900298A0F5801002900299C5
:10399000F54878440B910D9900EBC100D0E9002364
:1039A0000F9330460A920B99FCF79FFCCDE9060174
:1039B000DDE90A2130460F9BFCF7F6FB02460B4679
:1039C0000020EA49FCF709FD059102460B460090EC
:1039D000DDE90601FCF78FFC1490E5488A464FF0BC
:1039E000000878440299006812904FF0005040EAB5
:1039F00061010D980F9B01EB804000F500210991BA
:103A00000A9A1298FCF771FC32460B9BFCF770FC8B
:103A100042465346FCF76FFC06460291404651462B
:103A2000099B129AFCF767FCDDE90623FCF760FCB2
:103A30003246029BFCF759FC059B009AFCF75BFCA5
:103A40000091149A0490534610461946FCF753FC13
:103A500006460246C7480B46029106217844FFF706
:103A6000FCF9CDE90510029B324610461946FCF7D9
:103A700042FCDDE90532FCF73EFC05910646534663
:103A800040461946149AFCF78FFB009B049AFCF7FA
:103A900032FC3246059BFCF787FBCDE90510424618
:103AA000534610461946FCF726FC0022B24B029101
:103AB0000A90FCF779FBDDE90532FCF775FB0E4651
:103AC0004246AD4B4046FCF710FC029B0A9AFCF7BD
:103AD0000CFCDDE90532FCF70BFC424602910A9032
:103AE000334610465146FCF706FCCDE90601534625
:103AF000149A02990A98FCF7FEFB8A460290334614
:103B0000424600990498FCF7F6FB5346029AFCF7EC
:103B10004BFB82460B4602460591DDE90601FCF7A8
:103B200043FBDDE90623002088460646FCF7DDFB63
:103B30005246059BFCF7DCFB824609914FF0604240
:103B40008E4B30464146FCF7D6FB049006918C4ADA
:103B50008A4B50460999FCF7CEFB82460291894A6E
:103B6000894B30464146FCF7C6FB5246029BFCF7A8
:103B70001BFB864B7B440D9A03EBC203D3E9002366
:103B8000FCF712FB0E9007910198FCF7ACFC059135
:103B9000DDE9061382460E9A0498FCF705FB7C4A81
:103BA0007A440D9B02EBC303D3E9002300930292F6
:103BB000FCF7FAFA5246059BFCF7F6FA002688460F
:103BC00052463046059BFCF790FB009B029AFCF79F
:103BD0008CFB069B049AFCF788FB079B0E9AFCF76C
:103BE00087FB024600200B46029038462946FCF728
:103BF00082FB824601912B4638461946029AFCF711
:103C000074FB32464346FCF776FB5246019BFCF7B9
:103C1000CBFA07468A463246434629460298FCF7C5
:103C20006AFB05460E463A465346FCF7BDFA594A2A
:103C30008846914221DBA8EB020353EA000210D12F
:103C40002A463346FCF751FBCDE90401524A534B57
:103C500038465146FCF7A8FADDE90423FCF78CFC52
:103C600021D20220FFF77EF9FFF75CF90A462146D0
:103C700018B062F31E01BDE8F08D494B28F00042F8
:103C80009A4210D3474A08EB020353EA00027FF43A
:103C9000C6AD2A463346FCF728FB3A465346FCF7A6
:103CA0006BFC7FF6BCAD0022019228F000403E493B
:103CB0003E4A01EB2051824223DA481C4FF4801126
:103CC00021FA00F040443A4AC0F30A517A44394B91
:103CD000A1F2FF31CB4020EA0303C0F3130040F40C
:103CE0008010C1F11401C84012680190B8F1000FB2
:103CF000BCBF4042019028463146FCF7F6FA054623
:103D00000E462A46334638465146FCF74DFA4FF0E8
:103D100000084246284B40460591FCF7ECFACDE9F5
:103D20000601264A264B40460599FCF7E4FA009125
:103D300002902A46334640460599FCF7D6FA3A46A1
:103D40005346FCF7D5FA1F4A1F4BFCF7D4FA009BE9
:103D5000029AFCF729FA0746884602460B4635E0E8
:103D60008E9803007AB60B00421200000000F03F6C
:103D70007A120000A81100000000084009C7EE3FB9
:103D8000FD033ADCF5015B14E02F3EBE801000001D
:103D90004410000000009040FE822B654715973CC0
:103DA00000CC904000346F3F01FCFFFF0000E03F7B
:103DB000900F0000FFFF0F00432EE63F396CA80C68
:103DC000615C20BEEF39FAFE422EE63FDDE90601D6
:103DD000FCF7EAF9DDE9062305460E46FCF785FA0D
:103DE0003A464346FCF784FA0F462A46334600908B
:103DF00010461946FCF77FFA824602462E4888464E
:103E00000B4605217844FFF728F852464346FCF755
:103E100072FA2A463346FCF76BFA80468A463B46DE
:103E200028463146009AFCF766FA3B46009AFCF7B2
:103E3000BBF90691009000224FF080434046514666
:103E4000FCF753FA0F460C9042465346284631463B
:103E5000FCF751FA3B460C9AFCF7BFFA069B009A16
:103E6000FCF743FA2A463346FCF73FFA0022134B8D
:103E7000FCF73EFA054601980E4601EB0051081585
:103E8000002810DC28463146019AFCF715FBFEF7A6
:103E9000D0FF042808BFFFF74DF828463146019AA5
:103EA000FCF70AFB05460B4618B02A465846214641
:103EB000BDE8F04DFCF71FBA300E00000000F03FE7
:103EC0002DE9F34F244A044697B007CA04AB0025F6
:103ED00083E80700601C0990A01C0890E01C079074
:103EE000201D0F90601D0E90A01D0D9004A8DDF800
:103EF000348050F82500225C9109C2F34013C2F3CC
:103F0000001BC2F3C00AC2F38009099A019310F89A
:103F100002C0089A875C079A865C0F9A835C0E9AA7
:103F2000825C10F8080047EA0C2843EA062740EABA
:103F300002261898FFF7BCF8019BCDE90038CDE9BF
:103F400002764B465246594600F008F96D1C032D87
:103F5000CCD319B0BDE8F08FB04B000810B5254C9C
:103F6000012807D0022818D003282CD0BDE8104023
:103F7000FCF728BC012901D011B106E0012200E0C4
:103F8000002201212046FCF778FD01220221204673
:103F9000FCF773FD0022022127E04FF400400129C5
:103FA00001D011B106E0012200E0002201462046C6
:103FB000FCF763FD104C012208212046FCF75DFD53
:103FC0000022082111E0012901D011B106E00122EF
:103FD00000E0002240212046FCF74FFD0122802115
:103FE0002046FCF74AFD002280212046BDE8104013
:103FF000FCF743BD00080140000C014001290AD034
:10400000022913D003290DD10068012AC16817D0F5
:1040100021F0080105E00068012AC16803D021F001
:104020000201C160704741F00201FAE70068012A0D
:10403000C16802D021F00401F3E741F00401F0E788
:1040400041F00801EDE70000074A012805D00228E9
:1040500005D0032805D0FCF7B5BBD180704711818E
:10406000704751817047000000000020014A505401
:104070007047000001000020034BC1EBC10103EBBE
:104080008101885470470000E80100202DE9F041CB
:10409000074614A1FCF77AF84FF48046124C7500DD
:1040A000A8B112A13846FCF771F890B111A13846B9
:1040B000FCF76CF878B1002231462046FCF7DDFCB5
:1040C000002229462046BDE8F041FCF7D6BC01227B
:1040D000F2E7002200E0012231462046FCF7CDFC49
:1040E0000122EEE752454400000C0140475245458D
:1040F0004E0000004F52414E4745000010B5104C95
:10410000012807D003280AD0022810D120780328DC
:104110000ED010E00BA0FFF7B9FF012006E00B481E
:10412000FDF74AFC0AA0FFF7B1FF0320207010BD85
:104130000648FDF735FC08A0FFF7A8FF0220F5E7C9
:1041400000000020475245454E000000EC3800209A
:104150004F52414E47450000524544002DE9FF4F64
:1041600083B00546DDE912A6DDE910B7103050A195
:104170008046FCF70BF828B14EA14046FCF706F844
:10418000D0B11BE0286F97FBF0F100FB1173A96C15
:104190001C1A91FBF0F200FB1212981AA4EB020415
:1041A00001D4024600E04242231E00DA63429A42F2
:1041B00000DC04460F1901E0A86C3C1ACAF10000AB
:1041C000002C02DBD046012102E07642804600212D
:1041D00089460699012909D1AF6CD946BBF1010F77
:1041E00008D080466FF063044646643F0599012974
:1041F00005D00BE06424D04646466437F6E7A96C48
:1042000080464FF04047C1F140444646F4B3600059
:10421000FCF769F9CDE900014046FCF764F900229A
:104220004FF08043FFF760F982468B463046FCF73B
:104230005AF900224FF08043FFF756F952465B4689
:10424000FCF753F8DDE90023FCF7C7F88246049831
:10425000E861059828620698C5E909098B46224657
:1042600031464046FEF784FEC5E90C0100212C646E
:10427000C5E90E11A86C6864C5E913784046FCF7DF
:1042800032F905F1580282E8430000E00CE0C5E98C
:104290001AABFEF793FEFCF737F9002800DA40422C
:1042A000686707B0BDE8F08F00200146CEE7000048
:1042B000524F54004E4F524D0000000070B504465E
:1042C000D4E91A01D4E90E23FCF715F806460D4689
:1042D000206DFCF708F932462B46FBF765FFC4E971
:1042E000160102460B4600200449FCF776F8FCF75D
:1042F0000BF9002800DA4042606770BD80842E41CF
:1043000030B403460C4690B2012904D0022C05D0EB
:10431000032C08D105E01968486304E01968886334
:1043200001E01968C863204630BC110CFFF78CBE51
:1043300000688AB24262080CAFF3008001498880AD
:1043400070470000000000202DE9F04106460F46AE
:10435000FCF7BAF9041E0D4618BF0120284320F0CF
:104360000040C0F17F6000F1E040C00F0ED0301C73
:1043700018BF0120384320F00040C0F17F6000F1F9
:10438000E040C00F04BF0120FEF7ECFD20462946A7
:10439000BDE8F08170B50446C06CD4E908212E4E0A
:1043A000A569012A06D001290ED0A16C401A1FD49C
:1043B00001461EE02846FEF789FF01281DD1A064B2
:1043C0000020E064206218E0A16A012906D00029DB
:1043D00041D1A16C401A401C07D00EE0A16C401ADC
:1043E000012823D16531E16420E06539E16404E00E
:1043F000414290FBF1F0012818D0A06C401EA0644F
:10440000606FFCF770F800223346FBF7E6FFD4E953
:104410000E23FBF7C9FEC4E90E012046FFF74EFF4D
:1044200000212846BDE87040FFF798BDA06C401CF5
:10443000A064606FFCF757F800223346FBF7CDFF0E
:10444000D4E90E23FBF7B0FEC4E90E012046FFF7C6
:1044500035FF0121E5E770BD80842E4110B504468B
:10446000FDF7AAFA00212046FDF7AEFC0421204604
:10447000FDF7AAFC08212046FDF7A6FC2046BDE872
:1044800010400021FFF754BF2DE9F0410E460746CA
:104490000025691C3046FEF70BFE0446C06917A1D3
:1044A000012804F10B0003D0FBF770FE90B11FE070
:1044B000FBF76CFEE0B90121A069FEF795FD3846D7
:1044C000626FA169FFF71CFF01223846A169FFF75F
:1044D00095FD0DE000223846A169FFF78FFD00220F
:1044E0003846A169FFF70CFF0021A069FEF77CFDAB
:1044F0006D1C032DCDD3BDE8F08100005354455011
:104500000000000070B50124002521460B48FEF78D
:10451000CFFD816C641C4562C164042CF5DB002175
:104520000120FEF761FD00210220FEF75DFDBDE8E0
:10453000704000210320FEF757BD00001800002046
:104540002DE9F04105460E460846FEF7C7FD044634
:1045500001462846FEF7DCFD07463046FEF7C0FD63
:10456000C21921462846BDE8F041FFF7C9BE000048
:1045700048616E646C65720000000000010000007C
:104580005261696C206D6F746F7200535445500016
:104590004E4F524D000000000100000000000000DE
:1045A000000000000000000001000000000000000A
:1045B00000000000000000000000000000000000FB
:1045C00000000000000000000000000000000000EB
:1045D00000000000000000000000000000000000DB
:1045E00000000000000000000000000000000000CB
:1045F00002000000000000000100000000000000B8
:104600005370696E206D6F746F7200535445500083
:10461000524F5400000000000200000000000000A3
:104620000000000000000000010000000000000089
:10463000000000000000000000000000000000007A
:10464000000000000000000000000000000000006A
:10465000000000000000000000000000000000005A
:10466000000000000000000000000000000000004A
:104670000200000000000000010000000000000037
:10468000466C6970206D6F746F7200535445500012
:104690004E4F524D000000000300000000000000DB
:1046A0000000000000000000010000000000000009
:1046B00000000000000000000000000000000000FA
:1046C00000000000000000000000000000000000EA
:1046D00000000000000000000000000000000000DA
:1046E00000000000000000000000000000000000CA
:1046F00002000000000000000100000000000000B7
:104700004472696C6C0000000000000001000000B1
:1047100050656E206D6F746F7200005354455000E9
:104720004E4F524D0000000001000000000000004C
:104730000000000000000000010000000000000078
:104740000000000000000000000000000000000069
:104750000000000000000000000000000000000059
:104760000000000000000000000000000000000049
:104770000000000000000000000000000000000039
:104780000200000000000000010000000000000026
:104790005370696E206D6F746F72004443000000A7
:1047A0004E4F524D000000000200000000000000CB
:1047B00000000000000000000100000000000000F8
:1047C00000000000000000000000000000000000E9
:1047D00000000000000000000000000000000000D9
:1047E00000000000000000000000000000000000C9
:1047F00000000000000000000000000000000000B9
:1048000002000000000000000100000000000000A5
:1048100056657274206D6F746F720053544550006A
:104820004E4F524D00000000030000000000000049
:104830000000000000000000010000000000000077
:104840000000000000000000000000000000000068
:104850000000000000000000000000000000000058
:104860000000000000000000000000000000000048
:104870000000000000000000000000000000000038
:104880000200000000000000010000000000000025
:104890004D696C6C00000000000000000100000089
:1048A00050656E206D6F746F720000535445500058
:1048B0004E4F524D000000000100000000000000BB
:1048C00000000000000000000100000000000000E7
:1048D00000000000000000000000000000000000D8
:1048E00000000000000000000000000000000000C8
:1048F00000000000000000000000000000000000B8
:1049000000000000000000000000000000000000A7
:104910000200000000000000010000000000000094
:104920005370696E206D6F746F7200444300000015
:104930004E4F524D00000000020000000000000039
:104940000000000000000000010000000000000066
:104950000000000000000000000000000000000057
:104960000000000000000000000000000000000047
:104970000000000000000000000000000000000037
:104980000000000000000000000000000000000027
:104990000200000000000000010000000000000014
:1049A00056657274206D6F746F72005354455000D9
:1049B0004E4F524D000000000300000000000000B8
:1049C00000000000000000000100000000000000E6
:1049D00000000000000000000000000000000000D7
:1049E00000000000000000000000000000000000C7
:1049F00000000000000000000000000000000000B7
:104A000000000000000000000000000000000000A6
:104A10000200000000000000010000000000000093
:104A20004C61746865000000000000000100000097
:104A300050656E206D6F746F7200005354455000C6
:104A40004E4F524D00000000010000000000000029
:104A50000000000000000000010000000000000055
:104A60000000000000000000000000000000000046
:104A70000000000000000000000000000000000036
:104A80000000000000000000000000000000000026
:104A90000000000000000000000000000000000016
:104AA0000200000000000000010000000000000003
:104AB0005370696E206D6F746F72005354455000CF
:104AC000524F5400000000000200000000000000EF
:104AD00000000000000000000100000000000000D5
:104AE00000000000000000000000000000000000C6
:104AF00000000000000000000000000000000000B6
:104B000000000000000000000000000000000000A5
:104B10000000000000000000000000000000000095
:104B20000200000000000000010000000000000082
:104B300056657274206D6F746F7200535445500047
:104B40004E4F524D00000000030000000000000026
:104B50000000000000000000010000000000000054
:104B60000000000000000000000000000000000045
:104B70000000000000000000000000000000000035
:104B80000000000000000000000000000000000025
:104B90000000000000000000000000000000000015
:104BA0000200000000000000010000000000000002
:104BB00000000000070000000E00000000000000E0
:104BC00000000000010203040607080900000000BD
:104BD0000102030400000000000000000000F03F9C
:104BE000000000000000F83F00000000000000008E
:104BF0000000004003B8E23F000000000000000099
:104C000006D0CF43EBFD4C3E033333333333E33F26
:104C1000FFAB6FDBB66DDB3F4D268F515555D53F52
:104C200001411DA96074D13F65DBC9934A86CD3F20
:104C3000EF4E454A287ECA3F3E5555555555C53F0E
:104C400093BDBE166CC166BF2CDE25AF6A56113F00
:104C5000F16BD2C541BDBBBED0A4BE726937663E02
:104C60000000000000000000884C00080000002048
:104C7000BC0100006A070008D84C0008BC010020F5
:104C8000B43B0000542F00080118854D696C6C324C
:104C900001200A50656E206D6F746F721553544574
:104CA000506D4E4F524D1CC1E9100138DAC8506C9E
:104CB0005370698133444369800A6502805D56659B
:104CC0007274807D53544550800A650380290882A0
:084CD0001044A24A0400000098
:04000005080000ED02
:00000001FF
