:020000040800F2
:10000000C03B002001010008FB290008751F000803
:10001000F9290008C1070008812E0008000000002F
:100020000000000000000000000000001F2A00087F
:10003000C3070008000000001D2A0008212A00084C
:100040001B0100081B0100081B0100081B01000820
:100050001B0100081B0100081B0100081B01000810
:100060001B0100081B0100081B0100081B01000800
:100070001B0100081B0100081B0100081B010008F0
:100080001B0100081B0100081B0100081B010008E0
:100090001B0100081B0100081B0100081B010008D0
:1000A0001B010008D12A00081B010008C52A00080E
:1000B0001B0100081B0100081B010008851F000828
:1000C000791F00081B0100081B0100081B01000824
:1000D0001B0100081B0100081B0100081B01000890
:1000E0001B0100081B0100081B010008DFF80CD0F1
:1000F00000F0D8FA0048004791330008C03B0020C8
:100100000648804706480047FEE7FEE7FEE7FEE7B1
:10011000FEE7FEE7FEE7FEE7FEE7FEE77D2A0008D2
:10012000ED000008202A04DB203A21FA02F0002129
:10013000704721FA02F3D040C2F1200291400843F7
:100140001946704740EA01039B0703D009E008C93C
:10015000121F08C0042AFAD203E011F8013B00F88C
:10016000013B521EF9D27047D2B201E000F8012BD8
:10017000491EFBD270470022F6E710B513460A4627
:1001800004461946FFF7F0FF204610BD10B50022C7
:1001900000E0521C835C8C5CA34201D1002BF8D19F
:1001A000D8B2E1B2401A10BD2DE9FE4F804681EA77
:1001B0000300C00F0C46009021F0004123F00045E1
:1001C000B8EB0200A94105D24046214690461C46A4
:1001D0000B46024623F00040104347D0270DC7F3DB
:1001E0000A00C3F30A510290401A019040286BDACA
:1001F000C3F3130040F4801B0098924620B1002303
:10020000D2EB030A63EB0B0B01985946C0F1400295
:10021000504600F0C9F906460D4650465946019A27
:1002200000F0D1F910EB08006141002487EA115277
:1002300084EAE7731A4340D0009A62B3019A012A14
:100240004FEA075215DC001B61EB02014FF0004240
:1002500002EA0752CDE90042001C41F58011324606
:100260002B4600F0D1F903B0BDE8F08F404621469F
:10027000F9E7001B61EB0201001C41F58013001837
:100280005B412018A2F5001747EB030140EAD57047
:10029000B6196D4111E06D084FEA360645EAC075A2
:1002A0004FEA0752001B61EB0201001C41F580116F
:1002B00049084FEA30000019514132462B4603B03D
:1002C000BDE8F04F00F091B90098012240000023F2
:1002D000D0EB020263EBE073009821464FEAE07432
:1002E000B8EB000061EB0401E9E783F000435BE752
:1002F00081F0004158E72DE9FE4F81EA030404F044
:10030000004421F0004100944FF0000B23F0004323
:1003100050EA01045ED052EA03045BD0C3F30A54EE
:10032000C1F30A552C44A4F2F3340194A0FB025407
:10033000C1F3130141F48011C3F3130343F4801399
:1003400001FB024400FB034E840A970A44EA8154ED
:1003500047EA8357A4FB076802958D0A05FB0785CA
:100360004FEA932C04FB0C542705029D4FEA0658D4
:1003700047EA1637B5EB08056EEB070C870E920EB1
:1003800047EA811742EA8312A7FB0201B6EB0B0191
:1003900064EB00042B0D43EA0C335E1844EB1C5055
:1003A000DA465146E7FB0201C5F313044FEA0B336B
:1003B00043EA14534FEA0432019C43EA0603A4F1D2
:1003C0000C040294009CCDE900B400F01DF903B0C8
:1003D000BDE8F08F00200146F9E72DE9F04D81EAF4
:1003E000030404F0004B21F0004514464FF0000ACE
:1003F00023F0004150EA050220D054EA01021DD04A
:10040000C5F30A570246C5F31303C1F31300C1F342
:100410000A5640F4801543F48013A7EB0608101B1E
:10042000D64608F2FD3873EB050002D308F1010847
:1004300001E092185B41B8F1000F03DA0020014699
:10044000BDE8F08D00204FF48011064684460EE092
:10045000171B73EB050705D3121B63EB050306435C
:100460004CEA010C49084FEA300092185B4150EA0F
:100470000107EDD152EA030012D082EA040083EAB8
:100480000501084305D0101BAB4106D20122002311
:1004900006E000224FF0004302E06FF0010253102B
:1004A0001AEB06004CEB085110EB0A0041EB0B0174
:1004B000BDE8F04D00F099B870B521F0004303435A
:1004C0000CD0C1F30A550024D5EB040564EB0403FA
:1004D000D617AD1AB34102DB0020014670BD2018CB
:1004E00041EB025170BD0EB5C10F80EAE0700844C7
:1004F000CA07002140F233438DE80E000A460B463E
:1005000000F082F803B000BD70B5C1F30A5201F0EB
:1005100000450024C1F3130140F2FF3341F4801180
:100520009A4201DA002070BD40F233439A42A2F2AF
:10053000334203DC5242FFF7F5FD00E090402C43CC
:10054000F1D0404270BD000030B5041E71F10004CE
:1005500004DB4FF00044404264EB0101141E73F1D0
:10056000000405DB1C464FF00043524263EB0403DA
:100570008B4208BF824230BD30B5041E71F10004C9
:1005800004DB4FF00044404264EB0101141E73F1A0
:10059000000405DB1C464FF00043524263EB0403AA
:1005A000994208BF904230BD202A04DB203A00FA6D
:1005B00002F1002070479140C2F1200320FA03F3BA
:1005C000194390407047202A06DBCB17203A41FAA6
:1005D00002F043EAE07306E041FA02F3D040C2F1D0
:1005E0002002914008431946704710B5141E73F15C
:1005F000000408DA401C41F1000192185B411A43E3
:1006000001D120F0010010BD2DE9F04D92469B462E
:1006100011B1B1FA81F202E0B0FA80F220329046D4
:10062000FFF7C2FF04460F4640EA0A0041EA0B0109
:1006300053465A46084313D0114653EA010019D0D5
:10064000C8F140025046FFF76DFD05460E46504684
:1006500059464246FFF7A8FF084305D0012004E0B1
:1006600020463946BDE8F08D0020054346EAE07695
:100670002C4337430A986305E40AA0EB08000022E4
:10068000FD0A44EA47540A3002D500200146E9E752
:10069000010510196941DDE9084500196941BDE806
:1006A000F04DA2E7064C074D06E0E06840F001037C
:1006B00094E8070098471034AC42F6D3FFF71AFDD0
:1006C000D04C0008F04C00082DE9F04D00231A46EC
:1006D0001B1A8A4103DB00200146BDE8F08DC1F3FF
:1006E0000A52C1F3130141F480154FF0000BD107FA
:1006F00002D100186D41521E0027044640F2FF113E
:10070000384601EB620A3E468046024600204FF41E
:100710008011FFF707FDC2197141BB1846EB0100BC
:10072000B4EB030C75EB000C04D3E41A65EB000585
:1007300017460E46241908F101006D418046342801
:10074000E3DDF91946EB0600091BA84103D24FF07F
:10075000FF32134601E0002213461BEB070046EB75
:100760000A51BDE8F04DFFF740BF70B58C1810F886
:10077000015B15F0070301D110F8013B2A1106D1E6
:1007800010F8012B03E010F8016B01F8016B5B1E00
:10079000F9D12B0705D40023521E0DD401F8013BDB
:1007A000FAE710F8013BCB1A921C03E013F8015B47
:1007B00001F8015B521EF9D5A142D8D3002070BDCB
:1007C000FEE7704710B54FF40051044800F051F9AE
:1007D000BDE810404FF47A7000F056B800100140A8
:1007E000002201E000F8012B491E89B2FAD27047BD
:1007F00010B590F821100024022903D00421816350
:1008000001243DE001680A6822F00E020A600168D6
:100810000A6822F001020A601A4A0168914201D175
:10082000012121E0174A1432914201D110211BE02D
:10083000144A2832914201D1891515E0114A3C32FF
:10084000914201D189140FE00E4A5032914202D1F7
:100850004FF4803108E00B4A6432914202D14FF4E8
:10086000801101E04FF08071064A083A5160012181
:1008700080F82110002180F82010416B01B18847D9
:10088000204610BD0800024070B5044600F0FAF89A
:100890000546601C02D004480078044400F0F2F8D9
:1008A000401BA042FAD370BDA80100202DE9F84FEB
:1008B000DFF890A100220AF1040B144601274FF043
:1008C0000F090BF1040E00BF0B6807FA04F52B406B
:1008D000AB4274D1DFF870C14E68A6EB0C086645D8
:1008E0002BD00DDC032E34D005DC36B3012E19D00D
:1008F000022E2FD11BE0112E16D0122E2AD119E074
:10090000B8F5881F19D006DCB8F5803F15D0B8F5CA
:10091000801F1FD111E0B8F5001F0ED0B8F5041FDD
:1009200018D10AE0CA6815E0CA68121D12E0CA6848
:1009300008320FE0CA680C320CE08A682AB1012A3A
:100940004FF0080203D0456104E0042202E0056193
:1009500000E00022FF2B01D8064601E000F104066A
:100960004FEA840501D9A5F12005D6F800C009FA9F
:1009700005F82CEA080C02FA05F54CEA050CC6F855
:1009800000C04D68ED0057D5304DAE6946F0010608
:10099000AE61AD6924F0030605F0010500952C4D0C
:1009A00006EB050CDCF80850A6074FEA167809FAA2
:1009B00008F6B543274EB04202D1002610E03BE0D6
:1009C000254EB04201D101260AE0244EB04201D1A9
:1009D000022605E0224EB04201D1032600E00426A3
:1009E00006FA08F62E43CCF808604D68DAF8006085
:1009F000ED03554601D51E4300E09E432E604D6831
:100A0000DBF80060AD035D4601D51E4300E09E4368
:100A10002E604D68DEF80060ED02754601D51E437C
:100A200000E09E432E604D68AD020E4D2E6801D54C
:100A30001E4300E09E432E60641C102CFFF444AF64
:100A4000BDE8F88F000401400000111000100240C2
:100A50000000014000080140000C0140001001406E
:100A6000001401400C0401408068084000D00120BF
:100A70007047C2684A40C26070470AB1016170475E
:100A80000904FBE70148806870470000A8010020C6
:100A90007047000038B50446A9B102F011FB0146C9
:100AA00001231C22204600F063FB08B1FFF78AFEF9
:100AB0002068416980690090BDE8384001225103F7
:100AC0000548FFF7DABF02F001FB014608230222C6
:100AD000204600F086FBE8E70010014070B50446B0
:100AE00000684569466830490D420DD0F1050BD5C7
:100AF000216C41F0010121646FF480714161206833
:100B0000016841F40041016015F4813F09D0F0050E
:100B100007D5206C40F00200206421686FF400705B
:100B2000486115F4823F28D0F00526D594F83E3070
:100B3000628D94F83D00216B202B08D13AB9212811
:100B40000ED029280CD0282801D1212908D0206CCA
:100B500040F00400206494F83E00102804D008E01F
:100B6000204601F04FFD08E02068016841F4007163
:100B7000016021686FF48060486115F4843F09D0FA
:100B8000F00507D5206C40F00800206421686FF460
:100B900000604861206C002804D02046BDE8704009
:100BA00001F01EBA70BD0000000101002DE9F05FE8
:100BB00002680446D2F818805569566890F83E00DD
:100BC0007A49DFF8E8A1DFF8E4B1DFF8E4918F1C9F
:100BD0000AF17E0A0BF13E0B102812D0402810D0EB
:100BE0000D425BD0B00559D5936920460021DB4307
:100BF0005B0700D501219269D243120648D582894C
:100C000047E015F0011F05D0B00503D5204601F0DF
:100C100086FC10E06548801D054205D0B00503D56F
:100C2000606CC0B2106106E00D4204D0B00502D580
:100C3000204601F0E7FB18EA090F14D015EA0A0F65
:100C400008D0700506D53D4206D12046BDE8F05FCC
:100C500001F054BB3D421FD0B0051DD52046BDE874
:100C6000F05F01F00ABB15EA0B0F08D0700506D53E
:100C70003D4206D12046BDE8F05F01F0A7BA3D42F3
:100C80000AD0B00508D52046BDE8F05F01F03ABAB9
:100C9000028B92B2FFF7FEFEBDE8F09F43480E3094
:100CA000054206D0B00504D52046BDE8F05F01F04E
:100CB000EBBC18EA090F4FF0280837D015EA0A0FE5
:100CC00023D0700521D53D4221D194F83D20204606
:100CD000618D0029E0D0416A4B1C436203680978AA
:100CE0001961418D491E4185418D0029D4D1292AA0
:100CF000D2D101684A6822F480624A6021210163EE
:100D000080F83D8000F02CFAC6E73D42C4D0B00523
:100D1000C2D5608D0028BFD0606A411C6162216825
:100D200000780861608D401E6085B5E715EA0B0FFD
:100D300008D0700506D53D4206D12046BDE8F05FDB
:100D400001F01ABC3D42A7D0B005A5D594F83D509E
:100D5000608D0028A0D01169606A421C6262017037
:100D6000608D401E608502F0ABF90078618D1B2913
:100D700092D12A2D90D10A280BD0042809D0052819
:100D800007D0062805D0072803D0082801D0092855
:100D900082D12068416821F4806141602220206373
:100DA00084F83D80204600F051F975E7020001000B
:100DB0000400100090F83D10202901D00220704757
:100DC000282180F83D1001680A68D20703D10A681B
:100DD00042F001020A6001680A6842F480620A6017
:100DE0000068416841F440714160002070477047DD
:100DF00070B504001BD094F83D00002520B984F89C
:100E00003C50204600F0EAF8242084F83D00206899
:100E1000016821F00101016000F06CFB404A61684B
:100E2000914201D83F4900E03F49884201D2012068
:100E300070BD3E492368B0FBF1F15960636893428D
:100E400006D94FF4967359434FF47A73B1FBF3F11B
:100E50002368491C19626168914210D84900401EFC
:100E6000B0FBF1F2521CC2F30B02042A01D204209F
:100E700022E0B0FBF1F0401CC0F30B001CE0A368C3
:100E8000CBB301EBC10202EB0116421EB2FBF6F23C
:100E9000521C42F48042120536D06BB301EBC10202
:100EA00002EB0111401EB0FBF1F0401CC0F30B003F
:100EB00040F4804040F400402168C861D4E9070153
:100EC000084321680860D4E903100843216888605A
:100ED000D4E9050108432168C8602068016841F031
:100EE000010101602564202084F83D00256384F819
:100EF0003E50002070BD00E008E001EB4106421EBC
:100F0000B2FBF6F2521CC6E70120D5E701EB410126
:100F1000401EB0FBF1F0401CC0F30B00CAE700001C
:100F2000A086010080841E0000093D0040420F00A1
:100F300070B5FFF73FFF08B1FFF744FC02F0C0F8BF
:100F4000007878B102F0BCF80078012820D002F0D7
:100F5000B7F8007802281DD002F0B2F80078032814
:100F60001CD01DE000240BE002F0B6F8054602F0AC
:100F7000A7F8204422464078294603F0BBF8641CB9
:100F800002F0A2F8401EA042EEDC02F007F907E0F2
:100F9000022000E0032003F0EFF801E003F0E6FA9E
:100FA00000224FF400510A48FFF767FD02F08CF869
:100FB00084B202F085F82146FFF712FC02F08AF8AD
:100FC00084B202F083F82146BDE87040FFF708BC08
:100FD00000100140704770477047704710B586B0E9
:100FE0000021009101910291039100681349884208
:100FF00022D1134CA06940F00800A061A0696946A5
:1010000000F0080004904FF440700090122001900E
:10101000032003900B48FFF749FC0B48416841F05F
:10102000E06141F002014160E06940F40010E061DC
:10103000E06900F40010049006B010BD00540040B8
:1010400000100240000C01400000014010B502F009
:1010500037F80078001F07281ED2DFE800F00B24C5
:101060003847566504000021084603F03DF802F0B9
:1010700043F80EE00121384802F044F802F051F83C
:10108000FFF742FAC0F30720002103F02DF80121F9
:1010900017E0012103F028F80122BDE810405103B8
:1010A0002E48FFF7EABC02212B4802F02BF802F091
:1010B00038F8FFF729FAC0F30720002103F014F8ED
:1010C0000221254802F01EF802F02BF83FE0032130
:1010D000214802F017F802F024F8FFF715FAC0F3E0
:1010E0000720002103F000F80321EAE701211A4854
:1010F00002F008F802F019F8FFF706FAC0F307202B
:10110000002102F0F1FF01211CE00221124801F050
:10111000F9FF02F00AF8FFF7F7F9C0F30720002102
:1011200002F0E2FF02210DE003210B4801F0EAFF8B
:1011300001F0FBFFFFF7E8F9C0F30720002102F000
:10114000D3FF0321044801F0DDFF01F0EEFFFFF7BC
:10115000DBF9C0B29DE7000018000020001001403C
:1011600000224FF400510148FFF787BC00100140F6
:1011700038B590F83D40282C31D161B15AB190F882
:101180003C40012C2BD0012480F83C4004682568A9
:10119000ED0702D005E0012038BD256845F00105C6
:1011A00025600468256825F4006525602A2480F8F8
:1011B0003D40202480F83E40002404644162428582
:1011C000C362418D018501684A698A69009280F88D
:1011D0003C40486840F4E0604860204638BD02204A
:1011E00038BD38B590F83D40282C31D161B15AB1A5
:1011F00090F83C40012C2BD0012480F83C4004683E
:101200002568ED0702D005E0012038BD256845F0CE
:10121000010525600468256825F4006525602924FA
:1012200080F83D40202480F83E4000240464416260
:101230004285C362418D018501684A698A690092CD
:1012400080F83C40486840F4E0604860204638BD83
:10125000022038BD024881680278114481607047DD
:10126000A8010020074810B5016841F01001016095
:10127000032000F077F8002000F006F800F024F8D2
:10128000002010BD0020024070B50D4D04464FF403
:101290007A712878B1FBF0F00A490968B1FBF0F0E7
:1012A00000F000FB48B9102C07D200222146501E46
:1012B00000F038F800206C6070BD012070BD0000A7
:1012C000A8010020B40100200E4808B5816941F052
:1012D00001018161816901F001010091C16941F061
:1012E0008051C161C06900F080500090052000F07D
:1012F00039F80548416821F0E06141F00071416032
:1013000008BD0000001002400000014000F01F0274
:10131000012191404009800000F1E020C0F8001157
:1013200070470000F0B40E4B1B680C46C3F3022359
:10133000C3F10705042D00D90425191D072901D281
:10134000002300E0DB1E012606FA05F1491E2140BC
:1013500099409E40761E16403143F0BC01F04EBBD2
:101360000CED00E0064900F0070208684FF6FF03A5
:10137000184040EA0220034A10430860704700000A
:101380000CED00E00000FA052DE9F047DFF854818C
:1013900005460E46D8F8000000F00700B0420CD217
:1013A000D8F8001021F007013143C8F80010D8F830
:1013B000000000F00700B0426FD128684A4C810756
:1013C00012D5400703D5606840F4E060606028787B
:1013D000000703D5606840F4605060606068A968E9
:1013E00020F0F000084360602878C00744D06868A7
:1013F000012816D02168022816D0890700294CDA66
:10140000616821F0030101436160FFF73BFB6968FC
:10141000074641F2883001290ED00229814618D0B2
:1014200026E021688903E9E78901E7E7FFF72AFB5E
:10143000C11B494501D918E081466068C0F38100AD
:101440000128F3D118E000BFFFF71CFBC11B494581
:101450000BD86068C0F381000228F5D10CE000BF12
:10146000FFF710FBC11B494502D90320BDE8F087F7
:10147000606810F00C0FF3D1D8F80010404601F06E
:101480000701B1420BD9016821F007013143016026
:10149000006800F00700B04201D00120E6E728789C
:1014A000400705D56068E96820F4E06008436060A3
:1014B0002878000706D56068296920F4605040EA62
:1014C000C100606000F036F86168084AC1F303119A
:1014D000515CC840064908600020FFF7D5FE002097
:1014E000C4E700000020024000100240244C000825
:1014F000B40100200448054900684968044AC1F362
:101500000221515CC8407047B40100200010024025
:10151000344C00080448054900684968044AC1F38E
:10152000C221515CC8407047B40100200010024045
:10153000344C000812A185B00FC98DE80F0014A02B
:10154000144A006804905168134801F00C03042BFE
:1015500010D0082B0ED1C1F38343C9031DF803003B
:101560000AD5516804AAC1F34041515C0A4A50436C
:10157000B0FBF1F005B0704708494843FAE70000B6
:1015800002030405060708090A0B0C0D0E0F1010C4
:10159000010200000010024000127A0000093D0024
:1015A0002DE9F84F04460078B94DC00748D0686867
:1015B000C0F38100012807D06868C0F381000228C9
:1015C00009D16868C00306D52868800338D56068EB
:1015D00000286FD034E06068B0F5803F0BD010B1C8
:1015E000B0F5A02F11D0286820F48030286028683A
:1015F00020F4802002E0286840F480302860606891
:1016000088B1FFF73FFA064609E0286840F48020D9
:101610002860F0E7FFF736FA801B642875D8286841
:101620008003F7D50CE0FFF72DFA064605E000BF72
:10163000FFF728FA801B6428F0D828688003F7D4C5
:101640002078944E80074FF001094FF000083BD5F9
:10165000686810F00C0F07D06868C0F3810002289A
:1016600009D16868C00306D42868800714D52069AA
:1016700001281FD110E02069B0B1C6F80090FFF733
:1016800001FA074605E000BFFFF7FCF9C01B02287E
:10169000C4D828688007F7D52868616920F0F80069
:1016A00040EAC10028600FE0C6F80080FFF7EAF9C1
:1016B000074606E0E9E000BFFFF7E4F9C01B022897
:1016C00023D828688007F7D4207800072CD57248E3
:1016D000A169D9B1C0F80090FFF7D4F9074604E03A
:1016E000FFF7D0F9C01B02280FD8686A8007F7D52A
:1016F0006A484FF4FA510068B0FBF1F0009000BF67
:101700000098411E0091FAD20EE080E0C0F80080FF
:10171000FFF7B8F9074604E0FFF7B4F9C01B022849
:1017200075D8686A8007F7D42078400760D5E869E3
:101730000027C00008D4E86940F08050E861E869FB
:10174000012700F08050009055480168C90513D466
:101750000168834641F480710160FFF793F9824686
:1017600006E000BFFFF78EF9A0EB0A0064284ED810
:10177000DBF80000C005F5D5E06801280AD008B103
:10178000052813D0286A20F001002862286A20F07A
:10179000040002E0286A40F001002862E06841F29B
:1017A000883B98B1FFF76EF982460BE0286A40F05B
:1017B00004002862EEE700BFFFF764F9A0EB0A011E
:1017C00059455AD8286A8007F6D50CE0FFF75AF930
:1017D000824605E0FFF756F9A0EB0A0159454CD8BF
:1017E000286A8007F6D41FB1E86920F08050E861CC
:1017F000E06988B36968C1F38101022945D00228F4
:10180000C6F8608004D0FFF73DF9044638E034E0C4
:10181000FFF738F9074604E0FFF734F9C01B022848
:101820002BD828688001F7D4206AB0F5803F05D115
:101830006868A16820F4003008436860D4E90801B2
:101840000843696821F4741108436860C6F8609021
:10185000FFF718F9044606E015E000BFFFF712F99C
:10186000001B022809D828688001F7D50BE000BFCB
:10187000FFF708F9001B022802D90320BDE8F88F02
:1018800028688001F4D40020F8E70120F6E7000082
:10189000001002400000424280044242B401002095
:1018A0000070004010B5401EB0F1807F01D30120D0
:1018B00010BD4FF0E02460610F21601701F09EF829
:1018C0000020A06107202061002010BD70477047F4
:1018D00010B590F83C20012A25D0012280F83C2048
:1018E000CA688C6822F4407222434C6822F48062F9
:1018F00022430C6822F4006222430C6922F48052D5
:1019000022434C6922F4005222438C6922F4804223
:10191000224322F40041026800232143516480F8ED
:101920003C30002010BD022010BD30B590F83C20A6
:10193000012A20D0012280F83C20022380F83D308B
:1019400003685C6824F070045C6003685C680D6880
:101950002C435C6003689C6824F080049C600368EE
:101960009C6849680C439C6080F83D20002180F809
:101970003C10084630BD022030BD10B5040003D035
:1019800094F83D0010B107E0012010BD002084F85C
:101990003C00204600F00CF8022084F83D00211D98
:1019A000206801F09BF8012084F83D00002010BD64
:1019B00008B50C4A01680C48914207D1816941F48D
:1019C00000618161806900F4006009E0074A91428A
:1019D00007D1C16941F00401C161C06900F0040090
:1019E000009008BD002C014000100240000800409B
:1019F0000168CA6842F00102CA600068016841F0EB
:101A000001010160002070470168CA6822F00102EC
:101A1000CA600068016A41F21112114207D1016ADD
:101A20009210114203D1016821F0010101600020F0
:101A3000704770B5044690F83C00012817D0012586
:101A400084F83C50022084F83D002068826822F02F
:101A5000770222F47F4282600868502837D00DDC7C
:101A6000202859D005DC88B3102841D151E002204C
:101A700070BD302853D040283AD13FE060282ED0A6
:101A800070280BD0B0F5805F03D0B0F5005F2FD188
:101A900010E02068816821F0070115E0CB68D1E9EA
:101AA0000121206801F05BF82168886840F0770028
:101AB00088601DE0CB68D1E90121206801F04FF872
:101AC0002068816841F48041816011E01EE0CA68AD
:101AD0004968206801F0F8F85021206806E0CA68DB
:101AE0004968206801F001F96021206801F041F89F
:101AF00084F83D50002084F83C0070BDCA684968F5
:101B0000206801F0E1F840212068EFE7002120681B
:101B1000ECE710212068E9E720212068E6E7302182
:101B20002068E3E7704770B5044600680169C9435F
:101B3000C90708D1C168C943C90704D1891E016119
:101B4000204600F0AAF9206801694FF00005C9435A
:101B5000890715D4C168C943890711D4E91E0161F9
:101B600001202077206880698007204602D0FFF797
:101B7000D9FF04E000F0B6F8204600F08DF9257793
:101B800020680169C943490717D4C168C943490797
:101B900013D46FF00401016102202077206880696E
:101BA00010F4407F204602D0FFF7BCFF04E000F0B5
:101BB00099F8204600F070F9257720680169C9433B
:101BC000090716D4C168C943090712D46FF0080188
:101BD0000161042020772068C0698007204602D078
:101BE000FFF7A0FF04E000F07DF8204600F054F974
:101BF000257720680169C943C90617D4C168C9435C
:101C0000C90613D46FF01001016108202077206805
:101C1000C06910F4407F204602D0FFF783FF04E044
:101C200000F060F8204600F037F925772068016958
:101C3000C943090609D4C168C943090605D46FF030
:101C4000800101612046FFF741FE20680169C94318
:101C5000490609D4C168C943490605D46FF040015B
:101C60000161204600F01BF920680169C94389061B
:101C70000BD4C168C943890607D46FF02001016104
:101C80002046BDE87040FFF722BE70BD70B5044627
:101C900090F83C0001280DD0012584F83C5002202A
:101CA00084F83D0042B1042A0AD0082A0CD00C2A3C
:101CB00011D10DE0022070BD206800F063FF0AE042
:101CC000206800F087FF06E0206800F0AFFF02E028
:101CD000206800F0D7FF84F83D50002084F83C00D5
:101CE00070BD000070B50446007F012823D101F0CB
:101CF0004FFA0546012001F0CDF985421BD10121A3
:101D0000364801F0FFF901F027FB01280ED0012130
:101D1000324801F0F7F902F07BFB01212F4801F076
:101D2000F1F90146204602F03FFC04E000220121C7
:101D3000204602F0A1F9207F022823D101F028FAE1
:101D40000546022001F0A6F985421BD10221234855
:101D500001F0D8F901F000FB01280ED002211F4844
:101D600001F0D0F902F054FB02211C4801F0CAF93D
:101D70000146204602F018FC04E000220221204621
:101D800002F07AF9207F042826D101F001FA0546F5
:101D9000032001F07FF985421ED103210F4801F095
:101DA000B1F901F0D9FA01280FD003210B4801F055
:101DB000A9F902F02DFB0321084801F0A3F901461F
:101DC0002046BDE8704002F0EFBB2046BDE8704001
:101DD0000022032102F050B970BD0000180000205D
:101DE00010B5040003D094F83D0010B107E00120C5
:101DF00010BD002084F83C00204600F00CF80220C2
:101E000084F83D00211D206800F068FE012084F860
:101E10003D00002010BD704710B50268044631B186
:101E2000042908D008292CD00C2908D12DE0D0682D
:101E300020F0020002E0D06820F00400D060002210
:101E4000206800F081FE134B41F2111220689110BE
:101E5000984209D1036A134206D1036A0B4203D1A7
:101E6000436C23F4004343642068036A134206D1A1
:101E7000026A0A4203D1016821F0010101600020D9
:101E800010BDD06820F00800D8E7D06820F010001E
:101E9000D4E70000002C0140704701F0A3B970475F
:101EA00070B5040004D094F83900002510B106E0A4
:101EB000012070BD84F83850204600F023F824201B
:101EC00084F839002068C16821F40051C1602046BF
:101ED00000F01EFF2068016921F490410161206833
:101EE000416921F02A0141612068C16841F4005133
:101EF000C160E563202084F8390084F83A000020AE
:101F000070BD000030B585B00024009401940294A7
:101F1000039400681449884224D11448816941F42B
:101F200080418161816901F480410491816941F0BE
:101F30000401816180690E4D00F0040004904FF4AB
:101F4000007000900220019003200390694628460B
:101F5000FEF7ACFC2815CDE900046946284602943A
:101F6000FEF7A4FC05B030BD00380140001002406F
:101F700000080140FEE700000148FEF7AFBD000089
:101F8000EC2A00200148FEF711BE0000EC2A0020D8
:101F900010B5406A01680A6822F480620A60002174
:101FA0004185426B5163826B516390F83D30202232
:101FB000602B80F83D2080F83E1007D001680A6849
:101FC00022F001020A60FEF712FF10BD01640168F1
:101FD0000A6822F001020A60FEF75AFD10BD0000F7
:101FE00070B590F83D100446002520260068292988
:101FF0002DD02A292BD094F83D10602904D04168B7
:10200000090501D484F83D60256384F83E500168D9
:1020100021F40061016020684168090537D54168F5
:1020200021F400614160606B344990F82120012A5D
:1020300012D04163606BFEF7DBFB38B320680168A8
:1020400021F00101016084F83D60606B1CE02563B4
:10205000282184F83D10DAE7A06B4163A06BFEF7FE
:10206000C7FB98B120684169C943490604D4016996
:10207000606A421C626201702068016821F00101FF
:10208000016084F83D60A06B416B88470FE094F8D5
:102090003D1060291DD04169C943490604D4016936
:1020A000606A421C626201702046FEF7A0FE94F84E
:1020B0003D0028280CD1206C400709D51048E0626B
:1020C000256384F83D6084F83E502046FEF730FFDB
:1020D00070BD84F83D6025644169C943490604D454
:1020E0000169606A421C626201702068016821F027
:1020F000010101602046FEF7CBFCD8E7911F0008E4
:102100000000FFFF10B5C26A448D2F4B0168032CFD
:1021100003D0448D022C15D00AE0042A03D0082AEB
:1021200001D09A4203D10A6822F480620A600168F1
:102130000A69416A4B1C43620A70418D491E418500
:10214000002010BD042A12D0082A10D09A420ED0C6
:10215000022A0A6802D022F4806201E042F480621E
:102160000A6001684A6822F440724A6008E04A68DE
:1021700022F440724A6001680A6842F400720A6000
:1021800001680A69416A4B1C43620A70418D491E0D
:10219000418501680A69416A4B1C43620A70418D9E
:1021A000491E4185202180F83D100021016390F8EF
:1021B0003E2080F83E10402A02D0FEF70BFFBFE71A
:1021C000FEF70AFFBCE700000000FFFF10B590F823
:1021D0003D1022294CD1418D032909D901680A6992
:1021E000416A4B1C43620A70418D491E41853FE0A4
:1021F000022909D0032907D0C16A022901680A68A7
:1022000018D022F4806217E0C16A022901680A68C6
:1022100007D022F480620A6001680A6842F4006212
:1022200001E042F480620A600068416821F4806144
:1022300041601DE042F480620A6001684A6822F44D
:10224000E0624A6001680A69416A4B1C43620A7095
:10225000418D491E4185202180F83D1000210163F8
:1022600090F83E2080F83E10402A03D0FEF7B2FEE0
:10227000002010BDFEF7B0FEFAE710B5C26A90F874
:102280003D10212921D1418D49B1416A4A1C426248
:10229000026809781161418D491E418515E02023AE
:1022A0000021042A13D0082A11D012F5803F0ED045
:1022B0000268546824F4E06454601122026380F8D8
:1022C0003E1080F83D30FEF786FE002010BD02680B
:1022D000546824F4E06454600268146844F40074A0
:1022E0001460016380F83D3090F83E2080F83E1085
:1022F000402AE8D1FEF771FEE7E7000010B590F83C
:102300003D1090F83E30C26A048D24B1212934D0AA
:10231000402B30D074E02129FAD120230021042A57
:1023200013D0082A11D012F5803F0ED002685468ED
:1023300024F4E06454601122026380F83E1080F8B7
:102340003D3000BFFEF747FE5AE00268546824F4AF
:10235000E06454600268146844F40074146001631B
:1023600080F83D3090F83E2080F83E10402AE9D1B8
:10237000FEF733FE44E0222942D1418D21B190F88D
:102380003E10402906D032E00068416821F48061A7
:10239000416035E0016D31B1016D012911D0016D50
:1023A000022915D02CE0C16C0129816C02D0C1F347
:1023B000072108E00268C9B21161016D891C01653D
:1023C0001EE0816CC9B202681161016D491CF6E71B
:1023D00090F83D10222904D090F83D10212906D014
:1023E0000EE00068016841F48071016008E0416A14
:1023F0004A1C4262026809781161418D491E41857B
:10240000002010BD78B590F83E50C26A046B90F879
:102410003D6000230168222E06D1066D0EB9402DC5
:1024200002D0056D25B107E04869886900901CE07D
:102430000569B5F5404F1AD0458D85B3458D012D01
:1024400020D0428D022A4AD00A6842F480620A6093
:1024500001684A68120503D54A6842F480524A600E
:1024600001684A69896900910365002078BD4A695D
:102470008A6900920A6842F480720A60016D491C00
:102480000165F2E712F5803F0AD0042A21D0082A1C
:102490001FD0122C1DD0C26A022A09D114E00BE011
:1024A0000A6822F480620A6001684A68120503D54E
:1024B0000A6822F480620AE04A698A6900920A681E
:1024C00042F400720A60CFE70A6842F480620A6050
:1024D000C6E70A6822F480620A600168ECE7C26A13
:1024E000022A0A680BD042F400620A6001684A6955
:1024F0008A6900920A6822F480620A6006E042F467
:1025000080620A6001684A698969009101684A68C5
:102510001205A9D54A6842F480524A60A4E790F8AF
:102520003E10402909D00169B1F5804F10D0016DEE
:1025300099B1016D012915D01CE0016D19B9416CEB
:1025400001F0FE0114E0416CC9B241F001010FE05D
:1025500090F83D102129F6D1F1E7416CF02201F409
:10256000407103E0416CF12201F4407142EAD11163
:1025700000680161002070472DE9F04190F83D505E
:102580000446408DD0B320680169606A421C6262D3
:102590000170608D401E608500F092FD0078618DB5
:1025A000222628271B291AD12A2D18D10A280BD018
:1025B000042809D0052807D0062805D0072803D00D
:1025C000082801D009280AD12068416821F48061D7
:1025D0004160266384F83D702046FEF737FD608D2C
:1025E00060B92A2D0AD12068416821F480614160D8
:1025F000266384F83D702046FEF728FD0020BDE8E4
:10260000F08100002DE9F04190F83D40C26A0023BE
:102610001C4F202601686FF48065042A01D0082A27
:1026200001D1282C05D0212C17D04D610020BDE808
:10263000F081C7624A6822F4E0624A6001684D6135
:1026400001680A6822F480620A60036380F83D60D2
:1026500080F83E30FEF76CFCE8E7C7622122026397
:1026600080F83D6080F83E304A6822F4E0624A60BB
:1026700001684D6101680A6822F480620A60FEF711
:102680006FFDD3E70000FFFF38B590F83D200168EB
:102690004B6823F4E0634B60036800215C6900949D
:1026A0001C6844F001041C6003681C6824F4806406
:1026B0001C6003685C6824050BD590F83D40222C13
:1026C0002BD090F83D402A2C27D0446B24686468B6
:1026D0004485448DE4B15C69E443640707D41C6914
:1026E000436A5D1C45621C70438D5B1E4385036815
:1026F0005C69E443640607D41C69436A5D1C456257
:102700001C70438D5B1E4385036C43F0040303641C
:10271000036C23B1FFF764FC1FE0846BD6E7202332
:10272000282A09D02A2A07D0292A05D0046B222C6E
:102730000CD0222A0AD010E0094AC262016380F854
:102740003D3080F83E10FEF7F3FB06E0016380F8B1
:102750003D3080F83E10FEF779FC002038BD0000C7
:102760000000FFFF2DE9F04186B0002545480095A7
:10277000019502950395816941F01001816181699C
:1027800001F010010491816941F0040181618169C6
:1027900001F004010491816941F0080181618069BF
:1027A000394E00F008004FF40054049000222146F6
:1027B0003046FEF762F9354F002248F2FF013846F5
:1027C000FEF75BF9DFF8C88000224CF67B414046FB
:1027D000FEF753F9002280214046FEF74EF900949F
:1027E0000124CDE90145694630460394FEF75EF8C1
:1027F00048F2C30002268DE851006946384603942A
:10280000FEF754F81C208DE83100694638460394E1
:10281000FEF74CF82020CDE90004029469463846C2
:102820000394FEF743F84CF273408DE8310069469B
:1028300040460394FEF73AF8E002CDE90004029422
:10284000694640460394FEF731F88020CDE9000444
:10285000CDE9024669464046FEF728F84FF4C850D5
:10286000CDE90005694638460295FEF71FF80820B5
:102870008DE85100694640460394FEF717F806B00C
:10288000BDE8F08100100240001001400008014046
:10289000000C01400E4810B50C4901600D49416023
:1028A00000213E22C0E902124FF48042C0E9042117
:1028B0004022C0E906120162FEF79AFA002803D00E
:1028C000BDE81040FDF77EBF10BD00000054004081
:1028D000EC2A0020801A060010B594B000240E9453
:1028E0000F941094119412941C2168461394FDF7D0
:1028F00042FC1C2107A8FDF73EFC2F482D49016032
:102900001F21C0E901144FF6FF71C0E903144461AF
:102910008461FFF732F808B1FDF754FF4FF480509F
:102920000E900EA92448FFF784F808B1FDF74AFF7E
:102930002148FFF755FA08B1FDF744FF129412A998
:102940001D481394FEF7F1FF08B1FDF73BFF00941B
:102950000194029403940494059400226946164855
:102960000694FFF793F908B1FDF72CFF042269469E
:102970001148FFF78BF908B1FDF724FF08226946DB
:102980000D48FFF783F908B1FDF71CFF0794089481
:1029900009944FF400500A94CDE90B4007A906486A
:1029A0000D94FEF795FF002801D0FDF70BFF14B042
:1029B00010BD0000002C0140402B00200C4810B539
:1029C0000A4901600B494160002181600C22C1600D
:1029D000C0E904128161C161FFF762FA002803D0E7
:1029E000BDE81040FDF7EEBE10BD0000003801400C
:1029F000802B0020A80D0E00FEE770470907090E86
:102A0000002806DA00F00F0000F1E02080F8141D25
:102A1000704700F1E02080F800147047704770475D
:102A2000FEF718BC30B58FB028216846FDF7A3FB30
:102A300014210AA8FDF79FFB0225012004900095B0
:102A40001020059000244FF4C010CDE908400795F0
:102A50006846FEF7A5FD08B1FDF7B4FE0F200A9009
:102A6000CDE90B540D9401210AA80E94FEF78CFCBD
:102A7000002801D0FDF7A6FE0FB030BD0D4801685B
:102A800041F00101016041680B4A11404160016859
:102A90000A4A11400160016821F480210160416807
:102AA00021F4FE0141604FF41F0181600449C0031D
:102AB00008607047001002400000FFF8FFFFF6FEBC
:102AC00008ED00E00148FFF72EB80000402B002081
:102AD0000148FFF728B80000402B0020F0B502683D
:102AE000164B174C174D4FF08047984205D0B8420F
:102AF00003D0A04201D0A84203D122F070064A6858
:102B00003243984205D0B84203D0A04201D0A84237
:102B100003D122F44074CA68224322F080044A6937
:102B2000224302608A68C2620A688262984201D1C6
:102B30000969016301214161F0BD0000002C0140E1
:102B4000000400400008004010B50123046A8B40D7
:102B50009C430462036A8A401343036210BD10B5AC
:102B6000846842EA032224F47F440A4322438260B9
:102B700010BD826822F070020A4342F007018160B2
:102B80007047000030B5026A22F001020262026A58
:102B90004368846924F073050C682C4322F0020515
:102BA0008A682A430A4DA8420BD122F00805CA6858
:102BB00023F440732A434D6922F004021D438B69BC
:102BC0002B434360846149684163026230BD000069
:102BD000002C014030B5026A22F010020262026A43
:102BE000436884690D6824F4E64444EA05248D684A
:102BF00022F0200242EA05120B4DA8420ED1CD6808
:102C000022F0800242EA05124D6923F4406343EA50
:102C100085038D6922F0400243EA850343608461A5
:102C200049688163026230BD002C014030B5026A00
:102C300022F480720262036A4268C46923F400735A
:102C400024F073050C682C438D6843EA05230C4D72
:102C5000A8420ED1CD6823F4006343EA05234D69F1
:102C600022F4405242EA05128D6923F4806342EA5D
:102C700005124260C4614968C163036230BD00004F
:102C8000002C014030B5026A22F480520262046ACC
:102C90004268C3690D6823F4E64343EA05238D685F
:102CA00024F4005444EA0534064DA84204D14D6989
:102CB00022F4804242EA85124260C361496801649D
:102CC000046230BD002C014010B5036A046A24F090
:102CD00001040462846924F0F00444EA021423F03D
:102CE0000A020A438461026210BD10B5036A23F030
:102CF000100303628369046A23F4704343EA0232D7
:102D000024F0A00343EA01118261016210BD0000BA
:102D10002DE9F041044600680169E26821F4405160
:102D2000114301612169A068084361690843216872
:102D3000CA6841F20C639A430243CA602068416941
:102D4000A26921F44071114341614C492068642516
:102D5000322688423CD1FEF7DDFB00EBC00101EBDF
:102D6000001061688900B0FBF1F7FEF7D3FB00EBC0
:102D7000C00101EB00106168B0468900B0FBF1F0C2
:102D8000B0FBF5F06FF01801484307EB800106EB4C
:102D90000110B0FBF5F000F0F006FEF7BBFB00EB16
:102DA000C00101EB001061688900B0FBF1F0B0FBDD
:102DB000F5F006EB0016FEF7ADFB00EBC00101EBF2
:102DC000001061688900B0FBF1F7FEF7A3FB3BE060
:102DD000FEF790FB00EBC00101EB00106168890079
:102DE000B0FBF1F7FEF786FB00EBC00101EB001032
:102DF0006168B0468900B0FBF1F0B0FBF5F06FF010
:102E00001801484307EB800106EB0110B0FBF5F019
:102E100000F0F006FEF76EFB00EBC00101EB0010C6
:102E200061688900B0FBF1F0B0FBF5F006EB00162D
:102E3000FEF760FB00EBC00101EB00106168890048
:102E4000B0FBF1F7FEF756FB00EBC00101EB001001
:102E500061688900B0FBF1F0B0FBF5F06FF018018C
:102E6000484307EB800108EB0110B0FBF5F0216847
:102E700000F00F0030448860BDE8F0810038014068
:102E8000FEE7490050EAC12018BF04204A0D18BFD0
:102E900040F0010040F2FF72B2EB515F08BF40F01A
:102EA0000200012808BF052070472DE9F0414F1EA0
:102EB00000EBC7010446D1E9000115461E4637F074
:102EC00006020DD02A463346FDF715FA7F1E04EBA5
:102ED000C703D3E90023FDF767F937F00602F1D104
:102EE000022F25D0042F13D0062F18BFBDE8F08184
:102EF0002A463346FDF7FFF9D4E90A23FDF754F9D2
:102F00002A463346FDF7F7F9D4E90823FDF74CF9D3
:102F10002A463346FDF7EFF9D4E90623FDF744F9D5
:102F20002A463346FDF7E7F9D4E90423FDF73CF9D7
:102F30002A463346FDF7DFF9D4E90223FDF734F9D9
:102F40002A463346FDF7D7F9D4E90023BDE8F0411E
:102F5000FDF72AB90022134610460149FDF73DBA94
:102F60000000F03FFDF720B900221346104611463D
:102F7000FDF733BA40F2013200204FF0E041FDF797
:102F80009BBA0000024A00201107FDF795BA000025
:102F900001FDFFFF02E008C8121F08C1002AFAD194
:102FA00070477047002001E001C1121F002AFBD1C9
:102FB000704700000149086070470000B801002018
:102FC0002DE9F041154604460A4600200146D44248
:102FD00019D01046FDF787FA07460E462046FDF742
:102FE00082FA3A463346FDF7DFF806460C46284695
:102FF000FDF779FA0122FDF75FFA32462346BDE874
:10300000F041FDF7EAB9BDE8F081000070B500229B
:1030100004460D461346FDF797FA02D100200146FB
:1030200070BD22462B46BDE8704000200149FDF7E7
:10303000D4B9000080842E41012806D0134B022809
:103040000DD0032814D0FDF7BDBB1148012904D0D1
:1030500000291AD10122202113E00022FBE70129D7
:1030600004D0002911D10122802109E00022FBE7D0
:103070004FF40060012906D0002906D10122014643
:103080001846FDF7FABC0022F9E77047000C014032
:1030900000080140014610B50848012907D002295F
:1030A00007D0032907D0FDF78DFB204610BDC4884B
:1030B000FBE70489F9E74489F7E7000000000020F6
:1030C00000487047BC0100201C2070470048704732
:1030D000010000200220704701480069704700008D
:1030E00000000020C0EBC000024900EB4000084493
:1030F00070470000E8010020014800787047000098
:103100000000002010B503465FF0000203EBC21080
:10311000846A10308C4203D0521C032AF6DB002054
:1031200010BD0146D1E916017047806CFDF7DBB98F
:1031300080697047406F704704280DD004DC012877
:1031400006D0022804D105E0082807D0102807D0AF
:10315000002070470120704702207047032070470D
:103160000720704710B5012904D0022905D0032992
:1031700006D10AE00068406B01E00068806B84B211
:1031800000F006F844EA004010BD0068C06BF6E7A6
:10319000014880887047000000000020094801694C
:1031A000A1F58072C168F33A07D00269891A012932
:1031B00006D00169491C0161704709B10021FAE795
:1031C000FDF700BB000000200548C168A1F5807232
:1031D000F33A03D0C168491CC16070470021FBE786
:1031E0000000002005488188A1F57F42FF3A03D006
:1031F0008188491C818070470021FBE70000002086
:103200002DE9F0470F4681460026DFF8B88054E0EC
:1032100009EBC61505F10B002BA1FCF7B7FF48B170
:103220000022402144464046FDF727FC0122202190
:1032300020463FE0A86FFFF77FFF0446A8690128FA
:1032400004D0022813D0032836D121E0204D04F009
:10325000010210212846FDF710FCC4F340020821AA
:103260002846FDF70AFCC4F38002042121E004F0A3
:103270000102402145464046FDF7FFFBC4F34002F2
:1032800020212846FDF7F9FBC4F38002102110E04D
:1032900004F001024FF4806145464046FDF7EDFB26
:1032A000C4F3400202212846FDF7E7FBC4F3800285
:1032B00001212846FDF7E1FB761CBE42A8DBBDE8F4
:1032C000F0870000000C01405354455000000000FE
:1032D000000801400FB4F0B5A1B00125002426AFCD
:1032E0000DF10B0607EBC411802268461031FCF784
:1032F00029FFDDE9120188420AD00998012807D088
:103300000798012804D108A13046FCF73FFF10B907
:103310000898012800D10025641C032CE2DB21B0B1
:103320002846F0BC5DF814FB44430000094A0146FE
:10333000012807D0022908D0032809D1911410468A
:10334000FDF792BB4FF48071F9E74FF40061F6E7A7
:10335000704700000008014070B50446C0690125AF
:1033600050B1606A012806D0206A012806D0D4E94D
:103370001201884200D00025284670BDA069FFF7E1
:10338000D5FF0128F7D10020A064E0642062F3E7B4
:10339000ADF5407DFDF766FFFFF744FBFFF7E2F96F
:1033A000FFF778FAFFF70AFBFFF796FA67496FF025
:1033B0000100096808616648416841F48061416024
:1033C000002211461F20FDF7ADFF1F20FDF79EFFD5
:1033D000002211462020FDF7A5FF2020FDF796FFD3
:1033E000002201211920FDF79DFF1920FDF78EFF16
:1033F000012211461B20FDF795FF1B20FDF786FFDC
:103400005448FDF7D7FC08B1FDF7DCF9012152481B
:10341000FFF778FE0146802260A8FCF793FE0221A8
:103420004D48FFF76FFE0146802280A8FCF78AFE18
:1034300003214948FFF766FE01468022A0A8FCF759
:1034400081FE032160A8FFF7DBFE012000F094FE5F
:1034500000210120FFF7F0FD00210320FFF7ECFD24
:103460003D4C3E4E183C20780228FCD1E068216992
:10347000884263D0354801F025F8E068FFF732FE56
:10348000354900F05BFD3449304801F031F82F48F0
:10349000FEF7AEFA02213048FFF734FE30A10B30C0
:1034A000FCF774FE30B902212B48FFF72BFEC069F0
:1034B000012809D002212848FFF724FE28A10B305B
:1034C000FCF764FE10B10CE0012206E00221224864
:1034D000FFF718FEC06920B9002280213046FDF7B1
:1034E000CCFA1D4D4FF4C07710353A462946684650
:1034F000FCF728FE04F118000FC8FFF7EBFE0128C7
:10350000F3D1FFF761FE1148FEF77EFA0022012198
:103510000E4800F0B1FD00210120FFF78DFD0022D3
:1035200002210A4800F0A8FD00220321074800F00C
:10353000A3FD00210320FFF77FFD94E7E0682169E8
:10354000884290D1012000F017FE8CE7402B00202C
:10355000002004E0EC2A002018000020000C0140AC
:10356000444300002DE9F04D1D460C4698B0174627
:1035700021F0004123F00043002814BF4FF0010C5C
:103580004FF0000C0CEB440CFE4A0CEB02064FEA29
:10359000620C66452BD33E0018BF012606EB45069C
:1035A0001644F94A964222D3F84A53EA070C02D04D
:1035B000944205D148B918B000201146BDE8F08DFD
:1035C000002808BF4FF0000C01D04FF0010C0CEBAD
:1035D000440212F5001F0AD8002F14BF4FF0010C4F
:1035E0004FF0000C0CEB450212F5001F07D918B084
:1035F0003A462B462146BDE8F04DFFF7B3BC00220A
:10360000DFF88CA3002CB8BF534526DADFF884C35B
:103610006345A8BF022220DADFF870C39C451CDC9A
:10362000DFF874C30CEB235CBCF1140F08DDCCF1A4
:10363000340627FA06FC0CFA06F6BE420DD108E065
:103640005FB9CCF1140623FA06FC0CFA06F69E428A
:1036500003D10CF00102C2F1020251EA000C19D1AF
:10366000002D17DA002C18BF022A01D0012A07D03A
:103670000220FFF79FFC18B0BDE8F04DFFF76ABCD1
:103680000220FFF797FCFFF765FC18B081F00041BE
:10369000BDE8F08DB7F1000C6CD1534525D104F194
:1036A000804212F5801201BF00280020B74918B0EF
:1036B00008BFBDE8F08DB548884207DC002DA1BFEA
:1036C0006046294618B0BDE8F08D07E0281E05DAEF
:1036D00080F0004118B06046BDE8F08DAF497944F4
:1036E000D1E9000118B0BDE8F08DDFF8A0C2634554
:1036F00025D1002D1FDA19B1514512D1D8B909E0F1
:10370000002840F0EC82A24A214618B062F31E0164
:10371000BDE8F08D0020214618B060F31E01BDE821
:10372000F08D08DA18B02346BDE8F04D02460020BF
:103730006146FCF752BE18B02146BDE8F08D5145F8
:1037400018DAB5F1804F0DD0A5F1005CBCF1FF5C3B
:1037500010D1B4F1000C0DDB18B06146BDE8F04D9E
:1037600000F030BE234618B00246BDE8F04D1946C1
:10377000FCF7C1BD060024F0004C3BD1D9B1514546
:1037800033D1002C06DD002DA1BF0020514618B01A
:10379000BDE8F08D002C01DD002D1BDB002C13DAC1
:1037A000002D11DB012A4FF0000014BF78497C493D
:1037B00018B0BDE8F08D022A18BF002C0AD0012AEB
:1037C00008D1002C06DA0AE0002CB8BF002D11DA6F
:1037D000012A04D0002018B00146BDE8F08D18B0D1
:1037E00000204FF00041BDE8F08DA1F14050B0F154
:1037F0007F601AD0012000EBE47050EA020421D06F
:10380000624C521E4FF0000B104304BF4FF0000BF0
:10381000644C654883427CDD644A654893421FDD01
:10382000884217DB002D25DB37E0002C00DA4AB197
:10383000022A0CBF01204FF0FF3018B0BDE8F04D58
:10384000FCF751BE0120FFF7B5FB18B0BDE8F04D05
:10385000FFF78ABB4D4A8A4202DC002D0ADC1CE0DD
:10386000814202DA002D18DA04E0484B994220DD4B
:10387000002D12DD0220FFF79DFBFFF77BFB0546C5
:103880000E460022534658462146FCF734FD18B038
:1038900066F31E012846BDE8F08D0220FFF78AFB83
:1038A000FFF770FB0A46214618B062F31E01BDE81F
:1038B000F08D002230466146FCF717FD80460E462B
:1038C0006FF00102FCF7F8FD4FF05532394BFCF771
:1038D0000FFD42463346FCF70EFD0022364BFCF747
:1038E00007FD824642463346049110461946FCF7CE
:1038F00002FD5246049BFCF7FEFC8A4600904FF006
:10390000C0422E4B40463146FCF7F5FC2C4A2B4B6F
:1039100000E027E0CDE9060151460098FCF7EBFCFA
:1039200082460191274A284B40463146FCF7E3FC8A
:103930005246019BFCF7D9FC82460B460246059194
:10394000DDE90601FCF730FCDDE9062300268846A8
:103950003046FCF7CAFC5246059BFCF7C9FC024600
:1039600000F07EB90020B1F5801F07DA352230461D
:103970006146FCF7A1FD06466FF0340000EB2150D4
:1039800024E00000FFFF1F00FFFF0F000000F03FDA
:103990000000F07F0000404301FCFFFFE61500003F
:1039A0000000F0FF0000F0BF0000E0410000F04325
:1039B000FFFFEF3F5555D53F0000E03F4715F73F6C
:1039C000FE822B6544DF5DF80BAE543EA0F2FF3063
:1039D0000190C1F3130040F07F6141F0405102912A
:1039E000FE498842D8BF002004DDFD498142C8BF9E
:1039F000012001DD0D9008E000200D900198401C91
:103A000001900298A0F5801002900299F548784440
:103A10000B910D9900EBC100D0E900230F933046C4
:103A20000A920B99FCF761FCCDE90601DDE90A2158
:103A300030460F9BFCF7B8FB02460B460020EA49D4
:103A4000FCF7CBFC059102460B460090DDE9060130
:103A5000FCF751FC1490E5488A464FF00008784482
:103A60000299006812904FF0005040EA61010D98F1
:103A70000F9B01EB804000F5002109910A9A1298F2
:103A8000FCF733FC32460B9BFCF732FC42465346B4
:103A9000FCF731FC0646029140465146099B129ABA
:103AA000FCF729FCDDE90623FCF722FC3246029BE9
:103AB000FCF71BFC059B009AFCF71DFC0091149A77
:103AC0000490534610461946FCF715FC064602467C
:103AD000C7480B46029106217844FFF7E6F9CDE985
:103AE0000510029B324610461946FCF704FCDDE93E
:103AF0000532FCF700FC0591064653464046194640
:103B0000149AFCF751FB009B049AFCF7F4FB324635
:103B1000059BFCF749FBCDE905104246534610468C
:103B20001946FCF7E8FB0022B24B02910A90FCF721
:103B30003BFBDDE90532FCF737FB0E464246AD4B59
:103B40004046FCF7D2FB029B0A9AFCF7CEFBDDE96C
:103B50000532FCF7CDFB424602910A9033461046EF
:103B60005146FCF7C8FBCDE906015346149A029969
:103B70000A98FCF7C0FB8A460290334642460099F9
:103B80000498FCF7B8FB5346029AFCF70DFB8246FB
:103B90000B4602460591DDE90601FCF705FBDDE970
:103BA0000623002088460646FCF79FFB5246059BED
:103BB000FCF79EFB824609914FF060428E4B3046E7
:103BC0004146FCF798FB049006918C4A8A4B50467C
:103BD0000999FCF790FB82460291894A894B30464D
:103BE0004146FCF788FB5246029BFCF7DDFA864B08
:103BF0007B440D9A03EBC203D3E90023FCF7D4FA0C
:103C00000E9007910198FCF76EFC0591DDE9061313
:103C100082460E9A0498FCF7C7FA7C4A7A440D9BB8
:103C200002EBC303D3E9002300930292FCF7BCFA32
:103C30005246059BFCF7B8FA0026884652463046A5
:103C4000059BFCF752FB009B029AFCF74EFB069B80
:103C5000049AFCF74AFB079B0E9AFCF749FB0246C5
:103C600000200B46029038462946FCF744FB82466A
:103C700001912B4638461946029AFCF736FB32462C
:103C80004346FCF738FB5246019BFCF78DFA07468A
:103C90008A463246434629460298FCF72CFB0546E5
:103CA0000E463A465346FCF77FFA594A88469142F7
:103CB00021DBA8EB020353EA000210D12A46334667
:103CC000FCF713FBCDE90401524A534B38465146E9
:103CD000FCF76AFADDE90423FCF74EFC21D202204E
:103CE000FFF768F9FFF746F90A46214618B062F374
:103CF0001E01BDE8F08D494B28F000429A4210D3D6
:103D0000474A08EB020353EA00027FF4C6AD2A4695
:103D10003346FCF7EAFA3A465346FCF72DFC7FF6A9
:103D2000BCAD0022019228F000403E493E4A01EB22
:103D30002051824223DA481C4FF4801121FA00F00E
:103D400040443A4AC0F30A517A44394BA1F2FF3158
:103D5000CB4020EA0303C0F3130040F48010C1F10C
:103D60001401C84012680190B8F1000FBCBF404276
:103D7000019028463146FCF7B8FA05460E462A4619
:103D8000334638465146FCF70FFA4FF000084246DA
:103D9000284B40460591FCF7AEFACDE90601264ACC
:103DA000264B40460599FCF7A6FA009102902A4658
:103DB000334640460599FCF798FA3A465346FCF7D5
:103DC00097FA1F4A1F4BFCF796FA009B029AFCF7E2
:103DD000EBF90746884602460B4635E08E9803000D
:103DE0007AB60B002E1200000000F03F66120000B1
:103DF000941100000000084009C7EE3FFD033ADCC3
:103E0000F5015B14E02F3EBE6C1000003010000086
:103E100000009040FE822B654715973C00CC9040F7
:103E200000346F3F01FCFFFF0000E03F7C0F00000B
:103E3000FFFF0F00432EE63F396CA80C615C20BEEB
:103E4000EF39FAFE422EE63FDDE90601FCF7ACF958
:103E5000DDE9062305460E46FCF747FA3A46434697
:103E6000FCF746FA0F462A4633460090104619469C
:103E7000FCF741FA824602462E4888460B46052149
:103E80007844FFF712F852464346FCF734FA2A46C4
:103E90003346FCF72DFA80468A463B462846314693
:103EA000009AFCF728FA3B46009AFCF77DF9069148
:103EB000009000224FF0804340465146FCF715FA2F
:103EC0000F460C904246534628463146FCF713FAFB
:103ED0003B460C9AFCF781FA069B009AFCF705FA20
:103EE0002A463346FCF701FA0022134BFCF700FA8E
:103EF000054601980E4601EB00510815002810DC1C
:103F000028463146019AFCF7D7FAFEF7BAFF042893
:103F100008BFFFF737F828463146019AFCF7CCFA7C
:103F200005460B4618B02A4658462146BDE8F04DD6
:103F3000FCF7E1B91C0E00000000F03F2DE9F34F43
:103F4000244A044697B007CA04AB002583E807005B
:103F5000601C0990A01C0890E01C0790201D0F9089
:103F6000601D0E90A01D0D9004A8DDF8348050F85F
:103F70002500225C9109C2F34013C2F3001BC2F377
:103F8000C00AC2F38009099A019310F802C0089A86
:103F9000875C079A865C0F9A835C0E9A825C10F8A5
:103FA000080047EA0C2843EA062740EA0226189848
:103FB000FFF7A8F8019BCDE90038CDE902764B4622
:103FC0005246594600F008F96D1C032DCCD319B0A8
:103FD000BDE8F08F184C000810B5254C012807D01B
:103FE000022818D003282CD0BDE81040FCF7EABB0B
:103FF000012901D011B106E0012200E000220121D7
:104000002046FCF73AFD012202212046FCF735FD4F
:104010000022022127E04FF40040012901D011B114
:1040200006E0012200E0002201462046FCF725FDC3
:10403000104C012208212046FCF71FFD0022082118
:1040400011E0012901D011B106E0012200E00022B7
:1040500040212046FCF711FD012280212046FCF77B
:104060000CFD002280212046BDE81040FCF705BD74
:1040700000080140000C014001290AD0022913D098
:1040800003290DD10068012AC16817D021F0080169
:1040900005E00068012AC16803D021F00201C16077
:1040A000704741F00201FAE70068012AC16802D0B6
:1040B00021F00401F3E741F00401F0E741F00801C9
:1040C000EDE70000074A012805D0022805D00328A3
:1040D00005D0FCF777BBD1807047118170475181C3
:1040E0007047000000000020014A50547047000053
:1040F00001000020C1EBC101024B01EB4101194459
:1041000088547047E80100202DE9F041074614A1CA
:10411000FCF73CF84FF48046124C7500A8B112A190
:104120003846FCF733F890B111A13846FCF72EF869
:1041300078B1002231462046FCF79FFC0022294638
:104140002046BDE8F041FCF798BC0122F2E70022CE
:1041500000E0012231462046FCF78FFC0122EEE709
:1041600052454400000C0140475245454E000000B6
:104170004F52414E4745000010B5104C012807D062
:1041800003280AD0022810D1207803280ED010E08E
:104190000BA0FFF7B9FF012006E00B48FDF734FC48
:1041A0000AA0FFF7B1FF0320207010BD0648FDF7FD
:1041B0001FFC08A0FFF7A8FF0220F5E70000002081
:1041C000475245454E000000402B00204F52414EC3
:1041D00047450000524544002DE9FF4F83B0054696
:1041E000DDE912A6DDE910B7103050A18046FBF7DB
:1041F000CDFF28B14EA14046FBF7C8FFD0B11BE070
:10420000286F97FBF0F100FB1173A96C1C1A91FB4E
:10421000F0F200FB1212981AA4EB020401D4024639
:1042200000E04242231E00DA63429A4200DC044668
:104230000F1901E0A86C3C1ACAF10000002C02DB47
:10424000D046012102E07642804600218946069947
:10425000012909D1AF6CD946BBF1010F08D08046C6
:104260006FF063044646643F0599012905D00BE0D1
:104270006424D04646466437F6E7A96C80464FF082
:104280004047C1F140444646F4B36000FCF72BF9C7
:10429000CDE900014046FCF726F900224FF08043AB
:1042A000FFF760F982468B463046FCF71CF9002286
:1042B0004FF08043FFF756F952465B46FCF715F87E
:1042C000DDE90023FCF789F882460498E861059847
:1042D00028620698C5E909098B46224631464046C0
:1042E000FEF76EFEC5E90C0100212C64C5E90E1134
:1042F000A86C6864C5E913784046FCF7F4F805F14A
:10430000580282E8430000E00CE0C5E91AABFEF772
:104310007DFEFCF7F9F8002800DA4042686707B034
:10432000BDE8F08F00200146CEE70000524F540058
:104330004E4F524D0000000070B50446D4E91A01FA
:10434000D4E90E23FBF7D7FF06460D46206DFCF798
:10435000CAF832462B46FBF727FFC4E9160102468E
:104360000B4600200449FCF738F8FCF7CDF800288C
:1043700000DA4042606770BD80842E4130B403464D
:104380000C4690B2012904D0022C05D0032C08D190
:1043900005E01968486304E01968886301E019685A
:1043A000C863204630BC110CFFF78CBE00688AB28F
:1043B0004262080CAFF3008001498880704700001A
:1043C000000000202DE9F04106460F46FCF77CF97D
:1043D000041E0D4618BF0120284320F00040C0F104
:1043E0007F6000F1E040C00F0ED0301C18BF0120EC
:1043F000384320F00040C0F17F6000F1E040C00F82
:1044000004BF0120FEF7D6FD20462946BDE8F08115
:1044100070B50446C06CD4E90821294EA569012A6B
:104420001FD0012904D0A16C401A15D4014614E014
:10443000A16A012906D0002941D1A16C401A401C73
:1044400007D00EE0A16C401A012823D16531E16448
:1044500020E06539E16404E0414290FBF1F001287D
:1044600018D0A06C401EA064606FFCF73CF80022DE
:104470003346FBF7B2FFD4E90E23FBF795FEC4E900
:104480000E012046FFF758FF00212846BDE8704086
:10449000FFF7A2BDA06C401CA064606FFCF723F87E
:1044A00000223346FBF799FFD4E90E23FBF77CFE8D
:1044B000C4E90E012046FFF73FFF0121E5E770BD8B
:1044C00080842E4110B50446FDF79EFA0021204657
:1044D000FDF7A2FC04212046FDF79EFC08212046A2
:1044E000FDF79AFC2046BDE810400021FFF75EBFB3
:1044F0002DE9F0410E4607460025691C3046FEF7BF
:1045000001FE0446C06917A1012804F10B0003D085
:10451000FBF73CFE90B11FE0FBF738FEE0B901214C
:10452000A069FEF789FD3846626FA169FFF726FF93
:1045300001223846A169FFF79FFD0DE000223846B1
:10454000A169FFF799FD00223846A169FFF716FF20
:104550000021A069FEF770FD6D1C032DCDD3BDE8D1
:10456000F0810000535445500000000070B5012454
:10457000002521460B48FEF7C5FD816C641C456291
:10458000C164042CF5DB00210120FEF755FD00215C
:104590000220FEF751FDBDE8704000210320FEF728
:1045A0004BBD0000180000202DE9F04105460E46E5
:1045B0000846FEF7BDFD044601462846FEF7D2FD3B
:1045C00007463046FEF7B6FDC21921462846BDE82B
:1045D000F041FFF7D3BE000048616E646C65720065
:1045E00000000000010000005261696C206D6F74D2
:1045F0006F720053544550004E4F524D0000000062
:1046000001000000000000000000000000000000A9
:104610000100000000000000000000000000000099
:10462000000000000000000000000000000000008A
:10463000000000000000000000000000000000007A
:10464000000000000000000000000000000000006A
:104650000000000000000000020000000000000058
:1046600001000000000000005370696E206D6F743F
:104670006F72005354455000524F54000000000028
:104680000200000000000000000000000000000028
:104690000100000000000000000000000000000019
:1046A000000000000000000000000000000000000A
:1046B00000000000000000000000000000000000FA
:1046C00000000000000000000000000000000000EA
:1046D00000000000000000000200000000000000D8
:1046E0000100000000000000466C6970206D6F74CE
:1046F0006F720053544550004E4F524D0000000061
:1047000003000000000000000000000000000000A6
:104710000100000000000000000000000000000098
:104720000000000000000000000000000000000089
:104730000000000000000000000000000000000079
:104740000000000000000000000000000000000069
:104750000000000000000000020000000000000057
:1047600001000000000000004472696C6C00000051
:10477000000000000100000050656E206D6F746F36
:1047800072000053544550004E4F524D000000003F
:104790000100000000000000000000000000000018
:1047A0000100000000000000000000000000000008
:1047B00000000000000000000000000000000000F9
:1047C00000000000000000000000000000000000E9
:1047D00000000000000000000000000000000000D9
:1047E00000000000000000000200000000000000C7
:1047F00001000000000000005370696E206D6F74AE
:104800006F720044430000004E4F524D0000000004
:104810000200000000000000000000000000000096
:104820000100000000000000000000000000000087
:104830000000000000000000000000000000000078
:104840000000000000000000000000000000000068
:104850000000000000000000000000000000000058
:104860000000000000000000020000000000000046
:10487000010000000000000056657274206D6F7426
:104880006F720053544550004E4F524D00000000CF
:104890000300000000000000000000000000000015
:1048A0000100000000000000000000000000000007
:1048B00000000000000000000000000000000000F8
:1048C00000000000000000000000000000000000E8
:1048D00000000000000000000000000000000000D8
:1048E00000000000000000000200000000000000C6
:1048F00001000000000000004D696C6C0000000029
:10490000000000000100000050656E206D6F746FA4
:1049100072000053544550004E4F524D00000000AD
:104920000100000000000000000000000000000086
:104930000100000000000000000000000000000076
:104940000000000000000000000000000000000067
:104950000000000000000000000000000000000057
:104960000000000000000000000000000000000047
:104970000000000000000000020000000000000035
:1049800001000000000000005370696E206D6F741C
:104990006F720044430000004E4F524D0000000073
:1049A0000200000000000000000000000000000005
:1049B00001000000000000000000000000000000F6
:1049C00000000000000000000000000000000000E7
:1049D00000000000000000000000000000000000D7
:1049E00000000000000000000000000000000000C7
:1049F00000000000000000000200000000000000B5
:104A0000010000000000000056657274206D6F7494
:104A10006F720053544550004E4F524D000000003D
:104A20000300000000000000000000000000000083
:104A30000100000000000000000000000000000075
:104A40000000000000000000000000000000000066
:104A50000000000000000000000000000000000056
:104A60000000000000000000000000000000000046
:104A70000000000000000000020000000000000034
:104A800001000000000000004C6174686500000037
:104A9000000000000100000050656E206D6F746F13
:104AA00072000053544550004E4F524D000000001C
:104AB00001000000000000000000000000000000F5
:104AC00001000000000000000000000000000000E5
:104AD00000000000000000000000000000000000D6
:104AE00000000000000000000000000000000000C6
:104AF00000000000000000000000000000000000B6
:104B000000000000000000000200000000000000A3
:104B100001000000000000005370696E206D6F748A
:104B20006F72005354455000524F54000000000073
:104B30000200000000000000000000000000000073
:104B40000100000000000000000000000000000064
:104B50000000000000000000000000000000000055
:104B60000000000000000000000000000000000045
:104B70000000000000000000000000000000000035
:104B80000000000000000000020000000000000023
:104B9000010000000000000056657274206D6F7403
:104BA0006F720053544550004E4F524D00000000AC
:104BB00003000000000000000000000000000000F2
:104BC00001000000000000000000000000000000E4
:104BD00000000000000000000000000000000000D5
:104BE00000000000000000000000000000000000C5
:104BF00000000000000000000000000000000000B5
:104C000000000000000000000200000000000000A2
:104C1000010000000000000000000000070000008C
:104C20000E0000000000000000000000010203046C
:104C3000060708090000000001020304000000004C
:104C4000000000000000F03F000000000000F83FFE
:104C500000000000000000000000004003B8E23F38
:104C6000000000000000000006D0CF43EBFD4C3EEA
:104C7000033333333333E33FFFAB6FDBB66DDB3FDF
:104C80004D268F515555D53F01411DA96074D13F27
:104C900065DBC9934A86CD3FEF4E454A287ECA3F21
:104CA0003E5555555555C53F93BDBE166CC166BFA3
:104CB0002CDE25AF6A56113FF16BD2C541BDBBBE9C
:104CC000D0A4BE726937663E0000000000000000FC
:104CD000F04C000800000020BC0100006A0700083A
:104CE000404D0008BC010020043A0000A42F000839
:104CF0000118764472696C6C3201200A50656E208E
:104D00006D6F746F7215535445506D4E4F524D1C5C
:104D1000C1E9100138DAC8506C53706981334443DB
:104D200069800A6502805D56657274807D535445C2
:104D300050800A6503802908821044A24A040000BA
:04000005080000ED02
:00000001FF
