:020000040800F2
:10000000A81C002001010008DD3400081D2600089E
:10001000D934000891070008913A00080000000058
:10002000000000000000000000000000453500084E
:100030009507000800000000193500084735000842
:100040001B0100081B0100081B0100081B01000820
:100050001B0100081B0100081B0100081B01000810
:100060001B0100081B0100081B0100081B01000800
:100070001B0100081B0100081B0100081B010008F0
:100080001B0100081B0100081B0100081B010008E0
:100090001B0100081B0100081B0100081B010008D0
:1000A0001B010008153600081B0100080536000872
:1000B0001B0100081B0100081B0100083126000875
:1000C000212600081B0100081B0100081B01000875
:1000D0001B0100081B0100081B0100081B01000890
:1000E0001B0100081B0100081B010008DFF80CD0F1
:1000F00000F0C0FA0048004761400008A81C00203A
:100100000648804706480047FEE7FEE7FEE7FEE7B1
:10011000FEE7FEE7FEE7FEE7FEE7FEE7AD35000897
:10012000ED000008202A04DB203A21FA02F0002129
:10013000704721FA02F3D040C2F1200291400843F7
:100140001946704740EA01039B0703D009E008C93C
:10015000121F08C0042AFAD203E011F8013B00F88C
:10016000013B521EF9D27047D2B201E000F8012BD8
:10017000491EFBD270470022F6E710B513460A4627
:1001800004461946FFF7F0FF204610BD10B50022C7
:1001900000E0521C835C8C5CA34201D1002BF8D19F
:1001A000D8B2E1B2401A10BD2DE9FE4F804681EA77
:1001B0000300C00F0C46009021F0004123F00045E1
:1001C000B8EB0200A94105D24046214690461C46A4
:1001D0000B46024623F00040104347D0270DC7F3DB
:1001E0000A00C3F30A510290401A019040286BDACA
:1001F000C3F3130040F4801B0098924620B1002303
:10020000D2EB030A63EB0B0B01985946C0F1400295
:10021000504600F099F906460D4650465946019A57
:1002200000F0A1F910EB08006141002487EA1152A7
:1002300084EAE7731A4340D0009A62B3019A012A14
:100240004FEA075215DC001B61EB02014FF0004240
:1002500002EA0752CDE90042001C41F58011324606
:100260002B4600F0A1F903B0BDE8F08F40462146CF
:10027000F9E7001B61EB0201001C41F58013001837
:100280005B412018A2F5001747EB030140EAD57047
:10029000B6196D4111E06D084FEA360645EAC075A2
:1002A0004FEA0752001B61EB0201001C41F580116F
:1002B00049084FEA30000019514132462B4603B03D
:1002C000BDE8F04F00F061B9009801224000002322
:1002D000D0EB020263EBE073009821464FEAE07432
:1002E000B8EB000061EB0401E9E783F000435BE752
:1002F00081F0004158E72DE9FE4F81EA030404F044
:10030000004421F0004100944FF0000B23F0004323
:1003100050EA01045ED052EA03045BD0C3F30A54EE
:10032000C1F30A552C44A4F2F3340194A0FB025407
:10033000C1F3130141F48011C3F3130343F4801399
:1003400001FB024400FB034E840A970A44EA8154ED
:1003500047EA8357A4FB076802958D0A05FB0785CA
:100360004FEA932C04FB0C542705029D4FEA0658D4
:1003700047EA1637B5EB08056EEB070C870E920EB1
:1003800047EA811742EA8312A7FB0201B6EB0B0191
:1003900064EB00042B0D43EA0C335E1844EB1C5055
:1003A000DA465146E7FB0201C5F313044FEA0B336B
:1003B00043EA14534FEA0432019C43EA0603A4F1D2
:1003C0000C040294009CCDE900B400F0EDF803B0F9
:1003D000BDE8F08F00200146F9E72DE9F04D81EAF4
:1003E000030404F0004B21F0004514464FF0000ACE
:1003F00023F0004150EA050220D054EA01021DD04A
:10040000C5F30A570246C5F31303C1F31300C1F342
:100410000A5640F4801543F48013A7EB0608101B1E
:10042000D64608F2FD3873EB050002D308F1010847
:1004300001E092185B41B8F1000F03DA0020014699
:10044000BDE8F08D00204FF48011064684460EE092
:10045000171B73EB050705D3121B63EB050306435C
:100460004CEA010C49084FEA300092185B4150EA0F
:100470000107EDD152EA030012D082EA040083EAB8
:100480000501084305D0101BAB4106D20122002311
:1004900006E000224FF0004302E06FF0010253102B
:1004A0001AEB06004CEB085110EB0A0041EB0B0174
:1004B000BDE8F04D00F069B80EB5C10F80EAE070FC
:1004C0000844CA07002140F233438DE80E000A4673
:1004D0000B4600F069F803B000BD70B5C1F30A52D5
:1004E00001F000450024C1F3130140F2FF3341F451
:1004F00080119A4201DA002070BD40F233439A42E3
:10050000A2F2334203DC5242FFF70CFE00E09040BF
:100510002C43F1D0404270BD30B5041E71F100048F
:1005200004DB4FF00044404264EB0101141E73F100
:10053000000405DB1C464FF00043524263EB04030A
:10054000994208BF904230BD202A04DB203A00FACD
:1005500002F1002070479140C2F1200320FA03F31A
:10056000194390407047202A06DBCB17203A41FA06
:1005700002F043EAE07306E041FA02F3D040C2F130
:100580002002914008431946704710B5141E73F1BC
:10059000000408DA401C41F1000192185B411A4343
:1005A00001D120F0010010BD2DE9F04D92469B468F
:1005B00011B1B1FA81F202E0B0FA80F22032904635
:1005C000FFF7C2FF04460F4640EA0A0041EA0B016A
:1005D00053465A46084313D0114653EA010019D036
:1005E000C8F140025046FFF79DFD05460E465046B5
:1005F00059464246FFF7A8FF084305D0012004E012
:1006000020463946BDE8F08D0020054346EAE076F5
:100610002C4337430A986305E40AA0EB0800002244
:10062000FD0A44EA47540A3002D500200146E9E7B2
:10063000010510196941DDE9084500196941BDE866
:10064000F04DA2E770B521F0004303430CD0C1F395
:100650000A550024D5EB040564EB0403D617AD1A44
:10066000B34102DB0020014670BD201841EB02516E
:1006700070BD0000064C074D06E0E06840F0010345
:1006800094E8070098471034AC42F6D3FFF732FDE8
:10069000A8590008C85900082DE9F04D00231A4652
:1006A0001B1A8A4103DB00200146BDE8F08DC1F32F
:1006B0000A52C1F3130141F480154FF0000BD1072A
:1006C00002D100186D41521E0027044640F2FF116E
:1006D000384601EB620A3E468046024600204FF44F
:1006E0008011FFF71FFDC2197141BB1846EB0100D5
:1006F000B4EB030C75EB000C04D3E41A65EB0005B6
:1007000017460E46241908F101006D418046342831
:10071000E3DDF91946EB0600091BA84103D24FF0AF
:10072000FF32134601E0002213461BEB070046EBA5
:100730000A51BDE8F04DFFF728BF70B58C1810F8CE
:10074000015B15F0070301D110F8013B2A1106D116
:1007500010F8012B03E010F8016B01F8016B5B1E30
:10076000F9D12B0705D40023521E0DD401F8013B0B
:10077000FAE710F8013BCB1A921C03E013F8015B77
:1007800001F8015B521EF9D5A142D8D3002070BDFB
:1007900000BFFEE77047000010B54FF40051044859
:1007A00000F014FA4FF47A7000F066F810BD000003
:1007B0000010014002E000220270401C0A1EA1F15C
:1007C000010399B2F7D1704770B50446002594F83B
:1007D0002100022803D00420A063012548E02068FE
:1007E000006820F00E00216808602068006820F092
:1007F0000100216808601F492068884201D101205A
:1008000026E01C4914312068884201D110201FE0E5
:10081000184928312068884201D1801518E015490F
:100820003C312068884201D1801411E011495031D7
:100830002068884202D14FF4803009E00D496431CC
:100840002068884202D14FF4801001E04FF08070A0
:10085000084908394860012084F8210000BF0020C1
:1008600084F8200000BF606B10B12046616B8847A0
:10087000284670BD0800024070B5044600F0B0F98B
:1008800006462546681C10B104480078054400BFA0
:1008900000F0A6F9801BA842FAD370BDB801002071
:1008A0002DE9F84703460024002000258446002750
:1008B00000226EE14FF0010808FA02F4D1F800803E
:1008C00008EA0400A0427DD1DFF8D0A2D1F804806C
:1008D000A8EB0A09D0453AD014DCB8F1030F50D088
:1008E00009DCB8F1000F31D0B8F1010F1CD0B8F11C
:1008F000020F49D120E0B8F1110F18D0B8F1120F52
:1009000042D11EE0B9F5881F25D006DCB9F5803F3D
:1009100020D0B9F5801F37D11AE0B9F5001F18D0E3
:10092000B9F5041F30D117E0D1F80CC02DE0D1F893
:100930000C8008F1040C28E0D1F80C8008F1080CB8
:1009400023E0D1F80C8008F10C0C1EE000BF00BFC2
:1009500000BF00BF00BF00BFD1F80880B8F1000F92
:1009600002D14FF0040C0BE0D1F80880B8F1010F70
:1009700003D14FF0080C1C6102E04FF0080C5C61E1
:1009800003E04FF0000C00E000BF00BFFF2801D8DB
:10099000984601E003F104084646FF2802D84FEAD2
:1009A000820803E0A2F108084FEA88084746D6F813
:1009B00000804FF00F0909FA07F928EA09080CFA34
:1009C00007F900E088E048EA0908C6F80080D1F895
:1009D000048008F08058B8F1805F7DD100BFDFF857
:1009E000C081D8F8188048F00108DFF8B491C9F840
:1009F0001880C846D8F8188008F00108CDF80080A3
:100A000000BF00BF4FEAB9384FEA920958F82950A1
:100A10004FEA82784FEA18794FF00F0808FA09F880
:100A200025EA0805DFF87C81434502D14FF0000834
:100A300016E0DFF87481434502D14FF001080FE062
:100A4000DFF86881434502D14FF0020808E0DFF883
:100A50006081434502D14FF0030801E04FF00408E4
:100A60004FEA82794FEA197908FA09F848EA050548
:100A7000DFF840814FEA920948F82950D1F8048004
:100A800008F48038B8F5803F0AD1DFF82C81D8F817
:100A9000008048EA0008DFF82091C9F8008009E0EA
:100AA000DFF81481D8F8008028EA0008DFF8089100
:100AB000C9F80080D1F8048008F40038B8F5003F88
:100AC00010D1DFF8F48008F10408D8F8008048EA73
:100AD0000008DFF8E49000E05AE009F10409C9F8E1
:100AE00000800DE0DFF8D08008F10408D8F800801D
:100AF00028EA0008DFF8C09009F10409C9F800806D
:100B0000D1F8048008F48018B8F5801F0ED1DFF802
:100B1000A88008F10808D8F8008048EA0008DFF843
:100B2000989009F10809C9F800800DE0DFF8888085
:100B300008F10808D8F8008028EA0008DFF8789063
:100B400009F10809C9F80080D1F8048008F40018F8
:100B5000B8F5001F0ED1DFF8608008F10C08D8F856
:100B6000008048EA0008DFF8509009F10C09C9F844
:100B700000800DE0DFF8408008F10C08D8F8008014
:100B800028EA0008DFF8309009F10C09C9F8008064
:100B9000521C102AFFF48EAEBDE8F8870000111039
:100BA0000010024000080140000C0140001001400C
:100BB000001401400800014000040140024693680F
:100BC0000B400BB1012000E000207047C2684A4092
:100BD000C26070470AB1016101E00B040361704714
:100BE0000148006870470000B00100207047000015
:100BF000F8B504460D46174665B903F091F8064668
:100C0000082302223146204600F015FC70B1FFF7A0
:100C1000C3FD0BE003F07EF8064601231C2231469B
:100C2000204600F0BBFB08B1FFF7B6FD00BF002077
:100C3000009020684069009020688069009000BFA3
:100C400000BF012251030248FFF7C4FFF8BD0000B6
:100C5000001001402DE9F04704464FF00008C1465E
:100C60000027BA462068456920684668344828400D
:100C700080B106F4807068B1206C40F001002064FF
:100C80006FF48070216848612068006840F400407B
:100C90002168086005F4813050B106F4807038B1E5
:100CA000206C40F0020020646FF4007021684861FD
:100CB00005F4823078B306F4807060B394F83E8017
:100CC000B4F82A9094F83D70D4F830A0B8F1200F11
:100CD0000FD1B9F1000F0CD1212F06D0292F04D04C
:100CE000282F06D1BAF1210F03D1204602F088F94E
:100CF00011E0206C40F00400206494F83E001028BD
:100D000005D12068006840F40070216808606FF425
:100D100080602168486105F4843050B106F4807029
:100D200038B1206C40F0080020646FF40060216846
:100D30004861206C10B1204601F0B6FCBDE8F08798
:100D4000000101002DE9F0410646306887693068EE
:100D500044693068456896F83E80B8F1100F02D0BB
:100D6000B8F1400F58D104F0011030B105F4007013
:100D700018B1304602F05FF813E04E48204030B121
:100D800005F4007018B1304601F02BFF09E0494826
:100D9000801F204028B105F4007010B1304601F0EA
:100DA00027FF45483840D8B142487830204050B1FC
:100DB00005F4806038B13F48001F204018B9304624
:100DC00001F06AFE74E03B48001F204000286FD00D
:100DD00005F4007000286BD0304601F00DFE67E08E
:100DE00034483830204050B105F4806038B1314883
:100DF000001F204018B9304601F08FFD58E02D4803
:100E0000001F2040002853D005F4007000284FD068
:100E1000304601F001FD4BE02648801F204030B1F4
:100E200005F4007018B1304602F0CEF840E02148D9
:100E30000830204030B105F4007018B1304602F09F
:100E400031F935E01C483840C8B11A4878302040A4
:100E500050B105F4806038B11648001F204018B921
:100E6000304602F08EF823E01248001F2040F8B10F
:100E700005F40070E0B1304602F075F818E00D4856
:100E80003830204050B105F4806038B10948001F67
:100E9000204018B9304602F01EF809E00548001F4E
:100EA000204028B105F4007010B1304602F004F87B
:100EB000BDE8F0810800010004001000014691F82F
:100EC0003D0020281BD1282081F83D0008680068DB
:100ED00000F0010028B90868006840F001000A68C5
:100EE00010600868006840F480600A681060086854
:100EF000406840F440700A6850600020704702204B
:100F0000FCE7704770B50446002600250CB90120A7
:100F100070BD94F83D0028B9002084F83C002046BC
:100F200000F004F9242084F83D002068006820F0D7
:100F300001002168086000F08DFC05464C4960689E
:100F4000884206D84B48854201D2012007E00020A4
:100F500005E04948854201D2012000E00020012837
:100F600000D1D5E74548B5FBF0F62068466040491A
:100F70006068884201D8701C07E04FF49670704397
:100F80004FF47A71B0FBF1F0401C216808623849D7
:100F90006068884214D8681E61684900B0FBF1F0AF
:100FA000401CC0F30B00042801D204203DE0681E61
:100FB00061684900B0FBF1F0401CC0F30B0034E065
:100FC000A06838B9681E616801EB4101B0FBF1F01F
:100FD000401C0AE0681E616801EBC10202EB0111CE
:100FE000B0FBF1F0401C40F48040C0F30B0008B9A6
:100FF00001201AE0A06848B9681E616801EB410150
:10100000B0FBF1F0401CC0F30B000CE0681E6168FF
:1010100001EBC10202EB0111B0FBF1F0401CC0F387
:101020000B0040F4804040F400402168C861D4E9DE
:101030000701084321680860D4E9031008432168C8
:101040008860D4E9050108432168C8602068006809
:1010500040F001002168086000202064202084F80E
:101060003D000020206384F83E0000BF50E70000F0
:10107000A086010080841E0000093D0040420F0050
:101080002DE9F04105462846FFF718FF08B1FFF7A4
:1010900083FB02F03FFE0078B0B900240CE002F0C0
:1010A00045FE074602F036FE611C465C2246394684
:1010B000304603F089FE641C02F030FE401EA04260
:1010C000EDDC02F0AFFE10E002F024FE0078012813
:1010D00003D1022003F0E4FE07E002F01BFE0078DB
:1010E000022802D1032003F0DBFE00224FF400515E
:1010F0000B48FFF76FFD02F011FE84B202F00AFE0A
:1011000006462146FFF756FB02F00EFE84B202F0BF
:1011100007FE06462146FFF74DFBBDE8F0810000C3
:1011200000100140704770477047704710B586B097
:101130000446002002900390049005901A4920680C
:1011400088422FD100BF1948806940F00800174934
:1011500088610846806900F00800019000BF00BF68
:101160004FF440700290122003900320059002A9D2
:101170000F48FFF795FB00BF0E49486840F0E0605C
:1011800040F00200486000BF00BF0848C06940F45A
:1011900000100649C8610846C06900F400100190BB
:1011A00000BF00BF06B010BD005400400010024058
:1011B000000C0140000001402DE9F041074602F01B
:1011C000A9FD0078C01E072824D2DFE800F004241F
:1011D000446484A4C4000121684802F0C3FD804631
:1011E00002F0D3FD0546FFF778F9C0F3072400218C
:1011F000204603F0E3FD0121604802F0B3FD804684
:1012000002F0C3FD0546FFF768F9C4B2012120468C
:1012100003F0D4FDAAE00221584802F0A3FD804665
:1012200002F0B3FD0546FFF758F9C0F3072400218B
:10123000204603F0C3FD0221504802F093FD804692
:1012400002F0A3FD0546FFF748F9C4B2012120468C
:1012500003F0B4FD8AE00321484802F083FD804694
:1012600002F093FD0546FFF738F9C0F3072400218B
:10127000204603F0A3FD0321404802F073FD8046A1
:1012800002F083FD0546FFF728F9C4B2012120468C
:1012900003F094FD6AE00121384802F063FD8046C6
:1012A00002F07AFD0546FFF718F9C0F30724002184
:1012B000204603F083FD0121304802F053FD8046B3
:1012C00002F06AFD0546FFF708F9C4B20121204685
:1012D00003F074FD4AE00221284802F043FD8046F5
:1012E00002F05AFD0546FFF7F8F8C0F30724002185
:1012F000204603F063FD0221204802F033FD8046C2
:1013000002F04AFD0546FFF7E8F8C4B20121204685
:1013100003F054FD2AE00321184802F023FD804623
:1013200002F03AFD0546FFF7D8F8C0F30724002184
:10133000204603F043FD0321104802F013FD8046D0
:1013400002F02AFD0546FFF7C8F8C4B20121204685
:1013500003F034FD0AE002F0FFFC0021084603F030
:101360002DFD0121002003F029FD00BF00BF012257
:1013700051030348FFF72EFCBDE8F0811000002068
:101380000010014010B5044600224FF400510248FD
:10139000FFF720FC10BD00000010014038B50446E6
:1013A00094F83D00282844D101B10AB9012038BD84
:1013B00000BF94F83C00012801D10220F7E701208A
:1013C00084F83C0000BF2068006800F0010028B9E4
:1013D0002068006840F001002568286020680068E7
:1013E00020F40060256828602A2084F83D00202031
:1013F00084F83E000020206461626285E362608DB3
:10140000208500BF0020009020684069009020687F
:101410008069009000BF00BF00BF002084F83C003E
:1014200000BF2068406840F4E060256868600020E4
:10143000BDE70220BBE738B5044694F83D002828F4
:1014400044D101B10AB9012038BD00BF94F83C0075
:10145000012801D10220F7E7012084F83C0000BFF9
:101460002068006800F0010028B92068006840F09A
:101470000100256828602068006820F40060256865
:101480002860292084F83D00202084F83E000020B8
:10149000206461626285E362608D208500BF002068
:1014A000009020684069009020688069009000BF2B
:1014B00000BF00BF002084F83C0000BF20684068E7
:1014C00040F4E060256868600020BDE70220BBE7CB
:1014D00003480068034909780844014908607047D7
:1014E000B0010020B801002010B50848006840F0A5
:1014F000100006490860032000F0AAF8002000F060
:1015000007F800F02BF8002010BD0000002002407A
:1015100070B504460E4800784FF47A71B1FBF0F0D4
:101520000C490968B1FBF0F5284600F01DFC08B134
:10153000012070BD102C07D200222146501E00F061
:1015400048F80548046001E00120F2E70020F0E7D8
:10155000B8010020BC010020B401002008B500BF84
:101560001348806940F0010011498861084680698C
:1015700000F00100009000BF00BF00BF0846C06936
:1015800040F08050C8610846C06900F0805000906B
:1015900000BF00BF052000F05BF800BF05494868A8
:1015A00020F0E06040F00070486000BF08BD00001F
:1015B000001002400000014000BF00F01F020121A6
:1015C00091404209920002F1E022C2F8001100BFEE
:1015D00070472DE9F05F80460D461646002701F062
:1015E0007FFF074639462A46334601F00700C0F11F
:1015F000070ABAF1040F02D94FF0040A01E0C0F162
:10160000070AD14600F1040ABAF1070F02D24FF0DF
:10161000000A01E0A0F1030AD4464FF0010A0AFAD9
:1016200009FAAAF1010A0AEA020A0AFA0CFA4FF0C8
:10163000010B0BFA0CFBABF1010B0BEA030B4AEAB3
:101640000B042146404601F053FFBDE8F09F000027
:1016500000BF00F00702064B19684FF6FF03194060
:10166000044B0B4343EA0221014B196000BF704752
:101670000CED00E00000FA0570B504460D460026AA
:101680006D48006800F00700A8420ED26A48006862
:1016900020F007002843684908600846006800F009
:1016A0000700A84201D0012070BD207800F00200A0
:1016B00002281DD1207800F00400042805D15F48DD
:1016C000406840F4E0605D494860207800F0080020
:1016D000082805D15948406840F46050574948608F
:1016E0005648406820F0F000A1680843534948601C
:1016F000207800F0010000285DD06068012806D144
:101700004E48006800F4003090B90120CCE76068D2
:10171000022806D14948006800F0007040B9012055
:10172000C2E74648006800F0020008B90120BBE7A4
:101730004248406820F00300616808433F49486020
:10174000FFF74EFA06466068012810D108E0FFF75F
:1017500047FA801B41F28831884201D90320A3E770
:101760003648406800F00C000428F0D123E060689F
:10177000022810D108E0FFF733FA801B41F28831CC
:10178000884201D903208FE72C48406800F00C0004
:101790000828F0D10FE008E0FFF722FA801B41F2A1
:1017A0008831884201D903207EE72448406800F050
:1017B0000C000028F0D12048006800F00700A84283
:1017C0000ED91D48006820F0070028431A49086018
:1017D0000846006800F00700A84201D0012063E736
:1017E000207800F00400042807D11448406820F451
:1017F000E060E168084311494860207800F0080083
:10180000082808D10D48406820F46050216940EA5A
:10181000C1000A49486000F03DF808494968C1F331
:101820000311074A515CC840064908600020FFF7D1
:101830006FFE002038E70000002002400010024048
:10184000FC580008BC0100200148006870470000F7
:10185000BC01002000B5FFF7F7FF04494968C1F358
:101860000221034A515CC84000BD00000010024044
:101870000C59000800B5FFF7E7FF04494968C1F3B8
:10188000C221034A515CC84000BD00000010024064
:101890000C590008F0B585B00FF26C0C9CE8E01014
:1018A00001A8A0E8E0101CA52D68009500210022E9
:1018B000002300240020194D696801F00C05F5B1E2
:1018C000042D02D0082D19D101E0154819E001AD11
:1018D000C1F38346AC5D01F4803555B10F4D6D68A1
:1018E000C5F340451DF805200D4D6543B5FBF2F3EA
:1018F00002E00C4D04FB05F3184602E000BF084867
:1019000000BF00BF05B0F0BD0203040506070809CB
:101910000A0B0C0D0E0F1010010200000010024007
:1019200000127A0000093D00F8B504460025207831
:1019300000F00100002878D0F848406800F00C0062
:1019400004280CD0F548406800F00C00082811D19C
:10195000F248406800F48030B0F5803F0AD1EF488B
:10196000006800F4003000285FD0606800285CD177
:101970000120F8BD00BF6068B0F5803F06D1E748A0
:10198000006840F48030E549086028E0606858B994
:10199000E248006820F48030E049086008460068AA
:1019A00020F4802008601AE06068B0F5A02F0BD109
:1019B000DA48006840F48020D8490860084600688A
:1019C00040F4803008600AE0D448006820F4803099
:1019D000D24908600846006820F48020086000BFF3
:1019E000606888B1FFF7FCF8054606E0FFF7F8F8F5
:1019F000401B642801D90320BBE7C848006800F4F5
:101A000000300028F2D010E0FFF7EAF8054606E0C3
:101A1000FFF7E6F8401B642801D90320A9E7BF4877
:101A2000006800F400300028F2D1207800F00200B5
:101A3000022857D1B948406800F00C0050B1B748AF
:101A4000406800F00C00082818D1B448406800F441
:101A5000803098B9B148006800F0020020B12069D8
:101A6000012801D0012084E7AC48006820F0F8008C
:101A7000616940EAC100A949086033E02069E8B122
:101A80000120A7490860FFF7ABF8054606E0FFF71D
:101A9000A7F8401B022801D903206AE79F48006885
:101AA00000F002000028F2D09C48006820F0F80006
:101AB000616940EAC1009949086013E00020984933
:101AC0000860FFF78DF8054606E0FFF789F8401B30
:101AD000022801D903204CE79048006800F002007A
:101AE0000028F2D1207800F0080008282DD1A06944
:101AF000B8B101208B490860FFF772F8054606E08F
:101B0000FFF76EF8401B022801D9032031E7834814
:101B1000406A00F002000028F2D0012001F0FEFC33
:101B200013E000207F490860FFF75AF8054606E0F9
:101B3000FFF756F8401B022801D9032019E7774820
:101B4000406A00F002000028F2D1207800F0040082
:101B5000042873D100267148C06900F0805070B924
:101B600000BF6E48C06940F080506C49C8610846AB
:101B7000C06900F08050009000BF00BF01266A4895
:101B8000006800F48070B0B96748006840F4807065
:101B900065490860FFF724F8054606E0FFF720F8DE
:101BA000401B642801D90320E3E65F48006800F485
:101BB00080700028F2D000BFE068012806D15748A5
:101BC000006A40F001005549086227E0E06858B912
:101BD0005248006A20F00100504908620846006A35
:101BE00020F00400086219E0E06805280BD14B489A
:101BF000006A40F00400494908620846006A40F063
:101C0000010008620AE04548006A20F001004349EB
:101C100008620846006A20F00400086200BFE0681D
:101C2000A0B1FEF7DDFF054609E0FEF7D9FF401B36
:101C300041F28831884202D903209AE622E03748EF
:101C4000006A00F002000028EFD012E0FEF7C8FFA3
:101C5000054608E0FEF7C4FF401B41F28831884288
:101C600001D9032085E62D48006A00F00200002813
:101C7000F0D1012E05D12948C06920F080502749B4
:101C8000C86100BFE069C8B32448406800F00C0098
:101C9000082860D0E069022848D100202049086661
:101CA000FEF79EFF054606E0FEF79AFF401B02285E
:101CB00001D903205DE61948006800F00070002893
:101CC000F2D1206AB0F5803F07D11448406820F473
:101CD0000030A168084311494860D4E9080108436D
:101CE0000E49496821F4741108430C4948600120E9
:101CF0000B490866FEF774FF054607E02DE0FEF786
:101D00006FFF401B022801D9032032E60348006818
:101D100000F000700028F2D01FE000000010024028
:101D200000004242800442420070004000200C4902
:101D30000866FEF755FF054606E0FEF751FF401B1B
:101D4000022801D9032014E60648006800F000705C
:101D50000028F2D101E001200BE6002009E6000096
:101D6000000042420010024070B504462546681E3D
:101D7000B0F1807F01D301200FE0681E4FF0E02119
:101D800048610F214FF0FF3001F0B2FB00204FF00F
:101D9000E021886107200861002070BD704770470E
:101DA00010B50346002200BF93F83C00012801D182
:101DB000022010BD012083F83C0000BF22F0FF008C
:101DC000CC6840EA040222F440708C6840EA0402C5
:101DD00022F480604C6840EA040222F400600C683F
:101DE00040EA040222F480500C6940EA040222F422
:101DF00000504C6940EA040222F480408C6940EAB9
:101E0000040222F400408C6940EA0402186842642B
:101E100000BF002083F83C0000BF00BFC9E70246B6
:101E200000BF92F83C00012801D102207047012038
:101E300082F83C0000BF022082F83D001068406834
:101E400020F0700013685860106840680B681843F1
:101E5000136858601068806820F0800013689860EC
:101E6000106880684B68184313689860012082F8F6
:101E70003D0000BF002082F83C0000BF00BFD5E756
:101E800010B504460CB9012010BD94F83D0028B9E6
:101E9000002084F83C00204600F00CF8022084F872
:101EA0003D00211D206801F0BDFB012084F83D00AC
:101EB0000020E9E708B5124A016891420DD100BF40
:101EC0001049896941F400610E4A9161114689699E
:101ED00001F40061009100BF11E00B4A01689142DA
:101EE0000DD100BF0749C96941F00401054AD1611C
:101EF0001146C96901F00401009100BF00BF08BD8F
:101F0000002C014000100240000800400146086813
:101F1000C06840F001000A68D0600868006840F0BE
:101F200001000A6810600020704701460868C06818
:101F300020F001000A68D06000BF0868006A41F222
:101F40001112104050B90868006A9210104028B968
:101F50000868006820F001000A68106000BF0020D7
:101F600070472DE9F04104460D46002600BF94F865
:101F70003C00012802D10220BDE8F081012084F854
:101F80003C0000BF022084F83D002068866826F0EF
:101F9000770626F47F4620688660286850283BD064
:101FA0000CDC202860D004DC002853D0102865D138
:101FB00055E030285DD0402860D141E0602835D020
:101FC00070280DD0B0F5805F03D0B0F5005F55D11B
:101FD00015E02068806820F00700216888604EE0E6
:101FE000D5E902136A68206801F064FB20688668FE
:101FF00026F0770646F07706206886603FE0D5E950
:1020000002136A68206801F055FB2068806840F47C
:1020100080402168886032E0EA686968206801F0E1
:1020200027FC5021206801F051FB28E0EA6869682C
:10203000206801F032FC6021206801F047FB1EE0BF
:10204000EA686968206801F013FC4021206801F00B
:102050003DFB14E00021206801F038FB0FE0102167
:10206000206801F033FB0AE02021206801F02EFBFC
:1020700005E03021206801F029FB00E000BF00BF2F
:10208000012084F83D0000BF002084F83C0000BF20
:1020900000BF71E7704710B5044620680069C0F3BF
:1020A0004000D8B12068C068C0F34000B0B16FF004
:1020B000020021680861012020772068806900F013
:1020C000030018B12046FFF7E5FF05E0204600F0C9
:1020D000E7F8204600F01EFA00202077206800690B
:1020E000C0F38000D8B12068C068C0F38000B0B1F0
:1020F0006FF0040021680861022020772068806961
:1021000000F4407018B12046FFF7C4FF05E02046F8
:1021100000F0C6F8204600F0FDF900202077206886
:102120000069C0F3C000D8B12068C068C0F3C00027
:10213000B0B16FF0080021680861042020772068A2
:10214000C06900F0030018B12046FFF7A3FF05E0C7
:10215000204600F0A5F8204600F0DCF900202077AA
:1021600020680069C0F30010D8B12068C068C0F3CF
:102170000010B0B16FF010002168086108202077CE
:102180002068C06900F4407018B12046FFF782FF54
:1021900005E0204600F084F8204600F0BBF900205E
:1021A00020772068006900F0010058B12068C068FD
:1021B00000F0010030B16FF0010021680861204695
:1021C00000F0A9F920680069C0F3C01058B1206878
:1021D000C068C0F3C01030B16FF0800021680861A2
:1021E0002046FFF7DBFD20680069C0F3801058B17E
:1021F0002068C068C0F3801030B16FF040002168E3
:102200000861204600F08CF920680069C0F3401096
:1022100058B12068C068C0F3401030B16FF02000A2
:10222000216808612046FFF7BAFD10BD70B504466D
:102230000E46154600BF94F83C00012801D102204B
:1022400070BD012084F83C0000BF022084F83D00EE
:1022500035B1042D09D0082D0CD00C2D14D10EE071
:102260003146206801F03CFA0FE03146206801F069
:1022700069FA0AE03146206801F09CFA05E031462F
:10228000206801F0CDFA00E000BF00BF012084F813
:102290003D0000BF002084F83C0000BF00BFCFE736
:1022A00070B50446207F012826D101F0B5FD054612
:1022B000012001F00DFD85421ED10121394801F0B8
:1022C00051FD054601F0A8FE012810D00121354836
:1022D00001F048FD054602F03DFF0121314801F0C3
:1022E00041FD05462946204602F0C8FF04E00022D1
:1022F0000121204602F00AFD207F022826D101F0AC
:102300008BFD0546022001F0E3FC85421ED102212F
:10231000244801F027FD054601F07EFE012810D07B
:102320000221204801F01EFD054602F013FF0221A4
:102330001C4801F017FD05462946204602F09EFF85
:1023400004E000220221204602F0E0FC207F042865
:1023500026D101F061FD0546032001F0B9FC85425C
:102360001ED103210F4801F0FDFC054601F054FE8B
:10237000012810D003210B4801F0F4FC054602F0BF
:10238000E9FE0321074801F0EDFC054629462046F9
:1023900002F074FF04E000220321204602F0B6FCA4
:1023A00070BD00001000002010B504460CB90120DB
:1023B00010BD94F83D0028B9002084F83C00204668
:1023C00000F00CF8022084F83D00211D206801F087
:1023D00029F9012084F83D000020E9E7704700005A
:1023E00030B504460D4600222946206801F054F914
:1023F00017492068884201D1012000E0002090B1F7
:1024000000BF2068006A41F21111084050B92068ED
:10241000006A8910084028B92068406C20F4004008
:102420002168486400BF00BF2068006A41F21111B2
:10243000084050B92068006A8910084028B920680F
:10244000006820F001002168086000BF002030BD56
:10245000002C014030B504460D4635B1042D0BD09B
:10246000082D10D00C2D1CD114E02068C06820F07D
:1024700002002168C86015E02068C06820F00400F0
:102480002168C8600EE02068C06820F0080021685C
:10249000C86007E02068C06820F010002168C860AC
:1024A00000E000BF00BF00222946206801F0F4F8D8
:1024B00017492068884201D1012000E0002090B136
:1024C00000BF2068006A41F21111084050B920682D
:1024D000006A8910084028B92068406C20F4004048
:1024E0002168486400BF00BF2068006A41F21111F2
:1024F000084050B92068006A8910084028B920684F
:10250000006820F001002168086000BF002030BD95
:10251000002C0140704710B5044601F0A9FC10BD25
:10252000704710B504460CB9012010BDA06900B178
:1025300000E000BF94F8390028B9002084F8380082
:10254000204600F027F8242084F839002068C0686D
:1025500020F400502168C860204601F0B5F92068D9
:10256000006920F49040216808612068406920F0EB
:102570002A00216848612068C06840F40050216842
:10258000C8600020E063202084F8390084F83A0015
:102590000020CAE710B586B00446002002900390E0
:1025A000049005901A49206888422ED100BF19482E
:1025B000806940F48040174988610846806900F4CA
:1025C0008040019000BF00BF00BF0846806940F016
:1025D000040088610846806900F00400019000BF93
:1025E00000BF48150290022003900320059002A925
:1025F0000948FEF755F94FF48060029000200390DF
:10260000049002A90448FEF74BF906B010BD000083
:1026100000380140001002400008014000BFFEE702
:1026200010B50248FEF716FB10BD0000D0170020C1
:1026300010B50248FEF786FB10BD0000D017002041
:1026400070B505466C6A2068006820F480602168D7
:10265000086000206085616B4863A16B486394F853
:102660003D00602810D1202084F83D00002084F82F
:102670003E0020642068006820F0010021680860A6
:102680002046FEF7B3FA0EE0202084F83D0000203B
:1026900084F83E002068006820F00100216808608E
:1026A0002046FEF72EFC70BD70B5044694F83D50F0
:1026B000292D01D02A2D05D100202063282084F85F
:1026C0003D0011E094F83D00602809D02068406882
:1026D00000F40060B0F5006F02D0202084F83D00C7
:1026E0000020206384F83E002068006820F4006029
:1026F000216808602068406800F40060B0F5006F51
:1027000040D12068406820F4006021684860606B18
:1027100090F82100012814D03D48616B4863606B3C
:10272000FEF752F800285BD02068006820F0010016
:1027300021680860202084F83D00606B416B884769
:102740004EE03348A16B4863A06BFEF73DF80028CC
:1027500046D020684069C0F3801030B1206800691D
:10276000C1B2626A501C606211702068006820F07B
:10277000010021680860202084F83D00A06B416BB7
:1027800088472DE094F83D0060281AD1202084F875
:102790003D000020206420684069C0F3801030B103
:1027A00020680069C1B2626A501C606211702068C2
:1027B000006820F00100216808602046FEF716FA44
:1027C0000EE020684069C0F3801030B120680069D5
:1027D000C1B2626A501C606211702046FEF791FB24
:1027E00094F83D00282811D1206C00F00400042842
:1027F0000CD10848E06200202063202084F83D00CE
:10280000002084F83E002046FEF73AFC70BD000030
:10281000412600080000FFFF70B50446E56A608DA0
:10282000032817D1042D04D0082D02D015F5803FC0
:1028300005D12068006820F4806021680860206865
:102840000069C1B2626A501C60621170608D401EE6
:10285000608560E0608D022853D1042D1AD0082DC8
:1028600018D015F5803F15D0022D06D020680068DD
:1028700020F480602168086005E02068006840F46A
:102880008060216808602068406820F440702168FA
:1028900048600BE02068406820F440702168486080
:1028A0002068006840F400702168086020680069B2
:1028B000C1B2626A501C60621170608D401E6085FA
:1028C00020680069C1B2626A501C60621170608D3C
:1028D000401E6085202084F83D000020206394F88D
:1028E0003E00402806D1002084F83E002046FEF736
:1028F0001BFC10E0002084F83E002046FEF712FC8E
:1029000009E020680069C1B2626A501C60621170FF
:10291000608D401E6085002070BD70B5044694F83F
:102920003D00222866D10025658D032D0AD9206837
:102930000069C1B2626A501C60621170608D401EF5
:10294000608556E0022D01D0032D1CD1E06A0228DB
:102950000CD02068006820F480602168086020683E
:10296000006840F400602168086005E020680068A5
:1029700040F48060216808602068406820F480602E
:102980002168486035E0E06A022806D020680068C7
:1029900020F480602168086005E02068006840F449
:1029A0008060216808602068406820F4E060216849
:1029B000486020680069C1B2626A501C6062117090
:1029C000608D401E6085202084F83D00002020633B
:1029D00094F83E00402806D1002084F83E002046AE
:1029E000FEF7A2FB05E0002084F83E002046FEF73B
:1029F00099FB00BF002070BD70B50446E56A94F8ED
:102A00003D00212846D1608D48B1616A481C606252
:102A1000087821680861608D401E60853AE0042DC9
:102A200016D0082D14D015F5803F11D020684068CD
:102A300020F4E0602168486011202063002084F8C1
:102A40003E00202084F83D002046FEF76CFB21E08C
:102A50002068406820F4E0602168486020680068D1
:102A600040F400702168086000202063202084F872
:102A70003D0094F83E00402806D1002084F83E0036
:102A80002046FEF752FB05E0002084F83E00204679
:102A9000FEF749FB002070BD2DE9F041044694F893
:102AA0003D5094F83E70E66A208DB0BB212D3CD19C
:102AB000042E16D0082E14D016F5803F11D02068B1
:102AC000406820F4E0602168486011202063002005
:102AD00084F83E00202084F83D002046FEF723FBCA
:102AE0007CE02068406820F4E0602168486020684D
:102AF000006840F4007021680860002020632020F6
:102B000084F83D0094F83E00402807D1002084F866
:102B10003E002046FEF709FB60E006E0002084F856
:102B20003E002046FEF7FFFA58E0212D03D0402F4B
:102B300054D1222D52D1608D30B92068406820F4E4
:102B400080602168486049E094F83E0040283CD10C
:102B5000206D98B9E06C012807D1A06CC0B2216843
:102B60000861206D801C206538E0A06CC0F3072050
:102B700021680861206D401C20652FE0206D012830
:102B800007D1A06CC0B221680861206D401C20658F
:102B900024E0206D022821D194F83D00222806D19E
:102BA0002068006840F480702168086016E094F89E
:102BB0003D00212812D1616A481C606208782168B2
:102BC0000861608D401E608508E0616A481C606293
:102BD000087821680861608D401E60850020BDE88E
:102BE000F0810146486CC0B20A681061002070474D
:102BF00038B5014691F83E30CA6A0C6B91F83D0039
:102C0000222873D1086D60B9402B0AD100BF002083
:102C1000009008684069009008688069009000BFD3
:102C200007E1086DC0B90869B0F5404F14D100BF85
:102C30000020009008684069009008688069009052
:102C400000BF00BF0868006840F480700D6828600D
:102C5000086D401C0865ECE0488D88B900BF002075
:102C6000009008684069009008688069009000BF83
:102C700000BF0868006840F400700D682860CAE072
:102C8000488D01286CD112F5803F30D1086800686A
:102C900020F480600D6828600868406800F40060D7
:102CA000B0F5006F10D10868006820F480600D68EE
:102CB000286000BF00200090086840690090086804
:102CC0008069009000BFA6E000BF00200090086867
:102CD0004069009008688069009000BF00BF0868E4
:102CE000006840F400700D68286094E096E0042AC3
:102CF0001ED0082A1CD0122C1AD0C86A022806D06E
:102D00000868006820F480600D68286005E00868A5
:102D1000006840F480600D68286000BF00200090CB
:102D200008684069009008688069009000BF72E000
:102D30000868006820F480600D68286000BF0020EB
:102D4000009008684069009008688069009000BFA2
:102D500000BF0868006840F400700D6828605AE001
:102D6000488D022839D1C86A022817D0086800683F
:102D700040F400600D68286000BF002000900868E3
:102D80004069009008688069009000BF00BF086833
:102D9000006820F480600D68286010E00868006812
:102DA00040F480600D68286000BF00200090086833
:102DB0004069009008688069009000BF00BF086803
:102DC000406800F40060B0F5006F24D108684068E6
:102DD00040F480500D6868601DE00868006840F4A9
:102DE00080600D6828600868406800F40060B0F5F5
:102DF000006F05D10868406840F480500D68686035
:102E000000BF002000900868406900900868806951
:102E1000009000BF00BF002008650AE000BF00204E
:102E2000009008684069009008688069009000BFC1
:102E300000BF002038BD014691F83E0040280ED169
:102E4000086D28B9486C00F0FE000A68106131E096
:102E5000486CC0B240F001000A6810612AE00869BD
:102E6000B0F5804F10D191F83D00212805D1486C74
:102E700000F0FE000A6810611CE0486CC0B240F02F
:102E800001000A68106115E0086D40B9486C00F453
:102E90004070F02242EAE0100A6810610AE0086D12
:102EA000012807D1486C00F44070F12242EAE0109A
:102EB0000A681061002070470146488D48B10868D3
:102EC0000069C2B24B6A581C48621A70488D401E95
:102ED00048850020704770B5044694F83D60608DC9
:102EE00000283ED020680069C1B2626A501C60624E
:102EF0001170608D401E608500F00CFF0578608DBC
:102F00001B281BD12A2E19D1032D09D0042D07D03F
:102F1000052D05D0062D03D0072D01D0082D0DD18C
:102F20002068406820F48060216848602220206387
:102F3000282084F83D002046FEF73EF9608D78B9E0
:102F40002A2E0DD12068406820F4806021684860F6
:102F500022202063282084F83D002046FEF72CF92B
:102F600000BF002070BD0146488D40B14A6A501C28
:102F7000486210780A681061488D401E488500201C
:102F8000704770B5044694F83D50608DD0B1616AC9
:102F9000481C6062087821680861608D401E608569
:102FA000608D78B9292D0DD12068406820F48060AB
:102FB0002168486021202063282084F83D002046B5
:102FC000FEF7E0F9002070BD70B50446002500262C
:102FD00020688069C0F3800000B9012520688069FD
:102FE000C0F3C01010B9A08986B201E0208B86B270
:102FF000324629462046FDF7FBFD002070BD00004B
:1030000070B5044694F83D50E66A042E01D0082EAF
:103010001FD1282D1DD12248E0622068406820F48D
:10302000E060216848606FF4806021684861206832
:10303000006820F480602168086000202063202060
:1030400084F83D00002084F83E002046FEF718F882
:1030500023E0212D1DD11248E06221202063202091
:1030600084F83D00002084F83E002068406820F489
:10307000E060216848606FF48060216848612068E2
:10308000006820F48060216808602046FEF77AF925
:1030900003E06FF4806021684861002070BD00008B
:1030A0000000FFFF38B5044694F83D5020684068A2
:1030B00020F4E0602168486000BF00200090206894
:1030C000406900902068006840F0010021680860B5
:1030D00000BF00BF2068006820F48060216808609D
:1030E0002068406800F40060B0F5006F10D194F8DB
:1030F0003D00222803D094F83D002A2804D1A06B7B
:1031000000684068608503E0606B00684068608527
:10311000608D08B320684069C0F3800048B1206822
:103120000069C1B2626A501C60621170608D401EFD
:10313000608520684069C0F3801048B1206800694C
:10314000C1B2626A501C60621170608D401E608561
:10315000206C40F004002064206C18B12046FFF77A
:10316000A3FA23E0282D03D02A2D01D0292D0DD13B
:103170000F48E06200202063202084F83D000020FA
:1031800084F83E002046FDF77BFF0FE0206B2228ED
:1031900001D0222D0AD100202063202084F83D0098
:1031A000002084F83E002046FEF706F8002038BDD7
:1031B0000000FFFF00B585B0002001900290039051
:1031C000049000BF5448806940F010005249886163
:1031D0000846806900F01000009000BF00BF00BFEB
:1031E0000846806940F0040088610846806900F064
:1031F0000400009000BF00BF00BF0846806940F097
:10320000080088610846806900F00800009000BF4F
:1032100000BF00224FF400514048FDF7DBFC0022C4
:1032200048F2FF013E48FDF7D5FC00224CF67B41F9
:103230003C48FDF7CFFC002280213A48FDF7CAFC4C
:103240004FF40050019001200290002003900120D3
:10325000049001A93148FDF723FB48F2C300019017
:1032600001200290022003900120049001A92C4823
:10327000FDF716FB1C200190012002900020039016
:103280000120049001A92648FDF70AFB20200190A7
:10329000012002900390049001A92148FDF700FB52
:1032A0004CF2734001900120029000200390012015
:1032B000049001A91B48FDF7F3FA4FF40060019058
:1032C000012002900390049001A91648FDF7E8FA46
:1032D000802001900120029003900220049001A917
:1032E0001048FDF7DDFA4FF4C8500190002002901D
:1032F000039001A90A48FDF7D3FA082001900120A4
:103300000290022003900120049001A90548FDF7D6
:10331000C7FA05B000BD00000010024000100140D7
:1033200000080140000C014010B50D480D4908602F
:103330000D48486000210B4881603E21C1604FF478
:10334000804101610021416181614021C161002111
:103350000162FDF7D7FD08B1FDF71EFA10BD0000B0
:1033600000540040D0170020801A060010B500223B
:1033700011461F20FEF72DF91F20FEF71DF9002230
:1033800011462020FEF725F92020FEF715F900222E
:1033900001211920FEF71DF91920FEF70DF9012270
:1033A00011461B20FEF715F91B20FEF705F910BD8D
:1033B00000B595B0002011901290139014900F90CA
:1033C00010901C2108A8FCF7D6FE1C2101A8FCF7D0
:1033D000D2FE3148314908601F20486000212F4843
:1033E00081604FF6FF71C16000210161416181611F
:1033F000FEF746FD08B1FDF7CFF94FF4805011906C
:1034000011A92648FEF7ADFD08B1FDF7C5F923481F
:10341000FEF7CAFF08B1FDF7BFF900200F9010902A
:103420000FA91E48FEF7FBFC08B1FDF7B5F9002017
:10343000089009900A900B900C900D900E9000222D
:1034400008A91648FEF7F2FE08B1FDF7A5F9042217
:1034500008A91248FEF7EAFE08B1FDF79DF9082217
:1034600008A90E48FEF7E2FE08B1FDF795F9002025
:10347000019002900390049005904FF40050069044
:103480000020079001A90548FEF78AFC08B1FDF766
:1034900083F915B000BD0000002C01402418002065
:1034A00010B50A480A4908600A48486000210848DF
:1034B0008160C16001610C21416100218161C161B4
:1034C000FFF72FF808B1FDF767F910BD003801408C
:1034D00064180020A80D0E0000BFFEE77047000032
:1034E00002480068C0F30220704700000CED00E0C5
:1034F00010B5002807DA0A07140E054A00F00F037A
:103500001B1FD45403E00A07130E024A135410BDC4
:1035100018ED00E000E400E07047000008B508493D
:103520000968C9084FF47A72B1FBF2F14143009186
:1035300000BF00BF00994A1E00920029F9D108BDC2
:10354000BC010020704710B5FDF7C2FF10BD00B5EB
:103550008FB0282105A8FCF70EFE14216846FCF761
:103560000AFE022005900120099010200A900220F6
:103570000C9000210D914FF4C0110E9105A8FEF79B
:10358000D3F908B1FDF708F90F200090022001904F
:10359000002002900390049001216846FEF76CF829
:1035A00008B1FDF7F9F80FB000BD00001148006840
:1035B00040F001000F490860084640680E49084085
:1035C0000C494860084600680C49084009490860F1
:1035D0000846006820F4802008600846406820F40F
:1035E000FE0048604FF41F008860C803044908606B
:1035F00070470000001002400000FFF8FFFFF6FED9
:1036000008ED00E010B50248FEF745FD10BD0000D2
:103610002418002010B50248FEF73DFD10BD000043
:103620002418002000220268184B984208D0B0F1FC
:10363000804F05D0164B984202D0164B984203D1CA
:1036400022F070024B681A43104B984208D0B0F138
:10365000804F05D00E4B984202D00E4B984203D1BA
:1036600022F44072CB681A4322F080024B691A435D
:1036700002608B68C3620B688362044B984201D17D
:103680000B6903630123436170470000002C014074
:10369000000400400008004030B50023012404FA73
:1036A00001F3046A9C430462046A02FA01F52C43A4
:1036B000046230BD30B50C460021816821F47F41A1
:1036C00042EA032525432943816030BD0A46002193
:1036D000816821F0700142F007031943816070474F
:1036E00030B5002400220023056A25F0010505629B
:1036F000026A4368846924F0700424F003040D68AE
:103700002C4322F002028D682A430D4DA84206D1B7
:1037100000BF22F00802CD682A4322F00402084DBF
:10372000A84207D123F4807323F400734D692B431F
:103730008D692B43436084614D684563026230BDEF
:10374000002C014030B5002400220023056A25F03A
:1037500010050562026A4368846924F4E04424F495
:1037600040740D6844EA052422F020028D6842EA84
:1037700005120F4DA84207D100BF22F08002CD688C
:1037800042EA051222F04002094DA84209D123F471
:10379000806323F400634D6943EA85038D6943EA3E
:1037A0008503436084614D688563026230BD00001B
:1037B000002C014030B5002400220023056A25F4C6
:1037C00080750562026A4368C46924F0700424F0BD
:1037D00003040D682C4322F400728D6842EA05222E
:1037E0000E4DA84207D100BF22F40062CD6842EA24
:1037F000052222F48062094DA84209D123F48053A6
:1038000023F400534D6943EA05138D6943EA051318
:103810004360C4614D68C563026230BD002C014045
:1038200030B5002200230024056A25F48055056286
:10383000036A4468C26922F4E04222F440720D68CF
:1038400042EA052223F400538D6843EA0533074D0D
:10385000A84204D124F480444D6944EA85144460AC
:10386000C2614D680564036230BD0000002C014058
:1038700030B50B46144600210022026A056A25F085
:1038800001050562816921F0F00141EA041122F08D
:103890000A021A438161026230BD30B50B461446FC
:1038A00000210022056A25F0100505628169026A7F
:1038B00021F4704141EA043122F0A00242EA0312ED
:1038C0008161026230BD00002DE9F041044600250F
:1038D0002068006920F44050E168084321680861CD
:1038E0002169A06808436169084305432068C068EE
:1038F00041F20C61884328432168C8602068406910
:1039000020F44070A1690843216848615F4920683C
:1039100088425CD1FDF7AEFF00EBC00101EB001067
:1039200061688900B0FBF1F6FDF7A4FF00EBC00170
:1039300001EB001061688900B0FBF1F06421B0FB7D
:10394000F1F000EBC00101EB0010A6EB800032218A
:1039500001EB00106421B0FBF1F000F0F006FDF780
:1039600089FF00EBC00101EB001061688900B0FB2A
:10397000F1F06421B0FBF1F006EB0016FDF77AFFE1
:1039800000EBC00101EB001061688900B0FBF1F7AA
:10399000FDF770FF00EBC00101EB001061688900CA
:1039A000B0FBF1F06421B0FBF1F000EBC00101EBE2
:1039B0000010A7EB8000322101EB00106421B0FB66
:1039C000F1F000F00F003044216888605BE0FDF703
:1039D00041FF00EBC00101EB001061688900B0FB02
:1039E000F1F6FDF737FF00EBC00101EB0010616855
:1039F0008900B0FBF1F06421B0FBF1F000EBC001F5
:103A000001EB0010A6EB8000322101EB00106421D5
:103A1000B0FBF1F000F0F006FDF71CFF00EBC00179
:103A200001EB001061688900B0FBF1F06421B0FB8C
:103A3000F1F006EB0016FDF70DFF00EBC00101EB06
:103A4000001061688900B0FBF1F7FDF703FF00EBA0
:103A5000C00101EB001061688900B0FBF1F0642146
:103A6000B0FBF1F000EBC00101EB0010A7EB800010
:103A7000322101EB00106421B0FBF1F000F00F00E7
:103A8000304421688860BDE8F081000000380140C2
:103A900000BFFEE7490050EAC12018BF04204A0DCC
:103AA00018BF40F0010040F2FF72B2EB515F08BF57
:103AB00040F00200012808BF052070472DE9F041C1
:103AC0004F1E00EBC7010446D1E9000115461E4612
:103AD00037F006020DD02A463346FCF70CFC7F1E59
:103AE00004EBC703D3E90023FCF75EFB37F00602C3
:103AF000F1D1022F25D0042F13D0062F18BFBDE817
:103B0000F0812A463346FCF7F6FBD4E90A23FCF79A
:103B10004BFB2A463346FCF7EEFBD4E90823FCF7BF
:103B200043FB2A463346FCF7E6FBD4E90623FCF7C1
:103B30003BFB2A463346FCF7DEFBD4E90423FCF7C3
:103B400033FB2A463346FCF7D6FBD4E90223FCF7C5
:103B50002BFB2A463346FCF7CEFBD4E90023BDE815
:103B6000F041FCF721BB000000221346104601493A
:103B7000FCF733BC0000F03FFCF716BB00221346F5
:103B800010461146FCF729BC40F2013200204FF0EC
:103B9000E041FCF757BD0000024A00201107FCF786
:103BA00051BD000001FDFFFF02E008C8121F08C15F
:103BB000002AFAD170477047002001E001C1121FAE
:103BC000002AFBD1704700000149086070470000DF
:103BD000C00100202DE9F74F84B00C46914600BF8C
:103BE0002046FCF769FC05460E460498FCF764FC89
:103BF00007462A463346FCF7D7FA82468B464846A4
:103C0000FCF75AFC054600224FF08043FCF773FB9B
:103C100052465B46CDE90001FCF7DFFBCDE902012E
:103C2000DDE9020107B0BDE8F08F00002DE9F041A9
:103C300004460D4622462B4600200449FCF7CDFBE6
:103C400006460F4630463946BDE8F08180842E4155
:103C500070B505460C46012D04D0022D11D0032D60
:103C60002DD11DE0012C05D1002220211648FCF7A2
:103C7000B1FF05E024B9012220211348FCF7AAFF77
:103C800020E0012C05D1002280211048FCF7A2FF82
:103C900005E024B9012280210C48FCF79BFF11E0CC
:103CA000012C05D10022E1020848FCF793FF05E052
:103CB00024B90122D1020548FCF78CFF02E0FCF791
:103CC0006BFD00BF00BF70BD00080140000C01404B
:103CD00070B50546012D04D0022D05D0032D09D164
:103CE00005E00748048808E00648048805E006481F
:103CF000048802E0FCF750FD00BF00BF204670BD05
:103D0000A4010020A6010020A80100200146886C23
:103D10007047000000487047C40100201C20704715
:103D200000487047000000200220704701480068EA
:103D3000704700000800002001480068704700003C
:103D4000040000200146C1EBC100024A02EB8000E2
:103D500070470000E0010020014800787047000033
:103D6000A001002010B503460C46002209E003F133
:103D7000100000EBC2118869A04201D1084610BDB5
:103D8000521C032AF3DB0020F9E710B50246D2E902
:103D900016341846214610BD70B50446A06CFCF7D9
:103DA0008BFB05460E462846314670BD01468869A4
:103DB00070470146486F7047014604290ED004DC65
:103DC000012907D002290FD106E0082908D01029BF
:103DD0000AD107E0002009E0012007E0022005E009
:103DE000032003E0072001E0002000BF00BF704770
:103DF0002DE9F04104462068406A86B200F00CF8D4
:103E00000746044800EA074040EA06052846BDE8A0
:103E1000F08100000000FFFF0148008870470000AB
:103E2000A201002010B5FFF781FFC82805D1FFF7D8
:103E300083FF10B9FCF7B0FC04E003480068401CA5
:103E40000149086010BD00000800002000B5FFF720
:103E500073FFC82803D100200449086004E0034828
:103E60000068401C0149086000BD000004000020FB
:103E7000074800884FF6FF71884203D100200449AB
:103E8000088004E002480088401C0149088070470F
:103E9000A20100202DE9F04106460F4600255EE014
:103EA00006EBC51101F10B002FA1FCF76FF90028FB
:103EB0004AD106EBC511886FFFF77EFF044606EB7B
:103EC000C5108069012804D0022815D003283AD1F2
:103ED00025E004F0010210212548FCF77BFEC4F325
:103EE000400208212248FCF775FEC4F38002042139
:103EF0001F48FCF76FFE26E004F0010240211D4838
:103F0000FCF768FEC4F3400220211A48FCF762FE69
:103F1000C4F3800210211748FCF75CFE13E004F0A4
:103F200001024FF480611348FCF754FEC4F34002D1
:103F300002211048FCF74EFEC4F3800201210D4817
:103F4000FCF748FE00BF09E0002240210948FCF7C9
:103F500041FE012220210748FCF73CFE6D1CBD42BA
:103F60009EDBBDE8F0810000535445500000000086
:103F700000080140000C01400FB430B5A1B001258C
:103F800000241BE028A800EBC41180226846FCF73F
:103F9000D9F8DDE9120188420BD00998012808D030
:103FA0000798012805D109A10DF10B00FCF7EEF8E7
:103FB00010B90898012800D10025641C032CE1DB0E
:103FC000284621B030BC5DF814FB000044430000DB
:103FD00070B50546012D04D0022D09D0032D15D151
:103FE0000DE04FF480710B48FCF7E8FD04460DE04E
:103FF0004FF400610748FCF7E1FD044606E04FF48A
:1040000080510448FCF7DAFD044600BF00BF20469B
:1040100070BD00000008014070B504460125E0694C
:10402000D0B1206A01280AD1A069FFF7D1FF012889
:1040300003D100BF002020620FE000250DE0606A80
:10404000012801D1002508E0D4E91201884201D1FC
:10405000012502E0002500E00125284670BD000092
:10406000ADF5407DFDF740FAFFF771FAFFF7A2F8D2
:10407000FFF75AF9FFF714FAFFF79AF96FF001000A
:104080004149096808614148406840F480603F49FF
:104090004860FFF76BF93E48FCF710FF08B1FCF7EA
:1040A0007BFB01213B48FFF75DFE04468022214651
:1040B00060A8FCF747F802213648FFF753FE044694
:1040C0008022214680A8FCF73DF803213148FFF704
:1040D00049FE044680222146A0A8FCF733F80321BC
:1040E00060A8FFF7D7FE012000F0DAFE00210120D2
:1040F000FFF7AEFD47E0FFF72FFE022843D1FFF7A1
:104100001BFE0146FFF712FE814232D022A000F0D2
:1041100065FEFFF711FE0346FFF714FE04461D4936
:1041200000F02AFD1B49184801F06AF81648FDF70F
:10413000EDFE00BF4FF4C072164910316846FCF71F
:1041400001F814480FC8FFF717FF0128F2D1FFF755
:104150007DFE0D48FDF7E9FE01210B48FEF740F911
:1041600002210948FEF73CF903210748FEF738F918
:1041700009E0FFF7E1FD0146FFF7D8FD814202D1DA
:10418000012000F08DFEB6E724180020002004E096
:10419000D0170020100000204F52414E474500002C
:1041A0002DE9F04D1D460C4698B0174621F0004110
:1041B00023F00043002814BF4FF0010C4FF0000C17
:1041C0000CEB440CFE4A0CEB02064FEA620C66450F
:1041D0002BD33E0018BF012606EB45061644F94ACC
:1041E000964222D3F84A53EA070C02D0944205D1F2
:1041F00048B918B000201146BDE8F08D002808BF6E
:104200004FF0000C01D04FF0010C0CEB440212F502
:10421000001F0AD8002F14BF4FF0010C4FF0000C04
:104220000CEB450212F5001F07D918B03A462B4691
:104230002146BDE8F04DFFF79FBC0022DFF88CA3BC
:10424000002CB8BF534526DADFF884C36345A8BF06
:10425000022220DADFF870C39C451CDCDFF874C34F
:104260000CEB235CBCF1140F08DDCCF1340627FA0B
:1042700006FC0CFA06F6BE420DD108E05FB9CCF19F
:10428000140623FA06FC0CFA06F69E4203D10CF043
:104290000102C2F1020251EA000C19D1002D17DA15
:1042A000002C18BF022A01D0012A07D00220FFF7F4
:1042B0008BFC18B0BDE8F04DFFF756BC0220FFF7AD
:1042C00083FCFFF751FC18B081F00041BDE8F08D90
:1042D000B7F1000C6CD1534525D104F1804212F5A1
:1042E000801201BF00280020B74918B008BFBDE800
:1042F000F08DB548884207DC002DA1BF60462946F5
:1043000018B0BDE8F08D07E0281E05DA80F0004106
:1043100018B06046BDE8F08DAF497944D1E900019D
:1043200018B0BDE8F08DDFF8A0C2634525D1002D9F
:104330001FDA19B1514512D1D8B909E0002840F06F
:10434000EC82A24A214618B062F31E01BDE8F08D4E
:104350000020214618B060F31E01BDE8F08D08DA98
:1043600018B02346BDE8F04D024600206146FCF738
:1043700034B818B02146BDE8F08D514518DAB5F1D2
:10438000804F0DD0A5F1005CBCF1FF5C10D1B4F101
:10439000000C0DDB18B06146BDE8F04D00F0B4BE76
:1043A000234618B00246BDE8F04D1946FBF7A3BFFF
:1043B000060024F0004C3BD1D9B1514533D1002C3B
:1043C00006DD002DA1BF0020514618B0BDE8F08DDC
:1043D000002C01DD002D1BDB002C13DA002D11DB7E
:1043E000012A4FF0000014BF78497C4918B0BDE89D
:1043F000F08D022A18BF002C0AD0012A08D1002C07
:1044000006DA0AE0002CB8BF002D11DA012A04D028
:10441000002018B00146BDE8F08D18B000204FF024
:104420000041BDE8F08DA1F14050B0F17F601AD09D
:10443000012000EBE47050EA020421D0624C521ECD
:104440004FF0000B104304BF4FF0000B644C654865
:1044500083427CDD644A654893421FDD884217DB56
:10446000002D25DB37E0002C00DA4AB1022A0CBF10
:1044700001204FF0FF3018B0BDE8F04DFCF71CB83C
:104480000120FFF7A1FB18B0BDE8F04DFFF776BBA8
:104490004D4A8A4202DC002D0ADC1CE0814202DA2D
:1044A000002D18DA04E0484B994220DD002D12DD82
:1044B0000220FFF789FBFFF767FB05460E46002247
:1044C000534658462146FBF716FF18B066F31E0107
:1044D0002846BDE8F08D0220FFF776FBFFF75CFB76
:1044E0000A46214618B062F31E01BDE8F08D002295
:1044F00030466146FBF7F9FE80460E466FF001023A
:10450000FCF7A0F84FF05532394BFBF7F1FE42466D
:104510003346FBF7F0FE0022364BFBF7E9FE8246FE
:1045200042463346049110461946FBF7E4FE5246D4
:10453000049BFBF7E0FE8A4600904FF0C0422E4BF2
:1045400040463146FBF7D7FE2C4A2B4B00E027E0D4
:10455000CDE9060151460098FBF7CDFE8246019158
:10456000274A284B40463146FBF7C5FE5246019B81
:10457000FBF7BBFE82460B4602460591DDE90601CC
:10458000FBF712FEDDE90623002688463046FBF7DE
:10459000ACFE5246059BFBF7ABFE024600F07EB92F
:1045A0000020B1F5801F07DA352230466146FCF75E
:1045B00049F806466FF0340000EB215024E000007B
:1045C000FFFF1F00FFFF0F000000F03F0000F07F23
:1045D0000000404301FCFFFF821600000000F0FFD6
:1045E0000000F0BF0000E0410000F043FFFFEF3F9C
:1045F0005555D53F0000E03F4715F73FFE822B653C
:1046000044DF5DF80BAE543EA0F2FF300190C1F3E1
:10461000130040F07F6141F040510291FE49884211
:10462000D8BF002004DDFD498142C8BF012001DD63
:104630000D9008E000200D900198401C0190029818
:10464000A0F5801002900299F54878440B910D99DD
:1046500000EBC100D0E900230F9330460A920B997A
:10466000FBF743FECDE90601DDE90A2130460F9B49
:10467000FBF79AFD02460B460020EA49FBF7ADFE28
:10468000059102460B460090DDE90601FBF733FE7B
:104690001490E5488A464FF0000878440299006873
:1046A00012904FF0005040EA61010D980F9B01EB12
:1046B000804000F5002109910A9A1298FBF715FE37
:1046C00032460B9BFBF714FE42465346FBF713FEA4
:1046D0000646029140465146099B129AFBF70BFE93
:1046E000DDE90623FBF704FE3246029BFBF7FDFDE6
:1046F000059B009AFBF7FFFD0091149A0490534626
:1047000010461946FBF7F7FD06460246C7480B461A
:10471000029106217844FFF7D1F9CDE90510029BFB
:10472000324610461946FBF7E6FDDDE90532FBF798
:10473000E2FD05910646534640461946149AFBF79A
:1047400033FD009B049AFBF7D6FD3246059BFBF731
:104750002BFDCDE905104246534610461946FBF79E
:10476000CAFD0022B24B02910A90FBF71DFDDDE964
:104770000532FBF719FD0E464246AD4B4046FBF7AE
:10478000B4FD029B0A9AFBF7B0FDDDE90532FBF7A9
:10479000AFFD424602910A90334610465146FBF760
:1047A000AAFDCDE906015346149A02990A98FBF72F
:1047B000A2FD8A4602903346424600990498FBF7D0
:1047C0009AFD5346029AFBF7EFFC82460B460246DF
:1047D0000591DDE90601FBF7E7FCDDE90623002092
:1047E00088460646FBF781FD5246059BFBF780FD98
:1047F000824609914FF060428E4B30464146FBF7AE
:104800007AFD049006918C4A8A4B50460999FBF731
:1048100072FD82460291894A894B30464146FBF738
:104820006AFD5246029BFBF7BFFC864B7B440D9A08
:1048300003EBC203D3E90023FBF7B6FC0E9007910C
:104840000198FBF739FE0591DDE9061382460E9AC1
:104850000498FBF7A9FC7C4A7A440D9B02EBC30346
:10486000D3E9002300930292FBF79EFC5246059B7E
:10487000FBF79AFC0026884652463046059BFBF71C
:1048800034FD009B029AFBF730FD069B049AFBF770
:104890002CFD079B0E9AFBF72BFD024600200B46D2
:1048A000029038462946FBF726FD824601912B46A9
:1048B00038461946029AFBF718FD32464346FBF785
:1048C0001AFD5246019BFBF76FFC07468A463246AB
:1048D000434629460298FBF70EFD05460E463A462A
:1048E0005346FBF761FC594A8846914221DBA8EB0D
:1048F000020353EA000210D12A463346FBF7F5FCC7
:10490000CDE90401524A534B38465146FBF74CFC63
:10491000DDE90423FBF700FE21D20220FFF754F962
:10492000FFF732F90A46214618B062F31E01BDE8CE
:10493000F08D494B28F000429A4210D3474A08EBC9
:10494000020353EA00027FF4C6AD2A463346FBF762
:10495000CCFC3A465346FBF7DFFD7FF6BCAD0022A8
:10496000019228F000403E493E4A01EB205182422C
:1049700023DA481C4FF4801121FA00F040443A4AEF
:10498000C0F30A517A44394BA1F2FF31CB4020EAFF
:104990000303C0F3130040F48010C1F11401C840B8
:1049A00012680190B8F1000FBCBF40420190284648
:1049B0003146FBF79AFC05460E462A4633463846F2
:1049C0005146FBF7F1FB4FF000084246284B4046AA
:1049D0000591FBF790FCCDE90601264A264B40469F
:1049E0000599FBF788FC009102902A463346404621
:1049F0000599FBF77AFC3A465346FBF779FC1F4AC8
:104A00001F4BFBF778FC009B029AFBF7CDFB074698
:104A1000884602460B4635E08E9803007AB60B00B6
:104A2000CA1200000000F03F021300003012000024
:104A30000000084009C7EE3FFD033ADCF5015B14B6
:104A4000E02F3EBE08110000CC1000000000904096
:104A5000FE822B654715973C00CC904000346F3F99
:104A600001FCFFFF0000E03F18100000FFFF0F00F7
:104A7000432EE63F396CA80C615C20BEEF39FAFE8C
:104A8000422EE63FDDE90601FBF78EFBDDE906235A
:104A900005460E46FBF729FC3A464346FBF728FC41
:104AA0000F462A463346009010461946FBF723FC72
:104AB000824602462E4888460B4605217844FEF77A
:104AC000FDFF52464346FBF716FC2A463346FBF7EA
:104AD0000FFC80468A463B4628463146009AFBF743
:104AE0000AFC3B46009AFBF75FFB06910090002210
:104AF0004FF0804340465146FBF7F7FB0F460C90C2
:104B00004246534628463146FBF7F5FB3B460C9A96
:104B1000FBF763FC069B009AFBF7E7FB2A4633464C
:104B2000FBF7E3FB0022134BFBF7E2FB0546019882
:104B30000E4601EB00510815002810DC28463146CE
:104B4000019AFBF77FFDFEF7A5FF042808BFFFF7DA
:104B500023F828463146019AFBF774FD05460B46BB
:104B600018B02A4658462146BDE8F04DFBF7C3BBB6
:104B7000B80E00000000F03F2DE9F04F93B005465D
:104B80000F46314A07CA10AB07C3002456E010A8ED
:104B900050F824002E5CB0090F90C6F34019C6F3FC
:104BA0000018C6F3C0000E90C6F380000D9010A848
:104BB00050F82400401C15F800A010A850F824005C
:104BC000801C15F800B010A850F82400C01C285C08
:104BD0000C9010A850F82400001D285C0B9010A821
:104BE00050F82400401D285C0A9010A850F82400BA
:104BF000801D285C09904BEA0A200890DDE90B0132
:104C000040EA01200790DDE9090140EA0120069011
:104C1000B8F1000F11D038460F99FFF7A3F80590AF
:104C200006A807C8CDE90092CDE902104146DDE9AA
:104C30000D32059800F066F900BF641C032CA6D362
:104C400013B0BDE8F08F0000F058000870B50546BD
:104C50000C46012D04D0022D1BD0032D4CD132E087
:104C6000012C05D1012211462648FBF7B3FF05E0D0
:104C700024B9002201212348FBF7ACFF01220221C5
:104C80002048FBF7A7FF002202211E48FBF7A2FFE6
:104C900035E0012C05D10122D1031A48FBF79AFF18
:104CA00006E02CB900224FF400411648FBF792FFB2
:104CB000012208211448FBF78DFF00220821124829
:104CC000FBF788FF1BE0012C05D1012240210D4894
:104CD000FBF780FF05E024B9002240210948FBF7DB
:104CE00079FF012280210748FBF774FF0022802111
:104CF0000448FBF76FFF02E0FBF74EFD00BF00BF6B
:104D000070BD000000080140000C014010B50129F1
:104D100004D0022912D0032930D11FE0012A06D184
:104D20000368DB6843F002030468E36005E003689E
:104D3000DB6823F002030468E3601FE0012A06D168
:104D40000368DB6843F004030468E36005E003687C
:104D5000DB6823F004030468E3600FE0012A06D156
:104D60000368DB6843F008030468E36005E0036858
:104D7000DB6823F008030468E36000BF00BF10BDD8
:104D800070B505460C46012D04D0022D05D0032D2B
:104D900009D105E00648048008E00648048005E0E3
:104DA0000548048002E0FBF7F7FC00BF00BF70BDC0
:104DB000A4010020A6010020A8010020014A5054AF
:104DC000704700000000002010B5C1EBC103024C89
:104DD00004EB8303985410BDE001002070B5044635
:104DE000002529A12046FBF7D1F908B901250EE0DD
:104DF00026A12046FBF7CAF908B9022507E025A13C
:104E00002046FBF7C3F908B9032500E0002535B1BA
:104E1000012D11D0022D1BD0032D30D124E0002212
:104E20004FF480411D48FBF7D5FE00224FF40041AE
:104E30001A48FBF7CFFE25E0012291031748FBF744
:104E4000C9FE00224FF400411448FBF7C3FE19E0ED
:104E500000224FF480411148FBF7BCFE0122D10330
:104E60000E48FBF7B7FE0DE0012291030B48FBF75C
:104E7000B1FE0122D1030948FBF7ACFE02E0FBF7CB
:104E80008BFC00BF00BF70BD5245440047524545F2
:104E90004E0000004F52414E47450000000C0140BB
:104EA00010B50446012C05D10FA0FFF797FF10495C
:104EB0000C7018E0032C08D10E48FDF736F80EA050
:104EC000FFF78CFF0A490C700DE0022C0BD1FEF7A6
:104ED00043FF032802D10748FDF718F808A0FFF7A1
:104EE0007DFF03490C7010BD475245454E00000040
:104EF000A0010020241800204F52414E47450000D9
:104F0000524544002DE9FF4F8BB00446199E51A134
:104F100004F11000FBF73AF948BB2046FEF7F6FE15
:104F2000216F90FBF1F301FB1302206F301A0990FF
:104F3000099B981AB11A002901DB0B4600E04B428D
:104F4000002801DB844601E0C0F1000C634506DC6B
:104F5000B51A2046FEF7DAFE00EB050906E00998CF
:104F6000851A2046FEF7D2FE00EB05090AE03AA1B9
:104F700004F11000FBF70AF920B92046FEF7C6FE3F
:104F8000351AB146002D04DBDDF868B0DDF86CA001
:104F900005E01A98C0F1000B1B98C0F1000A6800E8
:104FA000FBF78AFACDE908015846FBF785FA00229B
:104FB0004FF08043CDE90001FFF7F2F8CDE904019D
:104FC0005046FBF779FA00224FF08043CDE900010B
:104FD000FFF7E6F8CDE90201DDE90423FBF785F9E7
:104FE000CDE90601DDE90823FBF7F7F90746884616
:104FF0000C98E0610D9820620E9860621898A0628B
:105000002A4651465846FEF7E5FDC4E90C01002149
:10501000A163E1632564A06C6064C4F84C90C4F89B
:1050200050B05846FBF748FAC4E91601C4F860A02E
:10503000C4E91A78D4E916211046FEF7F7FDCDE948
:105040000801FBF74AFA0A900A9860670FB0BDE8BA
:10505000F08F0000524F54004E4F524D00000000A0
:105060002DE9FF478246DAE90E633246DAE91A8112
:105070004046FBF740F9CDE90201DAF85000FBF7B2
:105080001BFACDE90001DDE90223FBF78DF80446A8
:105090000D46CAE9164520462946FEF7C7FD0646D5
:1050A000FBF71BFACAF87400BDE8FF8770B5054628
:1050B0000E461446012E04D0022E06D0032E0CD12B
:1050C00007E0A0B22968486307E0A1B228688163BD
:1050D00003E0A1B22868C16300BF00BF210C3046C5
:1050E000FFF74EFE70BD70B505460C46A0B22968AC
:1050F0004862200C00F002F870BD000001490880F1
:1051000070470000A20100202DE9F04106460F463D
:10511000FBF7C2FA041E0D4618BF0120284320F0F9
:105120000040C0F17F6000F1E040C00F0ED0301CA5
:1051300018BF0120384320F00040C0F17F6000F12B
:10514000E040C00F04BF0120FEF73EFD2046294687
:10515000BDE8F0812DE9F84F0446E06C0090D4F8EA
:1051600018B0D4F820A0606A012802D0D4F82890A2
:1051700007E0BAF1010F02D14FF0000901E04FF052
:105180000109B9F1010F1AD1A06C401CA064606F35
:10519000FBF792F907460022184BFBF71EF905466C
:1051A000D4E90E733A46FAF7FFFFC4E90E01204630
:1051B000FFF756FF01215846FFF748FD1CE0B9F103
:1051C000000F19D1A06C401EA064606FFBF774F94A
:1051D00005460022094BFBF700F90746D4E90E53B8
:1051E0002A46FAF7E1FFC4E90E012046FFF738FF2F
:1051F00000215846FFF72AFDBDE8F88F80842E4134
:105200002DE9F04107460E463846FCF78EFE012197
:105210003846FDF71FF902213846FDF71BF9032137
:105220003846FDF717F900213846FFF75CFF0025E7
:105230001BE0691C3046FEF795FD0446D4F81C803F
:105240000CA104F10B00FAF7A1FF68B90121A069D4
:10525000FEF7FEFC3846626FA169FFF727FF0122C7
:105260003846A169FFF752FD6D1C032DE1D3BDE85F
:10527000F081000053544550000000002DE9F0413A
:1052800005460C462046FEF791FD80462846FEF76F
:10529000AFFD06462046FEF78CFD87193A4641468B
:1052A0002846FFF703FFBDE8F08100000000000082
:1052B00048616E646C65720000000000010000002F
:1052C0005261696C206D6F746F72005354455000C9
:1052D0004E4F524D00000000010000000000000091
:1052E00000000000000000000100000000000000BD
:1052F00000000000000000000000000000000000AE
:10530000000000000000000000000000000000009D
:10531000000000000000000000000000000000008D
:10532000000000000000000000000000000000007D
:10533000020000000000000001000000000000006A
:105340005370696E206D6F746F7200535445500036
:10535000524F540000000000020000000000000056
:10536000000000000000000001000000000000003C
:10537000000000000000000000000000000000002D
:10538000000000000000000000000000000000001D
:10539000000000000000000000000000000000000D
:1053A00000000000000000000000000000000000FD
:1053B00002000000000000000100000000000000EA
:1053C000466C6970206D6F746F72005354455000C5
:1053D0004E4F524D0000000003000000000000008E
:1053E00000000000000000000100000000000000BC
:1053F00000000000000000000000000000000000AD
:10540000000000000000000000000000000000009C
:10541000000000000000000000000000000000008C
:10542000000000000000000000000000000000007C
:105430000200000000000000010000000000000069
:105440004472696C6C000000000000000100000064
:1054500050656E206D6F746F72000053544550009C
:105460004E4F524D000000000100000000000000FF
:10547000000000000000000001000000000000002B
:10548000000000000000000000000000000000001C
:10549000000000000000000000000000000000000C
:1054A00000000000000000000000000000000000FC
:1054B00000000000000000000000000000000000EC
:1054C00002000000000000000100000000000000D9
:1054D0005370696E206D6F746F720044430000005A
:1054E0004E4F524D0000000002000000000000007E
:1054F00000000000000000000100000000000000AB
:10550000000000000000000000000000000000009B
:10551000000000000000000000000000000000008B
:10552000000000000000000000000000000000007B
:10553000000000000000000000000000000000006B
:105540000200000000000000010000000000000058
:1055500056657274206D6F746F720053544550001D
:105560004E4F524D000000000300000000000000FC
:10557000000000000000000001000000000000002A
:10558000000000000000000000000000000000001B
:10559000000000000000000000000000000000000B
:1055A00000000000000000000000000000000000FB
:1055B00000000000000000000000000000000000EB
:1055C00002000000000000000100000000000000D8
:1055D0004D696C6C0000000000000000010000003C
:1055E00050656E206D6F746F72000053544550000B
:1055F0004E4F524D0000000001000000000000006E
:105600000000000000000000010000000000000099
:10561000000000000000000000000000000000008A
:10562000000000000000000000000000000000007A
:10563000000000000000000000000000000000006A
:10564000000000000000000000000000000000005A
:105650000200000000000000010000000000000047
:105660005370696E206D6F746F72004443000000C8
:105670004E4F524D000000000200000000000000EC
:105680000000000000000000010000000000000019
:10569000000000000000000000000000000000000A
:1056A00000000000000000000000000000000000FA
:1056B00000000000000000000000000000000000EA
:1056C00000000000000000000000000000000000DA
:1056D00002000000000000000100000000000000C7
:1056E00056657274206D6F746F720053544550008C
:1056F0004E4F524D0000000003000000000000006B
:105700000000000000000000010000000000000098
:105710000000000000000000000000000000000089
:105720000000000000000000000000000000000079
:105730000000000000000000000000000000000069
:105740000000000000000000000000000000000059
:105750000200000000000000010000000000000046
:105760004C6174686500000000000000010000004A
:1057700050656E206D6F746F720000535445500079
:105780004E4F524D000000000100000000000000DC
:105790000000000000000000010000000000000008
:1057A00000000000000000000000000000000000F9
:1057B00000000000000000000000000000000000E9
:1057C00000000000000000000000000000000000D9
:1057D00000000000000000000000000000000000C9
:1057E00002000000000000000100000000000000B6
:1057F0005370696E206D6F746F7200535445500082
:10580000524F5400000000000200000000000000A1
:105810000000000000000000010000000000000087
:105820000000000000000000000000000000000078
:105830000000000000000000000000000000000068
:105840000000000000000000000000000000000058
:105850000000000000000000000000000000000048
:105860000200000000000000010000000000000035
:1058700056657274206D6F746F72005354455000FA
:105880004E4F524D000000000300000000000000D9
:105890000000000000000000010000000000000007
:1058A00000000000000000000000000000000000F8
:1058B00000000000000000000000000000000000E8
:1058C00000000000000000000000000000000000D8
:1058D00000000000000000000000000000000000C8
:1058E00002000000000000000100000000000000B5
:1058F00000000000070000000E0000000000000093
:10590000000000000102030406070809000000006F
:105910000102030400000000000000000000F03F4E
:10592000000000000000F83F000000000000000040
:105930000000004003B8E23F00000000000000004B
:1059400006D0CF43EBFD4C3E033333333333E33FD9
:10595000FFAB6FDBB66DDB3F4D268F515555D53F05
:1059600001411DA96074D13F65DBC9934A86CD3FD3
:10597000EF4E454A287ECA3F3E5555555555C53FC1
:1059800093BDBE166CC166BF2CDE25AF6A56113FB3
:10599000F16BD2C541BDBBBED0A4BE726937663EB5
:1059A0000000000000000000C859000800000020AE
:1059B000C40100003A0700081C5A0008C401002076
:1059C000E41A0000B83B00080110500848616E64FA
:1059D0006C65723201100B5261696C206D6F746FCF
:1059E0007215535445506D4E4F524D1CC1E9100174
:1059F00038DAC850AD5370696E8054524F540A65FE
:105A00000280AD466C697080454E4F524D0A650369
:0C5A100080A1920A6A102044A24A0400FF
:04000005080000ED02
:00000001FF
