:020000040800F2
:10000000A01C002001010008472C0008C72100089F
:10001000452C0008410900083131000800000000AB
:100020000000000000000000000000006B2C000831
:100030004309000800000000692C00086D2C00082E
:100040001B0100081B0100081B0100081B01000820
:100050001B0100081B0100081B0100081B01000810
:100060001B0100081B0100081B0100081B01000800
:100070001B0100081B0100081B0100081B010008F0
:100080001B0100081B0100081B0100081B010008E0
:100090001B0100081B0100081B0100081B010008D0
:1000A0001B0100081D2D00081B010008112D000870
:1000B0001B0100081B0100081B010008D5210008D6
:1000C000C92100081B0100081B0100081B010008D2
:1000D0001B0100081B0100081B0100081B01000890
:1000E0001B0100081B0100081B010008DFF80CD0F1
:1000F00000F098FB00480047593B0008A01C002076
:100100000648804706480047FEE7FEE7FEE7FEE7B1
:10011000FEE7FEE7FEE7FEE7FEE7FEE7C92C000884
:10012000ED000008202A04DB203A21FA02F0002129
:10013000704721FA02F3D040C2F1200291400843F7
:100140001946704740EA01039B0703D009E008C93C
:10015000121F08C0042AFAD203E011F8013B00F88C
:10016000013B521EF9D27047D2B201E000F8012BD8
:10017000491EFBD270470022F6E710B513460A4627
:1001800004461946FFF7F0FF204610BD421C10F848
:10019000011B0029FBD1801A704710B5002200E036
:1001A000521C835C8C5CA34201D1002BF8D1D8B2E5
:1001B000E1B2401A10BD2DE9FE4F804681EA0300EE
:1001C000C00F0C46009021F0004123F00045B8EB31
:1001D0000200A94105D24046214690461C460B46E6
:1001E000024623F00040104347D0270DC7F30A0012
:1001F000C3F30A510290401A019040286BDAC3F30E
:10020000130040F4801B0098924620B10023D2EBEB
:10021000030A63EB0B0B01985946C0F140025046AC
:1002200000F0CBF906460D4650465946019A00F0BB
:10023000D3F910EB08006141002487EA115284EAE7
:10024000E7731A4340D0009A62B3019A012A4FEA39
:10025000075215DC001B61EB02014FF0004202EA7D
:100260000752CDE90042001C41F5801132462B4671
:1002700000F0D3F903B0BDE8F08F40462146F9E71E
:10028000001B61EB0201001C41F5801300185B416B
:100290002018A2F5001747EB030140EAD570B61904
:1002A0006D4111E06D084FEA360645EAC0754FEA28
:1002B0000752001B61EB0201001C41F58011490847
:1002C0004FEA30000019514132462B4603B0BDE8D9
:1002D000F04F00F093B90098012240000023D0EBCA
:1002E000020263EBE073009821464FEAE074B8EB3A
:1002F000000061EB0401E9E783F000435BE781F074
:10030000004158E72DE9FE4F81EA030404F0004460
:1003100021F0004100944FF0000B23F0004350EA1D
:1003200001045ED052EA03045BD0C3F30A54C1F364
:100330000A552C44A4F2F3340194A0FB0254C1F3F7
:10034000130141F48011C3F3130343F4801301FB41
:10035000024400FB034E840A970A44EA815447EAA8
:100360008357A4FB076802958D0A05FB07854FEAB2
:10037000932C04FB0C542705029D4FEA065847EACC
:100380001637B5EB08056EEB070C870E920E47EAA1
:10039000811742EA8312A7FB0201B6EB0B0164EB63
:1003A00000042B0D43EA0C335E1844EB1C50DA4674
:1003B0005146E7FB0201C5F313044FEA0B3343EA4E
:1003C00014534FEA0432019C43EA0603A4F10C04DF
:1003D0000294009CCDE900B400F01FF903B0BDE821
:1003E000F08F00200146F9E72DE9F04D81EA030482
:1003F00004F0004B21F0004514464FF0000A23F0B2
:10040000004150EA050220D054EA01021DD0C5F394
:100410000A570246C5F31303C1F31300C1F30A568A
:1004200040F4801543F48013A7EB0608101BD64652
:1004300008F2FD3873EB050002D308F1010801E072
:1004400092185B41B8F1000F03DA00200146BDE8C5
:10045000F08D00204FF48011064684460EE0171BF5
:1004600073EB050705D3121B63EB050306434CEA48
:10047000010C49084FEA300092185B4150EA01072D
:10048000EDD152EA030012D082EA040083EA0501AA
:10049000084305D0101BAB4106D20122002306E021
:1004A00000224FF0004302E06FF0010253101AEBFC
:1004B00006004CEB085110EB0A0041EB0B01BDE8C4
:1004C000F04D00F09BB80EB5C10F80EAE070084413
:1004D000CA07002140F233438DE80E000A460B465E
:1004E00000F09BF803B000BD70B5C1F30A5201F0F3
:1004F00000450024C1F3130140F2FF3341F48011A1
:100500009A4201DA002070BD40F233439A42A2F2CF
:10051000334203DC5242FFF705FE00E090402C43DB
:10052000F1D0404270BD000030B5041E71F10004EE
:1005300004DB4FF00044404264EB0101141E73F1F0
:10054000000405DB1C464FF00043524263EB0403FA
:100550008B4208BF824230BD2DE9F05F0546002086
:1005600092469B4688460646814640241BE0284624
:10057000414647462246FFF7D5FD53465A46C01A24
:10058000914110D311461846224600F016F82D1A54
:1005900067EB01084F4622460120002100F00DF8CC
:1005A00017EB00094E41201EA4F10104DFDC484690
:1005B00031462A464346BDE8F09F202A04DB203A14
:1005C00000FA02F1002070479140C2F1200320FAA6
:1005D00003F3194390407047202A06DBCB17203ADB
:1005E00041FA02F043EAE07306E041FA02F3D04038
:1005F000C2F12002914008431946704710B5141EFD
:1006000073F1000408DA401C41F1000192185B41CB
:100610001A4301D120F0010010BD2DE9F04D9246A2
:100620009B4611B1B1FA81F202E0B0FA80F22032B9
:100630009046FFF7C2FF04460F4640EA0A0041EA2F
:100640000B0153465A46084313D0114653EA0100A2
:1006500019D0C8F140025046FFF764FD05460E462A
:10066000504659464246FFF7A8FF084305D00120EF
:1006700004E020463946BDE8F08D0020054346EAF7
:10068000E0762C4337430A986305E40AA0EB0800A0
:100690000022FD0A44EA47540A3002D500200146F0
:1006A000E9E7010510196941DDE9084500196941CB
:1006B000BDE8F04DA2E770B521F0004303430CD034
:1006C000C1F30A550024D5EB040564EB0403D617E7
:1006D000AD1AB34102DB0020014670BD201841EB8A
:1006E000025170BD2DE9F041054621F000400C4655
:1006F000284309D0C4F30A5040F23341884205DD53
:1007000028462146BDE8F0812846FBE740F2FE314D
:10071000884210DC0CDB4FEA043040EA155050EA06
:10072000053105D0104804F0004101430020E9E7FD
:1007300000200146E6E7A0F233404642C6F14002FF
:1007400028462146FFF739FF0746884628462146B6
:100750003246FFF7E7FC43463A46FFF74FFF324683
:10076000BDE8F041FFF729BF0000F03F2DE9FE4F43
:10077000C3F30A5701F000450024C1F30A56C3F33E
:100780001303C1F3130143F4801312EB020AA646CC
:1007900041F48011009543EB030CA7F1010B16E027
:1007A000B0EB0A0061EB0C01071E71F1000707DADC
:1007B0004FF00008D0EB080085F0004568EB010120
:1007C000171A73EB0107EBD3761E001849415E45FB
:1007D000F6DA50EA010209D0CDE900E5002213461D
:1007E0000296FFF71AFF03B0BDE8F08F204600998C
:1007F000F9E7000030B5041E71F1000404DB4FF08E
:100800000044404264EB0101141E73F1000405DB57
:100810001C464FF00043524263EB0403994208BF69
:10082000904230BD064C074D06E0E06840F0010301
:1008300094E8070098471034AC42F6D3FFF75AFC0F
:10084000E8560008085700082DE9F04D00231A4625
:100850001B1A8A4103DB00200146BDE8F08DC1F37D
:100860000A52C1F3130141F480154FF0000BD10778
:1008700002D100186D41521E0027044640F2FF11BC
:10088000384601EB620A3E468046024600204FF49D
:100890008011FFF747FCC2197141BB1846EB0100FC
:1008A000B4EB030C75EB000C04D3E41A65EB000504
:1008B00017460E46241908F101006D418046342880
:1008C000E3DDF91946EB0600091BA84103D24FF0FE
:1008D000FF32134601E0002213461BEB070046EBF4
:1008E0000A51BDE8F04DFFF789BE70B58C1810F8BD
:1008F000015B15F0070301D110F8013B2A1106D165
:1009000010F8012B03E010F8016B01F8016B5B1E7E
:10091000F9D12B0705D40023521E0DD401F8013B59
:10092000FAE710F8013BCB1A921C03E013F8015BC5
:1009300001F8015B521EF9D5A142D8D3002070BD49
:10094000FEE7704710B54FF40051044800F051F92C
:10095000BDE810404FF47A7000F056B80010014026
:10096000002201E000F8012B491E89B2FAD270473B
:1009700010B590F821100024022903D004218163CE
:1009800001243DE001680A6822F00E020A60016855
:100990000A6822F001020A601A4A0168914201D1F4
:1009A000012121E0174A1432914201D110211BE0AC
:1009B000144A2832914201D1891515E0114A3C327E
:1009C000914201D189140FE00E4A5032914202D176
:1009D0004FF4803108E00B4A6432914202D14FF467
:1009E000801101E04FF08071064A083A5160012100
:1009F00080F82110002180F82010416B01B1884758
:100A0000204610BD0800024070B5044600F0FAF818
:100A10000546601C02D004480078044400F0F2F857
:100A2000401BA042FAD370BDA80100202DE9F84F69
:100A3000DFF890A100220AF1040B144601274FF0C1
:100A40000F090BF1040E00BF0B6807FA04F52B40E9
:100A5000AB4274D1DFF870C14E68A6EB0C08664556
:100A60002BD00DDC032E34D005DC36B3012E19D08B
:100A7000022E2FD11BE0112E16D0122E2AD119E0F2
:100A8000B8F5881F19D006DCB8F5803F15D0B8F549
:100A9000801F1FD111E0B8F5001F0ED0B8F5041F5C
:100AA00018D10AE0CA6815E0CA68121D12E0CA68C7
:100AB00008320FE0CA680C320CE08A682AB1012AB9
:100AC0004FF0080203D0456104E0042202E0056112
:100AD00000E00022FF2B01D8064601E000F10406E9
:100AE0004FEA840501D9A5F12005D6F800C009FA1E
:100AF00005F82CEA080C02FA05F54CEA050CC6F8D4
:100B000000C04D68ED0057D5304DAE6946F0010686
:100B1000AE61AD6924F0030605F0010500952C4D8A
:100B200006EB050CDCF80850A6074FEA167809FA20
:100B300008F6B543274EB04202D1002610E03BE054
:100B4000254EB04201D101260AE0244EB04201D127
:100B5000022605E0224EB04201D1032600E0042621
:100B600006FA08F62E43CCF808604D68DAF8006003
:100B7000ED03554601D51E4300E09E432E604D68AF
:100B8000DBF80060AD035D4601D51E4300E09E43E7
:100B90002E604D68DEF80060ED02754601D51E43FB
:100BA00000E09E432E604D68AD020E4D2E6801D5CB
:100BB0001E4300E09E432E60641C102CFFF444AFE3
:100BC000BDE8F88F00040140000011100010024041
:100BD0000000014000080140000C014000100140ED
:100BE000001401400C0401408068084000D001203E
:100BF0007047C2684A40C26070470AB101617047DD
:100C00000904FBE70148806870470000A801002044
:100C10007047000038B50446A9B102F04FFE014606
:100C200001231C22204600F037FB08B1FFF78AFEA3
:100C30002068416980690090BDE838400122510375
:100C40000548FFF7DABF02F03FFE01460823022203
:100C5000204600F05AFBE8E70010014070B504465A
:100C600000684569466830490D420DD0F1050BD545
:100C7000216C41F0010121646FF4807141612068B1
:100C8000016841F40041016015F4813F09D0F0058D
:100C900007D5206C40F00200206421686FF40070DA
:100CA000486115F4823F28D0F00526D594F83E30EF
:100CB000628D94F83D00216B202B08D13AB9212890
:100CC0000ED029280CD0282801D1212908D0206C49
:100CD00040F00400206494F83E00102804D008E09E
:100CE000204601F0B5FD08E02068016841F400717C
:100CF000016021686FF48060486115F4843F09D079
:100D0000F00507D5206C40F00800206421686FF4DE
:100D100000604861206C002804D02046BDE8704087
:100D200001F086BA70BD0000000101002DE9F05FFE
:100D300002680446D2F818805569566890F83E005B
:100D40006649DFF898A1DFF894B1DFF894918F1C21
:100D50000AF17E0A0BF13E0B102812D0402810D069
:100D60000D425BD0B00559D5936920460021DB4385
:100D70005B0700D501219269D243120648D58289CA
:100D800047E015F0011F05D0B00503D5204601F05E
:100D9000EEFC10E05148801D054205D0B00503D59A
:100DA000606CC0B2106106E00D4204D0B00502D5FF
:100DB000204601F04FFC18EA090F14D015EA0A0F7B
:100DC00008D0700506D53D4206D12046BDE8F05F4B
:100DD00001F0BCBB3D421FD0B0051DD52046BDE88B
:100DE000F05F01F072BB15EA0B0F08D0700506D555
:100DF0003D4206D12046BDE8F05F01F00FBB3D4209
:100E00000AD0B00508D52046BDE8F05F01F0A2BACF
:100E1000028B92B2FFF7FEFEBDE8F09F2F480E3026
:100E2000054206D0B00504D52046BDE8F05F01F0CC
:100E300051BD18EA090F35D015EA0A0F24D0700504
:100E400022D53D4222D194F83D202046618D0029D3
:100E5000E2D0416A4B1C4362036809781961418DF5
:100E6000491E4185418D0029D6D1292AD4D1016856
:100E70004A6822F480624A6021210163282180F8B7
:100E80003D1000F001FAC7E73D42C5D0B005C3D51B
:100E9000608D0028C0D0606A411C616221680078C2
:100EA000086117E015EA0B0F08D0700506D53D4222
:100EB00006D12046BDE8F05F01F086BC3D42ABD0D4
:100EC000B005A9D5608D0028A6D01169606A421CC2
:100ED00062620170608D401E60859DE70200010026
:100EE0000400100090F83D10202901D00220704726
:100EF000282180F83D1001680A68D20703D10A68EA
:100F000042F001020A6001680A6842F480620A60E5
:100F10000068416841F440714160002070477047AB
:100F200070B504001BD094F83D00002520B984F86A
:100F30003C50204600F0E4F8242084F83D0020686E
:100F4000016821F00101016000F068FB404A61681E
:100F5000914201D83F4900E03F49884201D2012037
:100F600070BD3E492368B0FBF1F15960636893425C
:100F700006D94FF4967359434FF47A73B1FBF3F1EA
:100F80002368491C19626168914210D84900401ECB
:100F9000B0FBF1F2521CC2F30B02042A01D204206E
:100FA00022E0B0FBF1F0401CC0F30B001CE0A36892
:100FB000CBB301EBC10202EB0116421EB2FBF6F20B
:100FC000521C42F48042120536D06BB301EBC102D1
:100FD00002EB0111401EB0FBF1F0401CC0F30B000E
:100FE00040F4804040F400402168C861D4E9070122
:100FF000084321680860D4E9031008432168886029
:10100000D4E9050108432168C8602068016841F0FF
:10101000010101602564202084F83D00256384F8E7
:101020003E50002070BD00E008E001EB4106421E8A
:10103000B2FBF6F2521CC6E70120D5E701EB4101F5
:10104000401EB0FBF1F0401CC0F30B00CAE70000EB
:10105000A086010080841E0000093D0040420F0070
:1010600070B5FFF73FFF08B1FFF76CFC02F026FCFC
:10107000007850B102F022FC007801281CD002F068
:101080001DFC0078022819D01BE000240CE000BFF2
:1010900002F020FC054602F011FC20442246407874
:1010A000294603F0CDFC641C02F00CFC401EA0425B
:1010B000EEDC02F063FC04E0022000E0032003F019
:1010C00001FD00224FF400510A48FFF796FD02F09F
:1010D000F9FB84B202F0F2FB2146FFF741FC02F07B
:1010E000F7FB84B202F0F0FB2146BDE87040FFF749
:1010F00037BC0000001001407047704770477047D0
:1011000010B586B000210091019102910391006811
:101110001349884222D1134CA06940F00800A06115
:10112000A069694600F0080004904FF440700090F8
:1011300012200190032003900B48FFF777FC0B4827
:10114000416841F0E06141F002014160E06940F432
:101150000010E061E06900F40010049006B010BDDA
:101160000054004000100240000C0140000001400B
:1011700010B502F0A3FB0078C01E07282ED2DFE8CE
:1011800000F0041334435261750001213C4802F021
:10119000B5FB02F0C2FBFFF7A7F9C0F3072000215F
:1011A00003F048FC01210DE00221354802F0A6FBC6
:1011B00002F0B3FBFFF798F9C0F30720002103F01A
:1011C00039FC02212E4802F099FB02F0A6FB00BF79
:1011D000FFF78AF9C0B2012103F02CFC0122BDE81F
:1011E000104051032748FFF708BD0321244802F0AF
:1011F00085FB02F092FBFFF777F9C0F3072000218F
:1012000003F018FC0321DDE701211D4802F076FB05
:1012100002F087FBFFF768F9C0F30720002103F015
:1012200009FC01211CE00221154802F067FB02F0D5
:1012300078FBFFF759F9C0F30720002103F0FAFB10
:1012400002210DE003210E4802F058FB02F069FB79
:10125000FFF74AF9C0F30720002103F0EBFB03215D
:10126000074802F04BFB02F05CFBB1E702F040FBE9
:101270000021084603F0DEFB01210020ACE700005E
:10128000180000200010014000224FF400510148D6
:10129000FFF7B3BC0010014038B590F83D40282C52
:1012A00031D161B15AB190F83C40012C2BD00124CE
:1012B00080F83C4004682568ED0702D005E0012075
:1012C00038BD256845F0010525600468256825F4CA
:1012D000006525602A2480F83D40202480F83E40A7
:1012E0000024046441624285C362418D0185016826
:1012F0004A698A69009280F83C40486840F4E0609E
:101300004860204638BD022038BD38B590F83D40D1
:10131000282C31D161B15AB190F83C40012C2BD02E
:10132000012480F83C4004682568ED0702D005E000
:10133000012038BD256845F0010525600468256851
:1013400025F400652560292480F83D40202480F89C
:101350003E400024046441624285C362418D0185A0
:1013600001684A698A69009280F83C40486840F404
:10137000E0604860204638BD022038BD02488168E0
:101380000278114481607047A8010020074810B519
:10139000016841F010010160032000F077F800209F
:1013A00000F006F800F024F8002010BD00200240F4
:1013B00070B50D4D04464FF47A712878B1FBF0F00A
:1013C0000A490968B1FBF0F000F000FB48B9102CA5
:1013D00007D200222146501E00F038F800206C6031
:1013E00070BD012070BD0000A8010020B4010020E4
:1013F0000E4808B5816941F001018161816901F000
:1014000001010091C16941F08051C161C06900F0E2
:1014100080500090052000F039F80548416821F01F
:10142000E06141F00071416008BD00000010024021
:101430000000014000F01F0201219140400980009E
:1014400000F1E020C0F8001170470000F0B40E4B2E
:101450001B680C46C3F30223C3F10705042D00D912
:101460000425191D072901D2002300E0DB1E0126F7
:1014700006FA05F1491E214099409E40761E16400D
:101480003143F0BC01F0E0BB0CED00E0064900F098
:10149000070208684FF6FF03184040EA0220034A9B
:1014A00010430860704700000CED00E00000FA05F2
:1014B0002DE9F047DFF8548105460E46D8F80000C4
:1014C00000F00700B0420CD2D8F8001021F007015C
:1014D0003143C8F80010D8F8000000F00700B0420F
:1014E0006FD128684A4C810712D5400703D5606840
:1014F00040F4E06060602878000703D5606840F43D
:10150000605060606068A96820F0F0000843606087
:101510002878C00744D06868012816D021680228BE
:1015200016D0890700294CDA616821F003010143D4
:101530006160FFF767FB6968074641F2883001295F
:101540000ED00229814618D026E021688903E9E7F8
:101550008901E7E7FFF756FBC11B494501D918E0B0
:1015600081466068C0F381000128F3D118E000BF14
:10157000FFF748FBC11B49450BD86068C0F38100E9
:101580000228F5D10CE000BFFFF73CFBC11B494529
:1015900002D90320BDE8F087606810F00C0FF3D18A
:1015A000D8F80010404601F00701B1420BD901689C
:1015B00021F0070131430160006800F00700B042EC
:1015C00001D00120E6E72878400705D56068E96882
:1015D00020F4E060084360602878000706D5606862
:1015E000296920F4605040EAC100606000F036F8DC
:1015F0006168084AC1F30311515CC840064908609C
:101600000020FFF7D5FE0020C4E7000000200240C4
:10161000001002403C560008B4010020044805496F
:1016200000684968044AC1F30221515CC840704710
:10163000B4010020001002404C560008044805493F
:1016400000684968044AC1F3C221515CC840704730
:10165000B4010020001002404C56000812A185B0D1
:101660000FC98DE80F0014A0144A00680490516857
:10167000134801F00C03042B10D0082B0ED1C1F33A
:101680008343C9031DF803000AD5516804AAC1F3B6
:101690004041515C0A4A5043B0FBF1F005B070473D
:1016A00008494843FAE70000020304050607080951
:1016B0000A0B0C0D0E0F101001020000001002406A
:1016C00000127A0000093D002DE9F84F0446007829
:1016D000B94DC00748D06868C0F38100012807D021
:1016E0006868C0F38100022809D16868C00306D584
:1016F0002868800338D5606800286FD034E06068BF
:10170000B0F5803F0BD010B1B0F5A02F11D02868F4
:1017100020F480302860286820F4802002E02868C7
:1017200040F480302860606888B1FFF76BFA0646A5
:1017300009E0286840F480202860F0E7FFF762FAAB
:10174000801B642875D828688003F7D50CE0FFF764
:1017500059FA064605E000BFFFF754FA801B6428DB
:10176000F0D828688003F7D42078944E80074FF093
:1017700001094FF000083BD5686810F00C0F07D046
:101780006868C0F38100022809D16868C00306D4E4
:101790002868800714D5206901281FD110E020692E
:1017A000B0B1C6F80090FFF72DFA074605E000BF7C
:1017B000FFF728FAC01B0228C4D828688007F7D58D
:1017C0002868616920F0F80040EAC10028600FE055
:1017D000C6F80080FFF716FA074606E0E9E000BF0A
:1017E000FFF710FAC01B022823D828688007F7D417
:1017F000207800072CD57248A169D9B1C0F80090B3
:10180000FFF700FA074604E0FFF7FCF9C01B0228C7
:101810000FD8686A8007F7D56A484FF4FA51006814
:10182000B0FBF1F0009000BF0098411E0091FAD289
:101830000EE080E0C0F80080FFF7E4F9074604E01E
:10184000FFF7E0F9C01B022875D8686A8007F7D453
:101850002078400760D5E8690027C00008D4E8690F
:1018600040F08050E861E869012700F08050009066
:1018700055480168C90513D40168834641F4807155
:101880000160FFF7BFF9824606E000BFFFF7BAF933
:10189000A0EB0A0064284ED8DBF80000C005F5D59F
:1018A000E06801280AD008B1052813D0286A20F082
:1018B00001002862286A20F0040002E0286A40F053
:1018C00001002862E06841F2883B98B1FFF79AF97D
:1018D00082460BE0286A40F004002862EEE700BF71
:1018E000FFF790F9A0EB0A0159455AD8286A8007FA
:1018F000F6D50CE0FFF786F9824605E0FFF782F99E
:10190000A0EB0A0159454CD8286A8007F6D41FB1CC
:10191000E86920F08050E861E06988B36968C1F344
:101920008101022945D00228C6F8608004D0FFF763
:1019300069F9044638E034E0FFF764F9074604E04B
:10194000FFF760F9C01B02282BD828688001F7D464
:10195000206AB0F5803F05D16868A16820F40030A6
:1019600008436860D4E908010843696821F47411E8
:1019700008436860C6F86090FFF744F9044606E043
:1019800015E000BFFFF73EF9001B022809D82868C0
:101990008001F7D50BE000BFFFF734F9001B0228E8
:1019A00002D90320BDE8F88F28688001F4D4002014
:1019B000F8E70120F6E70000001002400000424274
:1019C00080044242B40100200070004010B5401E67
:1019D000B0F1807F01D3012010BD4FF0E0246061A1
:1019E0000F21601701F030F90020A061072020616D
:1019F000002010BD7047704710B590F83C20012AB8
:101A000025D0012280F83C20CA688C6822F44072FC
:101A100022434C6822F4806222430C6822F4006264
:101A200022430C6922F4805222434C6922F4005272
:101A300022438C6922F48042224322F4004102684E
:101A400000232143516480F83C30002010BD022067
:101A500010BD30B590F83C20012A20D0012280F83A
:101A60003C20022380F83D3003685C6824F0700459
:101A70005C6003685C680D682C435C6003689C686C
:101A800024F080049C6003689C6849680C439C6057
:101A900080F83D20002180F83C10084630BD02202F
:101AA00030BD10B5040003D094F83D0010B107E03C
:101AB000012010BD002084F83C00204600F00CF806
:101AC000022084F83D00211D206801F02DF901203D
:101AD00084F83D00002010BD08B50C4A01680C4890
:101AE000914207D1816941F400618161806900F40C
:101AF000006009E0074A914207D1C16941F0040141
:101B0000C161C06900F00400009008BD002C0140D4
:101B100000100240000800400168CA6842F001025B
:101B2000CA600068016841F001010160002070474F
:101B30000168CA6822F00102CA600068016A41F2C5
:101B40001112114207D1016A9210114203D10168AA
:101B500021F0010101600020704770B5044690F843
:101B60003C00012817D0012584F83C50022084F85D
:101B70003D002068826822F0770222F47F42826072
:101B80000868502837D00DDC202859D005DC88B3F0
:101B9000102841D151E0022070BD302853D0402898
:101BA0003AD13FE060282ED070280BD0B0F5805F8E
:101BB00003D0B0F5005F2FD110E02068816821F0DC
:101BC000070115E0CB68D1E90121206801F0EDF8AB
:101BD0002168886840F0770088601DE0CB68D1E913
:101BE0000121206801F0E1F82068816841F480411A
:101BF000816011E01EE0CA684968206801F08AF936
:101C00005021206806E0CA684968206801F093F90D
:101C10006021206801F0D3F884F83D50002084F85A
:101C20003C0070BDCA684968206801F073F9402122
:101C30002068EFE700212068ECE710212068E9E741
:101C400020212068E6E730212068E3E7704770B57F
:101C50000446006801694FF00005C943890715D49F
:101C6000C168C943890711D4E91E016101202077A9
:101C7000206880698007204602D0FFF7E7FF04E074
:101C800000F0C4F8204600F0D3F9257720680169F8
:101C9000C943490717D4C168C943490713D46FF032
:101CA00004010161022020772068806910F4407FE0
:101CB000204602D0FFF7CAFF04E000F0A7F8204654
:101CC00000F0B6F9257720680169C943090716D4E1
:101CD000C168C943090712D46FF0080101610420EB
:101CE00020772068C0698007204602D0FFF7AEFF4A
:101CF00004E000F08BF8204600F09AF92577206880
:101D00000169C943C90617D4C168C943C90613D4B8
:101D10006FF010010161082020772068C06910F47D
:101D2000407F204602D0FFF791FF04E000F06EF8FC
:101D3000204600F07DF9257720680169C943C9076D
:101D400008D1C168C943C90704D1891E0161204671
:101D500000F06FF920680169C943090609D4C16818
:101D6000C943090605D46FF0800101612046FFF7E1
:101D700041FE20680169C943490609D4C168C943C5
:101D8000490605D46FF040010161204600F053F987
:101D900020680169C94389060BD4C168C943890613
:101DA00007D46FF0200101612046BDE87040FFF7C5
:101DB00022BE70BD70B5044690F83C0001280DD0DD
:101DC000012584F83C50022084F83D0042B1042AE9
:101DD0000AD0082A0CD00C2A11D10DE0022070BDC7
:101DE000206800F0F5FF0AE0206801F019F806E02D
:101DF000206801F041F802E0206801F069F884F8F9
:101E00003D50002084F83C0070BD000070B50446D1
:101E100000680169C943890727D4C068C0438007A7
:101E200023D401F0A5FD0546012001F017FD8542F0
:101E30001BD101213C4801F061FD01F073FE012836
:101E40000ED00121384801F059FD02F0F5FF0121C3
:101E5000354801F053FD0146204603F085F804E0C3
:101E600000220121204602F0ADFD20680169C9432E
:101E7000490727D4C068C043400723D401F078FD48
:101E80000546022001F0EAFC85421BD102212648CA
:101E900001F034FD01F046FE01280ED00221224857
:101EA00001F02CFD02F0C8FF02211F4801F026FDC1
:101EB0000146204603F058F804E0002202212046A3
:101EC00002F080FD20680169C94309072AD4C0686F
:101ED000C043000726D401F04BFD0546032001F066
:101EE000BDFC85421ED103210F4801F007FD01F022
:101EF00019FE01280FD003210B4801F0FFFC02F06E
:101F00009BFF0321084801F0F9FC01462046BDE88B
:101F1000704003F029B82046BDE87040002203213C
:101F200002F050BD70BD00001800002010B5040084
:101F300003D094F83D0010B107E0012010BD00204F
:101F400084F83C00204600F00CF8022084F83D00A4
:101F5000211D206800F0E8FE012084F83D000020EB
:101F600010BD704710B504460068002200F012FF53
:101F70000E4841F2111221689310814209D1086A7A
:101F8000104206D1086A184203D1486C20F4004080
:101F900048642068016A114206D1016A194203D1DE
:101FA000016821F001010160002010BD002C0140FA
:101FB00010B50268044631B1042908D008292CD094
:101FC0000C2908D12DE0D06820F0020002E0D06892
:101FD00020F00400D0600022206800F0DBFE134BEC
:101FE00041F2111220689110984209D1036A1342FC
:101FF00006D1036A0B4203D1436C23F400434364CC
:102000002068036A134206D1026A0A4203D10168BA
:1020100021F001010160002010BDD06820F008000F
:10202000D8E7D06820F01000D4E70000002C014071
:10203000704701F0BDBC704770B5040004D094F83F
:102040003900002510B106E0012070BD84F8385039
:10205000204600F023F8242084F839002068C16865
:1020600021F40051C160204600F078FF206801692A
:1020700021F4904101612068416921F02A01416108
:102080002068C16841F40051C160E563202084F8F4
:10209000390084F83A00002070BD000030B585B0EA
:1020A0000024009401940294039400681449884227
:1020B00024D11448816941F480418161816901F42E
:1020C00080410491816941F00401816180690E4D74
:1020D00000F0040004904FF4007000900220019082
:1020E0000320039069462846FEF7A0FC2815CDE999
:1020F0000004694628460294FEF798FC05B030BDFE
:102100000038014000100240000801402DE9F8436A
:10211000044690F839001F4616460D46202850D137
:10212000A5B19EB194F8380001284AD0012084F866
:1021300038004FF00008C4F83C80212084F83900B2
:10214000FEF760FDA6848146E68426E00120BDE816
:10215000F883E08C401EE084A0684B46B0F5805FB9
:102160004FF000024FF080012046009703D000F0AE
:10217000ADFFE8B90DE000F0A9FFC8B928882168D3
:10218000C0F308004860206908B16D1C05E0AD1C73
:1021900003E0216815F8010B4860E08C0028D8D1D5
:1021A0004B46002240212046009700F08FFF08B1E7
:1021B0000320CCE7202084F8390084F83880002000
:1021C000C5E70220C3E7FEE70148FEF747BD000070
:1021D000CC1700200148FEF7A9BD0000CC17002055
:1021E00010B5406A01680A6822F480620A60002122
:1021F0004185426B5163826B516390F83D302022E0
:10220000602B80F83D2080F83E1007D001680A68F6
:1022100022F001020A60FEF782FE10BD016401682F
:102220000A6822F001020A60FEF7F2FC10BD00000D
:1022300070B590F83D100446002520260068292935
:102240002DD02A292BD094F83D10602904D0416864
:10225000090501D484F83D60256384F83E50016887
:1022600021F40061016020684168090537D54168A3
:1022700021F400614160606B344990F82120012A0B
:1022800012D04163606BFEF773FB38B320680168BE
:1022900021F00101016084F83D60606B1CE0256362
:1022A000282184F83D10DAE7A06B4163A06BFEF7AC
:1022B0005FFB98B120684169C943490604D40169AC
:1022C000606A421C626201702068016821F00101AD
:1022D000016084F83D60A06B416B88470FE094F883
:1022E0003D1060291DD04169C943490604D40169E4
:1022F000606A421C626201702046FEF710FE94F88C
:102300003D0028280CD1206C400709D51048E06218
:10231000256384F83D6084F83E502046FEF7A0FE19
:1023200070BD84F83D6025644169C943490604D401
:102330000169606A421C626201702068016821F0D4
:10234000010101602046FEF763FCD8E7E1210008A7
:102350000000FFFF10B5C26A448D2F4B0168032CAB
:1023600003D0448D022C15D00AE0042A03D0082A99
:1023700001D09A4203D10A6822F480620A6001689F
:102380000A69416A4B1C43620A70418D491E4185AE
:10239000002010BD042A12D0082A10D09A420ED074
:1023A000022A0A6802D022F4806201E042F48062CC
:1023B0000A6001684A6822F440724A6008E04A688C
:1023C00022F440724A6001680A6842F400720A60AE
:1023D00001680A69416A4B1C43620A70418D491EBB
:1023E000418501680A69416A4B1C43620A70418D4C
:1023F000491E4185202180F83D100021016390F89D
:102400003E2080F83E10402A02D0FEF775FEBFE75E
:10241000FEF774FEBCE700000000FFFF10B590F867
:102420003D1022294CD1418D032909D901680A693F
:10243000416A4B1C43620A70418D491E41853FE051
:10244000022909D0032907D0C16A022901680A6854
:1024500018D022F4806217E0C16A022901680A6874
:1024600007D022F480620A6001680A6842F40062C0
:1024700001E042F480620A600068416821F48061F2
:1024800041601DE042F480620A6001684A6822F4FB
:10249000E0624A6001680A69416A4B1C43620A7043
:1024A000418D491E4185202180F83D1000210163A6
:1024B00090F83E2080F83E10402A03D0FEF71CFE24
:1024C000002010BDFEF71AFEFAE710B5C26A90F8B8
:1024D0003D10212921D1418D49B1416A4A1C4262F6
:1024E000026809781161418D491E418515E020235C
:1024F0000021042A13D0082A11D012F5803F0ED0F3
:102500000268546824F4E06454601122026380F885
:102510003E1080F83D30FEF7F0FD002010BD02684F
:10252000546824F4E06454600268146844F400744D
:102530001460016380F83D3090F83E2080F83E1032
:10254000402AE8D1FEF7DBFDE7E7000010B590F880
:102550003D1090F83E30C26A048D24B1212934D058
:10256000402B30D074E02129FAD120230021042A05
:1025700013D0082A11D012F5803F0ED0026854689B
:1025800024F4E06454601122026380F83E1080F865
:102590003D3000BFFEF7B1FD5AE00268546824F4F4
:1025A000E06454600268146844F4007414600163C9
:1025B00080F83D3090F83E2080F83E10402AE9D166
:1025C000FEF79DFD44E0222942D1418D21B190F8D2
:1025D0003E10402906D032E00068416821F4806155
:1025E000416035E0016D31B1016D012911D0016DFE
:1025F000022915D02CE0C16C0129816C02D0C1F3F5
:10260000072108E00268C9B21161016D891C0165EA
:102610001EE0816CC9B202681161016D491CF6E7C8
:1026200090F83D10222904D090F83D10212906D0C1
:102630000EE00068016841F48071016008E0416AC1
:102640004A1C4262026809781161418D491E418528
:10265000002010BD78B590F83E50C26A046B90F827
:102660003D6000230168222E06D1066D0EB9402D73
:1026700002D0056D25B107E04869886900901CE02B
:102680000569B5F5404F1AD0458D85B3458D012DAF
:1026900020D0428D022A4AD00A6842F480620A6041
:1026A00001684A68120503D54A6842F480524A60BC
:1026B00001684A69896900910365002078BD4A690B
:1026C0008A6900920A6842F480720A60016D491CAE
:1026D0000165F2E712F5803F0AD0042A21D0082ACA
:1026E0001FD0122C1DD0C26A022A09D114E00BE0BF
:1026F0000A6822F480620A6001684A68120503D5FC
:102700000A6822F480620AE04A698A6900920A68CB
:1027100042F400720A60CFE70A6842F480620A60FD
:10272000C6E70A6822F480620A600168ECE7C26AC0
:10273000022A0A680BD042F400620A6001684A6902
:102740008A6900920A6822F480620A6006E042F414
:1027500080620A6001684A698969009101684A6873
:102760001205A9D54A6842F480524A60A4E790F85D
:102770003E10402909D00169B1F5804F10D0016D9C
:1027800099B1016D012915D01CE0016D19B9416C99
:1027900001F0FE0114E0416CC9B241F001010FE00B
:1027A00090F83D102129F6D1F1E7416CF02201F4B7
:1027B000407103E0416CF12201F4407142EAD11111
:1027C00000680161002070472DE9F04190F83D500C
:1027D0000446408DC0B320680169606A421C626291
:1027E0000170608D401E608501F068F80078618D91
:1027F000222628271B2918D12A2D16D1032809D0D3
:10280000042807D0052805D0062803D0072801D0C2
:1028100008280AD12068416821F48061416026635C
:1028200084F83D702046FEF7A3FC608D60B92A2D28
:102830000AD12068416821F480614160266384F8F0
:102840003D702046FEF794FC0020BDE8F0810000BA
:102850002DE9F04190F83D40C26A00231C4F20262C
:1028600001686FF48065042A01D0082A01D1282C60
:1028700005D0212C17D04D610020BDE8F081C76242
:102880004A6822F4E0624A6001684D6101680A68A2
:1028900022F480620A60036380F83D6080F83E3075
:1028A000FEF7DEFBE8E7C7622122026380F83D60A5
:1028B00080F83E304A6822F4E0624A6001684D6167
:1028C00001680A6822F480620A60FEF7DDFCD3E743
:1028D0000000FFFF38B590F83D2001684B6823F4F5
:1028E000E0634B60036800215C6900941C6844F05D
:1028F00001041C6003681C6824F480641C60036885
:102900005C6824050BD590F83D40222C2BD090F824
:102910003D402A2C27D0446B246864684485448D4C
:10292000E4B15C69E443640707D41C69436A5D1C35
:1029300045621C70438D5B1E438503685C69E443FC
:10294000640607D41C69436A5D1C45621C70438D94
:102950005B1E4385036C43F004030364036C23B1E3
:10296000FFF766FC1FE0846BD6E72023282A09D0F6
:102970002A2A07D0292A05D0046B222C0CD0222A1F
:102980000AD010E0094AC262016380F83D3080F845
:102990003E10FEF765FB06E0016380F83D3080F8ED
:1029A0003E10FEF7E5FB002038BD00000000FFFFF1
:1029B0002DE9F04186B00025454800950195029526
:1029C0000395816941F010018161816901F0100175
:1029D0000491816941F004018161816901F0040180
:1029E0000491816941F0080181618069394E00F0EC
:1029F00008004FF400540490002221463046FEF7B0
:102A0000FCF8354F002248F2FF013846FEF7F5F892
:102A1000DFF8C88000224CF67B414046FEF7EDF817
:102A2000002280214046FEF7E8F800940124CDE919
:102A30000145694630460394FDF7F8FF48F2C300AC
:102A400002268DE85100694638460394FDF7EEFFF3
:102A50001C208DE83100694638460394FDF7E6FFF7
:102A60002020CDE900040294694638460394FDF71E
:102A7000DDFF4CF273408DE8310069464046039417
:102A8000FDF7D4FFE002CDE9000402946946404618
:102A90000394FDF7CBFF8020CDE90004CDE9024689
:102AA00069464046FDF7C2FF4FF4C850CDE9000526
:102AB000694638460295FDF7B9FF08208DE85100B8
:102AC000694640460394FDF7B1FF06B0BDE8F081CA
:102AD000001002400010014000080140000C0140BD
:102AE0000E4810B50C4901600D49416000213E229D
:102AF000C0E902124FF48042C0E904214022C0E93B
:102B000006120162FEF70CFA002803D0BDE810405F
:102B1000FDF718BF10BD000000540040CC17002086
:102B2000801A060010B594B000240E940F941094EF
:102B3000119412941C2168461394FDF71CFB1C2170
:102B400007A8FDF718FB2F482D4901601F21C0E998
:102B500001144FF6FF71C0E9031444618461FEF76C
:102B6000A0FF08B1FDF7EEFE4FF480500E900EA9C5
:102B70002448FEF7F2FF08B1FDF7E4FE2148FFF715
:102B8000D5F908B1FDF7DEFE129412A91D48139481
:102B9000FEF75FFF08B1FDF7D5FE009401940294A3
:102BA0000394049405940022694616480694FFF79E
:102BB00001F908B1FDF7C6FE042269461148FFF786
:102BC000F9F808B1FDF7BEFE082269460D48FFF787
:102BD000F1F808B1FDF7B6FE0794089409944FF494
:102BE00000500A94CDE90B4007A906480D94FEF762
:102BF00003FF002801D0FDF7A5FE14B010BD0000B2
:102C0000002C0140201800200C4810B50A49016032
:102C10000B494160002181600C22C160C0E90412AF
:102C20008161C161FFF708FA002803D0BDE81040B8
:102C3000FDF788BE10BD000000380140601800207C
:102C4000A80D0E00FEE770470907090E002806DAF6
:102C500000F00F0000F1E02080F8141D704700F133
:102C6000E02080F80014704770477047FEF786BB7D
:102C700030B58FB028216846FDF77DFA14210AA8E7
:102C8000FDF779FA022501200490009510200590A7
:102C900000244FF4C010CDE9084007956846FEF7C0
:102CA00013FD08B1FDF74EFE0F200A90CDE90B543D
:102CB0000D9401210AA80E94FEF7FAFB002801D01A
:102CC000FDF740FE0FB030BD0D48016841F0010135
:102CD000016041680B4A1140416001680A4A114095
:102CE0000160016821F480210160416821F4FE0146
:102CF00041604FF41F0181600449C00308607047C0
:102D0000001002400000FFF8FFFFF6FE08ED00E0B3
:102D10000148FEF79CBF0000201800200148FEF784
:102D200096BF000020180020F0B50268164B174C23
:102D3000174D4FF08047984205D0B84203D0A042CB
:102D400001D0A84203D122F070064A68324398426B
:102D500005D0B84203D0A04201D0A84203D122F44A
:102D60004074CA68224322F080044A692243026008
:102D70008A68C2620A688262984201D10969016365
:102D800001214161F0BD0000002C01400004004021
:102D90000008004010B50123046A8B409C43046284
:102DA000036A8A401343036210BD10B5846842EA87
:102DB000032224F47F440A432243826010BD8268C8
:102DC00022F070020A4342F0070181607047000060
:102DD00030B5026A22F001020262026A4368846925
:102DE00024F073050C682C4322F002058A682A43FC
:102DF0000A4DA8420BD122F00805CA6823F440739B
:102E00002A434D6922F004021D438B692B43436022
:102E1000846149684163026230BD0000002C0140BA
:102E200030B5026A22F010020262026A43688469C5
:102E30000D6824F4E64444EA05248D6822F020025B
:102E400042EA05120B4DA8420ED1CD6822F0800255
:102E500042EA05124D6923F4406343EA85038D6914
:102E600022F0400243EA850343608461496881633C
:102E7000026230BD002C014030B5026A22F480723B
:102E80000262036A4268C46923F4007324F0730584
:102E90000C682C438D6843EA05230C4DA8420ED1E3
:102EA000CD6823F4006343EA05234D6922F44052C0
:102EB00042EA05128D6923F4806342EA05124260FA
:102EC000C4614968C163036230BD0000002C014049
:102ED00030B5026A22F480520262046A4268C36911
:102EE0000D6823F4E64343EA05238D6824F4005477
:102EF00044EA0534064DA84204D14D6922F48042CB
:102F000042EA85124260C36149680164046230BDCF
:102F1000002C014010B5036A046A24F00104046225
:102F2000846924F0F00444EA021423F00A020A43FC
:102F30008461026210BD10B5036A23F010030362BE
:102F40008369046A23F4704343EA023224F0A00345
:102F500043EA01118261016210BD00002DE9F041D8
:102F6000044600680169E26821F44051114301619F
:102F70002169A0680843616908432168CA6841F271
:102F80000C639A430243CA6020684169A26921F434
:102F90004071114341614C492068642532268842C2
:102FA0003CD1FEF74BFB00EBC00101EB0010616868
:102FB0008900B0FBF1F7FEF741FB00EBC00101EB2C
:102FC00000106168B0468900B0FBF1F0B0FBF5F08D
:102FD0006FF01801484307EB800106EB0110B0FBCE
:102FE000F5F000F0F006FEF729FB00EBC00101EB65
:102FF000001061688900B0FBF1F0B0FBF5F006EB62
:103000000016FEF71BFB00EBC00101EB001061682E
:103010008900B0FBF1F7FEF711FB3BE0FEF7FEFA8B
:1030200000EBC00101EB001061688900B0FBF1F713
:10303000FEF7F4FA00EBC00101EB00106168B04646
:103040008900B0FBF1F0B0FBF5F06FF018014843D8
:1030500007EB800106EB0110B0FBF5F000F0F00685
:10306000FEF7DCFA00EBC00101EB0010616889009B
:10307000B0FBF1F0B0FBF5F006EB0016FEF7CEFA70
:1030800000EBC00101EB001061688900B0FBF1F7B3
:10309000FEF7C4FA00EBC00101EB00106168890083
:1030A000B0FBF1F0B0FBF5F06FF01801484307EB0F
:1030B000800108EB0110B0FBF5F0216800F00F0073
:1030C00030448860BDE8F081003801402DE9F041CE
:1030D000984617460E460446069D1DE0681C1BD008
:1030E0002DB1FDF78FFDA0EB0800A84214D9206890
:1030F000C16821F4D071C1602068416921F00101EB
:103100004161202084F8390084F83A00002084F8D6
:1031100038000320BDE8F0812068006836EA00002E
:1031200004D00020B842D9D00020F3E70120F9E70D
:10313000FEE700000FB4054B10B503A9044A02983E
:1031400000F0BCF810BC5DF814FB00004538000826
:10315000B80100200FB4084B10B504A902AA0398C7
:1031600000F0ACF8044602A9002000F0D8FA20468E
:1031700010BC5DF814FB00001F370008490050EA3E
:10318000C12018BF04204A0D18BF40F0010040F2D2
:10319000FF72B2EB515F08BF40F00200012808BF88
:1031A000052070472DE9F0414F1E00EBC701044692
:1031B000D1E9000115461E4637F006020DD02A4619
:1031C0003346FDF79FF87F1E04EBC703D3E90023C6
:1031D000FCF7F1FF37F00602F1D1022F25D0042FC2
:1031E00013D0062F18BFBDE8F0812A463346FDF7FD
:1031F00089F8D4E90A23FCF7DEFF2A463346FDF7B7
:1032000081F8D4E90823FCF7D6FF2A463346FDF7B8
:1032100079F8D4E90623FCF7CEFF2A463346FDF7BA
:1032200071F8D4E90423FCF7C6FF2A463346FDF7BC
:1032300069F8D4E90223FCF7BEFF2A463346FDF7BE
:1032400061F8D4E90023BDE8F041FCF7B4BF000009
:103250000022134610460149FDF7C6B80000F03FB2
:10326000FCF7A9BF0022134610461146FDF7BCB873
:1032700040F2013200204FF0E041FDF71CBA00009F
:10328000024A00201107FDF716BA000001FDFFFFFA
:1032900002E008C8121F08C1002AFAD1704770471F
:1032A000002001E001C1121F002AFBD1704700007D
:1032B0000149086070470000BC0100202DE9FF4F64
:1032C0008DB00F460546002606E025280BD0DDE927
:1032D0000F1290476D1C761C28780028F5D111B08C
:1032E0003046BDE8F08F0024A246A1460122EC49F9
:1032F00000E0044315F8013F203B02FA03F00842C6
:10330000F7D128782A2810D06FF02F022878A0F162
:103310003001092914D80AEB8A0102EB410144F07B
:10332000020400EB010A6D1CF0E701CF5FEA000A1E
:1033300003D544F40054CAF1000A44F002046D1CA1
:1033400028782E2817D115F8010F44F004042A28F4
:103350000ED06FF02F022878A0F1300109290AD889
:1033600009EB890102EB410100EB01096D1CF2E759
:1033700057F8049B6D1C28786C280FD006DC4C286D
:1033800017D068280DD06A2814D104E0742810D012
:103390007A280FD10DE044F400140AE044F48014BC
:1033A00001E044F440146978814202D104F58014AC
:1033B0006D1C6D1C2A786E2A1FD00CDC632A31D05C
:1033C00004DC002A8BD0582A11D1A3E0642A68D0EB
:1033D000692A0CD165E0732A2ED004DC6F2A73D0E1
:1033E000702A04D19BE0752A6FD0782A6ED01046DF
:1033F000DDE90F129047761C50E1C4F30250022819
:1034000006D0032809D0042801CF09D0066045E181
:1034100001CFF117C0E9006140E101CF06803DE135
:1034200006703BE117F8040B8DF8000000208DF8C2
:103430000100EB46012003E057F804BB4FF0FF30DA
:1034400061074FF0000102D40DE008F10101884648
:1034500049450FDA8045F8DB1BF808100029F4D144
:1034600008E008F1010188468142FADB1BF80810E8
:103470000029F6D1DDE90F23AAEB08008146214699
:1034800000F036F9304400EB080604E0DDE90F12E5
:103490001BF8010B9047B8F10108F7D221464846C6
:1034A000F7E00A21C4F302534FF0000B0891022BFE
:1034B00004D001CFC117032B09D00AE0FF1D27F06C
:1034C0000707F7E8020108E032E01FE020E000B261
:1034D000C117042B01D140B2C117031E71F10003C3
:1034E00007DA4FF0000CD0EB0C006CEB01012D2340
:1034F00002E0230504D52B238DF82430012303E0BB
:10350000E30701D02023F7E7984658E00A2110E0AE
:1035100010210EE010204FF0000B08900CE010215D
:103520004FF0000B44F004044FF00809089103E049
:1035300008214FF0000B0891C4F30253022B04D072
:1035400001CF0021032B06D006E0FF1D27F007075F
:10355000F7E8020103E080B2042B00D1C0B24FF0C3
:10356000000823072BD5702A07D0DDF820C08CF087
:10357000100C5CEA0B0C05D00EE040238DF82430D3
:10358000012308E050EA010306D030238DF82430EF
:103590008DF8252002239846DDF820C08CF0080C19
:1035A0005CEA0B0C0BD150EA010301D1630706D58D
:1035B00030238DF824304FF00108A9F10109582A71
:1035C00004D038A20B9208AA0A920BE03AA2F9E7BB
:1035D0005B46089AFCF7C0FF0B9B9B5C0A9A521E45
:1035E0000A92137050EA0102F2D10A98ADEB000082
:1035F00000F1200B600702D524F4803401E04FF085
:103600000109D94502DDA9EB0B0000E0002000EB29
:103610000B0141440890AAEB010AE00306D4DDE95E
:103620000F232146504600F063F806444FF000098E
:1036300008E009A911F80900DDE90F12904709F126
:103640000109761CC145F4DBE0030CD5DDE90F234D
:103650002146504600F04CF8064404E0DDE90F1224
:1036600030209047761C0899481E08900029F5DC08
:1036700008E00A980A990078491C0A91DDE90F12BE
:103680009047761CBBF10001ABF1010BF1DC214648
:103690005046DDE90F2300F019F806446D1C1BE6C7
:1036A0000928010030313233343536373839616218
:1036B00063646566000000003031323334353637DC
:1036C0003839414243444546000000002DE9F041AD
:1036D000044600251E461746880404D405E03946F2
:1036E0002020B0476D1C641EF9D52846BDE8F08146
:1036F0002DE9F041044600251E469046C80301D539
:10370000302700E02027880404D505E041463846EC
:10371000B0476D1C641EF9D52846BDE8F0810A68E3
:10372000531C0B60107070475200084492FBF0F07D
:10373000FCF7C9BE10B502460B4600200449FCF751
:1037400053FE01F0F5F8BDE81040FCF7CDBE0000D7
:1037500080842E41012806D0134B02280DD0032867
:1037600014D0FDF7EFB81148012904D000291AD16F
:103770000122202113E00022FBE7012904D00029C7
:1037800011D10122802109E00022FBE74FF4006003
:10379000012906D0002906D1012201461846FDF76D
:1037A0002CBA0022F9E77047000C014000080140E4
:1037B00070B514461D460E46002814BF0121002195
:1037C000314321F00041C1F17F6101F1E041C90FB6
:1037D00016D1002C14BF01210021294321F0004102
:1037E000C1F17F6101F1E041C90F09D11449B1EB89
:1037F000460F08BF00281CD0690008BF002C18D055
:103800003146FCF7B3FF024640F2FF7030EA115038
:103810000DD0F017B0EBE17F09D0084665F31E002C
:1038200084460B4620466146FCF769FD0246104679
:1038300070BD0120FFF73CFDBDE87040FFF712BDF1
:103840000000E0FF13B54FF6FF73012269460248FE
:10385000FEF75CFC00981CBD60180020014610B506
:103860000848012907D0022907D0032907D0FDF70E
:1038700069F8204610BDC488FBE70489F9E744894C
:10388000F7E70000000000202DE9F041C821DDE944
:103890001E472198DDF850804843FCF714FE05468A
:1038A0000E464046FCF70FFE22463B46FCF72AFD3B
:1038B0002A463346BDE8F041FCF796BD0048704704
:1038C000C00100201C207047004870470100002004
:1038D0000220704701480069704700000000002086
:1038E0000249C0EBC00001EB80007047EC010020F2
:1038F00001480078704700000000002010B5034622
:103900005FF0000203EBC210846A10308C4203D0D7
:10391000521C032AF6DB002010BD0146D1E9160136
:103920007047806CFCF7CFBD80697047806F70472F
:1039300004280DD004DC012806D0022804D105E0BB
:10394000082807D0102807D00020704701207047B2
:1039500002207047032070470720704710B50068A9
:10396000406A84B200F004F844EA004010BD000050
:103970000148808870470000000000200548016968
:10398000C82901D1C16819B10169491C0161704799
:10399000FCF7D8BF000000200448C168C82903D044
:1039A000C168491CC16070470021FBE7000000208E
:1039B00005488188A1F57F42FF3A03D08188491CE0
:1039C000818070470021FBE7000000202DE9F047CF
:1039D0000F4681460026DFF8B88054E009EBC61593
:1039E00005F10B002BA1FCF7D8FB48B100224021C8
:1039F00044464046FDF701F90122202120463FE0E0
:103A0000E86FFFF795FF0446A869012804D0022853
:103A100013D0032836D121E0204D04F001021021FB
:103A20002846FDF7EAF8C4F3400208212846FDF7CE
:103A3000E4F8C4F38002042121E004F001024021F3
:103A400045464046FDF7D9F8C4F3400220212846F8
:103A5000FDF7D3F8C4F38002102110E004F0010256
:103A60004FF4806145464046FDF7C7F8C4F3400275
:103A700002212846FDF7C1F8C4F38002012128463F
:103A8000FDF7BBF8761CBE42A8DBBDE8F08700005E
:103A9000000C014053544550000000000008014054
:103AA0000FB4F0B5A1B00125002426AF0DF10B062F
:103AB00007EBC411802268461031FCF743FBDDE9B7
:103AC000120188420AD00998012807D007980128D6
:103AD00004D108A13046FCF760FB10B90898012812
:103AE00000D10025641C032CE2DB21B02846F0BC89
:103AF0005DF814FB44430000094A0146012807D041
:103B0000022908D0032809D191141046FDF76CB89A
:103B10004FF48071F9E74FF40061F6E77047000059
:103B20000008014070B50446C069012550B1206A03
:103B3000012809D0606A012803D0D4E91201884223
:103B400000D00025284670BDA069FFF7D5FF0128E9
:103B5000F7D100202062F5E7ADF5407DFDF716FCBA
:103B6000FFF786F8FEF724FFFEF7BAFFFFF74CF8E1
:103B7000FEF7D8FF002211461F20FDF767FC1F202B
:103B8000FDF758FC002211462020FDF75FFC2020A5
:103B9000FDF750FC002201211920FDF757FC1920E8
:103BA000FDF748FC012211461B20FDF74FFC1B20AE
:103BB000FDF740FC4D48FDF795F908B1FCF7C2FE52
:103BC0004BA0FFF7B7FA01214E48FFF797FE0146D9
:103BD000802260A8FCF7B6FA02214A48FFF78EFE61
:103BE0000146802280A8FCF7ADFA03214548FFF783
:103BF00085FE01468022A0A8FCF7A4FA032160A854
:103C0000FFF7E4FE012000F05DFF00210120FFF737
:103C1000A1FD3C4C183C00250020FFF761FE415DF2
:103C200039A0FFF787FA39A0FFF784FA6D1C1C2D25
:103C3000F2DB37A0FFF77EFA40F237220D2135A0E4
:103C400000F07EFD4FF0FF33032236A13648FEF729
:103C50005DFA4FF4FA70FCF7D7FE20780228DAD12B
:103C6000E0682169884239D030A000F0F3FE31A02D
:103C7000FFF760FA2348C16835A0FFF75BFAE068F8
:103C8000FFF72EFE1F4900F081FD1E49354801F067
:103C90001BF93448FDF740FF1A4D4FF4C07610353C
:103CA000324629466846FCF74DFA04F118000FC861
:103CB000FFF7F6FE0128F3D1FFF76EFE2948FDF766
:103CC00037FF01212748FEF74DF902212548FEF76D
:103CD00049F903212348FEF745F99CE7E06821698B
:103CE000884298D1012000F0EDFE94E7CC17002027
:103CF000537461727465642050726F6772616D0AEB
:103D00000000000018000020257800002C000000B2
:103D10000A0000005465737469666974776F726B8A
:103D2000730000000A0D0000601800204F52414E41
:103D30004745000050726550726F63657373656428
:103D400020496E737472756374696F6E0A000000A7
:103D50007375626D616368696E652069642C2025E6
:103D600064000000201800202DE9F04D1D460C468F
:103D700098B0174621F0004123F00043002814BFFB
:103D80004FF0010C4FF0000C0CEB440CFE4A0CEB16
:103D900002064FEA620C66452BD33E0018BF01268F
:103DA00006EB45061644F94A964222D3F84A53EAEE
:103DB000070C02D0944205D148B918B00020114632
:103DC000BDE8F08D002808BF4FF0000C01D04FF087
:103DD000010C0CEB440212F5001F0AD8002F14BF8F
:103DE0004FF0010C4FF0000C0CEB450212F5001FD8
:103DF00007D918B03A462B462146BDE8F04DFFF7EB
:103E00002FBA0022DFF88CA3002CB8BF534526DA66
:103E1000DFF884C36345A8BF022220DADFF870C34D
:103E20009C451CDCDFF874C30CEB235CBCF1140F65
:103E300008DDCCF1340627FA06FC0CFA06F6BE4281
:103E40000DD108E05FB9CCF1140623FA06FC0CFA98
:103E500006F69E4203D10CF00102C2F1020251EAC1
:103E6000000C19D1002D17DA002C18BF022A01D03E
:103E7000012A07D00220FFF71BFA18B0BDE8F04D69
:103E8000FFF7E6B90220FFF713FAFFF7E1F918B0E0
:103E900081F00041BDE8F08DB7F1000C6CD15345C5
:103EA00025D104F1804212F5801201BF00280020C4
:103EB000B74918B008BFBDE8F08DB548884207DCA7
:103EC000002DA1BF6046294618B0BDE8F08D07E07F
:103ED000281E05DA80F0004118B06046BDE8F08D7C
:103EE000AF497944D1E9000118B0BDE8F08DDFF8A1
:103EF000A0C2634525D1002D1FDA19B1514512D159
:103F0000D8B909E0002840F0EC82A24A214618B056
:103F100062F31E01BDE8F08D0020214618B060F369
:103F20001E01BDE8F08D08DA18B02346BDE8F04D5B
:103F3000024600206146FCF757BA18B02146BDE89A
:103F4000F08D514518DAB5F1804F0DD0A5F1005C28
:103F5000BCF1FF5C10D1B4F1000C0DDB18B0614670
:103F6000BDE8F04D00F042BF234618B00246BDE860
:103F7000F04D1946FCF7C6B9060024F0004C3BD1C1
:103F8000D9B1514533D1002C06DD002DA1BF002051
:103F9000514618B0BDE8F08D002C01DD002D1BDB73
:103FA000002C13DA002D11DB012A4FF0000014BFA2
:103FB00078497C4918B0BDE8F08D022A18BF002C62
:103FC0000AD0012A08D1002C06DA0AE0002CB8BF7A
:103FD000002D11DA012A04D0002018B00146BDE8F6
:103FE000F08D18B000204FF00041BDE8F08DA1F138
:103FF0004050B0F17F601AD0012000EBE47050EA2D
:10400000020421D0624C521E4FF0000B104304BF3B
:104010004FF0000B644C654883427CDD644A654880
:1040200093421FDD884217DB002D25DB37E0002C93
:1040300000DA4AB1022A0CBF01204FF0FF3018B05D
:10404000BDE8F04DFCF73FBA0120FFF731F918B099
:10405000BDE8F04DFFF706B94D4A8A4202DC002D5B
:104060000ADC1CE0814202DA002D18DA04E0484B39
:10407000994220DD002D12DD0220FFF719F9FFF72C
:10408000F7F805460E460022534658462146FCF7EF
:1040900039F918B066F31E012846BDE8F08D0220FC
:1040A000FFF706F9FFF7ECF80A46214618B062F36D
:1040B0001E01BDE8F08D002230466146FCF71CF978
:1040C00080460E466FF00102FCF7F5FA4FF05532CC
:1040D000394BFCF714F942463346FCF713F900223A
:1040E000364BFCF70CF982464246334604911046A3
:1040F0001946FCF707F95246049BFCF703F98A4678
:1041000000904FF0C0422E4B40463146FCF7FAF883
:104110002C4A2B4B00E027E0CDE9060151460098E0
:10412000FCF7F0F882460191274A284B4046314679
:10413000FCF7E8F85246019BFCF7DEF882460B4696
:1041400002460591DDE90601FCF735F8DDE90623B5
:10415000002688463046FCF7CFF85246059BFCF710
:10416000CEF8024600F07EB90020B1F5801F07DAD4
:10417000352230466146FCF79EFA06466FF0340061
:1041800000EB215024E00000FFFF1F00FFFF0F00A5
:104190000000F03F0000F07F0000404301FCFFFF03
:1041A000FA1700000000F0FF0000F0BF0000E0413F
:1041B0000000F043FFFFEF3F5555D53F0000E03FC3
:1041C0004715F73FFE822B6544DF5DF80BAE543E8A
:1041D000A0F2FF300190C1F3130040F07F6141F085
:1041E00040510291FE498842D8BF002004DDFD49BC
:1041F0008142C8BF012001DD0D9008E000200D9034
:104200000198401C01900298A0F58010029002993C
:10421000F54878440B910D9900EBC100D0E90023DB
:104220000F9330460A920B99FCF766F8CDE9060128
:10423000DDE90A2130460F9BFBF7BDFF02460B4626
:104240000020EA49FCF7D0F8059102460B460090A1
:10425000DDE90601FCF756F81490E5488A464FF070
:10426000000878440299006812904FF0005040EA2C
:1042700061010D980F9B01EB804000F50021099131
:104280000A9A1298FCF738F832460B9BFCF737F87D
:1042900042465346FCF736F80646029140465146E0
:1042A000099B129AFCF72EF8DDE90623FCF727F8A4
:1042B0003246029BFCF720F8059B009AFCF722F897
:1042C0000091149A0490534610461946FCF71AF8C8
:1042D00006460246C7480B46029106217844FEF77F
:1042E00061FFCDE90510029B324610461946FCF7E6
:1042F00009F8DDE90532FCF705F805910646534655
:1043000040461946149AFBF756FF009B049AFBF7A8
:10431000F9FF3246059BFBF74EFFCDE905104246FB
:10432000534610461946FBF7EDFF0022B24B0291AF
:104330000A90FBF740FFDDE90532FBF73CFF0E4634
:104340004246AD4B4046FBF7D7FF029B0A9AFBF76C
:10435000D3FFDDE90532FBF7D2FF424602910A9016
:10436000334610465146FBF7CDFFCDE906015346D3
:10437000149A02990A98FBF7C5FF8A4602903346C1
:10438000424600990498FBF7BDFF5346029AFBF79B
:1043900012FF82460B4602460591DDE90601FBF756
:1043A0000AFFDDE90623002088460646FBF7A4FF46
:1043B0005246059BFBF7A3FF824609914FF06042EE
:1043C0008E4B30464146FBF79DFF049006918C4A88
:1043D0008A4B50460999FBF795FF82460291894A1C
:1043E000894B30464146FBF78DFF5246029BFBF757
:1043F000E2FE864B7B440D9A03EBC203D3E9002314
:10440000FBF7D9FE0E9007910198FCF75CF8059137
:10441000DDE9061382460E9A0498FBF7CCFE7C4A2F
:104420007A440D9B02EBC303D3E90023009302926D
:10443000FBF7C1FE5246059BFBF7BDFE00268846F2
:1044400052463046059BFBF757FF009B029AFBF74D
:1044500053FF069B049AFBF74FFF079B0E9AFBF74F
:104460004EFF024600200B46029038462946FBF7D5
:1044700049FF824601912B4638461946029AFBF7BE
:104480003BFF32464346FBF73DFF5246019BFBF79D
:1044900092FE07468A463246434629460298FBF773
:1044A00031FF05460E463A465346FBF784FE594A0D
:1044B0008846914221DBA8EB020353EA000210D1A7
:1044C0002A463346FBF718FFCDE90401524A534B05
:1044D00038465146FBF76FFEDDE90423FCF78AF905
:1044E00021D20220FEF7E4FEFEF7C2FE0A46214674
:1044F00018B062F31E01BDE8F08D494B28F0004270
:104500009A4210D3474A08EB020353EA00027FF4B1
:10451000C6AD2A463346FBF7EFFE3A465346FCF754
:1045200069F97FF6BCAD0022019228F000403E49B7
:104530003E4A01EB2051824223DA481C4FF480119D
:1045400021FA00F040443A4AC0F30A517A44394B08
:10455000A1F2FF31CB4020EA0303C0F3130040F483
:104560008010C1F11401C84012680190B8F1000F29
:10457000BCBF4042019028463146FBF7BDFE0546D0
:104580000E462A46334638465146FBF714FE4FF096
:1045900000084246284B40460591FBF7B3FECDE9A3
:1045A0000601264A264B40460599FBF7ABFE0091D3
:1045B00002902A46334640460599FBF79DFE3A464F
:1045C0005346FBF79CFE1F4A1F4BFBF79BFE009BCD
:1045D000029AFBF7F0FD0746884602460B4635E097
:1045E0008E9803007AB60B00421400000000F03FE2
:1045F0007A140000A81300000000084009C7EE3F2D
:10460000FD033ADCF5015B14E02F3EBE8012000092
:104610004412000000009040FE822B654715973C35
:1046200000CC904000346F3F01FCFFFF0000E03FF2
:1046300090110000FFFF0F00432EE63F396CA80CDD
:10464000615C20BEEF39FAFE422EE63FDDE906014D
:10465000FBF7B1FDDDE9062305460E46FBF74CFEF0
:104660003A464346FBF74BFE0F462A463346009038
:1046700010461946FBF746FE824602462E488846FB
:104680000B4605217844FEF78DFD52464346FBF765
:1046900039FE2A463346FBF732FE80468A463B46C1
:1046A00028463146009AFBF72DFE3B46009AFBF761
:1046B00082FD0691009000224FF080434046514613
:1046C000FBF71AFE0F460C904246534628463146E9
:1046D000FBF718FE3B460C9AFBF786FE069B009AFA
:1046E000FBF70AFE2A463346FBF706FE0022134B71
:1046F000FBF705FE054601980E4601EB0051081533
:10470000002810DC28463146019AFBF7D4FFFEF75B
:1047100035FD042808BFFEF7B3FD28463146019A4F
:10472000FBF7C9FF05460B4618B02A4658462146F6
:10473000BDE8F04DFBF7E6BD301000000000F03F93
:1047400070B515460446FBF721FD82B24FF0FF33EA
:1047500021460B48FDF7DAFC2A460AA10A48FEF773
:10476000F9FC82B24FF4FA7307490548FDF7CEFC15
:104770000020054902460A54401C1028FBDB70BD8E
:104780006018002025640000DC0100202DE9F34FB3
:10479000044697B032A0FEF7CDFC384A0BAB00259B
:1047A00007CA83E80700601C1090A01C04F1030BEB
:1047B00004F1040A04F10509A61D0F900BA850F896
:1047C0002500215C8A091392C1F340121592C1F3AE
:1047D0000017C1F3C002C1F38001CDE9081210999E
:1047E00010F80B3010F80A2010F801800F9942EAF7
:1047F000032210F801C010F80910805D4CEA082C63
:1048000040EA0128CDF81CC003921FB31CA0FEF79C
:1048100091FC13991898FFF771F813904046FBF735
:1048200052FE804605910398FBF74DFECDE903103B
:104830000798FBF748FE059BCDE90683039BCDE96E
:10484000020105931598DDE9083200903946139866
:1048500000F068F96D1C032DB0D319B0BDE8F08FDE
:1048600050726F63657373496E73747275637469A4
:104870006F6E456E74657265640A0D0030560008EF
:104880005465737420737475666666200A000000B0
:1048900010B5254C012807D0022818D003282CD0A9
:1048A000BDE81040FCF74EB8012901D011B106E077
:1048B000012200E0002201212046FCF79EF901229E
:1048C00002212046FCF799F90022022127E04FF44B
:1048D0000040012901D011B106E0012200E00022D0
:1048E00001462046FCF789F9104C01220821204698
:1048F000FCF783F90022082111E0012901D011B150
:1049000006E0012200E0002240212046FCF775F974
:10491000012280212046FCF770F9002280212046E8
:10492000BDE81040FCF769B900080140000C0140E7
:104930002DE9F04D07460E46FBF7D4FE04460D4622
:104940003A463346FBF7DBFCDFF86CA0DFF86CB0CF
:104950001B4B0746884616F0004F4FF000020AD066
:10496000FBF7E2FD0AD900225B4638464146FBF7D9
:1049700041FF1BD212E0FBF7D7FD08D200225346BD
:1049800020462946FBF7B8FC04460D460EE00022FF
:104990005B4638464146FBF72DFF07D800225346B9
:1049A00020462946FBF707FC04460D4631462046C3
:1049B00065F31E01BDE8F08D0000F03F0000E03F10
:1049C0000000E0BF01290AD0022913D003290DD12C
:1049D0000068012AC16817D021F0080105E00068CD
:1049E000012AC16803D021F00201C160704741F083
:1049F0000201FAE70068012AC16802D021F004012F
:104A0000F3E741F00401F0E741F00801EDE70000B1
:104A1000074A012805D0022805D0032805D0FBF756
:104A200091BFD1807047118170475181704700005C
:104A300000000020014A505470470000010000208F
:104A4000034BC1EBC10103EB8101885470470000A7
:104A5000EC0100202DE9F041074614A1FBF79DFB76
:104A60004FF48046124C7500A8B112A13846FBF7EE
:104A700094FB90B111A13846FBF78FFB78B100226F
:104A800031462046FCF7B9F8002229462046BDE809
:104A9000F041FCF7B2B80122F2E7002200E0012267
:104AA00031462046FCF7A9F80122EEE752454400C2
:104AB000000C0140475245454E0000004F52414E08
:104AC0004745000010B5104C012807D003280AD034
:104AD000022810D1207803280ED010E00BA0FFF799
:104AE000B9FF012006E00B48FDF722F80AA0FFF706
:104AF000B1FF0320207010BD0648FDF70DF808A097
:104B0000FFF7A8FF0220F5E70000002047524545C7
:104B10004E000000201800204F52414E4745000033
:104B2000524544002DE9FF4FA3B00446DDE932852C
:104B30008DA0FEF7FFFA04F110008EA11C90FBF788
:104B40002CFB28B18CA11C98FBF727FB88B35AE0FB
:104B5000702268461C99FBF7F5FA94E80F00FEF7FF
:104B600093FED4E91C23FEF723FED4E91C2306465A
:104B70000F4640462946FBF7BFFB82468946324630
:104B80003B46FBF7B9FB21F00043834600933246D6
:104B90003B4640462946FBF7AFFB8846054621F0D9
:104BA00000415A46009BFBF7BFFC03D82E46474600
:104BB00008E017E032463B4650464946FBF79CFB6F
:104BC00006460F46702268461C99FBF7BBFA94E82C
:104BD0000F00FEF759FE32463B46FBF7ECFA8146E2
:104BE0008A4610E0702268461C99FBF7ABFA94E8FD
:104BF0000F00FEF749FE42462B46FBF780FB0646B8
:104C00000F46C146AA4604F1080178226846209161
:104C1000FBF798FAD4E900233046394600F0BAF998
:104C2000FBF762FC2190002816DB78226846209969
:104C3000FBF788FAD4E90023DDE9340100F0AAF992
:104C400005468846782268462099FBF77BFAD4E926
:104C50000023DDE936011EE0DDE9345181F0004832
:104C6000782268462099FBF76DFAD4E9002328469C
:104C7000414600F08FF98846DDE936B181F0004108
:104C800005461E91782268462099FBF75BFAD4E925
:104C9000002358461E9900F07DF9229021988B46FA
:104CA0004000FBF710FCCDE9020100224FF08043E9
:104CB00028464146FFF758F8CDE9000100224FF0A1
:104CC000804359462298FFF74FF8DDE90023FBF7B0
:104CD00013FBDDE90223FBF787FBCDE91E012498D6
:104CE000E06125982062269860623098A062304684
:104CF0003946FBF7F9FB0746DDE93601FBF7F4FB24
:104D00000646DDE93401FBF7EFFB3A463146FEF794
:104D10000BFDC4E90C010020C4E90E0021982064B9
:104D2000A06C6064782268462099FBF70BFAD4E9FE
:104D300000234846514600F02DF9FBF7D5FB4C34D3
:104D40004146A4E82101284664E81658229BC4E99C
:104D5000183BDDE91E23C4E91A23FEF7EBFCA0672C
:104D600027B0BDE8F08F0000676F7420686572653A
:104D70000A000000524F54004E4F524D00000000F8
:104D800010B50446D4E91A01D4E90E23FBF7BAFAA8
:104D9000D4E91423FBF70FFAC4E91601FEF7CAFCA5
:104DA000A06710BD30B403460C4690B2012904D070
:104DB000022C05D0032C08D105E01968486304E0F3
:104DC0001968886301E01968C863204630BC110C7B
:104DD000FFF71EBE00688AB24262080CAFF3008083
:104DE0000149888070470000000000202DE9F04153
:104DF00006460F46FBF728FD041E0D4618BF01208E
:104E0000284320F00040C0F17F6000F1E040C00F77
:104E10000ED0301C18BF0120384320F00040C0F1F4
:104E20007F6000F1E040C00F04BF0120FEF740FAB0
:104E300020462946BDE8F08170B504468569C26CFC
:104E4000D4E908031F49012B1BD0A06A012824D0F4
:104E5000002835D1A06C401EA064A06F90FBF1F03B
:104E6000FBF731FBD4E90E23FBF7A5F9C4E90E01EA
:104E70002046FFF785FF00212846BDE87040FFF778
:104E800007BD0128E6D0A06C101A01D4024600E04C
:104E9000424290FBF2F00128DCD1A06C401CA064DF
:104EA000A06F90FBF1F0FBF70EFBD4E90E23FBF7AC
:104EB00082F9C4E90E012046FFF762FF0121DBE71A
:104EC00070BD000040420F002DE9F0410E4607463C
:104ED000FCF72EFE01213846FDF76AF8022138461C
:104EE000FDF766F803213846FDF762F800213846E1
:104EF000FFF770FF002529463046FEF7FFFC044609
:104F0000C06917A1012804F10B0003D0FBF745F994
:104F100090B11FE0FBF741F9E0B90121A069FEF76C
:104F200019FC3846A26FA169FFF73CFF0122384601
:104F3000A169FFF747FD0DE000223846A169FFF7A0
:104F400041FD00223846A169FFF72CFF0021A0692E
:104F5000FEF700FC6D1C032DCDD3BDE8F0810000F1
:104F600053544550000000002DE9F04105460E461F
:104F70000846FEF7D9FC04462846FEF7EFFC074634
:104F80003046FEF7D3FCC21921462846BDE8F04161
:104F9000FFF708BF2DE9F04706461348DDE9224533
:104FA000814603460F4600223046DDF89480FBF729
:104FB000BBFA03D100204946BDE8F087C82108FBB1
:104FC00001F0FBF780FA32463B46FBF79BF922469D
:104FD0002B46FBF709FAFFF7ABFCFBF785FABDE8B8
:104FE000F047FBF770BA00008087C3400000000064
:104FF00048616E646C6572000000000001000000F2
:105000005261696C206D6F746F720053544550008B
:105010004E4F524D00000000010000000000000053
:10502000000000000000000001000000000000007F
:105030000000000000000000000000000000000070
:105040000000000000000000000000000000000060
:105050000000000000000000000000000000000050
:105060000000000000000000000000000000000040
:1050700000000000000000400000000001000000EF
:105080005370696E206D6F746F72005354455000F9
:10509000524F540000000000020000000000000019
:1050A00000000000000000000100000000000000FF
:1050B00000000000000000000000000000000000F0
:1050C00000000000000000000000000000000000E0
:1050D00000000000000000000000000000000000D0
:1050E00000000000000000000000000000000000C0
:1050F000000000000000004000000000010000006F
:10510000466C6970206D6F746F7200535445500087
:105110004E4F524D00000000030000000000000050
:10512000000000000000000001000000000000007E
:10513000000000000000000000000000000000006F
:10514000000000000000000000000000000000005F
:10515000000000000000000000000000000000004F
:10516000000000000000000000000000000000003F
:1051700000000000000000400000000001000000EE
:105180004472696C6C000000000000000100000027
:1051900050656E206D6F746F72000053544550005F
:1051A0004E4F524D000000000100000000000000C2
:1051B00000000000000000000100000000000000EE
:1051C00000000000000000000000000000000000DF
:1051D00000000000000000000000000000000000CF
:1051E00000000000000000000000000000000000BF
:1051F00000000000000000000000000000000000AF
:10520000000000000000004000000000010000005D
:105210005370696E206D6F746F720044430000001C
:105220004E4F524D00000000020000000000000040
:10523000000000000000000001000000000000006D
:10524000000000000000000000000000000000005E
:10525000000000000000000000000000000000004E
:10526000000000000000000000000000000000003E
:10527000000000000000000000000000000000002E
:1052800000000000000000400000000001000000DD
:1052900056657274206D6F746F72005354455000E0
:1052A0004E4F524D000000000300000000000000BF
:1052B00000000000000000000100000000000000ED
:1052C00000000000000000000000000000000000DE
:1052D00000000000000000000000000000000000CE
:1052E00000000000000000000000000000000000BE
:1052F00000000000000000000000000000000000AE
:10530000000000000000004000000000010000005C
:105310004D696C6C000000000000000001000000FE
:1053200050656E206D6F746F7200005354455000CD
:105330004E4F524D00000000010000000000000030
:10534000000000000000000001000000000000005C
:10535000000000000000000000000000000000004D
:10536000000000000000000000000000000000003D
:10537000000000000000000000000000000000002D
:10538000000000000000000000000000000000001D
:1053900000000000000000400000000001000000CC
:1053A0005370696E206D6F746F720044430000008B
:1053B0004E4F524D000000000200000000000000AF
:1053C00000000000000000000100000000000000DC
:1053D00000000000000000000000000000000000CD
:1053E00000000000000000000000000000000000BD
:1053F00000000000000000000000000000000000AD
:10540000000000000000000000000000000000009C
:10541000000000000000004000000000010000004B
:1054200056657274206D6F746F720053544550004E
:105430004E4F524D0000000003000000000000002D
:10544000000000000000000001000000000000005B
:10545000000000000000000000000000000000004C
:10546000000000000000000000000000000000003C
:10547000000000000000000000000000000000002C
:10548000000000000000000000000000000000001C
:1054900000000000000000400000000001000000CB
:1054A0004C6174686500000000000000010000000D
:1054B00050656E206D6F746F72000053544550003C
:1054C0004E4F524D0000000001000000000000009F
:1054D00000000000000000000100000000000000CB
:1054E00000000000000000000000000000000000BC
:1054F00000000000000000000000000000000000AC
:10550000000000000000000000000000000000009B
:10551000000000000000000000000000000000008B
:10552000000000000000004000000000010000003A
:105530005370696E206D6F746F7200535445500044
:10554000524F540000000000020000000000000064
:10555000000000000000000001000000000000004A
:10556000000000000000000000000000000000003B
:10557000000000000000000000000000000000002B
:10558000000000000000000000000000000000001B
:10559000000000000000000000000000000000000B
:1055A00000000000000000400000000001000000BA
:1055B00056657274206D6F746F72005354455000BD
:1055C0004E4F524D0000000003000000000000009C
:1055D00000000000000000000100000000000000CA
:1055E00000000000000000000000000000000000BB
:1055F00000000000000000000000000000000000AB
:10560000000000000000000000000000000000009A
:10561000000000000000000000000000000000008A
:105620000000000000000040000000000100000039
:1056300000000000070000000E0000000000000055
:105640000000000001020304060708090000000032
:105650000102030400000000000000000000F03F11
:10566000000000000000F83F000000000000000003
:105670000000004003B8E23F00000000000000000E
:1056800006D0CF43EBFD4C3E033333333333E33F9C
:10569000FFAB6FDBB66DDB3F4D268F515555D53FC8
:1056A00001411DA96074D13F65DBC9934A86CD3F96
:1056B000EF4E454A287ECA3F3E5555555555C53F84
:1056C00093BDBE166CC166BF2CDE25AF6A56113F76
:1056D000F16BD2C541BDBBBED0A4BE726937663E78
:1056E0000000000000000000085700080000002033
:1056F000C0010000EA08000860570008C00100204F
:10570000E01A0000A03200080118500848616E64D9
:105710006C65723201100B5261696C206D6F746F91
:105720007215535445506D4E4F524D1CC1E9100136
:105730003D6C80764054AD5370696E8054524F5426
:105740000A5A0280217980AD466C697080454E4FBF
:10575000524D0A6503802904821084A24A04000085
:04000005080000ED02
:00000001FF
