:020000040800F2
:10000000A01C002001010008E7290008651F000866
:10001000E5290008C1070008792E0008000000004B
:100020000000000000000000000000000B2A000893
:10003000C307000800000000092A00080D2A000874
:100040001B0100081B0100081B0100081B01000820
:100050001B0100081B0100081B0100081B01000810
:100060001B0100081B0100081B0100081B01000800
:100070001B0100081B0100081B0100081B010008F0
:100080001B0100081B0100081B0100081B010008E0
:100090001B0100081B0100081B0100081B010008D0
:1000A0001B010008BD2A00081B010008B12A000836
:1000B0001B0100081B0100081B010008751F000838
:1000C000691F00081B0100081B0100081B01000834
:1000D0001B0100081B0100081B0100081B01000890
:1000E0001B0100081B0100081B010008DFF80CD0F1
:1000F00000F0D8FA0048004745330008A01C002053
:100100000648804706480047FEE7FEE7FEE7FEE7B1
:10011000FEE7FEE7FEE7FEE7FEE7FEE7692A0008E6
:10012000ED000008202A04DB203A21FA02F0002129
:10013000704721FA02F3D040C2F1200291400843F7
:100140001946704740EA01039B0703D009E008C93C
:10015000121F08C0042AFAD203E011F8013B00F88C
:10016000013B521EF9D27047D2B201E000F8012BD8
:10017000491EFBD270470022F6E710B513460A4627
:1001800004461946FFF7F0FF204610BD10B50022C7
:1001900000E0521C835C8C5CA34201D1002BF8D19F
:1001A000D8B2E1B2401A10BD2DE9FE4F804681EA77
:1001B0000300C00F0C46009021F0004123F00045E1
:1001C000B8EB0200A94105D24046214690461C46A4
:1001D0000B46024623F00040104347D0270DC7F3DB
:1001E0000A00C3F30A510290401A019040286BDACA
:1001F000C3F3130040F4801B0098924620B1002303
:10020000D2EB030A63EB0B0B01985946C0F1400295
:10021000504600F0C9F906460D4650465946019A27
:1002200000F0D1F910EB08006141002487EA115277
:1002300084EAE7731A4340D0009A62B3019A012A14
:100240004FEA075215DC001B61EB02014FF0004240
:1002500002EA0752CDE90042001C41F58011324606
:100260002B4600F0D1F903B0BDE8F08F404621469F
:10027000F9E7001B61EB0201001C41F58013001837
:100280005B412018A2F5001747EB030140EAD57047
:10029000B6196D4111E06D084FEA360645EAC075A2
:1002A0004FEA0752001B61EB0201001C41F580116F
:1002B00049084FEA30000019514132462B4603B03D
:1002C000BDE8F04F00F091B90098012240000023F2
:1002D000D0EB020263EBE073009821464FEAE07432
:1002E000B8EB000061EB0401E9E783F000435BE752
:1002F00081F0004158E72DE9FE4F81EA030404F044
:10030000004421F0004100944FF0000B23F0004323
:1003100050EA01045ED052EA03045BD0C3F30A54EE
:10032000C1F30A552C44A4F2F3340194A0FB025407
:10033000C1F3130141F48011C3F3130343F4801399
:1003400001FB024400FB034E840A970A44EA8154ED
:1003500047EA8357A4FB076802958D0A05FB0785CA
:100360004FEA932C04FB0C542705029D4FEA0658D4
:1003700047EA1637B5EB08056EEB070C870E920EB1
:1003800047EA811742EA8312A7FB0201B6EB0B0191
:1003900064EB00042B0D43EA0C335E1844EB1C5055
:1003A000DA465146E7FB0201C5F313044FEA0B336B
:1003B00043EA14534FEA0432019C43EA0603A4F1D2
:1003C0000C040294009CCDE900B400F01DF903B0C8
:1003D000BDE8F08F00200146F9E72DE9F04D81EAF4
:1003E000030404F0004B21F0004514464FF0000ACE
:1003F00023F0004150EA050220D054EA01021DD04A
:10040000C5F30A570246C5F31303C1F31300C1F342
:100410000A5640F4801543F48013A7EB0608101B1E
:10042000D64608F2FD3873EB050002D308F1010847
:1004300001E092185B41B8F1000F03DA0020014699
:10044000BDE8F08D00204FF48011064684460EE092
:10045000171B73EB050705D3121B63EB050306435C
:100460004CEA010C49084FEA300092185B4150EA0F
:100470000107EDD152EA030012D082EA040083EAB8
:100480000501084305D0101BAB4106D20122002311
:1004900006E000224FF0004302E06FF0010253102B
:1004A0001AEB06004CEB085110EB0A0041EB0B0174
:1004B000BDE8F04D00F099B870B521F0004303435A
:1004C0000CD0C1F30A550024D5EB040564EB0403FA
:1004D000D617AD1AB34102DB0020014670BD2018CB
:1004E00041EB025170BD0EB5C10F80EAE0700844C7
:1004F000CA07002140F233438DE80E000A460B463E
:1005000000F082F803B000BD70B5C1F30A5201F0EB
:1005100000450024C1F3130140F2FF3341F4801180
:100520009A4201DA002070BD40F233439A42A2F2AF
:10053000334203DC5242FFF7F5FD00E090402C43CC
:10054000F1D0404270BD000030B5041E71F10004CE
:1005500004DB4FF00044404264EB0101141E73F1D0
:10056000000405DB1C464FF00043524263EB0403DA
:100570008B4208BF824230BD30B5041E71F10004C9
:1005800004DB4FF00044404264EB0101141E73F1A0
:10059000000405DB1C464FF00043524263EB0403AA
:1005A000994208BF904230BD202A04DB203A00FA6D
:1005B00002F1002070479140C2F1200320FA03F3BA
:1005C000194390407047202A06DBCB17203A41FAA6
:1005D00002F043EAE07306E041FA02F3D040C2F1D0
:1005E0002002914008431946704710B5141E73F15C
:1005F000000408DA401C41F1000192185B411A43E3
:1006000001D120F0010010BD2DE9F04D92469B462E
:1006100011B1B1FA81F202E0B0FA80F220329046D4
:10062000FFF7C2FF04460F4640EA0A0041EA0B0109
:1006300053465A46084313D0114653EA010019D0D5
:10064000C8F140025046FFF76DFD05460E46504684
:1006500059464246FFF7A8FF084305D0012004E0B1
:1006600020463946BDE8F08D0020054346EAE07695
:100670002C4337430A986305E40AA0EB08000022E4
:10068000FD0A44EA47540A3002D500200146E9E752
:10069000010510196941DDE9084500196941BDE806
:1006A000F04DA2E7064C074D06E0E06840F001037C
:1006B00094E8070098471034AC42F6D3FFF71AFDD0
:1006C000704C0008904C00082DE9F04D00231A46AC
:1006D0001B1A8A4103DB00200146BDE8F08DC1F3FF
:1006E0000A52C1F3130141F480154FF0000BD107FA
:1006F00002D100186D41521E0027044640F2FF113E
:10070000384601EB620A3E468046024600204FF41E
:100710008011FFF707FDC2197141BB1846EB0100BC
:10072000B4EB030C75EB000C04D3E41A65EB000585
:1007300017460E46241908F101006D418046342801
:10074000E3DDF91946EB0600091BA84103D24FF07F
:10075000FF32134601E0002213461BEB070046EB75
:100760000A51BDE8F04DFFF740BF70B58C1810F886
:10077000015B15F0070301D110F8013B2A1106D1E6
:1007800010F8012B03E010F8016B01F8016B5B1E00
:10079000F9D12B0705D40023521E0DD401F8013BDB
:1007A000FAE710F8013BCB1A921C03E013F8015B47
:1007B00001F8015B521EF9D5A142D8D3002070BDCB
:1007C000FEE7704710B54FF40051044800F057F9A8
:1007D000BDE810404FF47A7000F056B800100140A8
:1007E000002201E000F8012B491E89B2FAD27047BD
:1007F00010B590F821100024022903D00421816350
:1008000001243DE001680A6822F00E020A600168D6
:100810000A6822F001020A601A4A0168914201D175
:10082000012121E0174A1432914201D110211BE02D
:10083000144A2832914201D1891515E0114A3C32FF
:10084000914201D189140FE00E4A5032914202D1F7
:100850004FF4803108E00B4A6432914202D14FF4E8
:10086000801101E04FF08071064A083A5160012181
:1008700080F82110002180F82010416B01B18847D9
:10088000204610BD0800024070B5044600F000F993
:100890000546601C02D004480078044400F0F8F8D3
:1008A000401BA042FAD370BDA80100202DE9F84FEB
:1008B000DFF8A091002309F1040A0AF1040B1C4699
:1008C0004FF00F080BF1040E01270A68A7403A40C9
:1008D000BA4272D1DFF880C14D68A5EB0C066545C0
:1008E0002BD00DDC032D34D005DC35B3012D19D010
:1008F000022D2FD11BE0112D16D0122D2AD119E077
:10090000B6F5881F19D006DCB6F5803F15D0B6F5D0
:10091000801F1FD111E0B6F5001F0ED0B6F5041FE1
:1009200018D10AE0CB6815E0CB681B1D12E0CB683C
:1009300008330FE0CB680C330CE08B682BB1012B34
:100940004FF0080303D0476104E0042302E007618D
:1009500000E00023FF2A01D8064601E000F104066A
:100960004FEA840501D9A5F12005376808FA05FC8E
:1009700027EA0C0703FA05F547EA050737604D68D3
:10098000ED0060D5354DAE6946F00106AE61AD694A
:1009900024F0030605F001050095314D7719BE6876
:1009A000A5072D0F08FA05FC26EA0C06DFF8B4C0EF
:1009B000604503D14FF0000C17E044E0DFF8A8C019
:1009C000604502D14FF0010C0FE0DFF8A0C0604598
:1009D00002D14FF0020C08E0DFF894C0604502D16C
:1009E0004FF0030C01E04FF0040C0CFA05FC4CEA4C
:1009F000060CC7F808C04D68D9F80060ED034D46F5
:100A000001D5164300E096432E604D68DAF8006089
:100A1000AD03554601D5164300E096432E604D6860
:100A2000DBF80060ED025D4601D5164300E0964319
:100A30002E604D68DEF80060AD02754601D51643A4
:100A400000E096432E60641C102CFFF43DAFBDE81F
:100A5000F88F000000040140000011100010024057
:100A60000000014000080140000C0140001001405E
:100A7000001401408068084000D001207047C2681F
:100A80004A40C26070470AB1016170470904FBE740
:100A90000148806870470000A801002070470000EE
:100AA00038B50446A9B102F005FB014601231C221A
:100AB000204600F039FB08B1FFF784FE2068416949
:100AC00080690090BDE83840012251030548FFF7D6
:100AD000DABF02F0F5FA014608230222204600F0B0
:100AE0005CFBE8E70010014070B50446006845690A
:100AF000466830490D420DD0F1050BD5216C41F00F
:100B0000010121646FF4807141612068016841F442
:100B10000041016015F4813F09D0F00507D5206C34
:100B200040F00200206421686FF40070486115F401
:100B3000823F28D0F00526D594F83E30618D94F898
:100B40003D00226B202B08D139B921280ED029284D
:100B50000CD0282801D1212A08D0206C40F00400B4
:100B6000206494F83E00102804D008E0204601F0EC
:100B70003FFD08E02068016841F4007101602168D0
:100B80006FF48060486115F4843F09D0F00507D503
:100B9000206C40F00800206421686FF40060486118
:100BA000206C002804D02046BDE8704001F010BA47
:100BB00070BD0000000101002DE9F05F02680646EB
:100BC000D2F818805469556890F83E006649DFF8FD
:100BD00098A1DFF894B1DFF894918F1C0AF17E0A96
:100BE0000BF13E0B102812D0402810D00C425BD0E5
:100BF000A80559D5936930460021DB435B0700D532
:100C000001219269D243120648D5828947E014F047
:100C1000011F05D0A80503D5304601F076FC10E091
:100C20005148801D044205D0A80503D5706CC0B2A0
:100C3000106106E00C4204D0A80502D5304601F050
:100C4000D7FB18EA090F14D014EA0A0F08D0680578
:100C500006D53C4206D13046BDE8F05F01F045BB09
:100C60003C421FD0A8051DD53046BDE8F05F01F01D
:100C7000FCBA14EA0B0F08D0680506D53C4206D131
:100C80003046BDE8F05F01F099BA3C420AD0A805B1
:100C900008D53046BDE8F05F01F02CBA028B92B265
:100CA000FFF7FEFEBDE8F09F2F480E30044206D04D
:100CB000A80504D53046BDE8F05F01F0DBBC18EABA
:100CC000090F35D014EA0A0F24D0680522D53C421A
:100CD00022D196F83D203046718D0029E2D0416A3C
:100CE0004B1C4362036809781961418D491E418597
:100CF000418D0029D6D1292AD4D101684A6822F42D
:100D000080624A6021210163282180F83D1000F0B3
:100D100003FAC7E73C42C5D0A805C3D5708D0028AB
:100D2000C0D0706A411C716231680078086117E0B8
:100D300014EA0B0F08D0680506D53C4206D13046B0
:100D4000BDE8F05F01F00EBC3C42ABD0A805A9D5D0
:100D5000708D0028A6D01169706A421C7262017001
:100D6000708D401E70859DE7020001000400100098
:100D700090F83D10202901D002207047282180F8EA
:100D80003D1001680A68D20703D10A6842F00102E7
:100D90000A6001680A6842F480620A60006841687B
:100DA00041F44071416000207047704770B5040005
:100DB0001BD094F83D00002520B984F83C50204613
:100DC00000F0EAF8242084F83D002068016821F052
:100DD0000101016000F068FB404A6168914201D85E
:100DE0003F4900E03F49884201D2012070BD3E49A1
:100DF0002368B0FBF1F159606368934206D94FF460
:100E0000967359434FF47A73B1FBF3F12368491C8D
:100E100019626168914210D84900401EB0FBF1F29E
:100E2000521CC2F30B02042A01D2042022E0B0FBC0
:100E3000F1F0401CC0F30B001CE0A268CAB301EB48
:100E4000C10303EB0116431EB3FBF6F35B1C43F433
:100E500080431B0536D06AB301EBC10202EB0111DE
:100E6000401EB0FBF1F0401CC0F30B0040F480408A
:100E700040F400402168C861D4E9070108432168B3
:100E80000860D4E90310084321688860D4E90501AB
:100E900008432168C8602068016841F001010160D1
:100EA0002564202084F83D00256384F83E5000200E
:100EB00070BD00E008E001EB4106431EB3FBF6F312
:100EC0005B1CC6E70120D5E701EB4101401EB0FBEA
:100ED000F1F0401CC0F30B00CAE70000A08601003F
:100EE00080841E0000093D0040420F0070B5FFF7EE
:100EF0003FFF08B1FFF766FC02F0DCF8007878B13C
:100F000002F0D8F80078012820D002F0D3F8007859
:100F100002281DD002F0CEF8007803281CD01DE076
:100F200000240BE002F0D2F8054602F0C3F820449A
:100F300022464078294603F091F8641C02F0BEF87E
:100F4000401EA042EEDC02F021F907E0022000E0A2
:100F5000032003F0D5F801E003F0D6FA00224FF4A5
:100F600000510A48FFF78FFD02F0A8F884B202F0A2
:100F7000A1F82146FFF734FC02F0A6F884B202F093
:100F80009FF82146BDE87040FFF72ABC00100140E1
:100F9000704770477047704710B586B000210091C8
:100FA00001910291039100681349884222D1134CA8
:100FB000A06940F00800A061A069694600F008003F
:100FC00004904FF440700090122001900320039091
:100FD0000B48FFF76BFC0B49486840F0E06040F0BD
:100FE00002004860E06940F40010E061E06900F44C
:100FF0000010049006B010BD0054004000100240E4
:10100000000C01400000014010B502F053F80078D8
:10101000001F07282DD2DFE800F00413334251608F
:10102000740001213A4802F065F802F071F8FFF708
:101030006BFAC0F30720002103F00AF801210DE04C
:101040000221334802F056F802F062F8FFF75CFA2A
:10105000C0F30720002102F0FBFF02212C4802F020
:1010600049F802F055F8FFF74FFAC0B2012102F03B
:10107000EFFF0122BDE8104051032648FFF703BDF2
:101080000321234802F036F802F042F8FFF73CFA59
:10109000C0F30720002102F0DBFF0321DEE701217E
:1010A0001B4802F027F802F037F8FFF72DFAC0F3DB
:1010B0000720002102F0CCFF01211CE0022114488E
:1010C00002F018F802F028F8FFF71EFAC0F3072024
:1010D000002102F0BDFF02210DE003210C4802F0C7
:1010E00009F802F019F8FFF70FFAC0F30720002102
:1010F00002F0AEFF0321064801F0FCFF02F00CF8FD
:10110000B1E70021084602F0A3FF01F0EDFFADE7D3
:10111000180000200010014000224FF40051014847
:10112000FFF7B1BC0010014038B590F83D40282CC5
:1011300031D161B15AB190F83C40012C2BD001243F
:1011400080F83C4004682568ED0702D005E00120E6
:1011500038BD256845F0010525600468256825F43B
:10116000006525602A2480F83D40202480F83E4018
:101170000024046441624285C362418D0185016897
:101180004A698A69009280F83C40486840F4E0600F
:101190004860204638BD022038BD38B590F83D4043
:1011A000282C31D161B15AB190F83C40012C2BD0A0
:1011B000012480F83C4004682568ED0702D005E072
:1011C000012038BD256845F00105256004682568C3
:1011D00025F400652560292480F83D40202480F80E
:1011E0003E400024046441624285C362418D018512
:1011F00001684A698A69009280F83C40486840F476
:10120000E0604860204638BD022038BD0248816851
:101210000278114481607047A8010020074810B58A
:10122000016841F010010160032000F077F8002010
:1012300000F006F800F024F8002010BD0020024065
:1012400070B50D4D04464FF47A712878B1FBF0F07B
:101250000A490968B1FBF0F000F0F8FA48B9102C1F
:1012600007D200222146501E00F038F800206C60A2
:1012700070BD012070BD0000A8010020B401002055
:101280000E4808B5816941F001018161816901F071
:1012900001010091C16941F08051C161C06900F054
:1012A00080500090052000F039F80549486820F08A
:1012B000E06040F00070486008BD0000001002408F
:1012C0000000014000F01F02012191404009800010
:1012D00000F1E020C0F8001170470000F0B40E4BA0
:1012E0001B68C3F30223C3F10704042C00D90424B0
:1012F0001D1D072D01D2002300E0DB1E012606FA8A
:1013000004F56D1E0D409D409E40761E164045EA38
:101310000601F0BC01F068BB0CED00E0064A00F0ED
:10132000070110684FF6FF03184040EA0120034907
:1013300008431060704700000CED00E00000FA0563
:101340002DE9F047DFF8508104460E46D8F800003A
:1013500000F00700B0420CD2D8F8001021F00701CD
:101360003143C8F80010D8F8000000F00700B04280
:101370006DD12068494F810712D5400703D57868A1
:1013800040F4E06078602078000703D5786840F486
:10139000605078607868A16820F0F00008437860B9
:1013A0002078C00742D06068012816D0396802282A
:1013B00016D0890700294ADA796821F00301014330
:1013C0007960FFF765FB0546606841F288310128C6
:1013D0000ED00228894617D024E039688903E9E74E
:1013E0008901E7E7FFF754FB411B494501D916E0A6
:1013F00089467868C0F381000128F3D116E0FFF731
:1014000047FB411B49450AD87868C0F38100022890
:10141000F5D10BE0FFF73CFB411B494502D9032006
:10142000BDE8F087786810F00C0FF3D1D8F8001001
:10143000404601F00701B1420BD9016821F00701D4
:1014400031430160006800F00700B04201D0012084
:10145000E6E72078400705D57868E16820F4E06089
:10146000084378602078000706D57868216920F461
:10147000605040EAC100786000F036F87968084AA8
:10148000C1F30311515CC840064908600020FFF712
:10149000D7FE0020C4E700000020024000100240F8
:1014A000C44B0008B401002004480549006849689D
:1014B000044AC1F30221515CC8407047B4010020C6
:1014C00000100240D44B00080448054900684968F0
:1014D000044AC1F3C221515CC8407047B4010020E6
:1014E00000100240D44B000812A085B00FC88DE850
:1014F0000F0014A0144B006804905968134801F0C1
:101500000C02042A10D0082A0ED1C1F38342C90369
:101510001DF802000AD5596804AAC1F34041515C84
:101520000A4A5043B0FBF1F005B070470849484300
:10153000FAE7000002030405060708090A0B0C0D70
:101540000E0F1010010200000010024000127A007D
:1015500000093D002DE9F84F04460078B64DC0075C
:1015600047D06868C0F38100012807D06868C0F3DD
:101570008100022809D16868C00306D52868800365
:1015800037D5606800286ED033E06068B0F5803FE2
:101590000BD010B1B0F5A02F11D0286820F4803006
:1015A0002860286820F4802002E0286840F4803019
:1015B0002860606888B1FFF76BFA064609E0286882
:1015C00040F480202860F0E7FFF762FA801B64286F
:1015D00073D828688003F7D50BE0FFF759FA064661
:1015E00004E0FFF755FA801B6428F1D828688003CF
:1015F000F7D42078DFF8448280074FF0010A4FF0DB
:10160000000939D5686810F00C0F07D06868C0F37E
:101610008100022809D16868C00306D428688007C1
:1016200013D5206901281ED10FE02069A8B1C8F8A0
:1016300000A0FFF72DFA064604E0FFF729FA801B09
:101640000228C5D828688007F7D52868616920F086
:10165000F80040EAC10028600EE0C8F80090FFF7EB
:1016600017FA064605E0E5E0FFF712FA801B0228AC
:1016700023D828688007F7D4207800072CD5704934
:10168000A069D8B1C1F800A0FFF702FA064604E04D
:10169000FFF7FEF9801B02280FD8686A8007F7D58C
:1016A00068484FF4FA510068B0FBF1F0009000BFB9
:1016B0000098411E0091FAD20EE07CE0C1F8009043
:1016C000FFF7E6F9064604E0FFF7E2F9801B02287F
:1016D00071D8686A8007F7D4207840075BD5E8693D
:1016E0000027C00008D4E86940F08050E861E8694C
:1016F000012700F08050009053480168C90511D4BB
:101700000168834641F480710160FFF7C1F9064624
:1017100004E0FFF7BDF9801B64284CD8DBF800001B
:10172000C005F6D5E06801280AD008B1052813D015
:10173000286A20F001002862286A20F0040002E0F4
:10174000286A40F001002862E06841F2883B88B1D5
:10175000FFF79EF9064609E0286A40F00400286277
:10176000EEE7FFF795F9811B59455BD8286A80079A
:10177000F7D50BE0FFF78CF9064604E0FFF788F990
:10178000811B59454ED8286A8007F7D41FB1E869F4
:1017900020F08050E861E069A8B36968C1F3810175
:1017A000022947D00228484606D0C8F86000FFF753
:1017B0006FF9044639E035E04746C8F86000FFF7A6
:1017C00067F9064604E0FFF763F9801B022829D871
:1017D00028688001F7D4206AB0F5803F05D1686899
:1017E000A16820F4003008436860D4E90801084388
:1017F000696821F4741108436860C7F860A0FFF7B6
:1018000047F9044605E013E0FFF742F9001B022800
:1018100008D828688001F7D50AE0FFF739F9001BDE
:10182000022802D90320BDE8F88F28688001F4D48B
:101830000020F8E70120F6E70010024000004242D5
:1018400080044242B40100200070004010B5401EE8
:10185000B0F1807F01D3012010BD4FF0E024606122
:101860000F21601701F0C0F80020A061072020615F
:10187000002010BD7047704710B590F83C20012A39
:1018800025D0012280F83C20CA688C6822F440727E
:1018900022434C6822F4806222430C6822F40062E6
:1018A00022430C6922F4805222434C6922F40052F4
:1018B0002243896922F480420A43002322F4004231
:1018C0000A4301684A6480F83C30002010BD0220C1
:1018D00010BD30B590F83C20012A20D0012380F8BB
:1018E0003C30022280F83D200268546824F07004E5
:1018F0005460026854680D682C4354600268946810
:1019000024F0800494600268946849680C439460F1
:1019100080F83D30002180F83C10084630BD0220A0
:1019200030BD10B5040003D094F83D0010B107E0BD
:10193000012010BD002084F83C00204600F00CF887
:10194000022084F83D00211D206801F0BDF801202F
:1019500084F83D00002010BD08B500680B4A0C4912
:10196000904207D1886940F400608861886900F47A
:10197000006009E0074A904207D1C86940F00400BE
:10198000C861C86900F00400009008BD002C014047
:1019900000100240000800400168CA6842F00102DD
:1019A000CA600068016841F00101016000207047D1
:1019B0000168CA6822F00102CA600068016A41F247
:1019C0001112114207D1016A9210114203D101682C
:1019D00021F0010101600020704770B5044690F8C5
:1019E0003C00012817D0012584F83C50022084F8DF
:1019F0003D002068826822F0770222F47F428260F4
:101A00000868502836D00DDC202858D005DC80B37B
:101A1000102840D150E0022070BD302852D040281C
:101A200039D13EE060282DD070280BD0B0F5805F12
:101A300003D0B0F5005F2ED110E02068816821F05E
:101A4000070109E0CB68D1E90121206801F07DF8A8
:101A50002068816841F0770181601CE0CB68D1E9A2
:101A60000121206801F071F82068816841F480410B
:101A7000F2E71EE0CA684968206801F021F95021A8
:101A8000206806E0CA684968206801F02AF96021E8
:101A9000206801F064F884F83D50002084F83C0090
:101AA00070BDCA684968206801F00AF940212068C1
:101AB000EFE700212068ECE710212068E9E720210A
:101AC0002068E6E730212068E3E7704770B50446F8
:101AD00000680169C943C90708D1C168C943C9077A
:101AE00004D1891E0161204600F0CFF92068016908
:101AF0004FF00005C943890715D4C168C943890758
:101B000011D4E91E016101202077206880698007D7
:101B1000204602D0FFF7D9FF04E000F0B5F82046D8
:101B200000F0B2F9257720680169C943490717D445
:101B3000C168C943490713D46FF004010161022051
:101B400020772068806910F4407F204602D0FFF79C
:101B5000BCFF04E000F098F8204600F095F92577E6
:101B600020680169C943090716D4C168C943090738
:101B700012D46FF008010161042020772068C06949
:101B80008007204602D0FFF7A0FF04E000F07CF8B9
:101B9000204600F079F9257720680169C943C90614
:101BA00017D4C168C943C90613D46FF0100101618D
:101BB000082020772068C06910F4407F204602D0BA
:101BC000FFF783FF04E000F05FF8204600F05CF9C7
:101BD000257720680169C943090609D4C168C9434A
:101BE000090605D46FF0800101612046FFF742FE2F
:101BF00020680169C943490609D4C168C943490637
:101C000005D46FF040010161204600F040F92068E2
:101C10000169C94389060BD4C168C943890607D441
:101C20006FF0200101612046BDE87040FFF723BE40
:101C300070BD70B5044690F83C0001280DD0012518
:101C400084F83C50022084F83D0042B1042A0AD0B6
:101C5000082A0CD00C2A11D10DE0022070BD20689A
:101C600000F086FF0AE0206800F0AEFF06E0206882
:101C700000F0D8FF02E0206801F000F884F83D5041
:101C8000002084F83C0070BD70B50446007F012838
:101C900023D101F075FA0546012001F0F7F98542DC
:101CA0001BD10121364801F025FA01F03DFB012846
:101CB0000ED00121324801F01DFA02F06FFB012124
:101CC0002F4801F017FA0146204602F03BFC04E0E1
:101CD00000220121204602F083F9207F022823D12F
:101CE00001F04EFA0546022001F0D0F985421BD1E1
:101CF0000221234801F0FEF901F016FB01280ED065
:101D000002211F4801F0F6F902F048FB02211C48AD
:101D100001F0F0F90146204602F014FC04E0002234
:101D20000221204602F05CF9207F042826D101F030
:101D300027FA0546032001F0A9F985421ED10321A7
:101D40000F4801F0D7F901F0EFFA01280FD0032175
:101D50000B4801F0CFF902F021FB0321084801F004
:101D6000C9F901462046BDE8704002F0EBBB2046B1
:101D7000BDE870400022032102F032B970BD0000BE
:101D80001800002010B5040003D094F83D0010B1F5
:101D900007E0012010BD002084F83C00204600F040
:101DA0000CF8022084F83D00211D206800F08CFE14
:101DB000012084F83D00002010BD704710B5044696
:101DC0000068002200F0B6FE0E4841F211122168B0
:101DD0009310814209D1086A104206D1086A18425C
:101DE00003D1486C20F4004048642068016A114225
:101DF00006D1016A194203D1016821F00101016095
:101E0000002010BD002C014010B50268044631B11D
:101E1000042908D008292CD00C2908D12DE0D0683D
:101E200020F0020002E0D06820F00400D060002220
:101E3000206800F07FFE134841F2111221689310D0
:101E4000814209D1086A104206D1086A184203D1BA
:101E5000486C20F4004048642068016A114206D1B1
:101E6000016A194203D1016821F0010101600020DB
:101E700010BDD06820F00800D8E7D06820F010002E
:101E8000D4E70000002C0140704701F099B9704779
:101E900070B5040004D094F83900002510B106E0B4
:101EA000012070BD84F83850204600F023F824202B
:101EB00084F839002068C16821F40051C1602046CF
:101EC00000F022FF2068016921F49041016120683F
:101ED000416921F02A0141612068C16841F4005143
:101EE000C160E563202084F8390084F83A000020BE
:101EF00070BD000030B585B00024009401940294B8
:101F0000039400681449884224D11448816941F43B
:101F100080418161816901F480410491816941F0CE
:101F20000401816180690E4D00F0040004904FF4BB
:101F3000007000900220019003200390694628461B
:101F4000FEF7B4FC2815CDE9000469462846029442
:101F5000FEF7ACFC05B030BD003801400010024077
:101F600000080140FEE700000148FEF7BDBD00008B
:101F7000C81700200148FEF71FBE0000C817002048
:101F800010B5406A01680A6822F480620A60002184
:101F90004185426B5163826B516390F83D30202242
:101FA000602B80F83D2080F83E1007D001680A6859
:101FB00022F001020A60FEF7F8FE10BD016401681C
:101FC0000A6822F001020A60FEF768FD10BD0000F9
:101FD00070B590F83D100446002620250068292998
:101FE0002DD02A292BD094F83D10602904D04168C7
:101FF000090501D484F83D50266384F83E600168E9
:1020000021F40061016020684168090537D5416805
:1020100021F400614160606B344990F82120012A6D
:1020200012D04163606BFEF7E3FB38B320680168B0
:1020300021F00101016084F83D50606B1CE02663D3
:10204000282184F83D10DAE7A06B4163A06BFEF70E
:10205000CFFB98B120684169C943490604D401699E
:10206000606A421C626201702068016821F001010F
:10207000016084F83D50A06B416B88470FE094F8F5
:102080003D1060291DD04169C943490604D4016946
:10209000606A421C626201702046FEF786FE94F878
:1020A0003D0028280CD1206C400709D51048E0627B
:1020B000266384F83D5084F83E602046FEF716FF04
:1020C00070BD84F83D5026644169C943490604D473
:1020D0000169606A421C626201702068016821F037
:1020E000010101602046FEF7D9FCD8E7811F0008F6
:1020F0000000FFFF10B5C26A448D2F4B0168032C0E
:1021000003D0448D022C15D00AE0042A03D0082AFB
:1021100001D09A4203D10A6822F480620A60016801
:102120000A69416A4B1C43620A70418D491E418510
:10213000002010BD042A12D0082A10D09A420ED0D6
:10214000022A0A6802D022F4806201E042F480622E
:102150000A6001684A6822F440724A6008E04A68EE
:1021600022F440724A6001680A6842F400720A6010
:1021700001680A69416A4B1C43620A70418D491E1D
:10218000418501680A69416A4B1C43620A70418DAE
:10219000491E4185202180F83D100021016390F8FF
:1021A0003E2080F83E10402A02D0FEF7F1FEBFE745
:1021B000FEF7F0FEBCE700000000FFFF10B590F84E
:1021C0003D1022294CD1418D032909D901680A69A2
:1021D000416A4B1C43620A70418D491E41853FE0B4
:1021E000022909D0032907D0C16A022901680A68B7
:1021F00018D022F4806217E0C16A022901680A68D7
:1022000007D022F480620A6001680A6842F4006222
:1022100001E042F480620A600068416821F4806154
:1022200041601DE042F480620A6001684A6822F45D
:10223000E0624A6001680A69416A4B1C43620A70A5
:10224000418D491E4185202180F83D100021016308
:1022500090F83E2080F83E10402A03D0FEF798FE0A
:10226000002010BDFEF796FEFAE710B5C16A90F89F
:102270003D20212A21D1428D4AB1416A4A1C426245
:10228000026809781161418D491E418515E02023BE
:102290000022042913D0082911D011F5803F0ED057
:1022A00001684C6824F4E0644C601121016380F8FB
:1022B0003E2080F83D30FEF76CFE002010BD016826
:1022C0004C6824F4E0644C6001680C6844F40074C9
:1022D0000C60026380F83D3090F83E1080F83E209C
:1022E0004029E8D1FEF757FEE7E710B590F83D200A
:1022F00090F83E30C16A048D24B1212A33D0402B9E
:102300002FD073E0212AFAD120230022042912D0F1
:10231000082910D011F5803F0DD001684C6824F4D5
:10232000E0644C601121016380F83E2080F83D306C
:10233000FEF72FFE5AE001684C6824F4E0644C601C
:1023400001680C6844F400740C60026380F83D304E
:1023500090F83E1080F83E204029E9D1FEF71BFEA0
:1023600044E0222A42D1418D21B190F83E1040290B
:1023700006D032E00068416821F48061416035E0B8
:10238000016D31B1016D012911D0016D022915D006
:102390002CE0C16C0129816C02D0C1F3072108E057
:1023A0000268C9B21161016D891C01651EE0816C72
:1023B000C9B202681161016D491CF6E790F83D1041
:1023C000222904D090F83D10212906D00EE00068A3
:1023D000016841F48071016008E0416A4A1C426270
:1023E000026809781161418D491E4185002010BDA8
:1023F00078B590F83E50C26A046B90F83D600023B7
:102400000168222E06D1066D0EB9402D02D0056D51
:1024100025B107E04869886900901CE00569B5F5B9
:10242000404F1AD0458D85B3458D012D20D0428D6A
:10243000022A4AD00A6842F480620A6001684A6847
:10244000120503D54A6842F480524A6001684A691D
:10245000896900910365002078BD4A698A69009204
:102460000A6842F480720A60016D491C0165F2E756
:1024700012F5803F0AD0042A21D0082A1FD0122C3E
:102480001DD0C26A022A09D114E00BE00A6822F4C6
:1024900080620A6001684A68120503D50A6822F45E
:1024A00080620AE04A698A6900920A6842F400720E
:1024B0000A60CFE70A6842F480620A60C6E70A68E9
:1024C00022F480620A600168ECE7C26A022A0A68A4
:1024D0000BD042F400620A6001684A698A6900927E
:1024E0000A6822F480620A6006E042F480620A60B0
:1024F00001684A698969009101684A681205A9D58D
:102500004A6842F480524A60A4E790F83E1040299D
:1025100009D00169B1F5804F10D0016D99B1016DFD
:10252000012915D01CE0016D19B9416C01F0FE01C3
:1025300014E0416CC9B241F001010FE090F83D1088
:102540002129F6D1F1E7416CF02201F4407103E05A
:10255000416CF12201F4407142EAD111006801613D
:10256000002070472DE9F04190F83D500446408D21
:10257000D0B320680169606A421C62620170608D9C
:10258000401E608500F096FD0078618D2226282788
:102590001B291AD12A2D18D104280BD0052809D0BF
:1025A000062807D0072805D0082803D0092801D01D
:1025B0000A280AD12068416821F4806141602663BD
:1025C00084F83D702046FEF71FFD608D60B92A2D0E
:1025D0000AD12068416821F480614160266384F853
:1025E0003D702046FEF710FD0020BDE8F0810000A0
:1025F0002DE9F04190F83D30C26A00251C4F20269D
:1026000001686FF48064042A01D0082A01D1282BC4
:1026100005D0212B17D04C610020BDE8F081C762A6
:102620004A6822F4E0624A6001684C6101680A6805
:1026300022F480620A60056380F83D6080F83E50B5
:10264000FEF754FCE8E7C7622122026380F83D6090
:1026500080F83E504A6822F4E0624A6001684C61AA
:1026600001680A6822F480620A60FEF755FDD3E72C
:102670000000FFFF38B590F83D100268536823F45E
:10268000E06353600268002354690094146844F0C6
:10269000010414600268146824F480641460026801
:1026A000546824050BD590F83D40222C2BD090F88F
:1026B0003D402A2C27D0446B246864684485448DAF
:1026C000E4B15469E443640707D41469426A551CB1
:1026D00045621470428D521E428502685469E4437B
:1026E000640607D41569426A541C44621570428D11
:1026F000521E4285026C42F004020264026C22B156
:10270000FFF766FC1FE0846BD6E72022282909D05A
:102710002A2907D0292905D0046B222C0CD0222984
:102720000AD010E00949C162036380F83D2080F8B7
:102730003E30FEF7DBFB06E0036380F83D2080F8C7
:102740003E30FEF761FC002038BD00000000FFFFB6
:102750002DE9F04186B00025454800950195029588
:102760000395816941F010018161816901F01001D7
:102770000491816941F004018161816901F00401E2
:102780000491816941F0080181618069394E00F04E
:1027900008004FF400540490002221463046FEF712
:1027A00072F9354F002248F2FF013846FEF76BF907
:1027B000DFF8C88000224CF67B414046FEF763F903
:1027C000002280214046FEF75EF900940124CDE905
:1027D0000145694630460394FEF768F848F2C300A5
:1027E00002268DE85100694638460394FEF75EF8EC
:1027F0001C208DE83100694638460394FEF756F8F0
:102800002020CDE900040294694638460394FEF77F
:102810004DF84CF273408DE8310069464046039410
:10282000FEF744F8E002CDE9000402946946404610
:102830000394FEF73BF88020CDE90004CDE9024681
:1028400069464046FEF732F84FF4C850CDE900051E
:10285000694638460295FEF729F808208DE85100B0
:10286000694640460394FEF721F806B0BDE8F081C2
:10287000001002400010014000080140000C01401F
:102880000E4810B50C4901600D49416000215422E9
:10289000C0E902124FF48042C0E904214022C0E99D
:1028A00006120162FEF782FA002803D0BDE810404C
:1028B000FDF788BF10BD000000540040C81700207D
:1028C000801A060010B594B000240E940F94109452
:1028D000119412941C2168461394FDF74CFC1C21A2
:1028E00007A8FDF748FC2F482D4901601F21C0E9CA
:1028F00001144FF6FF71C0E9031444618461FFF7CE
:1029000010F808B1FDF75EFF4FF480500E900EA94D
:102910002448FFF762F808B1FDF754FF2148FFF79C
:1029200031FA08B1FDF74EFF129412A91D48139415
:10293000FEF7CFFF08B1FDF745FF00940194029424
:102940000394049405940022694616480694FFF700
:1029500070F908B1FDF736FF042269461148FFF708
:1029600068F908B1FDF72EFF082269460D48FFF708
:1029700060F908B1FDF726FF0794089409944FF415
:1029800000500A94CDE90B4007A906480D94FEF7C4
:1029900073FF002801D0FDF715FF14B010BD000033
:1029A000002C01401C1800200C4810B50A49016099
:1029B0000B494160002181600C22C160C0E9041212
:1029C0008161C161FFF764FA002803D0BDE81040BF
:1029D000FDF7F8BE10BD0000003801405C18002073
:1029E000A80D0E00FEE770470907090E002806DA59
:1029F00000F00F0000F1E02080F8141D704700F196
:102A0000E02080F80014704770477047FEF7FEBB67
:102A100030B58FB028216846FDF7ADFB14210AA818
:102A2000FDF7A9FB022501200490009510200590D8
:102A300000244FF4C010CDE9084007956846FEF722
:102A400089FD08B1FDF7BEFE0F200A90CDE90B54B9
:102A50000D9401210AA80E94FEF772FC002801D003
:102A6000FDF7B0FE0FB030BD0D48016841F0010127
:102A7000016041680B4A1140416001680A4A1140F7
:102A80000160016821F480210160416821F4FE01A8
:102A900041604FF41F0181600449C0030860704722
:102AA000001002400000FFF8FFFFF6FE08ED00E016
:102AB0000148FFF70BB800001C1800200148FFF781
:102AC00005B800001C180020F0B50268164C174D20
:102AD000174E4FF08047A04205D0B84203D0A8421D
:102AE00001D0B04203D122F070034A681A43A042D9
:102AF00005D0B84203D0A84201D0B04203D122F49D
:102B00004073CA681A434B6922F080021343036082
:102B10008A68C2620A688262A04201D109690163BF
:102B200001214161F0BD0000002C01400004004083
:102B30000008004010B50123046A8B409C430462E6
:102B4000036A8A401343036210BD10B5846842EAE9
:102B5000032224F47F440A432243826010BD82682A
:102B600022F070020A4342F00701816070470000C2
:102B700030B5026A22F001020262036A4268846987
:102B800024F073050C682C4323F002058B682B435B
:102B90000C4DA84206D123F00805CB6843EA050393
:102BA00023F0040307D14D6922F4407245EA02057F
:102BB0008A6942EA050242608461496841630362AE
:102BC00030BD0000002C014030B5026A22F0100236
:102BD0000262026A436884690D6824F4E64444EAA8
:102BE00005248D6822F0200242EA05120C4DA8420D
:102BF00006D1CD6822F0800242EA051222F040029E
:102C000007D14D6923F4406343EA85038D6943EAA4
:102C100085034360846149688163026230BD0000BE
:102C2000002C014030B5026A22F480720262036A0D
:102C30004268C46923F4007324F073050C682C43C4
:102C40008D6843EA05230C4DA84206D1CD6823F4D4
:102C5000006343EA052323F4806307D14D6922F41E
:102C6000405242EA05128D6942EA05124260C4618F
:102C70004968C163036230BD002C014030B5026A6F
:102C800022F480520262036A4268C4690D6824F427
:102C9000E64444EA05248D6823F4005343EA0533EF
:102CA000064DA84204D14D6922F4804242EA8512C1
:102CB0004260C46149680164036230BD002C014078
:102CC00010B5046A036A23F001030362836923F0E9
:102CD000F00343EA021324F00A020A43836102620A
:102CE00010BD10B5036A23F0100303628469036A00
:102CF00024F4704444EA023223F0A00343EA0111B1
:102D00008261016210BD00002DE9F04104460068B7
:102D10000169E26821F4405111430161A168206911
:102D20000143606901432068C26841F20C639A4321
:102D30000A43C26020684169A26921F440711143CD
:102D400041614C4920686426322788423CD1FEF715
:102D5000BBFB00EBC00101EB001061688900B0FB18
:102D6000F1F5FEF7B1FB00EBC00101EB001061686B
:102D7000B8468900B0FBF1F0B0FBF6F06FF0180137
:102D8000484305EB800107EB0110B0FBF6F000F0C3
:102D9000F005FEF799FB00EBC00101EB0010616844
:102DA0008900B0FBF1F0B0FBF6F005EB0015FEF783
:102DB0008BFB00EBC00101EB001061688900B0FBE8
:102DC000F1F7FEF781FB3BE0FEF76EFB00EBC00185
:102DD00001EB001061688900B0FBF1F5FEF764FBC0
:102DE00000EBC00101EB00106168B8468900B0FB40
:102DF000F1F0B0FBF6F06FF01801484305EB8001ED
:102E000007EB0110B0FBF6F000F0F005FEF74CFB0D
:102E100000EBC00101EB001061688900B0FBF1F02C
:102E2000B0FBF6F005EB0015FEF73EFB00EBC00132
:102E300001EB001061688900B0FBF1F7FEF734FB8D
:102E400000EBC00101EB001061688900B0FBF1F0FC
:102E5000B0FBF6F06FF01801484307EB800108EB78
:102E60000110B0FBF6F0216800F00F0028448860E4
:102E7000BDE8F08100380140FEE7490050EAC1207A
:102E800018BF04204A0D18BF40F0010040F2FF7245
:102E9000B2EB515F08BF40F00200012808BF0520D7
:102EA00070472DE9F0414F1E00EBC7010446D1E900
:102EB000000115461E4637F006020DD02A4633465D
:102EC000FDF719FA7F1E04EBC703D3E90023FDF7D2
:102ED0006BF937F00602F1D1022F25D0042F13D061
:102EE000062F18BFBDE8F0812A463346FDF703FAE6
:102EF000D4E90A23FDF758F92A463346FDF7FBF9D2
:102F0000D4E90823FDF750F92A463346FDF7F3F9D3
:102F1000D4E90623FDF748F92A463346FDF7EBF9D5
:102F2000D4E90423FDF740F92A463346FDF7E3F9D7
:102F3000D4E90223FDF738F92A463346FDF7DBF9D9
:102F4000D4E90023BDE8F041FDF72EB90022134675
:102F500010460149FDF741BA0000F03FFDF724B9E2
:102F60000022134610461146FDF737BA40F20132EF
:102F700000204FF0E041FDF79FBA0000024A002018
:102F80001107FDF799BA000001FDFFFF02E008C834
:102F9000121F08C1002AFAD170477047002001E0D3
:102FA00001C1121F002AFBD17047000001490860CF
:102FB00070470000B80100202DE9F0411546044695
:102FC0000A4600200146D44219D01046FDF78BFA7C
:102FD00006460F462046FDF786FA32463B46FDF789
:102FE000E3F804460E462846FDF77DFA0122FDF778
:102FF00063FA22463346BDE8F041FDF7EEB9BDE87D
:10300000F081000070B5002204460D461346FDF71E
:103010009BFA02D10020014670BD22462B46BDE836
:10302000704000200149FDF7D8B9000080842E418E
:10303000012806D0134B02280DD0032814D0FDF729
:10304000C1BB1148012904D000291AD10122202135
:1030500013E00022FBE7012904D0002911D101224D
:10306000802109E00022FBE74FF40060012906D02F
:10307000002906D1012201461846FDF704BD0022B1
:10308000F9E77047000C01400008014010B50849FD
:10309000012807D0022807D0032807D0FDF792FBAC
:1030A000204610BDCC88FBE70C89F9E74C89F7E78F
:1030B0000000002000487047BC0100201C20704721
:1030C0000048704701000020022070470148006955
:1030D00070470000000000200249C0EBC00001EB77
:1030E00080007047E8010020014800787047000028
:1030F0000000002010B50346002203EBC210846AD2
:1031000010308C4203D0521C032AF6DB002010BD85
:10311000D0E9162110467047806CFDF7E4B980694C
:103120007047406F704704280DD004DC012806D09A
:10313000022804D105E0082807D0102807D0002075
:103140007047012070470220704703207047072016
:10315000704710B5012904D0022905D0032906D1F2
:103160000AE00068406B01E00068806B84B200F008
:1031700007F844EA004010BD0068C06BF6E70000A5
:103180000148808870470000000000200548016960
:10319000C82901D1C16819B10169491C0161704791
:1031A000FDF710BB000000200448C168C82903D007
:1031B000C168491CC16070470021FBE70000002086
:1031C00005488188A1F57F42FF3A03D08188491CD8
:1031D000818070470021FBE7000000202DE9F047C7
:1031E0008846814600252C4E51E009EBC51707F1B2
:1031F0000B002AA1FCF7CAFF38B10022402130465B
:10320000FDF741FC012220213DE0B86FFFF78BFF65
:103210000446B869012804D0022814D0032835D107
:1032200021E0204F04F0010210213846FDF72BFC6D
:10323000C4F3400208213846FDF725FCC4F38002A0
:103240000421384620E004F0010240213046FDF719
:103250001AFCC4F3400220213046FDF714FCC4F3ED
:10326000800210210FE004F001024FF4806130462B
:10327000FDF709FCC4F3400202213046FDF703FCD0
:10328000C4F3800201213046FDF7FDFB6D1C45456E
:10329000ABDBBDE8F0870000000C01405354455003
:1032A00000000000000801400FB4F0B5A1B00125F6
:1032B000002426AE0DF10B0706EBC41180226846F0
:1032C0001031FCF73FFFDDE91201884207D0079873
:1032D000012804D108A13846FCF758FF10B9089816
:1032E000012800D10025641C032CE5DB21B0284611
:1032F000F0BC5DF814FB000044430000094A01469D
:10330000012807D0022908D0032809D191141046BA
:10331000FDF7B0BB4FF48071F9E74FF40061F6E7B9
:103320007047000000080140C26901213AB1426AB9
:10333000012A03D0D0E91220824200D000210846A1
:1033400070470000ADF5407DFDF768FFFFF760FBBB
:10335000FFF7FEF9FFF794FAFFF726FBFFF7B2FA43
:1033600054496FF00100096808615348416841F40D
:1033700080614160002211461F20FDF7AFFF1F2032
:10338000FDF7A0FF002211462020FDF7A7FF202017
:10339000FDF798FF002201211920FDF79FFF19205A
:1033A000FDF790FF012211461B20FDF797FF1B2020
:1033B000FDF788FF4148FDF7DBFC08B1FDF702FA95
:1033C00001213F48FFF796FE0146802260A8FCF7E6
:1033D000B9FE02213A48FFF78DFE0146802280A8FF
:1033E000FCF7B0FE03213648FFF784FE0146802239
:1033F000A0A8FCF7A7FE032160A8FFF7EFFE0120BD
:1034000000F07EFE00210120FFF712FE00210220C5
:10341000FFF70EFE00210320FFF70AFE284C183CA0
:1034200020780228FCD1E06821698842E06839D020
:10343000FFF752FE224900F031FD21491D4801F0FD
:1034400013F81C48FEF7A8FA1D4D4FF4C07610354E
:10345000324629466846FCF775FE04F118000FC88D
:10346000FFF722FF0128F3D1FFF79EFE1148FEF778
:103470009FFA01210F48FEF7A1FC02210D48FEF73B
:103480009DFC03210B48FEF799FC00210120FFF76A
:10349000CFFD00210220FFF7CBFD00210320FFF725
:1034A000C7FDBDE721698842BAD1012000F028FE9E
:1034B000B6E700001C180020002004E0C817002018
:1034C000180000202DE9F04D1D460C4698B0174617
:1034D00021F0004123F00043002814BF4FF0010CFD
:1034E0004FF0000C0CEB440CFE4A0CEB02064FEACA
:1034F000620C66452BD33E0018BF012606EB45063D
:103500001644F94A964222D3F84A53EA070C02D0ED
:10351000944205D148B918B000201146BDE8F08D9D
:10352000002808BF4FF0000C01D04FF0010C0CEB4D
:10353000440212F5001F0AD8002F14BF4FF0010CEF
:103540004FF0000C0CEB450212F5001F07D918B024
:103550003A462B462146BDE8F04DFFF7FFBC00225E
:10356000DFF88CA3002CB8BF534526DADFF884C3FC
:103570006345A8BF022220DADFF870C39C451CDC3B
:10358000DFF874C30CEB235CBCF1140F08DDCCF145
:10359000340627FA06FC0CFA06F6BE420DD108E006
:1035A0005FB9CCF1140623FA06FC0CFA06F69E422B
:1035B00003D10CF00102C2F1020251EA000C19D150
:1035C000002D17DA002C18BF022A01D0012A07D0DB
:1035D0000220FFF7EBFC18B0BDE8F04DFFF7B6BCDA
:1035E0000220FFF7E3FCFFF7B1FC18B081F00041C7
:1035F000BDE8F08DB7F1000C6CD1534525D104F135
:10360000804212F5801201BF00280020B74918B08F
:1036100008BFBDE8F08DB548884207DC002DA1BF8A
:103620006046294618B0BDE8F08D07E0281E05DA8F
:1036300080F0004118B06046BDE8F08DAF49794494
:10364000D1E9000118B0BDE8F08DDFF8A0C26345F4
:1036500025D1002D1FDA19B1514512D1D8B909E091
:10366000002840F0EC82A24A214618B062F31E0105
:10367000BDE8F08D0020214618B060F31E01BDE8C2
:10368000F08D08DA18B02346BDE8F04D0246002060
:103690006146FCF7A2BE18B02146BDE8F08D514549
:1036A00018DAB5F1804F0DD0A5F1005CBCF1FF5CDC
:1036B00010D1B4F1000C0DDB18B06146BDE8F04D3F
:1036C00000F046BE234618B00246BDE8F04D19464C
:1036D000FCF711BE060024F0004C3BD1D9B1514596
:1036E00033D1002C06DD002DA1BF0020514618B0BB
:1036F000BDE8F08D002C01DD002D1BDB002C13DA62
:10370000002D11DB012A4FF0000014BF78497C49DD
:1037100018B0BDE8F08D022A18BF002C0AD0012A8B
:1037200008D1002C06DA0AE0002CB8BF002D11DA0F
:10373000012A04D0002018B00146BDE8F08D18B071
:1037400000204FF00041BDE8F08DA1F14050B0F1F4
:103750007F601AD0012000EBE47050EA020421D00F
:10376000624C521E4FF0000B104304BF4FF0000B91
:10377000644C654883427CDD644A654893421FDDA2
:10378000884217DB002D25DB37E0002C00DA4AB138
:10379000022A0CBF01204FF0FF3018B0BDE8F04DF9
:1037A000FCF7A1BE0120FFF701FC18B0BDE8F04D09
:1037B000FFF7D6BB4D4A8A4202DC002D0ADC1CE032
:1037C000814202DA002D18DA04E0484B994220DDEC
:1037D000002D12DD0220FFF7E9FBFFF7C7FB0546CE
:1037E0000E460022534658462146FCF784FD18B089
:1037F00066F31E012846BDE8F08D0220FFF7D6FBD8
:10380000FFF7BCFB0A46214618B062F31E01BDE873
:10381000F08D002230466146FCF767FD80460E467B
:103820006FF00102FCF748FE4FF05532394BFCF7C0
:103830005FFD42463346FCF75EFD0022364BFCF747
:1038400057FD824642463346049110461946FCF71E
:1038500052FD5246049BFCF74EFD8A4600904FF005
:10386000C0422E4B40463146FCF745FD2C4A2B4BBF
:1038700000E027E0CDE9060151460098FCF73BFD4A
:1038800082460191274A284B40463146FCF733FDDA
:103890005246019BFCF729FD82460B4602460591E4
:1038A000DDE90601FCF780FCDDE9062300268846F9
:1038B0003046FCF71AFD5246059BFCF719FD0246FF
:1038C00000F07EB90020B1F5801F07DA35223046BE
:1038D0006146FCF7F1FD06466FF0340000EB215025
:1038E00024E00000FFFF1F00FFFF0F000000F03F7B
:1038F0000000F07F0000404301FCFFFF261600009F
:103900000000F0FF0000F0BF0000E0410000F043C5
:10391000FFFFEF3F5555D53F0000E03F4715F73F0C
:10392000FE822B6544DF5DF80BAE543EA0F2FF3003
:103930000190C1F3130040F07F6141F040510291CA
:10394000FE498842D8BF002004DDFD498142C8BF3E
:10395000012001DD0D9008E000200D900198401C31
:1039600001900298A0F5801002900299F5487844E1
:103970000B910D9900EBC100D0E900230F93304665
:103980000A920B99FCF7B1FCCDE90601DDE90A21A9
:1039900030460F9BFCF708FC02460B460020EA4924
:1039A000FCF71BFD059102460B460090DDE9060180
:1039B000FCF7A1FC1490E5488A464FF000087844D3
:1039C0000299006812904FF0005040EA61010D9892
:1039D0000F9B01EB804000F5002109910A9A129893
:1039E000FCF783FC32460B9BFCF782FC42465346B5
:1039F000FCF781FC0646029140465146099B129A0B
:103A0000FCF779FCDDE90623FCF772FC3246029BE9
:103A1000FCF76BFC059B009AFCF76DFC0091149A77
:103A20000490534610461946FCF765FC06460246CC
:103A3000C7480B46029106217844FFF732FACDE9D8
:103A40000510029B324610461946FCF754FCDDE98E
:103A50000532FCF750FC0591064653464046194690
:103A6000149AFCF7A1FB009B049AFCF744FC324635
:103A7000059BFCF799FBCDE90510424653461046DD
:103A80001946FCF738FC0022B24B02910A90FCF771
:103A90008BFBDDE90532FCF787FB0E464246AD4B5A
:103AA0004046FCF722FC029B0A9AFCF71EFCDDE96B
:103AB0000532FCF71DFC424602910A90334610463F
:103AC0005146FCF718FCCDE906015346149A0299B9
:103AD0000A98FCF710FC8A46029033464246009949
:103AE0000498FCF708FC5346029AFCF75DFB8246FB
:103AF0000B4602460591DDE90601FCF755FBDDE9C1
:103B00000623002088460646FCF7EFFB5246059B3D
:103B1000FCF7EEFB824609914FF060428E4B304637
:103B20004146FCF7E8FB049006918C4A8A4B5046CC
:103B30000999FCF7E0FB82460291894A894B30469D
:103B40004146FCF7D8FB5246029BFCF72DFB864B07
:103B50007B440D9A03EBC203D3E90023FCF724FB5B
:103B60000E9007910198FCF7BEFC0591DDE9061364
:103B700082460E9A0498FCF717FB7C4A7A440D9B08
:103B800002EBC303D3E9002300930292FCF70CFB82
:103B90005246059BFCF708FB0026884652463046F5
:103BA000059BFCF7A2FB009B029AFCF79EFB069B81
:103BB000049AFCF79AFB079B0E9AFCF799FB0246C6
:103BC00000200B46029038462946FCF794FB8246BB
:103BD00001912B4638461946029AFCF786FB32467D
:103BE0004346FCF788FB5246019BFCF7DDFA07468B
:103BF0008A463246434629460298FCF77CFB054636
:103C00000E463A465346FCF7CFFA594A8846914247
:103C100021DBA8EB020353EA000210D12A46334607
:103C2000FCF763FBCDE90401524A534B3846514639
:103C3000FCF7BAFADDE90423FCF79EFC21D202204E
:103C4000FFF7B4F9FFF792F90A46214618B062F37C
:103C50001E01BDE8F08D494B28F000429A4210D376
:103C6000474A08EB020353EA00027FF4C6AD2A4636
:103C70003346FCF73AFB3A465346FCF77DFC7FF6A9
:103C8000BCAD0022019228F000403E493E4A01EBC3
:103C90002051824223DA481C4FF4801121FA00F0AF
:103CA00040443A4AC0F30A517A44394BA1F2FF31F9
:103CB000CB4020EA0303C0F3130040F48010C1F1AD
:103CC0001401C84012680190B8F1000FBCBF404217
:103CD000019028463146FCF708FB05460E462A4669
:103CE000334638465146FCF75FFA4FF0000842462B
:103CF000284B40460591FCF7FEFACDE90601264A1D
:103D0000264B40460599FCF7F6FA009102902A46A8
:103D1000334640460599FCF7E8FA3A465346FCF725
:103D2000E7FA1F4A1F4BFCF7E6FA009B029AFCF7E2
:103D30003BFA0746884602460B4635E08E9803005C
:103D40007AB60B006E1200000000F03FA6120000D1
:103D5000D41100000000084009C7EE3FFD033ADC23
:103D6000F5015B14E02F3EBEAC10000070100000A7
:103D700000009040FE822B654715973C00CC904098
:103D800000346F3F01FCFFFF0000E03FBC0F00006C
:103D9000FFFF0F00432EE63F396CA80C615C20BE8C
:103DA000EF39FAFE422EE63FDDE90601FCF7FCF9A9
:103DB000DDE9062305460E46FCF797FA3A464346E8
:103DC000FCF796FA0F462A463346009010461946ED
:103DD000FCF791FA824602462E4888460B4605219A
:103DE0007844FFF75EF852464346FCF784FA2A46C9
:103DF0003346FCF77DFA80468A463B4628463146E4
:103E0000009AFCF778FA3B46009AFCF7CDF9069148
:103E1000009000224FF0804340465146FCF765FA7F
:103E20000F460C904246534628463146FCF763FA4B
:103E30003B460C9AFCF7D1FA069B009AFCF755FA20
:103E40002A463346FCF751FA0022134BFCF750FA8E
:103E5000054601980E4601EB00510815002810DCBC
:103E600028463146019AFCF727FBFFF706F804289D
:103E700008BFFFF783F828463146019AFCF71CFB80
:103E800005460B4618B02A4658462146BDE8F04D77
:103E9000FCF731BA5C0E00000000F03F2DE9F34F53
:103EA000054626488FB004AB07C883E80700681CA6
:103EB0000D90A81C0C90E81C0B90281D0A90681D02
:103EC00000240990A81D089004A8DDF8208050F86F
:103ED0002420A85CC0F3401100914FEA901AC0F36F
:103EE0000016C0F3C001C0F3800B0D98079112F8C3
:103EF00000C00C98175C0B9847EA0C29135C0A98D1
:103F0000115C0998105C12F8082041EA032842EA83
:103F1000002766B151461098FFF7ECF8CDE902870B
:103F20005B46CDF804903146079A00F019F9641CFD
:103F3000032CC9D311B0BDE8F08F0000B84B0008C6
:103F400010B5254C012807D0022818D003282CD002
:103F5000BDE81040FCF736BC012901D011B106E0E4
:103F6000012200E0002201212046FCF78CFD012205
:103F700002212046FCF787FD0022022127E04FF4B2
:103F80000040012901D011B106E0012200E0002229
:103F900001462046FCF777FD104C012208212046FF
:103FA000FCF771FD0022082111E0012901D011B1B7
:103FB00006E0012200E0002240212046FCF763FDDC
:103FC000012280212046FCF75EFD00228021204650
:103FD000BDE81040FCF757BD00080140000C01404F
:103FE00001290AD0022913D003290DD10068012A22
:103FF000C16817D021F0080105E00068012AC168F6
:1040000003D021F00201C160704741F00201FAE7DC
:104010000068012AC16802D021F00401F3E741F0F1
:104020000401F0E741F00801EDE70000074A01282C
:1040300005D0022805D0032805D0FCF7C3BBD180EA
:1040400070471181704751817047000000000020C7
:10405000014A50547047000001000020034BC1EB9F
:10406000C10103EB8101885470470000E801002082
:1040700070B5054600241CA1FCF788F850B11BA1BF
:104080002846FCF783F838B11AA12846FCF77EF8D9
:1040900020B104E0012402E0022400E003244FF4F4
:1040A0008041164D4E004CB1012C09D0022C0DD090
:1040B000032C0DD0BDE87040FCF784BB002200E06B
:1040C00001222846FCF7DFFC002206E0002200E087
:1040D00001222846FCF7D7FC012231462846BDE8DC
:1040E0007040FCF7D0BC00005245440047524545A3
:1040F0004E0000004F52414E47450000000C014069
:1041000010B5104C012807D003280AD0022810D17E
:10411000207803280ED010E00BA0FFF7A9FF0120A4
:1041200006E00B48FDF744FC0AA0FFF7A1FF0320BF
:10413000207010BD0648FDF72FFC08A0FFF798FF80
:104140000220F5E700000020475245454E000000E0
:104150001C1800204F52414E474500005245440074
:104160002DE9FF4F83B00446DDE9116A103053A1F9
:104170008046DDF840B0139FFCF708F828B150A145
:104180004046FCF703F8E0B11DE0206F96FBF0F12C
:1041900000FB1162A16C91FBF0F300FB1313101AEA
:1041A000D51AA0EB03002A46034600D55542002845
:1041B00000DA5842854201DC154600E01D464E19E2
:1041C00001E0A06C351ACAF10000002D02DBD046D8
:1041D000012102E07F42804600218946069901299B
:1041E00009D1A66CD946BBF1010F08D080466FF00B
:1041F00063054746643E0599012905D00BE0642517
:10420000D04647466436F6E7A16C80464FF04046FC
:10421000C1F140454746E5B36800FCF764F9CDE9D4
:1042200000014046FCF75FF900224FF08043FFF7A2
:1042300049F982468B463846FCF755F900224FF083
:104240008043FFF73FF952465B46FCF74EF8DDE945
:104250000023FCF7C2F882468B460498E06105987B
:1042600020620698C4E909092A4639464046FEF705
:10427000A3FEC4E90C0100212564C4E90E11A06C61
:104280006064C4E913684046FCF72DF904F1580254
:1042900000E00EE082E88300C4E91AABFEF7B2FE4C
:1042A000FCF732F9002800DA4042606707B0BDE849
:1042B000F08F00218A468B46CFE70000524F540012
:1042C0004E4F524D0000000070B50446D4E91A016B
:1042D000D4E90E23FCF70FF805460E46206DFCF7D7
:1042E00002F92A463346FBF75FFFC4E9160102468E
:1042F0000B4600200449FCF770F8FCF705F900288C
:1043000000DA4042606770BD80842E410B46014652
:1043100090B2012B04D0022B05D0032B08D105E06D
:104320000968486304E00968886301E00968C863B4
:10433000110C1846FFF77ABE00688AB24262080C78
:10434000AFF3008001498880704700000000002022
:104350002DE9F04106460F46FCF7B6F9041E0D465E
:1043600018BF0120284320F00040C0F17F6000F119
:10437000E040C00F0ED0301C18BF0120384320F0A1
:104380000040C0F17F6000F1E040C00F04BF012099
:10439000FEF70CFE20462946BDE8F08170B50446C4
:1043A0008569C16CD4E908202E4E012A0BD0012862
:1043B00013D0A06C081A014600D5484291FBF0F0DA
:1043C000012830D010E02846FEF798FF01280BD1D5
:1043D000A0640020E064206206E0A06A01281CD0EE
:1043E000B0B320D000283BD1A06C401EA064606F09
:1043F000FCF779F800223346FBF7EFFFD4E90E23F0
:10440000FBF7D2FEC4E90E012046FFF75DFF002155
:104410002846BDE87040FFF793BDA06C091A01293A
:1044200001D16530E064A06C401CA064606FFCF7B3
:104430005AF800223346FBF7D0FFD4E90E23FBF7EE
:10444000B3FEC4E90E012046FFF73EFF0121DFE77E
:10445000FFE7A06C091A491CC6D16538E064C3E7C0
:1044600070BD000080842E412DE9F0410E460746C4
:10447000FDF79EFA01213846FDF7C6FC02213846B9
:10448000FDF7C2FC03213846FDF7BEFC002138468B
:10449000FFF752FF0025691C3046FEF72BFE04464D
:1044A000C06917A1012804F10B0003D0FBF76EFED1
:1044B00090B11FE0FBF76AFEE0B90121A069FEF7A9
:1044C000B7FD3846626FA169FFF720FF0122384629
:1044D000A169FFF785FD0DE000223846A169FFF7CD
:1044E0007FFD00223846A169FFF710FF0021A06977
:1044F000FEF79EFD6D1C032DCDD3BDE8F0810000BD
:10450000535445500000000070B501240025214699
:104510000B48FEF7EFFD816C641C4562C164042CFE
:10452000F5DB00210120FEF783FD00210220FEF7CC
:104530007FFDBDE8704000210320FEF779BD00003B
:10454000180000202DE9F04105460E460846FEF70A
:10455000E6FD044601462846FEF7FBFD07463046C9
:10456000FEF7DFFDC21921462846BDE8F041FFF7FE
:10457000CDBE00000000000048616E646C657200F2
:1045800000000000010000005261696C206D6F7432
:104590006F720053544550004E4F524D00000000C2
:1045A000010000000000000000000000000000000A
:1045B00001000000000000000000000000000000FA
:1045C00000000000000000000000000000000000EB
:1045D00000000000000000000000000000000000DB
:1045E00000000000000000000000000000000000CB
:1045F00000000000000000000200000000000000B9
:1046000001000000000000005370696E206D6F749F
:104610006F72005354455000524F54000000000088
:104620000200000000000000000000000000000088
:104630000100000000000000000000000000000079
:10464000000000000000000000000000000000006A
:10465000000000000000000000000000000000005A
:10466000000000000000000000000000000000004A
:104670000000000000000000020000000000000038
:104680000100000000000000466C6970206D6F742E
:104690006F720053544550004E4F524D00000000C1
:1046A0000300000000000000000000000000000007
:1046B00001000000000000000000000000000000F9
:1046C00000000000000000000000000000000000EA
:1046D00000000000000000000000000000000000DA
:1046E00000000000000000000000000000000000CA
:1046F00000000000000000000200000000000000B8
:1047000001000000000000004472696C6C000000B1
:10471000000000000100000050656E206D6F746F96
:1047200072000053544550004E4F524D000000009F
:104730000100000000000000000000000000000078
:104740000100000000000000000000000000000068
:104750000000000000000000000000000000000059
:104760000000000000000000000000000000000049
:104770000000000000000000000000000000000039
:104780000000000000000000020000000000000027
:1047900001000000000000005370696E206D6F740E
:1047A0006F720044430000004E4F524D0000000065
:1047B00002000000000000000000000000000000F7
:1047C00001000000000000000000000000000000E8
:1047D00000000000000000000000000000000000D9
:1047E00000000000000000000000000000000000C9
:1047F00000000000000000000000000000000000B9
:1048000000000000000000000200000000000000A6
:10481000010000000000000056657274206D6F7486
:104820006F720053544550004E4F524D000000002F
:104830000300000000000000000000000000000075
:104840000100000000000000000000000000000067
:104850000000000000000000000000000000000058
:104860000000000000000000000000000000000048
:104870000000000000000000000000000000000038
:104880000000000000000000020000000000000026
:1048900001000000000000004D696C6C0000000089
:1048A000000000000100000050656E206D6F746F05
:1048B00072000053544550004E4F524D000000000E
:1048C00001000000000000000000000000000000E7
:1048D00001000000000000000000000000000000D7
:1048E00000000000000000000000000000000000C8
:1048F00000000000000000000000000000000000B8
:1049000000000000000000000000000000000000A7
:104910000000000000000000020000000000000095
:1049200001000000000000005370696E206D6F747C
:104930006F720044430000004E4F524D00000000D3
:104940000200000000000000000000000000000065
:104950000100000000000000000000000000000056
:104960000000000000000000000000000000000047
:104970000000000000000000000000000000000037
:104980000000000000000000000000000000000027
:104990000000000000000000020000000000000015
:1049A000010000000000000056657274206D6F74F5
:1049B0006F720053544550004E4F524D000000009E
:1049C00003000000000000000000000000000000E4
:1049D00001000000000000000000000000000000D6
:1049E00000000000000000000000000000000000C7
:1049F00000000000000000000000000000000000B7
:104A000000000000000000000000000000000000A6
:104A10000000000000000000020000000000000094
:104A200001000000000000004C6174686500000097
:104A3000000000000100000050656E206D6F746F73
:104A400072000053544550004E4F524D000000007C
:104A50000100000000000000000000000000000055
:104A60000100000000000000000000000000000045
:104A70000000000000000000000000000000000036
:104A80000000000000000000000000000000000026
:104A90000000000000000000000000000000000016
:104AA0000000000000000000020000000000000004
:104AB00001000000000000005370696E206D6F74EB
:104AC0006F72005354455000524F540000000000D4
:104AD00002000000000000000000000000000000D4
:104AE00001000000000000000000000000000000C5
:104AF00000000000000000000000000000000000B6
:104B000000000000000000000000000000000000A5
:104B10000000000000000000000000000000000095
:104B20000000000000000000020000000000000083
:104B3000010000000000000056657274206D6F7463
:104B40006F720053544550004E4F524D000000000C
:104B50000300000000000000000000000000000052
:104B60000100000000000000000000000000000044
:104B70000000000000000000000000000000000035
:104B80000000000000000000000000000000000025
:104B90000000000000000000000000000000000015
:104BA0000000000000000000020000000000000003
:104BB00001000000000000000000000007000000ED
:104BC0000E000000000000000000000001020304CD
:104BD00006070809000000000102030400000000AD
:104BE000000000000000F03F000000000000F83F5F
:104BF00000000000000000000000004003B8E23F99
:104C0000000000000000000006D0CF43EBFD4C3E4A
:104C1000033333333333E33FFFAB6FDBB66DDB3F3F
:104C20004D268F515555D53F01411DA96074D13F87
:104C300065DBC9934A86CD3FEF4E454A287ECA3F81
:104C40003E5555555555C53F93BDBE166CC166BF03
:104C50002CDE25AF6A56113FF16BD2C541BDBBBEFC
:104C6000D0A4BE726937663E00000000000000005C
:104C7000904C000800000020BC0100006A070008FA
:104C8000E04C0008BC010020E41A00009C2F000842
:104C90000118764C617468653201200A50656E20F7
:104CA0006D6F746F7215535445506D4E4F524D1CBD
:104CB000C1E9100138DAC8506C53706981398054E9
:104CC000524F540A650280AD5665727480454E4F4E
:104CD000524D0A6503802908821044A24A0400004C
:04000005080000ED02
:00000001FF
